:020000040800F2
:10000000000800209D01000833270008F11D0008AA
:1000100031270008C5070008B134000800000000BF
:100020000000000000000000000000003F2E00085B
:10003000FB0700080000000055280008412E0008BA
:10004000B7010008B7010008B7010008B7010008B0
:10005000B7010008B7010008B7010008B7010008A0
:10006000B7010008B7010008B7010008B701000890
:10007000B7010008B7010008B7010008B701000880
:10008000B7010008B7010008B7010008B701000870
:10009000B7010008B7010008B7010008B701000860
:1000A000B7010008B7010008B7010008B701000850
:1000B000B7010008B7010008B7010008B701000840
:1000C000B7010008B7010008B7010008B701000830
:1000D000B7010008B7010008B70100086134000843
:1000E000B7010008B7010008B7010008B701000810
:1000F000B7010008B7010008B7010008B701000800
:10010000B7010008B7010008B7010008B7010008EF
:1001100005300008B7010008B7010008B701000862
:10012000B7010008B7010008B7010008B7010008CF
:10013000B7010008B7010008B7010008B7010008BF
:10014000B7010008B7010008B7010008B7010008AF
:10015000B7010008B7010008B7010008B70100089F
:10016000B7010008B7010008B7010008B70100088F
:10017000B7010008B7010008B7010008000000003F
:10018000B7010008B7010008DFF80CD000F0F6FA5C
:100190000048004705430008000800200648804743
:1001A00006480047FEE7FEE7FEE7FEE7FEE7FEE75C
:1001B000FEE7FEE7FEE7FEE7C12F00088901000821
:1001C0002DE9F05F0546002092469B46884606468C
:1001D000814640241BE0284641464746224600F01F
:1001E0007AF953465A46C01A914110D3114618461F
:1001F000224600F061F92D1A67EB01084F462246AE
:100200000120002100F058F917EB00094E41201E93
:10021000A4F10104DFDC484631462A46434600F09B
:1002200000B830BCBDE8C09F40EA01039B0703D083
:1002300009E008C9121F08C0042AFAD203E011F825
:10024000013B00F8013B521EF9D27047D2B201E0E7
:1002500000F8012B491EFBD270470022F6E710B5CB
:1002600013460A4604461946FFF7F0FF204610BD24
:100270002DE9FE4F81EA030404F0004421F000411F
:1002800000944FF0000B23F0004350EA01045ED0CD
:1002900052EA03045BD0C3F30A54C1F30A552C4459
:1002A000A4F2F3340194A0FB0254C1F3130141F40E
:1002B0008011C3F3130343F4801301FB024400FBDA
:1002C000034E840A970A44EA815447EA8357A4FB01
:1002D000076802958D0A05FB07854FEA932C04FBFE
:1002E0000C542705029D4FEA065847EA1637B5EB2E
:1002F00008056EEB070C870E920E47EA811742EA5B
:100300008312A7FB0201B6EB0B0164EB00042B0D7B
:1003100043EA0C335E1844EB1C50DA465146E7FBC7
:100320000201C5F313044FEA0B3343EA14534FEAB7
:100330000432019C43EA0603A4F10C040294009CDD
:10034000CDE900B400F01DF903B000F003B80020BF
:100350000146F9E730BCBDE8C08F2DE9F04D81EAD8
:10036000030404F0004B21F0004514464FF0000A4E
:1003700023F0004150EA050220D054EA01021DD0CA
:10038000C5F30A570246C5F31303C1F31300C1F3C3
:100390000A5640F4801543F48013A7EB0608101B9F
:1003A000D64608F2FD3873EB050002D308F10108C8
:1003B00001E092185B41B8F1000F03DA002001461A
:1003C000BDE8F08D00204FF48011064684460EE013
:1003D000171B73EB050705D3121B63EB05030643DD
:1003E0004CEA010C49084FEA300092185B4150EA90
:1003F0000107EDD152EA030012D082EA040083EA39
:100400000501084305D0101BAB4106D20122002391
:1004100006E000224FF0004302E06FF001025310AB
:100420001AEB06004CEB085110EB0A0041EB0B01F4
:10043000BDE8F04D00F096B80EB5C10F80EAE0704F
:100440000844CA07002140F233438DE80E000A46F3
:100450000B4600F096F803B000BD00F0004230F00B
:1004600000400AD0C10D01F56071C0F3160042EAE8
:100470000151C208400711437047002001467047F0
:1004800001F0004330B421F0004150EA010206D0EF
:100490000A0DA2F56072C1F31301002A02DC30BC20
:1004A00000207047440F44EAC104C100E01830BC8A
:1004B00000EBC25000F01FB8202A04DB203A00FAFB
:1004C00002F1002070479140C2F1200320FA03F3AB
:1004D000194390407047202A04DB203A21FA02F0A9
:1004E0000021704721FA02F3D040C2F1200291406E
:1004F0000843194670470029A8BF7047401C4900AF
:1005000008BF20F00100704710B4B0FA80FC00FA78
:100510000CF050EA010404BF10BC704749B1CCF1A3
:10052000200421FA04F411FA0CF118BF012121432F
:100530000843A3EB0C01CB1D4FEA00614FEA1020EA
:1005400042BF002010BC704700EBC350104400298C
:10055000A4BF10BC7047401C490008BF20F0010038
:1005600010BC704710B5141E73F1000408DA401C6B
:1005700041F1000192185B411A4301D120F00100C2
:1005800010BD2DE9F04D92469B4611B1B1FA81F2B2
:1005900002E0B0FA80F220329046FFF78DFF044669
:1005A0000F4640EA0A0041EA0B0153465A46084307
:1005B00013D0114653EA010019D0C8F14002504649
:1005C000FFF789FF05460E46504659464246FFF75B
:1005D00073FF084305D0012004E020463946BDE8FA
:1005E000F08D0020054346EAE0762C4337430A9815
:1005F0006305E40AA0EB08000022FD0A44EA475420
:100600000A3002D500200146E9E7010510196941C9
:10061000DDE9084500196941BDE8F04DA2E72DE983
:10062000FE4F804681EA0300C00F0C46009021F087
:10063000004123F00045B8EB0200A94105D2404635
:10064000214690461C460B46024623F000401043CC
:1006500047D0270DC7F30A00C3F30A510290401A8E
:10066000019040286BDAC3F3130040F4801B00981C
:10067000924620B10023D2EB030A63EB0B0B0198E7
:100680005946C0F140025046FFF716FF06460D4698
:1006900050465946019A00F083F810EB080061417A
:1006A000002487EA115284EAE7731A4340D0009A83
:1006B00062B3019A012A4FEA075215DC001B61EB75
:1006C00002014FF0004202EA0752CDE90042001C4D
:1006D00041F5801132462B46FFF753FF03B000F07F
:1006E00045B840462146F9E7001B61EB0201001CBA
:1006F00041F5801300185B412018A2F5001747EB65
:10070000030140EAD570B6196D4111E06D084FEA5A
:10071000360645EAC0754FEA0752001B61EB02013D
:10072000001C41F5801149084FEA30000019514181
:1007300032462B4603B000F01CB8FFF713BF0098F9
:10074000012240000023D0EB020263EBE07300982B
:1007500021464FEAE074B8EB000061EB0401E9E7E1
:1007600083F000435BE781F0004158E730BCBDE80F
:10077000C08F30BCBDE8C04FFFF7DFBF064C074D50
:1007800006E0E06840F0010394E807009847103461
:10079000AC42F6D3FFF7FCFCB84E0008D84E000878
:1007A000202A06DBCB17203A41FA02F043EAE07335
:1007B00006E041FA02F3D040C2F120029140084322
:1007C00019467047FEE770B505464FF6FF700022E8
:1007D0004AF201040EE0AB5C58400023C60702D089
:1007E00084EA500000E040085B1CDBB2082BF5D324
:1007F000521CD2B28A42EED370BD704710B50E4C77
:1008000001228021204600F05EF9C82001F098FD09
:1008100000228021204600F056F94FF4967001F036
:100820008FFDC82001F08CFD20460122BDE810405C
:10083000802100F048B900000008004870B568B198
:100840002B4C036814222B49A34209D22A4C1C4486
:10085000B4FBF2F29200C0E910120BE0012070BD6F
:10086000234C64421C44B4FBF2F292004264204ADE
:10087000083A0264022280F825201C6847F6F072CC
:100880009443D0E902252A43D0E9045635432A434C
:1008900085692A43C5692A43056A2A4322431A60A7
:1008A0008268B2F5804F15D0036C0F228B4202D1C3
:1008B00051F8A83F02E00E49A0310B6890F844407F
:1008C000A24093430B6090F8443042689A400B6812
:1008D0001A430A600021C162016341638163C163FD
:1008E000012280F8252080F82410084670BD000001
:1008F0000804024000000240F8FFFDBF2DE9F84F58
:10090000DFF898B100234FF0010C4FF0030A4FF0CD
:100910000F090BF1040EB9E00CFA03F4224070D079
:100920004D68022D01D0122D0ED1DD0800EB850897
:10093000D8F820505E07F70E09FA07F6B5430E699E
:10094000BE402E43C8F8206007685E0091F804801E
:100950000AFA06F508F00308AF4308FA06F848EA71
:100960000708C0F800804F68012F05D0022F03D080
:10097000112F01D0122F13D1D0F80880CF6828EAA8
:100980000508B74047EA08078760D0F804800F7968
:1009900028EA0408C7F300179F4047EA08074760A2
:1009A000D1F804806FEA0807BF0706D1C76AA743DA
:1009B000C8F3C0049C403C43C462C468AC438D6827
:1009C000B5402543C5604C68E4005ED5344C256EC7
:1009D00045F001052566246E23F0030504F00104AB
:1009E0000094304C2E19B4689D072F0F09FA07F5B3
:1009F000AC43B0F1904F05D02B4DA84204D1012556
:100A00001CE042E0002519E0284DA84201D1022552
:100A100014E0274DA84201D103250FE0254DA8423F
:100A200001D104250AE0244DA84201D1052505E0A5
:100A3000224DA84201D1062500E00725BD402543EF
:100A4000B560DBF800405D464E689443F60300D580
:100A500014432C60DEF8004075464E689443B6039C
:100A600000D514432C600D4D08352C684E68944316
:100A7000F60200D514432C60084D0C352C684E68E6
:100A80009443B60200D514432C605B1C0A6832FA0A
:100A900003F57FF441AF00F013B8000000040140FB
:100AA0000010024000000140000400480008004817
:100AB000000C0048001000480014004800180048CE
:100AC00018BCBDE8E08F0AB1816170478162704750
:100AD00001480068704700002000002010B5032086
:100AE00000F088F8002000F005F800F017F800206A
:100AF00010BD000010B5044607484FF47A71006835
:100B0000B0FBF1F001F07AF800222146501E00F00F
:100B100051F8002010BD0000240000201E4808B538
:100B2000016E41F001010166016E01F001010091C9
:100B3000816D41F080518165806D00F080500090A2
:100B4000032000F057F8002211466FF00B0000F070
:100B500031F8002211466FF00A0000F02BF8002255
:100B600011466FF0090000F025F800221146501FD1
:100B700000F020F800221146101F00F01BF80022A0
:100B80001146901E00F016F80022BDE808401146FC
:100B9000501E00F00FB800000010024000F01F02CD
:100BA000012191404009800000F1E020C0F80011CF
:100BB00070470000F0B40E4B1B680C46C3F30223D1
:100BC000C3F10705042D00D90425191D072901D2F9
:100BD000002300E0DB1E012606FA05F1491E214034
:100BE00099409E40761E16403143F0BC01F0DEBDB8
:100BF0000CED00E0064900F0070208684FF6FF031D
:100C0000184040EA0220034A104308607047000081
:100C10000CED00E00000FA051549B0F5007F08680A
:100C2000C0F3412009D0022805D0086820F4C06034
:100C300040F480600860002070470128FBD00868FD
:100C400020F4C06040F4007008600A480A4A006856
:100C5000B0FBF2F03222504300E0401E10B14A696E
:100C60005205FAD448694005E5D5032070470000D5
:100C7000007000402400002040420F0002484168FC
:100C800041F4007141607047007000400248006804
:100C900000F4C0607047000000700040F8B50446E2
:100CA000FFF716FF06465CB194F83800012809D01A
:100CB000012784F8387094F83900002520B10BE042
:100CC0000120F8BD0220F8BD84F83850204600F01D
:100CD0003DF841F28830206420680168A2686FF016
:100CE000FF0321F4706103EB022211430160206CC9
:100CF0000090334600222021204601F0ACFDE8B9E7
:100D000021680A680F4B1A40237942EA0362E368BC
:100D10001A430A60D4E905121143226853680A4E47
:100D20003340268A43EA06431943516021680A6822
:100D300042F001020A60E56384F8397084F83850A3
:100D4000F8BD0000EFFFFF00FEF8E0FFF0B500681F
:100D5000154987B0884224D11448016D41F480714F
:100D60000165006D022400F48070059040F6034098
:100D7000002503260A278DE8F10069460C48FFF795
:100D8000BDFDC0208DE8F10069464FF09040FFF7AF
:100D9000B5FD00220F214720FFF70CFF4720FFF78A
:100DA000FDFE07B0F0BD0000001000A000100240E2
:100DB000000400482DE9F84F044600270088E54D5F
:100DC0003E46010504F1200B1DD5606E78B1B0F5EB
:100DD000800F11D0B0F5000F04D0B0F5400F22D035
:100DE00001270FE0E86840F48030E8601BE0002154
:100DF000201D01F055FD03E00021584601F0E6FDFD
:100E0000070010D03E462088C00426D5A06EC0B191
:100E1000B0F1807F1AD0B0F1007F0DD0B0F1407FEB
:100E200019D0012718E0D5F88800616E20F4400041
:100E30000843C5F88800E6E7E86840F48030E860D9
:100E400009E00021201D01F02BFD03E000215846A0
:100E500001F0BCFD0746F7B13E46206880033AD555
:100E6000A86D4FF00008C00009D4A86D40F0805074
:100E7000A865A86D4FF0010800F080500090DFF8E1
:100E8000D8A2DAF8001041F48071CAF80010FFF718
:100E90001FFE814610E0D5F88800A16E20F040705A
:100EA0000843C5F88800D8E7FFF712FEA0EB090059
:100EB000022801D9032705E0DAF80000C005F3D5C0
:100EC000002F7CD04FEA0706B8F1000F03D0A86DC1
:100ED00020F08050A8652078C00707D0D5F888009A
:100EE000A16B20F003000843C5F888002078800734
:100EF00007D5D5F88800E16B20F00C000843C5F851
:100F000088002078400707D5D5F88800216C20F0AC
:100F100030000843C5F888002078000707D5D5F8C9
:100F20008800616C20F0C0000843C5F88800207874
:100F3000C00607D5D5F88800A16C20F4407008439E
:100F4000C5F888002078800607D5D5F88800E16CC0
:100F500020F440600843C5F888002088800507D544
:100F6000D5F88800E16D20F440200843C5F88800DA
:100F70002088400507D5D5F88800216E20F4401060
:100F80000843C5F888002078400607D5D5F88800C2
:100F9000216D20F440500843C5F8880020780006F1
:100FA00007D5D5F88800616D20F440400843C5F8A6
:100FB00088002088C00509D5D5F8880000E01CE02D
:100FC000A16D20F440300843C5F8880020884FF018
:100FD000006780044FF080684FD5D5F88800E16E37
:100FE00020F040600843C5F88800E06EB8423CD16C
:100FF000E86840F48010E8603FE0D5F8900010F415
:10100000407015D0D4F88410814211D0D5F89000EA
:10101000D5F8901020F4407041F48031C5F890105C
:10102000D5F8901021F48031C5F89010C5F89000E3
:10103000C00710D0FFF74CFD074641F2883906E0A3
:10104000FFF746FDC11B494501D903263CE7D5F80A
:1010500090008007F4D5D5F89000D4F8841020F4DF
:1010600040700843C5F890002EE7404505D10121A6
:10107000201D01F015FC00B106462068000317D5BD
:10108000D5F88800216F20F040600843C5F888003B
:10109000206FB84204D1E86840F48010E86007E0AF
:1010A000404505D10121201D01F0FAFB00B10646A3
:1010B0002068400317D5D5F88800616F20F04060A4
:1010C0000843C5F88800606FB84204D1E86840F46E
:1010D0008010E86007E0404505D10121201D01F0A6
:1010E000DFFB00B10646208840041AD5D5F88800F9
:1010F000A16F20F040500843C5F88800A06FB0F100
:10110000805F03D0B0F1005F05D00AE00221201D0E
:1011100001F0C6FB03E00221584601F057FC00B184
:1011200006462088000407D5D5F88800E16F20F036
:1011300080400843C5F888002068C00307D555F8EB
:10114000880FD4F8801020F0004008432860304613
:1011500000F004B8001002400070004018BCBDE868
:10116000E08F00002DE9F047DFF8608105460E466C
:10117000D8F8000000F00700B0420CD2D8F80010F8
:1011800021F007013143C8F80010D8F8000000F042
:101190000700B04275D128784D4CC00757D0686819
:1011A000032818D0022819D02168D0B14905002998
:1011B00067DAA16821F003010143A160FFF788FC11
:1011C0006968074641F28830032913D002291FD0ED
:1011D000814651B336E021688901E8E72168890337
:1011E000E5E78907E3E700BFFFF772FCC11B49454C
:1011F00001D924E08146A068C0F381000328F3D11F
:1012000025E000BFFFF764FCC11B494501D916E08A
:101210008146A068C0F381000228F3D117E000BF27
:10122000FFF756FCC11B494509D8A06810F00C0F08
:10123000F6D10CE0FFF74CFCC11B494502D9032055
:10124000BDE8F087A068C0F381000128F2D12878BA
:10125000800705D5A068A96820F0F0000843A060C9
:10126000D8F80010404601F00701B1420BD90168DF
:1012700021F0070131430160006800F00700B0422F
:1012800001D00120DCE72878400705D5A068E9688F
:1012900020F4E0600843A0602878000706D5A06825
:1012A000296920F4605040EAC100A06000F03CF8D9
:1012B000A168084AC1F30311515CC840064908609F
:1012C0000020FFF717FC0020BAE7000000200240D2
:1012D00000100240CC4D00082400002001480068A6
:1012E0007047000024000020044805490068896810
:1012F000044AC1F30221515CC84070472400002019
:10130000001002400C4E0008044805490068896836
:10131000044AC1F3C221515CC84070472400002038
:10132000001002400C4E000830B52D49002318462D
:101330008A682C4C12F00C0F4FEA640514D08A68AE
:10134000C2F38102032A04D1CA6802F00302012A0F
:101350000AD08A68C2F38102012A19D08A68C2F3CE
:101360008102022A16D016E00A68120704D4D1F8C6
:101370009420C2F3032202E00A68C2F303121A4B5C
:1013800053F822308A6812F00C0F04D1184602E09C
:10139000204600E028468A68C2F38102032A1DD154
:1013A000C868CA6800F00300C2F30212521C022887
:1013B00004D0032805D0B3FBF2F004E0B4FBF2F054
:1013C00001E0B5FBF2F0CA68C968C2F306225043D7
:1013D000C1F34161491C4900B0FBF1F030BD000090
:1013E000001002400024F400DC4D00082DE9F84311
:1013F00004460078FE4DC0065DD5A86810F00C0FBD
:101400000AD0A0690028286871D040F00100286047
:10141000FFF75EFB064654E02868800702D5A06906
:1014200000287DD0216A2868000703D5286800F0CD
:10143000F00004E0D5F89400F02202EA1010814296
:1014400016D9084601F0F0FB002869D1286840F061
:10145000080028602868216A20F0F000084328600E
:101460006868E16920F47F4040EA0120686015E087
:10147000286840F0080028602868216A20F0F00001
:10148000084328606868E16920F47F4040EA012051
:101490006860206A01F0C8FB0028D6D1FFF744FF3E
:1014A000A968D44AC1F30311515CC840D24908600D
:1014B0000020FFF71FFB29E0FFF70AFB801B022833
:1014C0007ED828688007F7D5286840F00800286093
:1014D0002868216A20F0F000084328606868E16904
:1014E00020F47F4040EA012068600FE0FFE720F031
:1014F00001002860FFF7ECFA064604E0FFF7E8FA7F
:10150000801B0228DCD828688007F7D42078C00721
:101510004AD0A868C0F3810002281FD0A86800E064
:1015200098E0C0F38100032803D1E868C043800736
:1015300014D06068B0F5803F17D0B0F5A02F2868B0
:1015400017D020F480302860286820F4802028609C
:101550006068E0B1FFF7BCFA064614E02868800333
:1015600022D56068002875D01EE0286840F48030DD
:10157000EDE740F480202860F7E700BFFFF7A8FA06
:10158000801B64289CD828688003F7D50CE0FFF7FF
:101590009FFA064605E000BFFFF79AFA801B642811
:1015A0008ED828688003F7D42078800742D5A868B1
:1015B000C0F38100012816D0A868C0F3810000E0C4
:1015C000A9E0032804D1E86800F0030002280AD04B
:1015D000E068002828681DD040F480702860FFF77C
:1015E00077FA06460BE0286840050BD5E06800282E
:1015F000B9D007E0FFF76CFA801B0228C2D8286830
:101600004005F7D56868217C20F0F85040EA016079
:1016100068600FE020F480702860FFF759FA0646F2
:1016200005E000BFFFF754FA801B022873D8286832
:101630004005F7D42078000729D560690028D5F83F
:10164000940013D040F00100C5F89400FFF740FA71
:10165000064606E0FBE000BFFFF73AFA801B0228CF
:1016600059D8D5F894008007F6D510E020F0010095
:10167000C5F89400FFF72CFA064604E0FFF728FAB5
:10168000801B022847D8D5F894008007F6D420782C
:10169000400763D5A86D0026C00008D4A86D40F0AF
:1016A0008050A865A86D012600F080500090534836
:1016B0000168C90511D40168804641F48071016058
:1016C000FFF706FA074604E0FFF702FAC01B0228FC
:1016D00021D8D8F80000C005F6D5A068012815D09B
:1016E0000528D5F8900017D020F00100C5F890002B
:1016F000D5F8900020F00400C5F89000A06841F2F1
:101700008838C8B1FFF7E4F9074610E0D5F8900033
:1017100040F00100F0E777E040F00400C5F89000E9
:10172000F4E700BFFFF7D4F9C11B41456CD8D5F8E9
:1017300090008007F6D50CE0FFF7CAF9074604E0F1
:10174000FFF7C6F9C11B414579D8D5F8900080074D
:10175000F6D41EB1A86D20F08050A865A06AE0B351
:10176000A968C1F38101032972D00228286820F0FA
:101770008070286011D02868000106D42868800095
:1017800003D4E86820F00300E860E8681C490840DA
:10179000E860FFF79DF9044654E0FFF799F9064623
:1017A00005E000BFFFF794F9801B022847D828689E
:1017B0008001F7D4206BE16A000110380843616BA7
:1017C000A26B0902120941EA42410843A18F0D4A66
:1017D000490802EB4151084300E036E094F840101C
:1017E0004908120102EB41610843E86028680CE0F7
:1017F00000100240CC4D0008240000200070004082
:10180000FFFFEEFE0000E0FF19E040F0807028606E
:10181000E86840F08070E860FFF75AF9044604E099
:10182000FFF756F9001B022809D828688001F7D570
:101830000BE000BFFFF74CF9001B022802D9032080
:10184000BDE8F88328688001F4D40020F8E7FFE7BA
:101850000120F5E72DE9F041040005D00025A5623F
:1018600094F85D0018B107E00120BDE8F08184F82C
:101870005C50204600F044F8022384F85D30206874
:10188000016821F040010160E0684FF4E066B04279
:1018900001D9002101E04FF48051B0F5706F02D002
:1018A000B04200D0A562276B012227B9B04201D90E
:1018B000236300E02263D4E901031843D4E904362A
:1018C00033431843238B03F400731843E36918432D
:1018D000236A1843A36A184323681860636B606A1D
:1018E000A66918430427E36807EA164633431843FA
:1018F000084321684860256684F85D200020B4E72D
:101900002DE9F041234A01680025234802240326DB
:101910000527DFF8888086B0914215D1016E41F429
:1019200080510166006E694600F4805005903820B1
:101930008DE8F1004046FEF7E1FF00220D21232053
:10194000FFF738F923201FE0154A91421ED1816D1F
:1019500041F480418165806D694600F480400590C6
:1019600004208DE8F1000F48FEF7C8FF4FF4204037
:101970008DE8F10069464046FEF7C0FF00220E21C7
:101980002420FFF717F92420FFF708F906B0BDE877
:10199000F0810000003001400010024000040048C7
:1019A00000380040000800482DE9F05F044690F838
:1019B0005C0000260A9F994692460D464FF00108AA
:1019C00001280ED0012084F85C00FFF781F88346DF
:1019D00094F85D00616801280CD0B1F5827F07D1D1
:1019E00002E0022000F0FBB8A16809B9042801D088
:1019F0000226ECE04DB3BAF1000F26D0B9F1000F8A
:101A000023D094F85D00042802D0052084F85D00FE
:101A100000202066C4F840A0A4F84690A4F84490A2
:101A2000A563A4F83E90A4F83C90E0642065E068CB
:101A30004FF4E061884203D8B4F84600012806D983
:101A40002068426822F4805205E00126BFE0206849
:101A5000426842F48052426020680268520603D411
:101A6000026842F040020260E068884260683DD946
:101A700010B1E08F012831D1216835F8020BC86020
:101A8000E08F401EE08729E0B8F1000F0DD0E08F15
:101A900058B120688168890707D535F8021BC160F5
:101AA000E08F401EE0874FF00008B4F8460068B1B0
:101AB00020688168C90709D0C0682AF8020BB4F809
:101AC0004600401EA4F846004FF00108781C05D0DF
:101AD000FEF7FEFFA0EB0B00B84266D2E08F0028B5
:101AE000D2D1B4F846000028CED167E010B1E08F23
:101AF00001285CD1E08F012806D9216835F8020B56
:101B0000C860E08F801E05E0216815F8010B08739E
:101B1000E08F401EE0874AE0B8F1000F16D0E08F5A
:101B2000A0B120688168890710D5E18F012905D906
:101B300035F8021BC160E08F801E04E015F8011B20
:101B40000173E08F401EE0874FF00008B4F84600B4
:101B500018B320688168C9071FD0B4F8461001295E
:101B600011D9C0682AF8020BB4F84600801EA4F808
:101B70004600B4F8460001280DD82068416841F4B9
:101B80008051416007E0017B0AF8011BB4F8460070
:101B9000401EA4F846004FF00108781C07D0FEF75D
:101BA00097FFA0EB0B00B84201D303260FE0E08FB4
:101BB0000028B1D1B4F846000028ADD15A463946C4
:101BC000204601F07FF810B1012620202066012078
:101BD00084F85D00002084F85C00304602E730BCE9
:101BE000BDE8C09F4FF0E0210428086903D020F031
:101BF00004000861704740F00400FAE710B5401E89
:101C0000B0F1807F01D3012010BD4FF0E02460616E
:101C10000F21601700F0CAFD0020A061072020619D
:101C2000002010BD10B5040003D094F8710010B16D
:101C300007E0012010BD002084F87000204600F06D
:101C400027F8242084F871002068016821F0010140
:101C50000160204601F082FA0128EBD0606A10B1E1
:101C6000204601F0E9F92068416821F49041416083
:101C70002068816821F02A0181602068016841F0B4
:101C8000010101602046BDE8104001F039BA0000B2
:101C90002DE9F0410746454B0168002444480325DF
:101CA000022686B04FF090424FF0800899422AD128
:101CB000816D41F400218165806D029400F4002063
:101CC0000590CDE900560820CDE90350694610463D
:101CD000FEF714FE384D37482860C5E90164C5E9B0
:101CE00003486C61AC61EC6128462C62FEF7A6FDEE
:101CF00020B140F2BD1131A001F0DBFBFD66AF6207
:101D000006B0BDE8F081344B0727994219D1016E26
:101D100041F480410166006E02AA00F48040059003
:101D20005815CDE9000682E8B00069462B48FEF759
:101D3000E5FD02AA694682E8B000CDE900862848A0
:101D400031E0284B99421AD1816D41F4003181650F
:101D5000806D02AB00F4003005900C20CDE9000648
:101D600083E8B00069461046FEF7C8FD002207214F
:101D70002620FEF71FFF2620FEF710FFC0E71A4AB5
:101D80009142BDD1816D41F480218165806D02AAAF
:101D900000F4802005904FF44060CDE9000682E811
:101DA000B00069461148FEF7A9FDA9E7004C0040C4
:101DB0000010024058040240B80300202E2E2F537A
:101DC00072632F73746D33326C3478785F68616C32
:101DD0005F6D73702E6300000038014000180048EA
:101DE000000400480044004000480040000800484B
:101DF000FEE710B500216B2000F0CCFA0421192079
:101E000000F0C8FA06211A2000F0C4FA18211B209D
:101E100000F0C0FA00211C2000F0BCFA0E211D20A9
:101E200000F0B8FA02F04EFA02F01EFA0321702018
:101E300000F0B0FA0021712000F0ACFACC21BDE82E
:101E400010406A2000F0A6BA044908B5CA6C0243E3
:101E5000CA64C96C0140009108BD00000010024036
:101E6000044908B58A6D02438A65896D0140009175
:101E700008BD000000100240F0B50A68032492FA81
:101E8000A2F2B2FA82F30F257EE0324601269E408E
:101E9000324078D0D1F804E0066892FAA2F7B7FA97
:101EA00087F74FEA470C04FA0CF7BE4392FAA2F701
:101EB000B7FA87F77F000EFA07FE46EA0E060660BD
:101EC0004E68012E01D0022E15D1D1F808E08668A7
:101ED00092FAA2F7B7FA87F74FEA470C04FA0CF721
:101EE000BE4392FAA2F7B7FA87F77F000EFA07FE11
:101EF00046EA0E068660D1F810C0C66892FAA2F7CC
:101F0000B7FA87F77F0004FA07FE92FAA2F7B7FA4A
:101F100087F77F0026EA0E060CFA07FC46EA0C0655
:101F2000C6604E68022E2ED192FAA2F6B6FA86F656
:101F3000082E4E6913D2076A92FAA2FCBCFA8CFCF6
:101F40004FEA8C0C05FA0CFC92FAA2F2B2FA82F279
:101F5000920027EA0C0796403743076213E0476A6E
:101F6000120A92FAA2FCBCFA8CFC4FEA8C0C05FA1D
:101F70000CFC92FAA2F2B2FA82F2920027EA0C0763
:101F80009640374347625B1C0A681646DA407FF486
:101F90007CAF4A68012A01D0022A07D1CB68416888
:101FA0003246914306FB03F2114341600120F0BD2C
:101FB000354808B5016E41F001010166016E01F07E
:101FC00001010091816D41F080518165806D2F4943
:101FD00000F08050009008684FF6FF0210402C4A35
:101FE00040F440701043086000F0C8FB0022114626
:101FF00000F0ABFB01466FF00B0000F0C7FB00F0F8
:10200000BDFB0022114600F0A0FB01466FF00A0064
:1020100000F0BCFB00F0B2FB0022114600F095FB83
:1020200001466FF0090000F0B1FB00F0A7FB0022B1
:10203000114600F08AFB01466FF0040000F0A6FB99
:1020400000F09CFB0022114600F07FFB01466FF080
:10205000030000F09BFB00F091FB0022114600F012
:1020600074FB01466FF0010000F090FB00F086FB6E
:102070000022114600F069FB0146BDE808404FF020
:10208000FF3000F083BB0000001002400CED00E0C8
:102090000000FA054FF47A71B0FBF1F14FF0E02047
:1020A000491E4161002181610521016170470000E5
:1020B00070B500241F49204D4FF40046C02803D0BE
:1020C000B0F5407F1CD019E0D1F8880000F0C000C6
:1020D00040F440004038B0F5400027D0402804D0FC
:1020E00080281CD106E0044608E000F083F828B1FF
:1020F0002C4603E000F086F800B13446204670BD5F
:10210000D1F888000D4900F4407040F0407040184C
:102110000CD0B0F5807FE8D0B0F5007FEAD000F0B9
:1021200003FD00F0D7FC00F0E3FCDCE700F0FCFC72
:10213000D9E70000001002400024F40000FFFFFC7B
:1021400070B5002429492A4D4FF40046032804D0D5
:102150000C281AD030282FD040E0D1F888006FF436
:10216000403100F0030040F4403040180AD001280C
:1021700036D002282ED000F0D7FC00F0ABFC00F0E7
:10218000C5FC17E000F0D0FC14E0D1F8880000F0A6
:102190000C0040F44020001FB0F54020F2D004288D
:1021A0001ED0082816D000BF00F0BEFC00F092FC44
:1021B00000F09EFC044611E0D1F8880000F03000E9
:1021C00040F440101038B0F54010DBD0102807D094
:1021D0002028E9D100F016F800B13446204670BD41
:1021E00000F008F80028F9D02C46F7E7001002406C
:1021F0000024F40002480068C0F38020704700000B
:10220000001002400248D0F89000C0F34000704730
:10221000001002400248006800F0F0007047000023
:10222000001002400248D0F8940000F4706070473B
:102230000010024002480068C0F3C0007047000070
:10224000001002400248C06800F0700070470000B3
:10225000001002400248C06800F003007047000010
:10226000001002400149086070470000240000206F
:1022700070B5044600680D46002610F0010F42D1EB
:10228000E9686868AA690843296911430843216815
:10229000254A114008432060A868616821F4405134
:1022A000014361606869A16821F440710143A16044
:1022B0001E48844201D1032008E01D48844201D118
:1022C0000C2003E01B48844203D13020FFF738FF85
:1022D0000BE01948844201D1C02004E01748844231
:1022E00011D14FF44070FFF7E3FE60B1296851B19E
:1022F000AA690126B2F5004F07D000EB5100B0FBF0
:10230000F1F080B2E060304670BD400000EB51005B
:10231000B0FBF1F081B24FF6F07201EA0200C1F3B6
:1023200042010843EEE70000F369FFEF0038014087
:102330000044004000480040004C00400050004075
:1023400008B54FF0E0210A690092421C00D0401C01
:102350000A69D20300D5401E0028F9D108BD00004B
:1023600070B50B4D0446002240212846FEF7ABFB1A
:1023700044F0800000F096FCFF2000F093FC04463F
:10238000012240212846FEF79EFB204670BD00003A
:102390000004004870B50B4D0E4604460022402153
:1023A0002846FEF790FB204600F07CFC04463046B1
:1023B00000F078FC012240212846FEF784FB2046ED
:1023C00070BD0000000400482DE9F04F5B4C8DB05B
:1023D000E06C40F00100E064E06C00F001000B9064
:1023E000E06C40F04000E064E06C00F040000B90D6
:1023F000FEF744FCE06C40F00200E064E06C00F0AA
:1024000002000B90E06C40F00400E064E06C00F02F
:1024100004000B90E06C40F08000E064E06C01226E
:1024200000F080000B9040214548FEF74CFB4FF434
:1024300080694FF0904B002249465846FEF743FB17
:10244000404F00224FF460713846FEF73CFB0122FA
:10245000160231465846FEF736FB44F2040A0022C3
:1024600051463748FEF72FFB012208213846FEF778
:102470002AFBF001002401258DE831006946584609
:10248000FEF73CFA4FF04008CDE90085CDE9025453
:1024900069462B48FEF732FACDF80090CDE9015499
:1024A000694658460394FEF729FA4FF42270CDE9A5
:1024B0000005CDE9025469463846FEF71FFACDE91A
:1024C0000065CDE9025469465846FEF717FA0096B2
:1024D000CDE90154694638460394FEF70FFACDE979
:1024E0000084694638460294FEF708FACDF800A049
:1024F000CDE90154694612480394FEF7FFF9280319
:10250000CDE9000469460E480294FEF7F7F9012070
:10251000FFF79AFC0420FFF797FC8020FFF794FC5C
:102520008020B862CDE906540590089405A9384684
:102530000994FFF7A1FC0DB000F006B800100240AE
:10254000000400480008004830BCBDE8C08F00000F
:10255000114810B50F4901604FF4827141600021AC
:102560004FF4E062C0E902120222026101224261DC
:10257000520282610822C0E9072107224162C0E9B4
:102580000A1201634163FFF765F9002800D0FEE7F6
:1025900010BD000000300140DC000020114810B5E3
:1025A0000F4901604FF48271416000214FF4E062F5
:1025B000C0E90212022202610122426152028261DA
:1025C0000822C0E9072107224162C0E90A1201631B
:1025D0004163FFF73FF9002800D0FEE710BD00007F
:1025E000003800404001002010B58EB04FF40020AC
:1025F000FFF736FC03200221CDE907010024CDE9D5
:1026000009040820CDE90B4007A94FF09040FFF7DF
:1026100033FC4FF4E130CDE900040C200294CDE905
:10262000034005940694094C69462046FFF720FEB6
:10263000606820F490406060A06820F02A00A060EC
:10264000206840F0010020600EB010BD004C00403A
:102650000C4810B50A4901604FF4E1314160002196
:1026600081600C22C160C0E904128161C161016214
:102670004162FFF7D7FA002800D0FEE710BD000046
:10268000003801401C0200200C4810B50A490160C6
:102690004FF4E1314160002181600C22C160C0E94A
:1026A00004128161C16101624162FFF7BBFA002837
:1026B00000D0FEE710BD000000440040940200205E
:1026C00010B58EB04FF48020FFF7CAFB4FF4406086
:1026D00007900220089003200024CDE90904072078
:1026E000CDE90B4007A91048FFF7C6FB4FF4E130D6
:1026F000CDE900040C200294CDE903400594069432
:102700000A4C69462046FFF7B3FD606820F490400C
:102710006060A06820F02A00A060206840F00100FE
:1027200020600EB010BD00000008004800480040C6
:10273000FEE7704700F01F02012191404009800030
:1027400000F1E020C0F80011704730B500F0070339
:10275000C3F10704042C00D90424181D072801D252
:10276000002300E0DB1E012505FA04F0401E0840AE
:1027700098409D406D1E1540284330BD02480068BA
:10278000C0F30220704700000CED00E00907090EBD
:10279000002806DA00F00F0000F1E02080F8141D98
:1027A000704700F1E02080F8001470470907090E17
:1027B000002806DA00F00F0000F1E02080F8141D78
:1027C000704700F1E02080F80014704710B58CB01D
:1027D00000200A900B9008900990009001901B4CEB
:1027E000029003900490059008AB6A46CDF818005B
:1027F00004EB800191ED000ABDEEC00A10EE101A44
:1028000043F8201042F82010401CC0B20428EFD337
:10281000002004A932F8203001F8103001EB400408
:102820001B0A401CC0B263700428F3D3082104A81B
:10283000FDF7C9FF8DF81800000A8DF819000A226B
:1028400004A9034801F0BAFB0CB010BD2800002019
:10285000AC03002070472DE9F041984616460F461C
:102860000446069D12E0681C10D02DB1FEF730F929
:10287000A0EB0800A84209D9042084F83900E06BD5
:1028800040F00100E0630120BDE8F081206880682D
:10289000384000D00120B042E5D10020F4E700002C
:1028A0002DE9F041444C05468846E0680026810742
:1028B00028680DD0E16801F00301814216D1A8B16A
:1028C000E0686968C0F30210401C88420ED120E025
:1028D000012804D0022805D0032807D108E0216888
:1028E000890701E021684905002907DB01265FE02F
:1028F0002168890302D421684903F5E7E1686A6821
:102900006FF00F0321F0730103EB02121143014337
:10291000E160206820F080602060FEF7D9F807466B
:1029200005E000BFFEF7D4F8C01B022837D82068A6
:102930000001F7D4B8F1000F18D0B8F1010F1ED084
:10294000287D4FF07E41400801EB4060A96840EAD5
:1029500001202169194A114008432061206840F094
:1029600080602060FEF7B4F807461AE0A868E968BE
:102970000002090940EA41402169114AEBE7288A2F
:102980001049400801EB4050A96840EA0120216944
:102990000D4AE0E7FEF79CF8C01B022801D9032688
:1029A00006E020680001F5D52069A9690843206187
:1029B0003046BDE8F081000000100240FF80FFF9C2
:1029C000FF80FDFF0000E0FFFF809FFF2DE9F04149
:1029D0003D4C06468846E0680025810730680DD0EA
:1029E000E16801F00301814216D1A8B1E068716885
:1029F000C0F30210401C88420ED120E0012804D010
:102A0000022805D0032807D108E02168890701E0E2
:102A100021684905002907DB012551E02168890368
:102A200002D421684903F5E7E16872686FF00F038B
:102A300021F0730103EB021211430143E1602068AE
:102A400020F080502060FEF743F8074605E000BF05
:102A5000FEF73EF8C01B022829D820688000F7D472
:102A6000B8F1000F15D0307C4FF07E41400801EBEB
:102A70004060B16840EA01206169144A114008438E
:102A80006061206840F080502060FEF721F8074622
:102A90000FE0B068F1680002090940EA414061694D
:102AA0000B4AEBE7FEF714F8C01B022801D90325F7
:102AB00006E020688000F5D56069716908436061AF
:102AC0002846BDE8F081000000100240FF80FFF9B9
:102AD000FF80FDFF04498968044A01F0F0010909FB
:102AE000515CC8407047000000100240CC4D000807
:102AF00004498968044A01F4E06102EB1121097874
:102B0000C8407047001002400C4E00080449896814
:102B1000044A01F4605102EBD1210978C8407047A2
:102B2000001002400C4E0008184810B58068184C80
:102B300010F00C0005D004281AD008281AD00C2850
:102B40001AD0FFF777FBD8B1FFF774FB50B1FFF74E
:102B500061FB09E0FFF75EFB02E000BFFFF762FBED
:102B6000000A02E0FFF75EFB000954F8200010BDE8
:102B7000084810BD084810BDBDE8104000F00EB870
:102B8000FFF758FB0028E9D0E4E7000000100240FE
:102B9000DC4D00080024F40000127A0010B5FFF7A5
:102BA00059FB1D4C012803D002282AD003282AD023
:102BB000FFF740FB28B1FFF73DFB48B3FFF72AFBC7
:102BC00006E0FFF737FB00B3FFF724FB000A00E045
:102BD000000954F8204000BFFFF734FB012101EB4E
:102BE0001010B4FBF0F20D48C368C068C3F30623AD
:102BF0005A4300F0C06001EB50604000B2FBF0F0BF
:102C000010BD074CE8E7074CE6E7FFF70BFBDDE7F5
:102C1000FFF708FBDCE70000DC4D00080010024075
:102C20000024F40000127A00F8B51C4D064600247A
:102C3000A86DC00002D5FEF729F80DE0A86D40F0A0
:102C40008050A865A86D00F080500090FEF71EF837
:102C5000A96D21F08051A965B0F5007F04D0802EC8
:102C600007D94FF003040AE0802E08D9A02E01D81E
:102C700004E001D1022402E0702E00D101240848B2
:102C8000016821F0070121430160006800F007009E
:102C9000A04201D00120F8BD0020F8BD0010024084
:102CA0000020024001B582B064200090012301AAF7
:102CB00002A90348FEF778FE9DF804000EBD00004F
:102CC000DC000020F8B515460E460B46009204467F
:102CD00000224FF4C05100F019F888B933460022A1
:102CE00080212046009500F060F848B93346002264
:102CF0004FF4C0612046009500F008F8002804D089
:102D0000206E40F0200020660320F8BD2DE9F84336
:102D10001D4617460E4604464FF4C068DDF8209065
:102D20003CE0464505D127B9007B8DF800009DF8B1
:102D30000000681C32D02DB1FDF7CAFEA0EB0900DF
:102D4000A8422BD32068416821F0E001416060680F
:102D5000B0F5827F0BD1A068B0F5004F02D0B0F57E
:102D6000806F04D12068016821F040010160A06AF1
:102D7000B0F5005F09D12068016821F400510160BD
:102D80002068016841F400510160012084F85D0071
:102D9000002084F85C000320BDE8F8832068816887
:102DA0003140B942BDD10020F6E72DE9F0411D4682
:102DB00017460E460446DDF8188034E0681C32D011
:102DC0002DB1FDF785FEA0EB0800A8422BD32068AB
:102DD000416821F0E00141606068B0F5827F0BD16D
:102DE000A068B0F5004F02D0B0F5806F04D1206824
:102DF000016821F040010160A06AB0F5005F09D1CF
:102E00002068016821F4005101602068016841F4E4
:102E100000510160012084F85D00002084F85C000E
:102E20000320BDE8F0812068806836EA000004D005
:102E30000020B842C2D10020F3E70120F9E7704733
:102E40007047000070B5B8B0092022904FF4803070
:102E5000012123902791022003242C90CDE92D41BC
:102E60000C212F910721CDE93010329022A8FEF7D6
:102E7000BDFA00B1FEE70F20CDE9330400243594FC
:102E80003694022133A83794FEF76CF900B1FEE7BF
:102E90000F9446480E941094119400904FF04050B7
:102EA0004FF400741E90A0041B9021946846FDF717
:102EB00081FF00B1FEE72046FDF7AEFE00B1FEE760
:102EC000FEF70CFA4FF47A71B0FBF1F0FEF796FEC4
:102ED0000420FEF787FE0022551E11462846FDF706
:102EE00069FE3348016821F0070141F002010160E9
:102EF000006800F00700022800D0FEE72D480168B6
:102F000021F4C06141F4007101602B4C206840F055
:102F1000010020602068C0F340000028FAD020683B
:102F200040F008002060206820F0F00040F0B00081
:102F30002060606820F47F406060A06820F003009B
:102F4000A060A06810F00C0FFBD1A06820F0F0008A
:102F5000A060A06820F4E060A060A06820F4605049
:102F6000A060164E3046FFF795F84FF0E02001695B
:102F700041F0040101613046FFF774F9D4F888008C
:102F800020F03000C4F88800D4F8880020F0C00099
:102F9000C4F88800FFF7F2FB00221146FFF7D5FBCB
:102FA00001462846FFF7F2FB38B070BD0F60020003
:102FB000002002400070004000100240006CDC0263
:102FC0000D48016841F4700101600C48016841F04E
:102FD00001010160002181600268094B1A40026012
:102FE0008214C260026822F4802202608161024978
:102FF000C00380390860704788ED00E0001002408F
:10300000FFFFF6EA0948C169C1F3C00109B108210F
:103010000162C169C1F34011002906D0808C054AC4
:10302000034B11685854491C11607047004C004014
:10303000980300200800002090F82410C90706D04B
:1030400001684A68836A22F400321A434A6090F8A1
:103050002410890706D501684A68C36A22F48032C1
:103060001A434A6090F82410490706D501684A6857
:10307000036B22F480221A434A6090F82410090757
:1030800006D501684A68436B22F400421A434A603D
:1030900090F82410C90606D501688A68836B22F46B
:1030A00080521A438A6090F82410890606D5016878
:1030B0008A68C36B22F400521A438A6090F8241085
:1030C000490611D501684A68036C22F480121A433C
:1030D0004A60016CB1F5801F06D101684A68436CF3
:1030E00022F4C0021A434A6090F82410090606D55B
:1030F00001684A68806C22F4002202434A607047EB
:10310000F8B5002604464667FDF7E2FC0546206850
:1031100000686FF07E47000708D52B4600224FF469
:1031200000112046009700F069F960B92068006836
:1031300040070AD52B4600224FF480012046009715
:1031400000F05CF908B10320F8BD202084F871007C
:1031500084F8720084F870600020F8BD2DE9F04119
:103160000446016880682369E6691843636910258D
:10317000002733431843954A0B68954E3340034369
:103180000B6020684168E36821F4405119434160B5
:103190002168A069914201D0236A18438B6823F407
:1031A000306303438B608B4B21688B4899420DD170
:1031B000D0F8880010F0030006D001285AD0022869
:1031C00056D0032859D157E0012556E0834B994248
:1031D0000BD1D0F8880010F00C0047D0042849D05B
:1031E000082845D00C2848D146E07D4B99420BD1A8
:1031F000D0F8880010F0300038D010283AD02028BD
:1032000036D0302839D137E0764B99420BD1D0F8FF
:10321000880010F0C00029D040282BD0802827D06B
:10322000C0282AD128E0704B99420ED1D0F88800EE
:1032300010F440701AD0B0F5807F1BD0B0F5007F3D
:1032400016D0B0F5407F18D116E0914215D1D0F8D4
:10325000880010F4406009D0B0F5806F0AD0B0F556
:10326000006F05D0B0F5406F07D105E0002504E000
:10327000022502E0042500E008255C4B00264FF4FF
:10328000004091423DD135B1022D07D0042D07D029
:10329000082D10D107E0FEF727F803E0184602E0FA
:1032A000FEF742F8A8B3626802EB4201814202D8FD
:1032B000B0EB023F01D9012775E0DFF834815DB141
:1032C000022D0CD0042D13D0082DF4D1500829055F
:1032D000401846F1000105E0FEF706F80AE0500844
:1032E0004449F5E70023FCF76BFFA0F5407156E079
:1032F000FEF71AF86268010E0302500818187141AF
:10330000F0E7E1694FF6EF7881422FD1092DD2D253
:1033100000E048E0DFE805F0060920052305050583
:103320002600C8E7FDF7E0FF01E0FDF7EDFF4100F3
:10333000D4F8040001EB5001B1FBF0F080B2A0F131
:1033400010014145B7D84FF6F0710140C0F342007B
:1033500001432068C16026E027496068EAE7FDF77D
:10336000E3FFE4E74FF480316068E3E7092DA2D280
:10337000DFE805F006091E052205050525009AE788
:10338000FDF7B2FF01E0FDF7BFFF0146606801EB0A
:10339000500100BFB1FBF0F080B2A0F11001414537
:1033A00089D82168C860266638466666BDE8F0811F
:1033B000606803EB5001EDE7FDF7B6FFE5E76168F4
:1033C00000EB5100B0FBF1F0E6E7000000800040A8
:1033D000F369FFEF00380140001002400044004054
:1033E00000480040004C0040005000400024F40021
:1033F000FFFC0F00000024F40048E8012DE9F04133
:10340000984617460E460446069D1DE0681C1BD0D4
:103410002DB1FDF75DFBA0EB0800A84214D9206890
:10342000016821F4D07101602068816821F00101F8
:103430008160202084F8710084F87200002084F8F4
:1034400070000320BDE8F0812068C06936EA000002
:1034500004D00020B842D9D00020F3E70120F9E7DA
:103460000648C169C1F34011002906D0808C054A85
:10347000034B11685854491C1160704700480040C4
:10348000840300200400002010B514210648FCF736
:10349000E4FE054814211430FCF7DFFE0348002148
:1034A0004160816010BD0000840300200000002006
:1034B000FEE7FEE70FB4084B10B504A902AA039873
:1034C00000F03AFB044602A9002000F069FD204606
:1034D00010BC5DF814FB0000A13F000803B4019884
:1034E0004100009850EAC12018BF04204A0D18BFBF
:1034F00040F0010040F2FF72B2EB515F08BF40F0B4
:103500000200012808BF052002B07047000000003B
:1035100070B59B482DED020B2DED068B079D25F018
:103520000044A04218DC9748844202DC0AD1069885
:1035300040B19DED060BBDEC068B02B0BDE87040BE
:1035400000F0C6BA002DCCBF9FED8F0B9FED900B06
:10355000BDEC068B02B070BD8F48A04215DD8F48D0
:10356000A042D8BF4FF0FF3458DD9DED060B51EC63
:10357000100BFFF7B3FF042808BF00F0BDFA9DED64
:10358000060BBDEC068B02B070BD9DED060B51EC39
:10359000100B00F029FDCDE9060181489FED828BDB
:1035A000A0423CDD8248A0421FDD00249FED82AB9B
:1035B0009DED060B53EC1A2B51EC100BFDF72FF879
:1035C0009DED060B41EC190B53EC1A2B51EC100B33
:1035D000FCF74EFE53EC182BFDF7C2F853EC192BF9
:1035E000FCF7BBFECDE9060149E09DED060B012489
:1035F00053EC182B51EC100BFDF711F89DED060B59
:1036000041EC190B53EC182B51EC100BFDF7A8F8FB
:1036100053EC192BFCF7A1FECDE906012FE0684819
:10362000A0421FDD02249FED689B9DED060B53EC2D
:10363000192B51EC100BFCF71BFE53EC182BFCF76D
:10364000EEFF9DED060B41EC180B53EC192B51ECE2
:10365000100BFDF785F853EC182BFCF77EFECDE937
:1036600006010CE09DED060B032453EC102B9FED9F
:10367000580B51EC100BFCF770FECDE906019DEDE7
:10368000060B53EC102B51EC100BFCF7F1FD41EC49
:10369000180B53EC182BFCF7EBFD41EC190B4E48C3
:1036A0000621B0EE490AF0EE690A784400F094F978
:1036B00053EC182B51EC100BFCF7DAFD41EC180B16
:1036C0004648B0EE490AF0EE690A0521784400F058
:1036D00083F953EC192B51EC100BFCF7C9FD41ECAD
:1036E000100B51EC180B53EC102B002C0EDAFCF7DE
:1036F00096FF9DED061B53EC112BFCF7B9FD9DEDDC
:10370000061B53EC112BFDF72EF835E0FCF787FF75
:103710009DED061B53EC112BFCF7AAFD41EC100BA1
:103720002F48784400EBC40090ED001B51EC100BC7
:1037300053EC112BFDF714F89DED061B53EC112BE8
:10374000FDF70EF841EC100B2648784400EBC4005E
:1037500090ED001B51EC100B53EC112BFDF703F80F
:1037600041EC100B002DA2BFBDEC068B02B070BD6A
:1037700051EC100B81F0004141EC100B01E700000F
:10378000000010440000F07F182D4454FB21F93F45
:10379000182D4454FB21F9BF0000DC3F0000203EFF
:1037A0000000F33F00000000000000000000F03FB8
:1037B0000000E63F000000000000000000000040A4
:1037C0000080034000000000000000000000F83FFF
:1037D000000000000000F0BFD217000088170000B2
:1037E00012170000CA16000070B56B4E2DED040BC9
:1037F0002DED028B82B0DDF81CC0DDE905235C42B3
:103800002CF000411C4341EAD474049D22F0004096
:10381000B44205D86C422C4340EAD474B4420BD96C
:103820009DED061B9DED040B02B0BDEC028B04B0B8
:10383000BDE8704000F056B9ACF14054A4F17F648B
:103840001C430BD0022404EAAC7444EAD27405434E
:103850009FED538B9FED542B07D015E09DED040B8E
:1038600051EC100B00F0A1FB42E0002C11BF012C29
:103870009DED040B02B0BDEC028B04BF04B070BD23
:10388000022C38D0032C3BD00B439FED491B9FEDFE
:103890004A0B0AD0B14218D1B04209D121F080417F
:1038A00020F08040079105900FE0002A15DA10E023
:1038B000434B7B44002C08BF93ED000B0DD0012C33
:1038C00010D0022C17D0032C1AD0B0421DD1002AE0
:1038D00003DAB0EE410AF0EE610A02B0BDEC028BF1
:1038E00004B070BD93ED000B51EC100B81F0004162
:1038F00041EC100BF1E7B0EE480AF0EE680AECE795
:10390000B0EE420AF0EE620AE7E7401A00153C28E2
:10391000C8BF8DED000B19DCBCF1000FBEBF10F16C
:103920003C0F9FED290B8DED000B0FDB9DED060B82
:1039300053EC102B9DED040B51EC100BFCF70DFD1F
:1039400000F052FB00F031FBCDE90001002C08BF74
:103950009DED000BC1D0012C10D0022C9FED1C0B53
:1039600053EC102B9DED000B51EC100B0DD0FCF720
:10397000F7FE53EC182BFCF7F3FEB9E7019880F043
:10398000004001909DED000BA7E7FCF7E9FE53EC2A
:10399000182BFCF7E8FEABE70000F07F000000000A
:1039A000182D4454FB210940182D4454FB2109C013
:1039B000182D4454FB21F9BF182D4454FB21F93F25
:1039C000FA150000000000000000000000000000E8
:1039D000075C143326A6A13C70B504462DED028B7E
:1039E0004D1E00EBC500B0EE408AF0EE608A90ED0F
:1039F000000B35F0060017D053EC182B51EC100BD0
:103A0000FCF736FC41EC100B6D1E04EBC50090ED8D
:103A1000001B51EC100B53EC112BFCF700FE41EC9A
:103A2000100B35F00600E7D1022D36D0042D1CD046
:103A3000062D1CBFBDEC028B70BD53EC182B51EC56
:103A4000100BFCF715FC94ED0A1B53EC112BFCF743
:103A5000E6FD53EC182BFCF70BFC94ED081B53EC24
:103A6000112BFCF7DCFD41EC100B53EC182B51EC47
:103A7000100BFCF7FDFB94ED061B53EC112BFCF730
:103A8000CEFD53EC182BFCF7F3FB94ED040B53EC39
:103A9000102BFCF7C4FD41EC100B53EC182B51EC30
:103AA000100BFCF7E5FB94ED021B53EC112BFCF71C
:103AB000B6FD53EC182BFCF7DBFB94ED001B53EC2D
:103AC000112BFCF7ACFDBDEC028B41EC100B70BD73
:103AD00010B553EC102B51EC100BFCF7A0FD41EC92
:103AE000100B10BD10B553EC112B51EC100BFCF763
:103AF00096FD41EC100B10BD9FED050B10B553EC7E
:103B0000102B51EC100BFCF7B3FB41EC100B10BD6C
:103B1000000000000000001002E008C8121F08C1E9
:103B2000002AFAD170477047002001E001C1121F3E
:103B3000002AFBD1704700002DE9FF4F8DB00F46E2
:103B40000546002606E025280BD0DDE90F12904738
:103B50006D1C761C28780028F5D111B0304600F095
:103B6000F3B90024A246A1460122EC4900E0044337
:103B700015F8013F203B02FA03F00842F7D12878FC
:103B80002A2810D06FF02F022878A0F130010929DF
:103B900014D80AEB8A0102EB410144F0020400EB65
:103BA000010A6D1CF0E701CF5FEA000A03D544F477
:103BB0000054CAF1000A44F002046D1C28782E2833
:103BC00017D115F8010F44F004042A280ED06FF025
:103BD0002F022878A0F1300109290AD809EB8901C0
:103BE00002EB410100EB01096D1CF2E757F8049B61
:103BF0006D1C28786C280FD006DC4C2817D068285C
:103C00000DD06A2814D104E0742810D07A280FD17E
:103C10000DE044F400140AE044F4801401E044F49C
:103C200040146978814202D104F580146D1C6D1C2A
:103C30002A786E2A1FD00CDC632A31D004DC002ADB
:103C40008BD0582A11D1A3E0642A68D0692A0CD1FC
:103C500065E0732A2ED004DC6F2A73D0702A04D159
:103C60009BE0752A6FD0782A6ED01046DDE90F12DE
:103C70009047761C50E1C4F30250022806D0032876
:103C800009D0042801CF09D0066045E101CFF11722
:103C9000C0E9006140E101CF06803DE106703BE1F3
:103CA00017F8040B8DF8000000208DF80100EB469A
:103CB000012003E057F804BB4FF0FF3061074FF0DD
:103CC000000102D40DE008F10101884649450FDAF0
:103CD0008045F8DB1BF808100029F4D108E008F152
:103CE000010188468142FADB1BF808100029F6D151
:103CF000DDE90F23AAEB08008146214600F039F9DF
:103D0000304400EB080604E0DDE90F121BF8010B5C
:103D10009047B8F10108F7D221464846F7E00A215A
:103D2000C4F302534FF0000B0891022B04D001CFD3
:103D3000C117032B09D00AE0FF1D27F00707F7E89A
:103D4000020108E032E01FE020E000B2C117042BBE
:103D500001D140B2C117031E71F1000307DA4FF021
:103D6000000CD0EB0C006CEB01012D2302E02305CD
:103D700004D52B238DF82430012303E0E30701D081
:103D80002023F7E7984658E00A2110E010210EE0C2
:103D900010204FF0000B08900CE010214FF0000BAA
:103DA00044F004044FF00809089103E008214FF0A3
:103DB000000B0891C4F30253022B04D001CF002161
:103DC000032B06D006E0FF1D27F00707F7E80201E6
:103DD00003E080B2042B00D1C0B24FF000082307EB
:103DE0002BD5702A07D0DDF820C08CF0100C5CEACF
:103DF0000B0C05D00EE040238DF82430012308E0A1
:103E000050EA010306D030238DF824308DF82520A8
:103E100002239846DDF820C08CF0080C5CEA0B0CFD
:103E20000BD150EA010301D1630706D530238DF889
:103E300024304FF00108A9F10109582A04D038A212
:103E40000B9208AA0A920BE03AA2F9E75B46089A9D
:103E5000FCF7B6F90B9B9B5C0A9A521E0A921370F0
:103E600050EA0102F2D10A98ADEB000000F1200BFC
:103E7000600702D524F4803401E04FF00109D945F0
:103E800002DDA9EB0B0000E0002000EB0B01414438
:103E90000890AAEB010AE00306D4DDE90F232146CE
:103EA000504600F066F806444FF0000908E009A902
:103EB00011F80900DDE90F12904709F10109761C9C
:103EC000C145F4DBE0030CD5DDE90F232146504664
:103ED00000F04FF8064404E0DDE90F12302090476F
:103EE000761C0899481E08900029F5DC08E00A981D
:103EF0000A990078491C0A91DDE90F129047761C57
:103F0000BBF10001ABF1010BF1DC21465046DDE9CC
:103F10000F2300F01CF806446D1C1BE60928010065
:103F2000303132333435363738396162636465662F
:103F300000000000303132333435363738394142F1
:103F4000434445460000000030BCBDE8C08F2DE969
:103F5000F041044600251E461746880404D405E0B7
:103F600039462020B0476D1C641EF9D52846BDE8AF
:103F7000F0812DE9F041044600251E469046C80315
:103F800001D5302700E02027880404D505E041460C
:103F90003846B0476D1C641EF9D52846BDE8F0814F
:103FA0000A68531C0B601070704710B541EC100B81
:103FB000FFF7AEFA51EC100B10BD00002DE9F041F7
:103FC00015460E460746002406E0325D07EB440026
:103FD00003A1FFF76FFA641CAC42F6DBBDE8F08189
:103FE000253032780000000082B0CDE9000121F0D8
:103FF000004001909DED000B02B051EC100B70479A
:1040000010B51C202DED028B00F02EF8FCF714FAF1
:104010009FED128B53EC182BFCF72AF9FCF730FAC2
:10402000104C2060202000F01FF8FCF705FA53EC3C
:10403000182BFCF71DF9FCF723FA6060242000F030
:1040400013F8FCF7F9F953EC182BFCF711F9FCF70E
:1040500017FAA060BDEC028B10BD0000000000004C
:104060000000003F8000002006490A5C08444178B7
:1040700041EA02210A028178C078114340EA012016
:10408000704700003800002010B510202DED028B85
:10409000FFF7EAFFFCF7D0F99FED128B53EC182BDA
:1040A000FCF75BF9FCF7ECF9104C20601420FFF7EB
:1040B000DBFFFCF7C1F953EC182BFCF74EF9FCF7CA
:1040C000DFF960601820FFF7CFFFFCF7B5F953EC7C
:1040D000182BFCF742F9FCF7D3F9A060BDEC028B7A
:1040E00010BD0000FCA9F1D24D62304074000020E8
:1040F00010B500202DED028BFFF7B6FFFCF79CF901
:104100009FED188B53EC182BFCF7B2F8FCF7B8F9BD
:10411000164C20600420FFF7A7FFFCF78DF953EC45
:10412000182BFCF7A5F8FCF7ABF960600820FFF747
:104130009BFFFCF781F953EC182BFCF799F8FCF77F
:104140009FF9A0600C20FFF78FFFFCF775F953EC87
:10415000182BFCF78DF8FCF793F9E060BDEC028BAF
:1041600010BD0000000000000000103E64000020B0
:1041700070B5374C2DED0A8BD4ED009A94ED019A71
:10418000D4ED028A29EEA90A94ED038A09EE490AC0
:1041900008EEE80A08EE080A10EE100AFCF75DF9CE
:1041A00028EE880A41EC1A0B09EE890AF0EE009A13
:1041B00020EE290A10EE100AFCF74FF941EC100B23
:1041C000B0EE4A1AF0EE6A1AFFF70EFB9FED21BB24
:1041D00051EC100B53EC1B2BFCF74AF8FCF750F991
:1041E00004F12805286094ED00CA94ED019AD4EDFD
:1041F000028A2CEE0C0A94ED038A09EE090A08EEF5
:10420000E80A08EE480A10EE100AFCF726F929EE33
:10421000280A41EC1A0B0CEE080A20EE290A10EECF
:10422000100AFCF71AF941EC100BB0EE4A1AF0EE46
:104230006A1AFFF7D9FA53EC1B2B51EC100BFCF761
:1042400017F8FCF71DF9A86000F008B870BD000071
:10425000640000206666666666A64C40BDEC088B6E
:10426000BDEC02CBFFF7F2BF2DE9F0410020DFF8F3
:104270005080054618F80010401CC0B218F80060C5
:10428000401CC4B26D2018F80470FEF783F8314664
:104290006E20FEF77FF8002607E0E4B26F2018F8E2
:1042A0000410FEF777F8761CF6B2BE4204F1010462
:1042B000F3D36D1CEDB2E0B2252DDBD3BDE8F08168
:1042C000DD4C00082DE9F04100250D4E01204FF492
:1042D000F16700BFC5F30724A04207D021466D2037
:1042E000FEF758F800216E20FEF754F8715D6F203C
:1042F000FEF750F86D1C2046BD42EBD9BDE8F081B9
:10430000544500082DED028BE2B0FDF751FEFCF79D
:10431000E5FB28225AA134A8FBF786FF3421684622
:10432000FBF79BFF34210DA8FBF797FF34211AA858
:10433000FBF793FF342127A8FBF78FFF14213EA83A
:10434000FBF78BFF142143A8FBF787FF142148A834
:10435000FBF783FF14214DA8FBF77FFF142152A820
:10436000FBF77BFF142157A8FBF777FF14215CA80C
:10437000FBF773FFFEF766FDFEF726F8FEF768F918
:10438000FEF782F94948484901220160FF21C0E94E
:1043900001120021C0E9031241618161FCF77EFC3A
:1043A00000B1FEE7FEF7D4F8FEF7F8F8FEF788F95B
:1043B000FEF71AF9FEF7E2F900220B21FEF7C5F924
:1043C00001462720FEF7E2F92720FEF7B3F9FEF7B2
:1043D000D5F900220821FEF7B8F901463420FEF78E
:1043E000D5F93420FEF7A6F900F09CF8FDF701FDA1
:1043F000FCF704FAFFF748F8334D16222CA12846A3
:1044000000F06CF8294E314C0C3E9FED318ADFED07
:10441000318AA6F11807A6F10C084FF4967900BF6F
:1044200000F06CF8FFF764FEFFF72EFEFFF7E8FDE3
:10443000FFF79EFE96ED000A84ED000A97ED000A54
:1044400084ED010A98ED010AC0EE080AC4ED020AE3
:10445000C4ED038AFEF7BAF9022212A1284600F041
:104460003DF80A221C49284600F038F802220DA126
:10447000284600F033F84846FDF762FFD0E7000019
:1044800048454C4C4F2C574F524C44212121434F0F
:104490004E4E45435445442053554355535346557A
:1044A0004C2121210D0A0000001000A098000020DE
:1044B00050726F6772616D2069732072756E6E69DC
:1044C0006E6721200D0A00000048004028000020EF
:1044D000000048430000FA44AC03002010B500235C
:1044E00008E0CC5C04855B1C9BB2C469C4F38014F7
:1044F000002CFAD0521E92B2F3D210BD70B5084D06
:1045000000247420FDF72CFF2855641CE4B22A2CEB
:10451000F7D3BDE87040CC216A20FDF73BBF000017
:10452000380000200948016841F02001016001685D
:1045300041F4807101600648016841F0200101608A
:10454000016841F48071016070470000004800403C
:10455000004C0040FB00003E000B00360001000252
:104560000003000000650054FFEF0000FA80000B1C
:1045700012820001000200000000000000000000A4
:104580000000000000280000FFFF4581FFFFFA72D5
:1045900000000000000003E80000000100017FFFB0
:1045A000FFFE8001001B0000000000000000000072
:1045B00000000000003E03304000000002CAE30992
:1045C0003E800000200000000000000040000000CD
:1045D0006000000041FF000000000B2A000016559B
:1045E00000002182FD872650FD800000001F000092
:1045F0000005800000000000000100000002000033
:1046000000030000400000000000046F000265325B
:1046100000005EC04000000000000000000000003C
:1046200000000000FB8C6F5DFD5D08D9007C733BD2
:10463000006C12CC3200139D3200D0D6320008003C
:10464000400001F4FFE68079020000000000D0D6AF
:1046500000002710FB0000004000000000000000E8
:104660000000000000000001000000000000010048
:10467000010000000000FA36FFBC308E0005FBF0A0
:10468000FFD95BC8FFD09ABE000010A9FFF41EB28C
:1046900000CEBBF700000001000000040002000291
:1046A0000200000CFFC280000001800000CF8000EB
:1046B00040000000000000010000000000000600B3
:1046C00000000014000000000000000000000000D6
:1046D00000000000000000000000000000000000DA
:1046E00000000000000000000000000000000000CA
:1046F0000000000000000000033F68B6793528BCC8
:10470000C67ED16C80000000400000000000B26A4C
:1047100000000000000000000000000000003FF06A
:104720000000003000000000000000000000000059
:104730000000000000000000000000000000000079
:10474000000000000000254D002F706D000005AE38
:10475000000C02D00000000000650054FFEF0000D4
:1047600000000000000001000044000000000C00F8
:10477000000001000000000000650000005400007F
:10478000FFEF00000000000000000000000000003B
:1047900000000000400000000000000000000000D9
:1047A00000000000400000000000000000000000C9
:1047B00000000000000000010000000200000000F6
:1047C00000000000000000000000000000000000E9
:1047D00000000000000000000000000000000000D9
:1047E00000000000001B00000000000000000000AE
:1047F00000000000000000000000000000000000B9
:1048000000000000000000000000000000000000A8
:1048100040000000001B000000000000000000003D
:104820000000000000000000000000000000000088
:104830000000000000000000000000000000000078
:104840000000000000000000000000000000000068
:1048500000000000D8DCBAA2F1DEB2B8B4A88191A1
:10486000F74A907F916AF3F9DBA8F9B0BAA080F219
:10487000CE81F3C2F1C1F2C3F3CCA2B280F1C6D8AB
:1048800080BAA7DFDFDFF2A7C3CBC5B6F087A2945B
:104890002448703C95406834589B78A2F183922D4F
:1048A000557DD8B1B4B8A1D09180F270F370F27C8C
:1048B00080A8F101B09887D943D886C988BAA1F2F7
:1048C0000EB89780F1A9DFDFDFAADFDFDFF2AAC52C
:1048D000CDC7A90CC92C97979797F1A98926466649
:1048E000B0B4BA80ACDEF2CAF1B28C02A9B69800BC
:1048F000890E161EB8A9B4992C547CB08AA8963695
:104900005676F1B9AFB4B083C0B8A89711B18F98FB
:10491000B9AFF0240844106418F1A329557DAF8382
:10492000B593AFF0002850F1A3869F61A6DADEDFD1
:10493000D9FAA38696DB31A6D9F8DFBAA68FC2C50D
:10494000C7B28CC1B8A2DFDFDFA3DFDFDFD8D8F1C9
:10495000B8A8B286B4980D355DB8AA98B0872D3541
:104960003DB2B6BAAF8C96198F9FA70E161EB49A99
:10497000B8AA872C547CB9A3DEDFDFA3B180F2C4D0
:10498000CDC9F1B8A9B499830D355D89B9A32D5569
:104990007DB593A30E161EA92C547CB8B4B0F19724
:1049A00083A81184A50998A383F0DA24084410642D
:1049B00018D8F1A529557DA58595021A2E3A565A83
:1049C0004048F9F3A3D9F8F09883240844106418F8
:1049D0009782A8F111F098A2240844106418DAF321
:1049E000DED883A59401D9A302F1A2C3C5C7D8F12B
:1049F0008492A24DDA2AD84869D92AD86855DA3281
:104A0000D85071D932D8705DDA3AD85879D93AD8B5
:104A10007893A34DDA2AD84869D92AD86855DA326A
:104A2000D85071D932D8705DDA3AD85879D93AD895
:104A300078A88A9AF02850789EF38818F19F1D98DC
:104A4000A8D908D8C89F129EF315A8DA1210D8F179
:104A5000AFC8978734B5B994A421F3D922D8F22DE1
:104A6000F3D92AD8F235F3D932D881A4606061D95C
:104A700061D86C6869D969D8747071D971D8B1A3DB
:104A800084193D5DA3831A3E5E931030811011B8E6
:104A9000B0AF8F94F2DA3ED8B49AA88729DAF8D862
:104AA000879A35DAF8D8879A3DDAF8D8B1B9A49858
:104AB00085022E56A581000C14A397B08AF12DD93A
:104AC00028D84DD948D86DD968D8B1840DDA0ED818
:104AD000A32983DA2C0ED8A3844983DA2C4C0ED870
:104AE000B8B0A88A9AF520AADADFD8A840AAD0DA06
:104AF000DED8A860AADAD0DFD8F19786A8319B0665
:104B00009907AB9728889BF00C201440B8B0B4A844
:104B10008C9CF0042851791D301438B282ABD098A7
:104B20002C505078789BF11AB0F08A9CA8295179C2
:104B30008B2951798A2470598B2058718A4469389D
:104B40008B3940688A6448318B304960A5882009D8
:104B500071584468113964493019F1AC002C547C07
:104B6000F08CA804285078F1889726A85998AC8C26
:104B700002264666F0899CA8295179247059446917
:104B800038644831A98809205970AB11384069A8A8
:104B9000193148608CA83C415C207C00F187981951
:104BA00086A86E767EA999882D557D9EB9A38A2206
:104BB0008A6E8A568A5E9FB183062646660E2E4E00
:104BC0006E9DB8AD002C547CF2B18CB499B9A32D74
:104BD000557D8191AC38AD3AB58391AC2DD928D8AB
:104BE0004DD948D86DD968D88C9DAE29D904AED896
:104BF00051D904AED879D904D881F39DAD008DAEDA
:104C00001981ADD901D8F2AEDA26D88E912983A7C1
:104C1000D9ADADADADF32AD8D8F1B0AC89913E5E37
:104C200076F3AC2E2EF1B18C5A9CAC2C2828289C03
:104C3000AC3018A8988128343C9724A728343C9C91
:104C400024F2B089AC912C4C6C8A9B2DD9D8D851C8
:104C5000D9D8D879D9D8D8F19E88A331DAD8D891C3
:104C60002DD928D84DD948D86DD968D8B183933576
:104C70003D8025DAD8D88569DAD8D8B49381A328BD
:104C8000343CF3AB8BF8A391B609B4D9ABDEFAB0E0
:104C9000879CB9A3DDF1A3A3A3A395F1A3A3A39D2F
:104CA000F1A3A3A3A3F2A3B49080F2A3A3A3A3A30D
:104CB000A3A3A3A3A3B2A3A3A3A3A3A3B087B599BC
:104CC000F1A3A3A398F1A3A3A3A397A3A3A3A3F3DF
:104CD0009BA3A3DCB9A7F1262626D8D8FF037B0324
:104CE0004CCD6C03AB0336567600680402CB47A26A
:104CF00002180400058BC1010C0400000000037FB2
:104D0000060CC92C979797038903264666006C0208
:104D100020000240040000000002440400000000E3
:104D200002480400000000024C0400000000025091
:104D300004000000000254040000000002580400B7
:104D4000000000025C040000000002BC040000003F
:104D50000001EC0400004000037F060CC92C97976B
:104D6000970402030D355D040904872D353D00A32A
:104D7000010000000101078601FE074105F120281E
:104D80003038077E01300746019A074704F1283082
:104D900038076C04F1283038021602000001B20214
:104DA000FFFF0190040923A135016A02060001609A
:104DB0000800000000000000000060044000000047
:104DC00001620200000060040040000000000000DA
:104DD000000000000102030406070809A086010084
:104DE000400D0300801A060000350C0040420F0001
:104DF00080841E0000093D0000127A000024F400A7
:104E000000366E010048E801006CDC020000000082
:104E100001020304000000004FBB610567ACDD3FE9
:104E2000182D4454FB21E93F9BF681D20B73EF3FD1
:104E3000182D4454FB21F93FE2652F227F2B7A3C49
:104E4000075C143326A6813CBDCBF07A8807703C02
:104E5000075C143326A6913CC4EB98999999C9BF75
:104E6000711623FEC671BCBF6D9A74AFF2B0B3BFAA
:104E70009AFDDE522DDEADBF2F6C6A2C44B4A2BF6A
:104E80000D5555555555D53FFF8300922449C23FD6
:104E90006E204CC5CD45B73F513DD0A0660DB13F0A
:104EA000EB0D76244B7BA93F11DA22E33AAD903F1C
:104EB0000000000000000000D84E000800000020A4
:104EC00028000000183B0008004F000828000020C0
:104ED000D8070000283B0008000000000000000088
:104EE00000000000436F6E6E656374207468652077
:104EF0006465766963650D0A0000000000093D00E5
:040000050800018965
:00000001FF
