:020000040800F2
:10000000800F00209D0100087F680008754F0008E0
:100010007D680008B91000088D7B00080000000012
:10002000000000000000000000000000B36F0008A6
:10003000BB1000080000000019690008C773000821
:10004000B7010008B7010008B7010008B7010008B0
:10005000B7010008B7010008B7010008B7010008A0
:10006000B7010008B7010008B7010008B701000890
:10007000B7010008B7010008B7010008B701000880
:10008000B7010008B7010008B7010008B701000870
:10009000B7010008B7010008B7010008B701000860
:1000A000B7010008B7010008B7010008B701000850
:1000B000B7010008B7010008B7010008B701000840
:1000C000B7010008B7010008B7010008B701000830
:1000D000B7010008B7010008B7010008657B0008F8
:1000E000B7010008B7010008B7010008B701000810
:1000F000B7010008B7010008B7010008B701000800
:10010000B7010008B7010008B7010008B7010008EF
:10011000C5750008B7010008B7010008B70100085D
:10012000B7010008B7010008B7010008B7010008CF
:10013000B7010008B7010008B7010008B7010008BF
:10014000B7010008B7010008B7010008B7010008AF
:10015000B7010008B7010008B7010008B70100089F
:10016000B7010008B7010008B7010008B70100088F
:10017000B7010008B7010008B7010008000000003F
:10018000B7010008B7010008DFF80CD000F030FC20
:1001900000480047D99D0008800F0020064880478E
:1001A00006480047FEE7FEE7FEE7FEE7FEE7FEE75C
:1001B000FEE7FEE7FEE7FEE7657500088901000837
:1001C0002DE9F05F0546002092469B46884606468C
:1001D000814640241BE0284641464746224600F01F
:1001E000BCFA53465A46C01A914110D311461846DC
:1001F000224600F0A3FA2D1A67EB01084F4622466B
:100200000120002100F09AFA17EB00094E41201E50
:10021000A4F10104DFDC484631462A46434600F09B
:1002200000B830BCBDE8C09F2DE9F0410024061B9A
:10023000254671F1000605DA01240027D0EB0700FE
:1002400067EB0101161E73F1000605DA0027D2EBF9
:100250000702012567EB0303FFF7B2FF86460E4650
:1002600017469C46AC4204D00025D0EB050E65EB4A
:10027000010624B10020D2EB000760EB030C7046AE
:1002800031463A466346BDE8F081D2B201E000F85B
:10029000012B491EFBD270470022F6E710B513462A
:1002A0000A4604461946FFF7F0FF204610BD30B558
:1002B00005462A460B4612F8010B13F8014B08B10C
:1002C000A042F8D01CB1002802D06D1CF1E72846EE
:1002D00030BD421C10F8011B0029FBD1801A704769
:1002E0002DE9F04791460F4680460446002614F853
:1002F000015B2DB100F054FA0068405DC007F6D1F3
:100300002B2D02D02D2D18D0641E4A46394620468A
:1003100000F058FA27B13968A14201D1C7F800802E
:1003200071054FF002040BD54042002803DD07F0B1
:100330007FFC0460A007BDE8F08746F48066E4E730
:100340000028F8DA07F074FC04606FF00040F2E770
:100350002DE9FE4F804681EA0300C00F0C46009055
:1003600021F0004123F00045B8EB0200A94105D27D
:100370004046214690461C460B46024623F000406C
:10038000104347D0270DC7F30A00C3F30A51029068
:10039000401A019040286BDAC3F3130040F4801B2D
:1003A0000098924620B10023D2EB030A63EB0B0BBB
:1003B00001985946C0F14002504600F0BFF9064688
:1003C0000D4650465946019A00F0D7F910EB080047
:1003D0006141002487EA115284EAE7731A4340D04E
:1003E000009A62B3019A012A4FEA075215DC001BFA
:1003F00061EB02014FF0004202EA0752CDE90042F0
:10040000001C41F5801132462B4600F073FA03B010
:1004100000F045B840462146F9E7001B61EB0201B8
:10042000001C41F5801300185B412018A2F500174D
:1004300047EB030140EAD570B6196D4111E06D0834
:100440004FEA360645EAC0754FEA0752001B61EBDA
:100450000201001C41F5801149084FEA30000019E3
:10046000514132462B4603B000F01CB800F033BABD
:100470000098012240000023D0EB020263EBE073FE
:10048000009821464FEAE074B8EB000061EB0401EC
:10049000E9E783F000435BE781F0004158E730BCB7
:1004A000BDE8C08F30BCBDE8C04FFFF7DFBF2DE90E
:1004B000FE4F81EA030404F0004421F0004100945F
:1004C0004FF0000B23F0004350EA01045ED052EAE3
:1004D00003045BD0C3F30A54C1F30A552C44A4F2BD
:1004E000F3340194A0FB0254C1F3130141F48011D1
:1004F000C3F3130343F4801301FB024400FB034ED8
:10050000840A970A44EA815447EA8357A4FB0768A0
:1005100002958D0A05FB07854FEA932C04FB0C54CA
:100520002705029D4FEA065847EA1637B5EB08053E
:100530006EEB070C870E920E47EA811742EA831290
:10054000A7FB0201B6EB0B0164EB00042B0D43EAA1
:100550000C335E1844EB1C50DA465146E7FB0201AF
:10056000C5F313044FEA0B3343EA14534FEA043242
:10057000019C43EA0603A4F10C040294009CCDE91B
:1005800000B400F0B7F903B000F003B80020014652
:10059000F9E730BCBDE8C08F2DE9F04D81EA0304D6
:1005A00004F0004B21F0004514464FF0000A23F000
:1005B000004150EA050220D054EA01021DD0C5F3E3
:1005C0000A570246C5F31303C1F31300C1F30A56D9
:1005D00040F4801543F48013A7EB0608101BD646A1
:1005E00008F2FD3873EB050002D308F1010801E0C1
:1005F00092185B41B8F1000F03DA00200146BDE814
:10060000F08D00204FF48011064684460EE0171B43
:1006100073EB050705D3121B63EB050306434CEA96
:10062000010C49084FEA300092185B4150EA01077B
:10063000EDD152EA030012D082EA040083EA0501F8
:10064000084305D0101BAB4106D20122002306E06F
:1006500000224FF0004302E06FF0010253101AEB4A
:1006600006004CEB085110EB0A0041EB0B01BDE812
:10067000F04D00F030B90EB5C10F80EAE0700844CB
:10068000CA07002140F233438DE80E000A460B46AC
:1006900000F030F903B000BD0EB540F233410291D5
:1006A0000021CDE900110A460B4600F023F903B002
:1006B00000BD00F0004230F000400AD0C10D01F54D
:1006C0006071C0F3160042EA0151C20840071143AD
:1006D000704700200146704701F0004330B421F01C
:1006E000004150EA010206D00A0DA2F56072C1F382
:1006F0001301002A02DC30BC00207047440F44EA9A
:10070000C104C100E01830BC00EBC25000F0ACB82E
:1007100030B50B46014600202022012409E021FAD1
:1007200002F59D4205D303FA02F5491B04FA02F5CE
:100730002844151EA2F10102F1DC30BD202A04DBA1
:10074000203A00FA02F1002070479140C2F12003E4
:1007500020FA03F3194390407047202A04DB203A23
:1007600021FA02F00021704721FA02F3D040C2F1D1
:1007700020029140084319467047202A06DBCB1718
:10078000203A41FA02F043EAE07306E041FA02F34C
:10079000D040C2F120029140084319467047000042
:1007A0000048704744A400083A2800D2303820F0AE
:1007B0002002412A01D3A2F13700884201D34FF031
:1007C000FF3070472DE9F05F82460078002715461C
:1007D0008B460AF10104B946302801D09DB113E0DF
:1007E00014F8010B0127782803D0582801D045B10F
:1007F0000AE00DB1102D07D10027102514F8010BC8
:1008000002E0082500E00A250026B0460EE005FBC0
:10081000080005FB06F1012701EB10461FFA80F8DE
:10082000B6F5803F00D3B94614F8010B2946FFF70F
:10083000BBFF0028EBDABBF1000F05D00FB1641E3F
:1008400000E05446CBF80040B9F1000F06D007F0A5
:10085000EFF902210160C81E00F003B848EA064023
:10086000FAE730BCBDE8C09F0029A8BF7047401C14
:10087000490008BF20F00100704710B4B0FA80FCB6
:1008800000FA0CF050EA010404BF10BC704749B1F3
:10089000CCF1200421FA04F411FA0CF118BF012163
:1008A00021430843A3EB0C01CB1D4FEA00614FEA43
:1008B000102042BF002010BC704700EBC350104412
:1008C0000029A4BF10BC7047401C490008BF20F09D
:1008D000010010BC704710B5141E73F1000408DA53
:1008E000401C41F1000192185B411A4301D120F0F4
:1008F000010010BD2DE9F04D92469B4611B1B1FAB1
:1009000081F202E0B0FA80F220329046FFF716FF43
:1009100004460F4640EA0A0041EA0B0153465A4694
:10092000084313D0114653EA010019D0C8F1400220
:100930005046FFF712FF05460E46504659464246BE
:10094000FFF7FCFE084305D0012004E020463946AD
:10095000BDE8F08D0020054346EAE0762C4337439E
:100960000A986305E40AA0EB08000022FD0A44EAA5
:1009700047540A3002D500200146E9E70105101965
:100980006941DDE9084500196941BDE8F04DA2E77C
:10099000C1F30A52C1F3130140F2FF3341F4801155
:1009A0009A4202DA00200146704740F233439A42ED
:1009B000A2F2334202DC5242FFF7CFBEFFF7BEBEC7
:1009C00030B5041E71F1000404DB4FF000444042D6
:1009D00064EB0101141E73F1000405DB1C464FF0AB
:1009E0000043524263EB0403994208BF904230BD7A
:1009F000064C074D06E0E06840F0010394E807006C
:100A000098471034AC42F6D3FFF7C2FB48A4000865
:100A100068A4000870B5C1F30A5201F00045002433
:100A2000C1F3130140F2FF3341F480119A4201DA1D
:100A3000002070BD40F233439A42A2F2334203DCFD
:100A40005242FFF78AFE00E090402C43F1D0404232
:100A500070BD0000F8B50446002000902068816851
:100A600001F00301012902D10168C90735D181686C
:100A70001B4A114222D18168D5432940491C81601B
:100A8000184819490068B0FBF1F000EB8000400005
:100A900000E0401E00900028FBD102F00BFF06464C
:100AA00016E0816811F0010F03D181682940491CCB
:100AB000816002F0FFFE801B022809D9A06D40F082
:100AC0001000A065E06D40F00100E0650120F8BD78
:100AD00020680168C943C907E3D10020F8BD0000C0
:100AE0003F000080F400002080841E0070B52D4877
:100AF00002F0AAFC32212B4802F012FC294802F035
:100B0000E9FA294C800503D5264802F0E5FA208051
:100B10002088FFF7C1FD9FED251B53EC112BFFF73C
:100B2000C6FCFFF7D9FD00EE100AB0EE081AF6EE8B
:100B3000000A204C40EE010A284D22221EA1284620
:100B4000C4ED000A09F0F2FA222225A1284609F094
:100B5000EDFA2068FFF7ADFD41EC100B29A153EC35
:100B6000102B294807F024F8172228A1284609F05D
:100B7000DDFA2548FFF7ADFB82B22349284609F08C
:100B8000D5FA022214A1284609F0D0FA22220AA19D
:100B9000284609F0CBFABDE870404FF47A7004F0B3
:100BA0009FBC0000180B0020C40000201880011812
:100BB0008001483FC80000202D2D2D2D2D2D2D2DDD
:100BC0002D2D2D2D2D2D2D2D2D2D2D2D2D2D2D2D55
:100BD0002D2D2D2D2D2D2D2D0D0A0000004800400E
:100BE0002A2A2A2A2A2A2A2A2A2A2A2A2A2A414434
:100BF00043312A2A2A2A2A2A2A2A2A2A2A2A2A2A35
:100C00000D0A000025660000B80700205468652022
:100C10006261747465727920766F6C746167653A8D
:100C2000200D0A0070B5144C12482062134860620F
:100C30001348A062204608F051FF05460246217F76
:100C400010A006F0A5FF15B14FF0FF3070BD0420D5
:100C500009F01CF80446042008F0ACFF044403200B
:100C600008F0CEFF0444042008F0EAFF204440B21C
:100C700070BD000045100008F0030020E50F0008DB
:100C8000E15400084368697049643A307820255877
:100C900020202020636F6D5F72736C743A25640DA1
:100CA0000A00000070B500F083F9644C84ED050A79
:100CB00000F066F9206100F037F96B4D84ED060A0B
:100CC00024225FA1284609F031FA242267A1284690
:100CD00009F02CFA6069FFF7ECFC41EC100B6DA1F8
:100CE00053EC102B6C4806F063FFD4ED060A9FED21
:100CF0006B1A80EE810A10EE100AFFF7DAFC41EC65
:100D0000100B64A153EC102B654806F051FF042230
:100D100064A1284609F00AFA5F48FFF7DAFA82B2BE
:100D20005D49284609F002FA042260A1284609F02C
:100D3000FDF902225FA1284609F0F8F904225EA11C
:100D4000284609F0F3F95648FFF7C3FA82B254492E
:100D5000284609F0EBF9052259A1284609F0E6F9E1
:100D6000D4ED060A9FED581A80EE810A10EE100AA3
:100D7000FFF79FFC41EC100B46A153EC102B53489E
:100D800006F016FF5148FFF7A4FA82B24F492846F1
:100D900009F0CCF906224EA1284609F0C7F9022233
:100DA00044A1284609F0C2F9D4ED060A9FED4A1A7B
:100DB00080EE810A10EE100AFFF77BFC9FED471BC7
:100DC00053EC112BFFF768FB9FED461B53EC112BE7
:100DD000FFF76DFBFFF780FC00EE100A4348D0EDF3
:100DE000000A30EE600A10EE100AFFF762FC41ECD8
:100DF000100B28A153EC102B3D4806F0D9FE07221A
:100E00003CA1284609F092F93948FFF762FA82B20C
:100E10003749284609F08AF9032238A1284609F003
:100E200085F9022223A1284609F080F92846BDE869
:100E30007040272232A109F079B900008007002014
:100E40002D2D2D2D2D2D2D2D2D2D2D2D2D2D2D2DD2
:100E50002D2D2D2D2D2D2D2D2D2D2D2D2D2D2D2DC2
:100E60002D2D0D0A00000000004800402A2A2A2AE1
:100E70002A2A2A2A2A2A2A2A2A2A424D5032383055
:100E80002A2A2A2A2A2A2A2A2A2A2A2A2A2A0D0AFF
:100E90000000000025660000B009002000007A4430
:100EA0009C090020543A0D0A00000000A1E60D0A3A
:100EB000000000000D0A0000503A0D0A000000007A
:100EC0004B50610D0A0000006E520543C40900201A
:100ED0006D6D48670D0A00000000C8420000000068
:100EE00000AA8F4000000000000022405C000020AB
:100EF000D8090020486967683A0D0A006D0D0A009C
:100F00002D2D2D2D2D2D2D2D2D2D2D2D2D2D2D2D11
:100F10002D2D2D2D2D2D2D2D2D2D2D2D2D2D2D2D01
:100F20002D2D2D0D0A0D0A001CB513A10623D1E9A4
:100F30000001CDE900016A46F721002000F052F8D7
:100F40009DF803009DF80410000340EA01109DF88D
:100F5000051040EA111008F0F3FC9DF800009DF820
:100F60000110000340EA01109DF8021040EA111040
:100F700008F02CFB1CBD000055555555555500007B
:100F80007CB501A808F0F6FD019808F025FD074C96
:100F90002060684608F0CEFD009808F01BFC05466E
:100FA000009808F0C5FB606028467CBD80070020E3
:100FB00008B50BA00323006800906A46FA210020C0
:100FC00000F010F89DF800009DF80110000340EAC1
:100FD00001109DF8021040EA111008F0B1FC08BDA4
:100FE000555555002DE9FF41144E9DF804009046DB
:100FF00040F0800000248DF804001F46224608219E
:10100000304602F052FC0223012201A90C4803F0F1
:1010100077FC651E00B12C4602233A46414608483B
:1010200003F0B4FB00B12C4601220821304602F047
:101030003CFC04B02046BDE8F081000000080048F8
:10104000B0050020FEB500261D460A23771E304657
:10105000B3EB450F01D23846FEBD00246B460FE0CE
:1010600001F07F0C03F800C0401CC0B212F804C0AD
:1010700003F800C0491C401C641CC9B2C0B2E4B2F1
:10108000AC42EDD30A4C00220821204602F00DFCB0
:101090006A0064236946074803F032FC00B13E460B
:1010A00001220821204602F000FC3046FEBD00006F
:1010B00000080048B0050020FEE7704770B5194CE5
:1010C00078B14FF4FA7004F00BFA032216A120460F
:1010D00009F02CF84FF44874204604F001FA204639
:1010E0001BE006F061FA102210A1204609F01EF85C
:1010F0004FF49675284604F0F3F911A11248FFF752
:10110000D6F8124C03E00EA10F48FFF7D0F820608C
:101110000028F8D006F048FA2846BDE8704004F0F0
:10112000DFB90000004C00402B2B2B0041542B5109
:10113000495357544D443D302C320D0A00000000F5
:10114000434F4E4E45435400D40800200000002079
:101150007FB500200090019002900390F9A1FB4818
:10116000FFF7A5F8FA4CFB4DE06000B30822FAA1A6
:10117000284608F0DBFFFB4A0021684653185B7DD8
:101180004354491C0F29F9DBFFF7A3F882B26946E3
:10119000284608F0CBFF0622F3A1284608F0C6FF38
:1011A0000222F3A1284608F0C1FF06F0FDF9F1A1E3
:1011B000E648FFF77CF8E06058B10C22EFA1284622
:1011C00008F0B4FF0222EAA1284608F0AFFF06F0BB
:1011D000EBF9EEA1DD48FFF76AF8E06028B10120E5
:1011E000FFF76CFF01F03EF8FCE7EAA1D748FFF7F4
:1011F0005EF8EA4EE06030B11122E9A1304608F015
:1012000095FF06F0D1F9EBA1D048FFF750F8E06068
:1012100030B11122E2A1304608F088FF06F0C4F98F
:10122000E6A1CA48FFF743F8E06030B11122DCA123
:10123000304608F07BFF06F0B7F9E2A1C348FFF79C
:1012400036F8E06030B11122D5A1304608F06EFFCB
:1012500006F0AAF9DDA1BD48FFF729F8E06030B13A
:101260001122CFA1304608F061FF06F09DF9D9A107
:10127000B648FFF71CF8E06030B11122C8A1304633
:1012800008F054FF06F090F9D4A1B048FFF70FF82A
:10129000E06030B11122C2A1304608F047FF06F0ED
:1012A00083F9D0A1A948FFF702F8E06030B111221C
:1012B000BBA1304608F03AFF06F076F9CBA1A3486F
:1012C000FEF7F5FFE06030B11122B5A1304608F01D
:1012D0002DFF06F069F9C7A19C48FEF7E8FFE06022
:1012E00030B11122AEA1304608F020FF06F05CF9C3
:1012F000C2A19648FEF7DBFFE06030B11122A8A141
:10130000304608F013FF06F04FF9BEA18F48FEF7F4
:10131000CEFFE06030B11122A1A1304608F006FFF7
:1013200006F042F9B9A18948FEF7C1FFE06030B18B
:1013300011229BA1304608F0F9FE06F035F9B5A15F
:101340008248FEF7B4FFE06030B1112294A130462C
:1013500008F0ECFE06F028F9B0A17C48FEF7A7FFE4
:10136000E06030B111228EA1304608F0DFFE06F0B9
:101370001BF9ACA17548FEF79AFFE06030B111226D
:1013800087A1304608F0D2FE06F00EF9A7A16F48FB
:10139000FEF78DFFE06030B1112281A1304608F0E8
:1013A000C5FE06F001F9A3A16848FEF780FFE060E2
:1013B00030B111227AA1304608F0B8FE06F0F4F8F8
:1013C0009EA16248FEF773FFE06030B1112274A164
:1013D000304608F0ABFE06F0E7F89AA15B48FEF74E
:1013E00066FFE06018B105F06DFE06F0DDF897A12C
:1013F0005648FEF75CFFE06030B1112268A130462C
:1014000008F094FE06F0D0F892A15048FEF74FFF86
:10141000E06030B1112262A1304608F087FE06F08C
:10142000C3F88EA14948FEF742FFE06030B11122B7
:101430005BA1304608F07AFE06F0B6F889A1434871
:10144000FEF735FFE06030B1112255A1304608F0BB
:101450006DFE06F0A9F885A13C48FEF728FFE06084
:1014600030B111224EA1304608F060FE06F09CF823
:1014700080A13648FEF71BFFE06030B1112248A181
:10148000304608F053FE06F08FF87CA12F48FEF797
:101490000EFFE06030B1112241A1304608F046FE57
:1014A00006F082F877A12948FEF701FFE06030B12D
:1014B00011223BA1304608F039FE06F075F873A101
:1014C0002248FEF7F4FEE06030B1112234A130462C
:1014D00008F02CFE06F068F86EA11C48FEF7E7FE47
:1014E000E06030B111222EA1304608F01FFE06F058
:1014F0005BF86AA11548FEF7DAFEE06030B1112210
:1015000027A1304608F012FE06F04EF865A10F48FC
:10151000FEF7CDFEE06058B10C2264A1284608F029
:1015200005FE022212A1284608F000FE06F03CF853
:1015300062A10648FEF7BBFEE060002801D013223E
:10154000C2E0C6E03078303100000000D40800204E
:1015500000000020004C004037383738304130312F
:1015600000000000180300203031304430410000FA
:101570000D0A000030783038000000003738373866
:1015800030313038304430410000000030783130A4
:1015900000000000307831330000000000480040B7
:1015A00042302072756E6E696E6721212121210DF6
:1015B0000A00000030783134000000003078313506
:1015C0000000000030783136000000003078333001
:1015D00000000000307834300000000030783431F2
:1015E00000000000307834320000000030783433DE
:1015F00000000000307834340000000030783436C9
:1016000000000000307834370000000030783438B3
:1016100000000000307834390000000030783530A8
:101620000000000030783536000000003078353793
:101630000000000030783538000000003078363186
:101640000000000030783636000000003078363771
:101650000000000030783830000000003078383169
:101660000000000030783832000000003078383355
:101670000000000030783836000000003078393241
:101680000000000030783933000000003078393431
:101690000000000030783937000000003078393819
:1016A0000000000030783939000000003738373842
:1016B0003031393930443041000000004E4F204372
:1016C000415252494552000002A1304608F02EFD19
:1016D00035E77FBD53657276657220497320436C90
:1016E0006F736564210D0A002DE9F041434E0546F4
:1016F0000D223EA1304608F019FD414C0D223BA1C0
:10170000204608F013FD642003F0EAFE2846FEF7A9
:10171000E0FD82B22946204608F008FD642003F06F
:10172000DFFE1A2020852546E869C0F380100028D6
:10173000FAD0642003F0D4FE32A13448FEF7B7FD9E
:10174000334C206008E02FA13048FEF7B0FD206048
:101750000A2003F0C5FE20680028F4D0642003F0BE
:10176000BFFE2A48FEF7B5FD82B22849304608F090
:10177000DDFC05F019FF0F2226A1304608F0D6FC4B
:101780000F2224A1284608F0D1FCC82003F0A8FEAF
:1017900024A11E48FEF78BFD20600F221DA13046BC
:1017A00008F0C4FC0F221BA1284608F0BFFCC8208B
:1017B00003F096FE1BA11548FEF779FD1CA12060E1
:1017C000FEF775FD20601AA1401CFEF770FD206039
:1017D00040783038C7B205F0E7FE002FDDD1304643
:1017E000BDE8F041112213A108F0A0BC41542B51D7
:1017F0004953454E443D300D0A000000004800406A
:10180000004C004053454E44204F4B00D40800206C
:101810000000002041542B514953454E443D302C8B
:10182000300D0A002B514953454E443A0000000048
:101830002C00000053656E6420466C69736821219A
:101840002121210D0A0000002DE9F04FA9B000254B
:101850002E460127202119A8FEF71EFD202121A8D0
:10186000FEF71AFD64216846FEF716FDDFF89C912D
:1018700028225BA1484608F059FC654C21A901E0EB
:101880008855761CA019407D2228F9D10846FEF71C
:1018900020FD82B221A9484608F048FC02225DA141
:1018A000484608F043FC36225BA1484608F03EFC5F
:1018B00006F04AF9DFF898A14FF47A7B0DF164083D
:1018C00064A16548FEF7F3FCCAF80000D8B1002512
:1018D0006148414601E04A556D1C42199278002A40
:1018E000F9D14FF4FA7003F0FBFD19A8FEF7F1FCF3
:1018F00082B219A9484608F019FC06F025F95846A5
:1019000003F0EEFD04E0584603F0EAFD002FD7D1C6
:10191000AF1EB7420DD1202250A1484608F006FC68
:101920000020414603E00A5C2318401C5A75B84267
:10193000F9DBB74228DD202248A1484608F0F6FB33
:1019400000206946225C0A54401C1528FADB00205E
:1019500003E043190B44401CDA7482192244527D7F
:10196000002AF6D10020424605E0135C01EB000C92
:10197000401C8CF81530B842F7DB002001E02254FF
:10198000401C0A5C002AFAD1B74218DA202233A19F
:10199000484608F0CBFB002003E042192244401CDB
:1019A000D17481192144497D0029F6D10020414696
:1019B00003E00A5C2318401C5A75B842F9DB14484E
:1019C000FEF787FC82B212494C46484608F0AEFB4F
:1019D00036222BA1204608F0A9FB29B000F06CB8F4
:1019E000546865206F726967696E616C20736572F7
:1019F00076657220495020636F6E66696775726103
:101A000074696F6EA3BA0D0A000000000048004020
:101A1000200400200D0A0000506C6561736520658C
:101A20006E74657220746865206D6F64696669659F
:101A3000642049502865673A49505858582E5858DC
:101A4000582E5858582E58585829A3BA0D0A000035
:101A500000000020495000000C080020495020617F
:101A6000646472657373206973206265696E6720B0
:101A7000757064617465642E2E2E0D0A00000000DE
:101A800054686520495020616464726573732068EE
:101A90006173206265656E206368616E6765642EA0
:101AA00020506C6561736520726573746172742E69
:101AB0002E2E0D0A0D0A000030BCBDE8C08F0000BC
:101AC0002DE9F043A9B0814600242646202119A81B
:101AD000FEF7E2FB202121A8FEF7DEFB6421684629
:101AE000FEF7DAFB5F4F282253A1384608F01EFBB1
:101AF0005D4D21A901E08855761CA819407D22285A
:101B0000F9D10846FEF7E5FB82B2B84621A9404666
:101B100008F00CFB022255A1384608F007FB54A13F
:101B20004846FEF7C4FB534919AF0860C8B100240A
:101B300001E03855641C09EB040080780028F8D1D6
:101B40004FF4FA7003F0CCFC23224BA1404608F07E
:101B5000EDFA19A8FEF7BDFB82B219A9404608F0BC
:101B6000E5FA022241A1404608F0E0FA4FF47A700B
:101B700003F0B6FCB4420CD1202248A1404608F044
:101B8000D5FA002003E0395C2A18401C5175A042A8
:101B9000F9DBB44225DD202240A1404608F0C6FA18
:101BA000002069462A5C0A54401C1528FADB0020F4
:101BB00003E003190B44401C5A7582192A44527DD4
:101BC000002AF6D1002003E03A5C0B18401C5A753D
:101BD000A042F9DB002001E02A54401C0A5C002AE4
:101BE000FAD1B44217DA20222CA1404608F09EFA1E
:101BF000002003E002192A44401C51758119294430
:101C0000497D0029F6D1002003E0395C2A18401CE8
:101C10005175A042F9DB1448FEF75BFB82B2124912
:101C20004446404608F082FA362225A1204608F0B4
:101C30007DFA29B0BDE8F083546865206F7269674A
:101C4000696E616C207365727665722049502063FD
:101C50006F6E66696775726174696F6EA3BA0D0AFB
:101C60000000000000480040200400200D0A000091
:101C70004950000000000020546865204950206150
:101C800064647265737320746F2062652063686199
:101C90006E676564206973A3BA0D0A00495020611C
:101CA000646472657373206973206265696E67206E
:101CB000757064617465642E2E2E0D0A000000009C
:101CC00054686520495020616464726573732068AC
:101CD0006173206265656E206368616E6765642E5E
:101CE00020506C6561736520726573746172742E27
:101CF0002E2E0D0A0D0A00002DE9F04FAFB0002482
:101D000025460127202126A8FEF7C6FA20211DA876
:101D1000FEF7C2FA642104A8FEF7BEFADFF8E8B1C4
:101D20002A226EA1584608F001FA784800E0641CA7
:101D30000119497D2229FAD1002626AA01E09155F0
:101D4000761C311901448146C97D2C29F7D11046F2
:101D5000FEF7BFFA82B226A9584608F0E7F9022238
:101D600068A1584608F0E2F92F2269A1584608F008
:101D7000DDF905F0E9FEDFF8C8810DF1740A71A103
:101D80007248FEF794FAC8F80000E0B100256F48E9
:101D9000514601E04A556D1C42191279002AF9D1C9
:101DA0004FF4FA7003F09CFB1DA8FEF792FA82B282
:101DB0001DA9584608F0BAF905F0C6FE4FF47A702E
:101DC00003F08EFB05E04FF47A7003F089FB002FDF
:101DD000D5D1AF1EB74211D11A225DA1584608F0E5
:101DE000A5F9002051464A4606E000EB040C0B5CC6
:101DF0009444401C8CF81730B842F6DBB7423ADD09
:101E000020225AA1584608F091F9002204A804F1B2
:101E10001703494605E000BF11F802C000F802C0F0
:101E2000521C9A42F8DB002209E0334402EB050C15
:101E30000B44A4448444DB7D8CF81530521C1319E8
:101E400003EB010C9CF815C0BCF1000FEDD1002292
:101E5000534607E002EB040813F802C08044521C0A
:101E600088F817C0BA42F5DB002201E08B54521CFF
:101E7000835C002BFAD1B7421EDA20223BA15846E0
:101E800008F054F90021484607E032444B19024457
:101E900023440344D27D5A75491C0A1913185B7DEB
:101EA000002BF2D10021524604E00D19535C054489
:101EB000491CEB75B942F8DB1448FEF70AFA82B206
:101EC00012495C46584608F031F9372230A12046C5
:101ED00008F02CF92FB000F077B8000054686520A6
:101EE0006F726967696E616C2073657276657220C6
:101EF000506F727420636F6E666967757261746982
:101F00006F6EA3BA0D0A00000048004020040020B4
:101F1000506C6561736520656E74657220746865C8
:101F2000206D6F64696669656420506F72742865FE
:101F3000673A506F72745858585829A3BA0D0A005E
:101F400000000020506F7274000000000C08002098
:101F5000506F7274206973206265696E67207570B6
:101F600064617465642E2E2E0D0A000049502061B4
:101F7000646472657373206973206265696E67209B
:101F8000757064617465642E2E2E0D0A00000000C9
:101F90005468652053657276657220506F727420A4
:101FA000686173206265656E206368616E67656451
:101FB0002E20506C65617365207265737461727454
:101FC0002E2E2E0D0A0D0A0030BCBDE8C08F000079
:101FD0002DE9F047AEB0814600242546202125A8F2
:101FE000FEF75AF920211BA8FEF756F9642102A832
:101FF000FEF752F9DFF8B8A12A2262A1504608F094
:1020000095F86C4E00E0641C3019407D2228FAD10E
:10201000002725A901E0C8557F1C38193044C07D30
:102020002C28F8D10846FEF754F982B225A950466B
:1020300008F07CF802225DA1504608F077F82422CF
:102040005DA1504608F072F865A14846FEF72FF9E9
:1020500065490DF16C080860A8B10025404601E013
:1020600041556D1C09EB050109790029F8D14FF4A0
:10207000FA7003F035FA1BA8FEF72BF982B21BA900
:10208000504608F053F84FF47A7003F029FA022210
:1020900046A1504608F04AF8BD420ED11A2253A17B
:1020A000504608F043F80020414604E003190A5C5A
:1020B0003344401CDA75A842F8DBBD4230DD2022F3
:1020C00051A1504608F032F8002102A804F117028D
:1020D00002E0735C4354491C9142FADB002107E0A3
:1020E0003A444B19324423440344D27DDA75491CE7
:1020F0000A1993195B7D002BF2D10021424606E0BC
:1021000001EB040C535C8444491C8CF81730A94241
:10211000F6DB002101E07254491C425C002AFAD12E
:10212000BD421DDA202238A1504607F0FFFF0020F3
:1021300007E039444219314422443244C97DD17503
:10214000401C01198A19527D002AF2D10020414613
:1021500004E003190A5C3344401CDA75A842F8DB3A
:102160001448FEF7B6F882B212495446504607F0BA
:10217000DDFF37222DA1204607F0D8FF2EB0BDE8A5
:10218000F0870000546865206F726967696E616C42
:102190002073657276657220506F727420636F6E63
:1021A00066696775726174696F6EA3BA0D0A000083
:1021B0000048004020040020546865205365727672
:1021C000657220506F727420746F2062652063689E
:1021D000616E676564206973A3BA0D0A0000000090
:1021E000506F72740000000000000020506F727485
:1021F000206973206265696E67207570646174651B
:10220000642E2E2E0D0A0000495020616464726510
:102210007373206973206265696E672075706461ED
:102220007465642E2E2E0D0A00000000546865208F
:1022300053657276657220506F72742068617320E6
:102240006265656E206368616E6765642E20506C00
:102250006561736520726573746172742E2E2E0D24
:102260000A0D0A0070B505F09FF9224D14221BA13A
:10227000284607F05BFF204E142218A1304607F0D5
:1022800055FF4FF4FA7003F02BF91CA11E48FEF71E
:102290000EF81E4CA06012E0322003F021F917A1C5
:1022A0001948FEF704F8A06014220CA1284607F094
:1022B0003DFF142209A1304607F038FFA06800282E
:1022C000EAD01148FEF705F882B20F49284607F018
:1022D0002DFFBDE870400C48FFF706BA41542B5162
:1022E000475053474E4D45413D22474741220D0A35
:1022F0000000000000480040004C00402B514750B7
:1023000053474E4D45413A00D408002000000020BC
:1023100070B53F4C222235A1204607F007FF22224C
:102320003CA1204607F002FF062243A1204607F009
:10233000FDFE43480546FDF7CCFF82B22946204604
:1023400007F0F4FE17223FA1204607F0EFFE3C48BD
:102350001438FDF7BEFF3A4982B21439204607F01F
:10236000E5FE1B223DA1204607F0E0FE34481E306A
:102370000546FDF7AEFF82B22946204607F0D6FE9D
:102380000D223DA1204607F0D1FE2D4882300546A2
:10239000FDF79FFF82B22946204607F0C7FE2422A0
:1023A00039A1204607F0C2FE0A2241A1434807F0A6
:1023B000BDFE4FF4FA7003F093F841A14448FDF7D5
:1023C00076FF10B10C2243A101E00A2245A120466C
:1023D00007F0ACFE02220DA1204607F0A7FE204622
:1023E000BDE87040232242A107F0A0BE2D2D2D2D67
:1023F0002D2D2D2D2D2D2D2D2D2D2D2D2D2D2D2D0D
:102400002D2D2D2D2D2D2D2D2D2D2D2D0D0A000099
:10241000004800402A2A2A2A2A2A2A2A2A2A2A2A3C
:102420002A2A454332302A2A2A2A2A2A2A2A2A2ACA
:102430002A2A2A2A0D0A0000494D4549A3BA00005C
:102440002C0300200D0A0D0A43757272656E745FCD
:10245000436172645F4950A3BA0D0A000D0A0D0A68
:102460004D6F64756C655F76657273696F6E5F6ED4
:10247000756D626572A3BA000D0A4F706572617462
:102480006F7273A3BA0000000D0A0D0A57686574D5
:102490006865722053494D2063617264206973201E
:1024A000696E20706C616365A3BA0D0A00000000BC
:1024B00041542B4350494E3F0D0A0000004C004050
:1024C0002B4350494E3A20524541445900000000E8
:1024D000D408002053494D205245414459210D0A4A
:1024E0000000000053494D204572726F72210000B8
:1024F0002D2D2D2D2D2D2D2D2D2D2D2D2D2D2D2D0C
:102500002D2D2D2D2D2D2D2D2D2D2D2D2D2D2D0D1B
:102510000A0D0A0010B50E4C01228021204601F060
:10252000C4F9C82002F0DCFF00228021204601F01F
:10253000BCF94FF4967002F0D3FFC82002F0D0FF30
:1025400020460122BDE81040802101F0AEB9000014
:10255000000800482DE9F0470120FEF7AFFDFF4DD0
:102560000422FCA1284607F0E1FDFD4F0422F9A159
:10257000384607F0DBFD4FF4FA76304602F0B0FF44
:10258000F8A1F948FDF793FEF84C12E005F00CF8BD
:102590000422F0A1284607F0C9FD0422EDA1384627
:1025A00007F0C4FD304602F09BFFEEA1EE48FDF7B8
:1025B0007EFE20600028E9D0EB48FDF78AFE82B25B
:1025C000E949284607F0B2FD04F0EEFF0A22E8A12F
:1025D000284607F0ABFD0A22E5A1384607F0A6FD24
:1025E000304602F07DFFE5A1DF48FDF760FE206088
:1025F000DD48FDF76EFE82B2DB49284607F096FD06
:10260000206848B90B22E0A1284607F08FFD0B2275
:10261000DDA1384607F08AFD304602F061FF062250
:10262000DCA1284607F082FD0622DAA1384607F031
:102630007DFD304602F054FFCB48FDF74AFE82B2E2
:10264000C949284607F072FD04F0AEFF0822D3A165
:10265000384607F06BFD0822D0A1284607F066FD3A
:10266000304602F03DFFB946BF4FB246B878303829
:1026700009280AD904F098FF0822C8A1484607F0A3
:1026800055FD504602F02CFFF0E7B748FDF721FE5C
:1026900082B2B549284607F049FDC34E00203918DB
:1026A00032184978401C11751028F8DBBE481430E8
:1026B0008046FDF70EFE82B24146A846284607F046
:1026C00035FD04F071FF0822B8A1404607F02EFD49
:1026D0000822B6A1484607F029FD5546504602F0AB
:1026E000FFFEA148FDF7F5FD82B29F49404607F085
:1026F0001DFD0522B0A1404607F018FD0522AEA140
:10270000484607F013FD284602F0EAFE0020321882
:10271000395C401C82F832106428F8DB9248FDF7DF
:10272000D8FD82B29049404607F000FD04F03CFF1E
:102730000A22A3A1404607F0F9FC0A22A0A14846BC
:1027400007F0F4FC284602F0CBFEA0A18648FDF776
:10275000AEFDAA46206013E004F026FF0A2298A1ED
:10276000404607F0E3FC0A2295A1484607F0DEFC4C
:10277000504602F0B5FE95A17B48FDF798FD20601C
:102780000028E9D07848FDF7A4FD82B27649454695
:10279000404607F0CBFC04F007FF0B228FA1284630
:1027A00007F0C4FC0B228DA1484607F0BFFCD046C1
:1027B000504602F095FE8CA16B48FDF778FDE06075
:1027C0008CA16948FDF773FDC246606019E000BF47
:1027D00004F0EAFE0B2281A1284607F0A7FC0B2299
:1027E0007EA1484607F0A2FC504602F079FE7EA189
:1027F0005D48FDF75CFDE0607EA15B48FDF757FD9D
:102800006060D4E900010843E2D05748FDF761FD5C
:1028100082B25549284607F089FC04F0C5FE0A2219
:1028200077A1284607F082FC0A2275A1C8464846CF
:1028300007F07CFC504602F053FE00203218395C51
:10284000401C82F896101E28F8DB4748FDF741FD32
:1028500082B24549A946284607F068FC04F0A4FE68
:102860000E226AA1484607F061FC0E2267A140468D
:1028700007F05CFC5546504602F032FE3A48FDF740
:1028800028FD82B23849484607F050FC04F08CFE1F
:102890001F2262A1484607F049FC1F225FA1404663
:1028A00007F044FC284602F01BFE2EA12E48FDF73F
:1028B000FEFCAA46206007E0504602F011FE29A166
:1028C0002948FDF7F4FC20600028F5D02648FDF7E4
:1028D00000FD82B224494D46484607F027FC04F02B
:1028E00063FE0E2255A1284607F020FC0E2253A1BC
:1028F000C146404607F01AFCD046504600E040462C
:1029000002F0EEFD17A11848FDF7D1FC2060002869
:10291000F5D01548FDF7DDFC82B21349284607F0D3
:1029200005FC04F041FE0C2248A1284607F0FEFBFE
:102930000C2246A1484607F0F9FB404602F0D0FDC4
:1029400008A10948FDF7B3FC20600028F5D006482F
:1029500084E0000041540D0A0000000000480040DF
:10296000004C00404F4B0000D40800200000002025
:1029700041542B514750533F0D0A00002B514750F3
:10298000533A20310000000041542B514750533D31
:10299000310D0A00415445300D0A000041542B47C7
:1029A000534E0D0A000000001803002041542B4331
:1029B00053510D0A000000004154490D0A00000067
:1029C00041542B4350494E3F0D0A00002B435049C0
:1029D0004E3A2052454144590000000041542B43D7
:1029E000475245473F0D0A002B43475245473A207F
:1029F000302C31002B43475245473A20302C3500CC
:102A000041542B434F50533F0D0A000041542B516A
:102A100049434C4F53453D300D0A000041542B5162
:102A200049435347503D312C312C22434D4E4554A0
:102A3000222C22222C22222C300D0A0041542B5110
:102A40004944454143543D310D0A000041542B5146
:102A5000494143543D310D0A00000000FDF739FCA7
:102A600082B22D49284607F061FB04F09DFD0B2240
:102A70002AA1284607F05AFB0B2228A1484607F056
:102A800055FB404602F02CFD00203918497C2229D4
:102A900003D03154401C0F28F7DB1F48FDF719FC09
:102AA00082B21D49284607F041FB04F07DFD1E4817
:102AB000FDF70FFC82B21C49284607F037FB1A4885
:102AC000FDF707FC82B21849484607F02FFB46463F
:102AD000404602F005FD15A10F48FDF7E8FB206018
:102AE00008E012A10C48FDF7E2FB2060642002F030
:102AF000F7FC20680028F4D00748FDF7EAFB82B213
:102B00000549284607F012FB304602F0E9FCBDE813
:102B1000F04704F049BD0000D408002041542B5177
:102B2000494143543F0D0A0020040020434F4E4EBC
:102B300045435400F0B5044690F8540000269BB07D
:102B40000D4601280DD0012084F854003249206838
:102B50000027884208D13149009102F016FA58B195
:102B60000EE002201BB0F0BDA06D40F02000A0657B
:102B700084F854700120F5E7009802F006FA48B195
:102B8000A06D40F02000A0655FF0010684F854704D
:102B90003046E7E722482A6840F61F71002A82681B
:102BA00022F460421FD0636B42EA43326B681A43DF
:102BB00082602268936803F00303012B02D112683C
:102BC000D207E3D1009A926802F00302012A03D1EE
:102BD000009A1268D207D9D1AB682A681A43836871
:102BE0008B431A4315E082602268936803F0030365
:102BF000012B02D11268D207C8D1009A926802F064
:102C00000302012A03D1009A1268D207BED182685A
:102C10008A438260BAE700000000045000010450BB
:102C2000000304502DE9F84300250446009590F870
:102C30005400DFF870840E46A946012807D001270A
:102C400084F85470206802F09CF918B1E5E1022084
:102C5000BDE8F8837068052812D8022807D0032839
:102C600007D0042807D0052807D0062007E00C204D
:102C700005E0122003E0182001E04FF4807070603E
:102C8000B1884FF4407C01F440739CFAACFCBCFA70
:102C90008CFC206823FA0CF300EB8300326801F00F
:102CA0001F014FF01F0C0CFA01FC036BC2F384628E
:102CB00023EA0C038A40134303632068816811F000
:102CC0000C0F1CD1B268316802F063F92068716999
:102CD000C268C2F3C102520091403269042A0FD087
:102CE00000EB82003368DFF8C0C3026E03F0F843E4
:102CF00002EA0C020B431A4342F00041016672E003
:102D0000002102F038F9400320684FF0000173D031
:102D100002F031F990FAA0F0B0FA80F13068420385
:102D20006FD090FAA0F0B0FA80F0814204D1002276
:102D30001146206802F050F90121206802F01BF9C9
:102D4000400320684FF001015ED002F014F990FAC0
:102D5000A0F0B0FA80F1306842035AD090FAA0F0A7
:102D6000B0FA80F0814204D100220121206802F0F3
:102D700033F90221206802F0FEF8400320684FF08A
:102D8000020149D002F0F7F890FAA0F0B0FA80F111
:102D90003068420345D090FAA0F0B0FA80F081424A
:102DA00004D100220221206802F016F903212068D4
:102DB00002F0E1F8400320684FF0030134D002F044
:102DC000DAF890FAA0F0B0FA80F13068420330D01F
:102DD00090FAA0F0B0FA80F0814204D100220321E1
:102DE000206802F0F9F82068816801F003010129E8
:102DF00025D121E000E004E002F0BDF8C0F38461D9
:102E00008CE7C0F3846090E702F0B5F8C0F384610A
:102E1000A1E7C0F38460A5E702F0ADF8C0F38461D8
:102E2000B6E7C0F38460BAE702F0A5F8C0F38461A6
:102E3000CBE7C0F38460CFE70168C9077ED1327B5E
:102E4000316850F8B03FC1F3120C23EA0C0302F0D2
:102E5000200C4FF0FF3202FA0CF20A40C2F31201CA
:102E60000B430360F16841456CD13068410318D0D1
:102E700090FAA0F1B1FA81F1491C09294FEA4031D9
:102E80002ED8002910D000BF90FAA0F1B1FA81F13C
:102E900001F1010107FA01F709D100BFC0F3846114
:102EA00009E0C0F38461E7E7C0F38461F0E790FADA
:102EB000A0F1B1FA81F101F1010147EA816102D18A
:102EC000C0F3846003E090FAA0F0B0FA80F000EB69
:102ED00040004FF4401202EB005041EA00012AE0AA
:102EE00000290CD090FAA0F1B1FA81F101F10101B1
:102EF00007FA01F706D100BFC0F3846106E0C0F312
:102F00008461F3E790FAA0F1B1FA81F101F10101D6
:102F100047EA816102D1C0F3846003E090FAA0F037
:102F2000B0FA80F0614A00EB400002EB005041EA49
:102F3000000141F00071B268206801E072E001E038
:102F400002F027F833685A4E5A4FDFF86C815B491C
:102F5000B34204D1886800F0E07000020DD5BB4296
:102F600004D1886800F0E070C00106D5434559D10E
:102F7000886800F0E070400254D42268906800F045
:102F80000300012802D11068C00746D14C48824294
:102F900015D1D0F808C10CF0030CBCF1010F04D11D
:102FA000D0F800C15FEACC7C37D1D0F808C20CF071
:102FB000030CBCF1010F39D1D0F800C22AE0DFF8D0
:102FC00004C16245D0F808C00CF0030C11D1BCF16B
:102FD000010F04D1D0F800C05FEACC7C1DD1D0F83D
:102FE00008C20CF0030CBCF1010F0AD1D0F800C2EA
:102FF00004E0BCF1010F04D1D0F800C05FEACC7C42
:103000000BD1D0F808C10CF0030CBCF1010F0DD1AD
:10301000D0F800C15FEACC7C08D0A06D40F0200061
:10302000A065012584F85490284611E6DFF898C081
:10303000B3421BD1824201D06245F3D188688A68CD
:1030400000F0E07040F4000022F0E07202438A6079
:103050001E481F490068B0FBF1F0C0EB0010C00033
:1030600000E0401E00900028FBD1DBE7BB4209D105
:10307000824201D06245D5D1886800F0E07040F00E
:10308000807008E04345CDD18242CBD1886800F002
:10309000E07040F480008A6822F0E07202438A60A7
:1030A000C0E7000000007F4000F0FF03000050FE7A
:1030B000000052C7000084CB0100008000030450D0
:1030C000000004500001045000020450F4000020ED
:1030D00080841E00806D70470068006C704700009F
:1030E000F8B54FF0000504002E46009502D0A06D03
:1030F00010B107E00120F8BD204600F0FDF8E665BC
:1031000084F8546020688168C1F3407119B1816806
:10311000704A1140816020688168C1F3007191B9E3
:1031200081686D4A114041F0805181606B486C4963
:103130000068B0FBF1F000EB8000400000E0401EB2
:1031400000900028FBD120688168C1F3007141B96B
:10315000A16D41F01001A165E16D41F00101E16552
:103160000125A16DC90602D401F00BFF30B1A06D9D
:1031700040F01000A06501252846F8BDA06D20F4A0
:10318000807040F00200A0652168886800F00300AC
:10319000012802D10868C0073FD15248814212D1AC
:1031A000D0F8081101F00301012903D1D0F8001172
:1031B000C90732D1D0F8081201F00301012925D145
:1031C000D0F8000220E0484A9142816801F00301F2
:1031D0000DD1012902D10168C9071ED1D0F808120A
:1031E00001F00301012907D1D0F8001202E0012902
:1031F00002D10168C90710D1D0F8081101F003010C
:10320000012903D1D0F80001C00706D13749606811
:103210008A6822F47C1202438A60E168A06BE2694A
:103220000843A16841EA42310843616A40EA01402B
:10323000012904D1218D2E4A02EB41410843E16A64
:1032400029B101F47071226B014342EA0100226846
:10325000D168284B19400143D1602068816811F082
:103260000C0F12D1A169626B890341EA4202C16865
:1032700044F2020399431143C160E06B01280CD072
:103280002068016921F0010101612069012820689D
:10329000016B21F00F0111D013E0D4E910010843B4
:1032A000D4E912121143084321680A6940F2FC7301
:1032B0009A43104340F001000861E6E7226A521E7B
:1032C00011430163A06D20F0020040F00100A065F1
:1032D00052E70000C0FFFF5FC0FFFF7FF400002047
:1032E00080841E00000004500001045000030450BC
:1032F0000000FEFF07C0F0FF08B5006806498842DD
:1033000008D10648C16C41F40051C164C06C00F49E
:103310000050009008BD0000000004500010024062
:103320002DE9F04104464069444D0F46082822D05B
:103330002068A84202D0424988421ED1D5F808131D
:10334000C9061AD0D5F8081301F01F01052914D0B9
:10335000D5F8081301F01F0109290ED0D5F808038C
:10336000C0F3813002280BD0D5F80803C0F38130B8
:10337000032805D00BE008260AE0C068C00706D085
:10338000A06D40F02000A0650120BDE8F08104267A
:1033900000F090FA804611E0781C0FD02FB100F0B9
:1033A00089FAA0EB0800B84208D9A06D40F00400EB
:1033B000A065002084F854000320E6E72068006838
:1033C0003042E9D0A06D40F40070A0652068C1686B
:1033D00011F4406F0FD1E16969B9016809070AD595
:1033E000A16D21F48071A165A16DC90403D4A16D03
:1033F00041F00101A165A8421BD01249884218D0B2
:10340000D5F80813C90614D0D5F8081301F01F0128
:1034100005290ED0D5F8081301F01F01092908D09D
:10342000E968082E07D0490401D40C21016000206E
:10343000ABE7C168F5E70821F8E700000000045099
:10344000000104500002045070B50446006801F009
:1034500098FD10B10222104670BD94F85400012866
:103460000CD0012084F854002046FDF7F3FA020046
:103470004FF0000104D084F85410ECE7022070BD36
:10348000A06D40F60163984340F48070A065274822
:103490002368274D834205D0AB4203D0D0F80863A0
:1034A000F60603D1A66D26F48016A665A66DF60471
:1034B00004D5E66D26F00606E66500E0E1651C260B
:1034C0001E6084F85410216881421FD0A9421DD08B
:1034D000D0F80833DB0619D0D0F8083303F01F0307
:1034E000052B13D0D0F8083303F01F03092B0DD0A0
:1034F000A16D41F48011A165C0688001ABD5A06DBC
:1035000020F4005040F48050A065A4E7C868800112
:1035100005D5A06D20F4005040F48050A065886867
:10352000044B1840001D886095E70000000004501F
:1035300000020450C0FFFF7F30B51F235FF001057C
:1035400005FA03F40C4201D15B1EF9D27AB1082AC4
:1035500009D0102A04D0182A07D1072B05D206E07B
:10356000082B02D203E0102B01D3012030BD0368E9
:1035700059610068816821F01801114381600020C1
:1035800030BD000010B5040010D0607F20B90020CD
:103590002077204600F030F802206077207938B19B
:1035A000D4E902122046FFF7C7FF48B1012010BD41
:1035B0002168104848612068816821F01801816005
:1035C0006079A0B12069216808612068816862691A
:1035D00021F060011143816020688168A26921F0B7
:1035E00080011143816001206077002010BD4FF001
:1035F000FF30E8E7B71DC10408B5006806498842F6
:1036000008D10648816C41F480518164806C00F4DB
:103610008050009008BD00000030024000100240C1
:1036200070B568B12B4C036814222B49A34209D210
:103630002A4C1C44B4FBF2F29200C0E910120BE0D9
:10364000012070BD234C64421C44B4FBF2F2920092
:103650004264204A083A0264022280F825201C684D
:1036600047F6F0729443D0E902252A43D0E9045684
:1036700035432A4385692A43C5692A43056A2A4393
:1036800022431A608268B2F5804F15D0036C0F2276
:103690008B4202D151F8A83F02E00E49A0310B68DD
:1036A00090F84440A24093430B6090F84430426845
:1036B0009A400B681A430A600021C16201634163AA
:1036C0008163C163012280F8252080F82410084618
:1036D00070BD00000804024000000240F8FFFDBF7A
:1036E0002DE9F84FDFF898B100234FF0010C4FF0AF
:1036F000030A4FF00F090BF1040EB9E00CFA03F4C2
:10370000224070D04D68022D01D0122D0ED1DD085F
:1037100000EB8508D8F820505E07F70E09FA07F687
:10372000B5430E69BE402E43C8F8206007685E00AE
:1037300091F804800AFA06F508F00308AF4308FA86
:1037400006F848EA0708C0F800804F68012F05D046
:10375000022F03D0112F01D0122F13D1D0F80880DF
:10376000CF6828EA0508B74047EA08078760D0F81D
:1037700004800F7928EA0408C7F300179F4047EA3E
:1037800008074760D1F804806FEA0807BF0706D131
:10379000C76AA743C8F3C0049C403C43C462C468E2
:1037A000AC438D68B5402543C5604C68E4005ED5E8
:1037B000344C256E45F001052566246E23F0030583
:1037C00004F001040094304C2E19B4689D072F0FAB
:1037D00009FA07F5AC43B0F1904F05D02B4DA84244
:1037E00004D101251CE042E0002519E0284DA84243
:1037F00001D1022514E0274DA84201D103250FE095
:10380000254DA84201D104250AE0244DA84201D14A
:10381000052505E0224DA84201D1062500E0072537
:10382000BD402543B560DBF800405D464E689443DB
:10383000F60300D514432C60DEF8004075464E6850
:103840009443B60300D514432C600D4D08352C6805
:103850004E689443F60200D514432C60084D0C3595
:103860002C684E689443B60200D514432C605B1C50
:103870000A6832FA03F57FF441AF00F013B8000094
:103880000004014000100240000001400004004814
:1038900000080048000C00480010004800140048D0
:1038A0000018004818BCBDE8E08F0AB1816170477C
:1038B000816270470148006870470000F0000020F6
:1038C00010B5032000F088F8002000F005F800F0A3
:1038D00017F8002010BD000010B5044607484FF44B
:1038E0007A710068B0FBF1F001F0F2F90022214694
:1038F000501E00F051F8002010BD0000F400002020
:103900001E4808B5016E41F001010166016E01F02B
:1039100001010091816D41F080518165806D00F061
:1039200080500090032000F057F8002211466FF0FD
:103930000B0000F031F8002211466FF00A0000F091
:103940002BF8002211466FF0090000F025F8002244
:103950001146501F00F020F800221146101F00F001
:103960001BF800221146901E00F016F80022BDE858
:1039700008401146501E00F00FB800000010024031
:1039800000F01F02012191404009800000F1E02079
:10399000C0F8001170470000F0B40E4B1B680C46D5
:1039A000C3F30223C3F10705042D00D90425191D13
:1039B000072901D2002300E0DB1E012606FA05F1EB
:1039C000491E214099409E40761E16403143F0BC6E
:1039D00002F092BF0CED00E0064900F00702086813
:1039E0004FF6FF03184040EA0220034A10430860E4
:1039F000704700000CED00E00000FA051549B0F535
:103A0000007F0868C0F3412009D0022805D008686B
:103A100020F4C06040F480600860002070470128F6
:103A2000FBD0086820F4C06040F4007008600A48C9
:103A30000A4A0068B0FBF2F03222504300E0401E18
:103A400010B14A695205FAD448694005E5D503200A
:103A50007047000000700040F400002040420F005A
:103A60000248416841F400714160704700700040B5
:103A70000248006800F4C060704700000070004019
:103A8000F8B50446FFF716FF06465CB194F8380017
:103A9000012809D0012784F8387094F839000025EE
:103AA00020B10BE00120F8BD0220F8BD84F83850A9
:103AB000204600F03DF841F288302064206801681B
:103AC000A2686FF0FF0321F4706103EB022211433F
:103AD0000160206C0090334600222021204602F035
:103AE0001CFFE8B921680A680F4B1A40237942EAA3
:103AF0000362E3681A430A60D4E90512114322689D
:103B000053680A4E3340268A43EA064319435160FC
:103B100021680A6842F001020A60E56384F839709E
:103B200084F83850F8BD0000EFFFFF00FEF8E0FF1A
:103B3000F0B50068154987B0884224D11448016D5A
:103B400041F480710165006D022400F480700590DD
:103B500040F60340002503260A278DE8F100694658
:103B60000C48FFF7BDFDC0208DE8F10069464FF01D
:103B70009040FFF7B5FD00220F214720FFF70CFF13
:103B80004720FFF7FDFE07B0F0BD0000001000A0C9
:103B900000100240000400482DE9F84F04460027B9
:103BA0000088E54D3E46010504F1200B1DD5606EF1
:103BB00078B1B0F5800F11D0B0F5000F04D0B0F59A
:103BC000400F22D001270FE0E86840F48030E86021
:103BD0001BE00021201D02F0C5FE03E00021584635
:103BE00002F056FF070010D03E462088C00426D5BC
:103BF000A06EC0B1B0F1807F1AD0B0F1007F0DD0BF
:103C0000B0F1407F19D0012718E0D5F88800616E27
:103C100020F440000843C5F88800E6E7E86840F46F
:103C20008030E86009E00021201D02F09BFE03E0E7
:103C30000021584602F02CFF0746F7B13E462068A7
:103C400080033AD5A86D4FF00008C00009D4A86DD4
:103C500040F08050A865A86D4FF0010800F080503A
:103C60000090DFF8D8A2DAF8001041F48071CAF8A9
:103C70000010FFF71FFE814610E0D5F88800A16E06
:103C800020F040700843C5F88800D8E7FFF712FE1F
:103C9000A0EB0900022801D9032705E0DAF80000AB
:103CA000C005F3D5002F7CD04FEA0706B8F1000F0E
:103CB00003D0A86D20F08050A8652078C00707D0F9
:103CC000D5F88800A16B20F003000843C5F88800F0
:103CD0002078800707D5D5F88800E16B20F00C002C
:103CE0000843C5F888002078400707D5D5F8880034
:103CF000216C20F030000843C5F8880020780007C8
:103D000007D5D5F88800616C20F0C0000843C5F8DD
:103D100088002078C00607D5D5F88800A16C20F46B
:103D200040700843C5F888002078800607D5D5F88C
:103D30008800E16C20F440600843C5F888002088C2
:103D4000800507D5D5F88800E16D20F440200843B0
:103D5000C5F888002088400507D5D5F88800216E71
:103D600020F440100843C5F888002078400607D5A5
:103D7000D5F88800216D20F440500843C5F888002C
:103D80002078000607D5D5F88800616D20F4404002
:103D90000843C5F888002088C00509D5D5F88800F3
:103DA00000E01CE0A16D20F440300843C5F8880015
:103DB00020884FF0006780044FF080684FD5D5F819
:103DC0008800E16E20F040600843C5F88800E06E8E
:103DD000B8423CD1E86840F48010E8603FE0D5F894
:103DE000900010F4407015D0D4F88410814211D0A6
:103DF000D5F89000D5F8901020F4407041F480314F
:103E0000C5F89010D5F8901021F48031C5F89010C5
:103E1000C5F89000C00710D0FFF74CFD074641F2EF
:103E2000883906E0FFF746FDC11B494501D9032645
:103E30003CE7D5F890008007F4D5D5F89000D4F889
:103E4000841020F440700843C5F890002EE74045E8
:103E500005D10121201D02F085FD00B10646206834
:103E6000000317D5D5F88800216F20F04060084383
:103E7000C5F88800206FB84204D1E86840F480108B
:103E8000E86007E0404505D10121201D02F06AFDF0
:103E900000B106462068400317D5D5F88800616F49
:103EA00020F040600843C5F88800606FB84204D134
:103EB000E86840F48010E86007E0404505D1012142
:103EC000201D02F04FFD00B10646208840041AD59F
:103ED000D5F88800A16F20F040500843C5F888004D
:103EE000A06FB0F1805F03D0B0F1005F05D00AE0B1
:103EF0000221201D02F036FD03E00221584602F0A7
:103F0000C7FD00B106462088000407D5D5F8880013
:103F1000E16F20F080400843C5F888002068C003A6
:103F200007D555F8880FD4F8801020F000400843DA
:103F30002860304600F004B80010024000700040D5
:103F400018BCBDE8E08F00002DE9F047DFF8608184
:103F500005460E46D8F8000000F00700B0420CD22B
:103F6000D8F8001021F007013143C8F80010D8F844
:103F7000000000F00700B04275D128784D4CC00712
:103F800057D06868032818D0022819D02168D0B10A
:103F90004905002967DAA16821F003010143A16006
:103FA000FFF788FC6968074641F28830032913D07F
:103FB00002291FD0814651B336E021688901E8E724
:103FC00021688903E5E78907E3E700BFFFF772FC93
:103FD000C11B494501D924E08146A068C0F3810096
:103FE0000328F3D125E000BFFFF764FCC11B49455E
:103FF00001D916E08146A068C0F381000228F3D100
:1040000017E000BFFFF756FCC11B494509D8A0685F
:1040100010F00C0FF6D10CE0FFF74CFCC11B49452A
:1040200002D90320BDE8F087A068C0F38100012811
:10403000F2D12878800705D5A068A96820F0F000A3
:104040000843A060D8F80010404601F00701B142D3
:104050000BD9016821F0070131430160006800F0CD
:104060000700B04201D00120DCE72878400705D5E1
:10407000A068E96820F4E0600843A06028780007A1
:1040800006D5A068296920F4605040EAC100A0600C
:1040900000F03CF8A168084AC1F30311515CC84024
:1040A000064908600020FFF717FC0020BAE700006F
:1040B0000020024000100240BCA10008F4000020D3
:1040C0000148006870470000F400002004480549DA
:1040D00000688968044AC1F30221515CC8407047F6
:1040E000F400002000100240FCA10008044805492B
:1040F00000688968044AC1F3C221515CC840704716
:10410000F400002000100240FCA1000830B52D4949
:10411000002318468A682C4C12F00C0F4FEA6405F5
:1041200014D08A68C2F38102032A04D1CA6802F05B
:104130000302012A0AD08A68C2F38102012A19D037
:104140008A68C2F38102022A16D016E00A681207B2
:1041500004D4D1F89420C2F3032202E00A68C2F327
:1041600003121A4B53F822308A6812F00C0F04D154
:10417000184602E0204600E028468A68C2F3810221
:10418000032A1DD1C868CA6800F00300C2F30212F6
:10419000521C022804D0032805D0B3FBF2F004E03F
:1041A000B4FBF2F001E0B5FBF2F0CA68C968C2F3F3
:1041B00006225043C1F34161491C4900B0FBF1F0B4
:1041C00030BD0000001002400024F400CCA1000823
:1041D0002DE9F84304460078FE4DC0065DD5A86879
:1041E00010F00C0F0AD0A0690028286871D040F0A8
:1041F00001002860FFF75EFB064654E02868800750
:1042000002D5A06900287DD0216A2868000703D55F
:10421000286800F0F00004E0D5F89400F02202EAEB
:104220001010814216D9084602F060FD002869D1BD
:10423000286840F0080028602868216A20F0F00013
:10424000084328606868E16920F47F4040EA012063
:10425000686015E0286840F0080028602868216A36
:1042600020F0F000084328606868E16920F47F408E
:1042700040EA01206860206A02F038FD0028D6D1AB
:10428000FFF744FFA968D44AC1F30311515CC84049
:10429000D24908600020FFF71FFB29E0FFF70AFB67
:1042A000801B02287ED828688007F7D5286840F050
:1042B000080028602868216A20F0F0000843286080
:1042C0006868E16920F47F4040EA012068600FE0FF
:1042D000FFE720F001002860FFF7ECFA064604E053
:1042E000FFF7E8FA801B0228DCD828688007F7D49B
:1042F0002078C0074AD0A868C0F3810002281FD0E8
:10430000A86800E098E0C0F38100032803D1E868C2
:10431000C043800714D06068B0F5803F17D0B0F577
:10432000A02F286817D020F480302860286820F457
:10433000802028606068E0B1FFF7BCFA064614E010
:104340002868800322D56068002875D01EE02868A0
:1043500040F48030EDE740F480202860F7E700BFAC
:10436000FFF7A8FA801B64289CD828688003F7D53B
:104370000CE0FFF79FFA064605E000BFFFF79AFA48
:10438000801B64288ED828688003F7D420788007A3
:1043900042D5A868C0F38100012816D0A868C0F3F0
:1043A000810000E0A9E0032804D1E86800F00300E0
:1043B00002280AD0E068002828681DD040F48070E8
:1043C0002860FFF777FA06460BE0286840050BD512
:1043D000E0680028B9D007E0FFF76CFA801B0228DC
:1043E000C2D828684005F7D56868217C20F0F850CD
:1043F00040EA016068600FE020F480702860FFF7F9
:1044000059FA064605E000BFFFF754FA801B022860
:1044100073D828684005F7D42078000729D560694B
:104420000028D5F8940013D040F00100C5F894009E
:10443000FFF740FA064606E0FBE000BFFFF73AFA56
:10444000801B022859D8D5F894008007F6D510E0D3
:1044500020F00100C5F89400FFF72CFA064604E0AE
:10446000FFF728FA801B022847D8D5F89400800768
:10447000F6D42078400763D5A86D0026C00008D484
:10448000A86D40F08050A865A86D012600F080500E
:10449000009053480168C90511D40168804641F471
:1044A00080710160FFF706FA074604E0FFF702FAA1
:1044B000C01B022821D8D8F80000C005F6D5A06896
:1044C000012815D00528D5F8900017D020F001005C
:1044D000C5F89000D5F8900020F00400C5F89000D1
:1044E000A06841F28838C8B1FFF7E4F9074610E048
:1044F000D5F8900040F00100F0E777E040F00400CC
:10450000C5F89000F4E700BFFFF7D4F9C11B41459F
:104510006CD8D5F890008007F6D50CE0FFF7CAF903
:10452000074604E0FFF7C6F9C11B414579D8D5F825
:1045300090008007F6D41EB1A86D20F08050A865C9
:10454000A06AE0B3A968C1F38101032972D00228EF
:10455000286820F08070286011D02868000106D4F7
:104560002868800003D4E86820F00300E860E86869
:104570001C490840E860FFF79DF9044654E0FFF746
:1045800099F9064605E000BFFFF794F9801B022861
:1045900047D828688001F7D4206BE16A0001103801
:1045A0000843616BA26B0902120941EA42410843C8
:1045B000A18F0D4A490802EB4151084300E036E063
:1045C00094F840104908120102EB41610843E86089
:1045D00028680CE000100240BCA10008F400002094
:1045E00000700040FFFFEEFE0000E0FF19E040F029
:1045F00080702860E86840F08070E860FFF75AF942
:10460000044604E0FFF756F9001B022809D8286881
:104610008001F7D50BE000BFFFF74CF9001B022823
:1046200002D90320BDE8F88328688001F4D4002073
:10463000F8E7FFE70120F5E72DE9F041040005D098
:104640000025A56294F85D0018B107E00120BDE8DF
:10465000F08184F85C50204600F044F8022384F88E
:104660005D302068016821F040010160E0684FF48E
:10467000E066B04201D9002101E04FF48051B0F56D
:10468000706F02D0B04200D0A562276B012227B91B
:10469000B04201D9236300E02263D4E90103184347
:1046A000D4E9043633431843238B03F400731843CF
:1046B000E3691843236A1843A36A18432368186000
:1046C000636B606AA66918430427E36807EA164625
:1046D00033431843084321684860256684F85D2009
:1046E0000020B4E72DE9F041234A01680025234862
:1046F000022403260527DFF8888086B0914215D171
:10470000016E41F480510166006E694600F48050EC
:10471000059038208DE8F1004046FEF7E1FF0022C9
:104720000D212320FFF738F923201FE0154A91427D
:104730001ED1816D41F480418165806D694600F430
:104740008040059004208DE8F1000F48FEF7C8FF77
:104750004FF420408DE8F10069464046FEF7C0FF67
:1047600000220E212420FFF717F92420FFF708F973
:1047700006B0BDE8F08100000030014000100240AA
:104780000004004800380040000800482DE9F84FB8
:10479000044640680026984617460D464FF0040A26
:1047A000B0F5827F01D1A06890B194F85C00012837
:1047B00019D04FF0010B84F85CB0FFF77BF8009044
:1047C00094F85D004FF0000901280ED002268EE01B
:1047D00084F85DA013460A462046CDF8008000F01C
:1047E0004DF900F08AB80220FBE7002D7ED0002FA3
:1047F0007CD084F85DA0C4F860902564A4F844706F
:10480000A4F84670C4F83890A4F83C90A4F83E9000
:10481000C4F84C90C4F85090E0684FF4E0618842CE
:104820002068426802D922F4805201E042F48052AA
:104830004260A068B0F5004F04D12068026822F4FD
:104840008042026020680268520603D4026842F087
:1048500040020260E068884219D939E02068816826
:10486000C90708D0007B05F8010BB4F84600401ECC
:10487000A4F846000BE0B8F1000F26D0B8F1FF3FD6
:1048800005D0FFF717F80099411A41451DD2B4F839
:1048900046000028E2D11FE020688168C90708D0DF
:1048A000C06825F8020BB4F84600401EA4F8460084
:1048B0000EE0B8F1000F08D0B8F1FF3F08D0FEF7C6
:1048C000F9FF0099411A414502D303260FE00DE09C
:1048D000B4F846000028DFD141462046009A02F095
:1048E00053FA08B120202066206E00B1012684F81A
:1048F0005DB084F85C90304673E718BCBDE8E08F8B
:104900002DE9F84F044690F85C00002698461746BB
:104910000D4601280DD04FF0010A84F85CA0FEF787
:10492000C9FF834694F85D00B146012804D00226F1
:104930009BE0022000F09FB8002D73D0002F71D0B3
:10494000032084F85D00C4F86090A563A787E7871B
:10495000C4F84090A4F84490A4F84690C4F850904D
:10496000C4F84C90A068B0F5004F04D120680168ED
:1049700041F48041016020680168490603D4016860
:1049800041F040010160E068B0F5E06F606823D954
:1049900010B1E08F01281BD1216835F8020BC860E7
:1049A00006E020688168890706D535F8021BC160DA
:1049B000E08F401EE0870BE0B8F1000F3FD0B8F168
:1049C000FF3F05D0FEF776FFA0EB0B01414536D245
:1049D000E08F0028E5D137E010B1E08F012830D119
:1049E000E08F012804D9216835F8020BC86010E077
:1049F000216815F8010B087311E0E08721E02068B9
:104A0000816889070FD5E18F012905D935F8021B87
:104A1000C160E08F801EF0E715F8011B0173E08F85
:104A2000401EEAE720E0B8F1000F08D0B8F1FF3FE0
:104A300007D0FEF73FFFA0EB0B01414501D3032652
:104A400013E0E08F0028DAD15A464146204602F0B2
:104A5000D5F908B120202066A06818B92068C1687F
:104A600080680090206E00B1012684F85DA084F873
:104A70005C9030465EE718BCBDE8E08F2DE9F05F42
:104A8000044690F85C0000260A9F994692460D461F
:104A90004FF0010801280ED0012084F85C00FEF7D9
:104AA00009FF834694F85D00616801280CD0B1F5D8
:104AB000827F07D102E0022000F0FBB8A16809B9AB
:104AC000042801D00226ECE04DB3BAF1000F26D045
:104AD000B9F1000F23D094F85D00042802D005201E
:104AE00084F85D0000202066C4F840A0A4F8469039
:104AF000A4F84490A563A4F83E90A4F83C90E06428
:104B00002065E0684FF4E061884203D8B4F84600BD
:104B1000012806D92068426822F4805205E0012667
:104B2000BFE02068426842F4805242602068026818
:104B3000520603D4026842F040020260E0688842F4
:104B400060683DD910B1E08F012831D1216835F876
:104B5000020BC860E08F401EE08729E0B8F1000F2B
:104B60000DD0E08F58B120688168890707D535F8E6
:104B7000021BC160E08F401EE0874FF00008B4F8D0
:104B8000460068B120688168C90709D0C0682AF862
:104B9000020BB4F84600401EA4F846004FF001088E
:104BA000781C05D0FEF786FEA0EB0B00B84266D25B
:104BB000E08F0028D2D1B4F846000028CED167E0BB
:104BC00010B1E08F01285CD1E08F012806D921685F
:104BD00035F8020BC860E08F801E05E0216815F8EB
:104BE000010B0873E08F401EE0874AE0B8F1000F28
:104BF00016D0E08FA0B120688168890710D5E18FB9
:104C0000012905D935F8021BC160E08F801E04E040
:104C100015F8011B0173E08F401EE0874FF000087C
:104C2000B4F8460018B320688168C9071FD0B4F8EB
:104C30004610012911D9C0682AF8020BB4F84600C1
:104C4000801EA4F84600B4F8460001280DD820685C
:104C5000416841F48051416007E0017B0AF8011B83
:104C6000B4F84600401EA4F846004FF00108781C36
:104C700007D0FEF71FFEA0EB0B00B84201D30326BE
:104C80000FE0E08F0028B1D1B4F846000028ADD184
:104C90005A463946204602F0B1F810B101262020CC
:104CA0002066012084F85D00002084F85C00304616
:104CB00002E730BCBDE8C09F4FF0E021042808693E
:104CC00003D020F004000861704740F00400FAE7C8
:104CD00010B5401EB0F1807F01D3012010BD4FF010
:104CE000E02460610F21601701F006FE0020A06142
:104CF00007202061002010BD10B5040003D094F8F7
:104D0000710010B107E0012010BD002084F8700090
:104D1000204600F027F8242084F8710020680168FC
:104D200021F001010160204602F0F8FC0128EBD0DF
:104D3000606A10B1204602F05FFC2068416821F4EF
:104D4000904141602068816821F02A0181602068DB
:104D5000016841F0010101602046BDE8104002F009
:104D6000AFBC00002DE9F0410746454B0168002427
:104D700044480325022686B04FF090424FF0800849
:104D800099422AD1816D41F400218165806D0294A0
:104D900000F400200590CDE900560820CDE903502D
:104DA00069461046FEF79CFC384D37482860C5E937
:104DB0000164C5E903486C61AC61EC6128462C6272
:104DC000FEF72EFC20B140F2BD1131A002F0DFFE53
:104DD000FD66AF6206B0BDE8F081344B072799420B
:104DE00019D1016E41F480410166006E02AA00F4FF
:104DF000804005905815CDE9000682E8B00069466C
:104E00002B48FEF76DFC02AA694682E8B000CDE9A6
:104E10000086284831E0284B99421AD1816D41F42F
:104E200000318165806D02AB00F4003005900C20EC
:104E3000CDE9000683E8B00069461046FEF750FC55
:104E4000002207212620FEF7A7FD2620FEF798FD69
:104E5000C0E71A4A9142BDD1816D41F4802181653C
:104E6000806D02AA00F4802005904FF44060CDE9E7
:104E7000000682E8B00069461148FEF731FCA9E758
:104E8000004C00400010024058040240C4070020BB
:104E90002E2E2F5372632F73746D33326C347878E7
:104EA0005F68616C5F6D73702E63000000380140B5
:104EB000001800480004004800440040004800403A
:104EC000000800482DE9F843044690F871001F4699
:104ED00016460D4620284BD1C5B1BEB194F87000DE
:104EE000012845D0012084F870004FF00008C4F874
:104EF0007480212084F87100FEF7DCFCA4F8506077
:104F00008146A4F852604FF4805615E00120BDE8B8
:104F1000F8838021204602F051FDD8B9A068B04244
:104F200001D12069C0B115F8010B21680885B4F8DA
:104F30005200401EA4F85200B4F852004B464FF005
:104F4000000200970028E4D14FF04001204602F013
:104F500035FD30B10320DAE735F8020BC0F3080065
:104F6000E3E7202084F8710084F870800020CEE709
:104F70000220CCE7FEE700EB8100006E00F0F84075
:104F800070478068C0F3800070478068C0F380007D
:104F9000704770B54FF0007401F0007394FAA4F4F8
:104FA000B4FA84F4E3404FF0F87494FAA4F501F0F5
:104FB000F871B5FA85F500EB830021FA05F50726AF
:104FC000AE4094FAA4F44369B4FA84F4E140B343E4
:104FD0008A401343436170BD00EB8100016E21F0F4
:104FE0000041114301667047044908B5CA6C024389
:104FF000CA64C96C0140009108BD00000010024065
:10500000044908B58A6D02438A65896D01400091A3
:1050100008BD000000100240F0B50A68032492FAAF
:10502000A2F2B2FA82F30F257EE0324601269E40BC
:10503000324078D0D1F804E0066892FAA2F7B7FAC5
:1050400087F74FEA470C04FA0CF7BE4392FAA2F72F
:10505000B7FA87F77F000EFA07FE46EA0E060660EB
:105060004E68012E01D0022E15D1D1F808E08668D5
:1050700092FAA2F7B7FA87F74FEA470C04FA0CF74F
:10508000BE4392FAA2F7B7FA87F77F000EFA07FE3F
:1050900046EA0E068660D1F810C0C66892FAA2F7FA
:1050A000B7FA87F77F0004FA07FE92FAA2F7B7FA79
:1050B00087F77F0026EA0E060CFA07FC46EA0C0684
:1050C000C6604E68022E2ED192FAA2F6B6FA86F685
:1050D000082E4E6913D2076A92FAA2FCBCFA8CFC25
:1050E0004FEA8C0C05FA0CFC92FAA2F2B2FA82F2A8
:1050F000920027EA0C0796403743076213E0476A9D
:10510000120A92FAA2FCBCFA8CFC4FEA8C0C05FA4B
:105110000CFC92FAA2F2B2FA82F2920027EA0C0791
:105120009640374347625B1C0A681646DA407FF4B4
:105130007CAF4A68012A01D0022A07D1CB684168B6
:105140003246914306FB03F2114341600120F0BD5A
:10515000354808B5016E41F001010166016E01F0AC
:1051600001010091816D41F080518165806D2F4971
:1051700000F08050009008684FF6FF0210402C4A63
:1051800040F440701043086001F09EFB002211467D
:1051900001F081FB01466FF00B0001F09DFB01F077
:1051A00093FB0022114601F076FB01466FF00A00E6
:1051B00001F092FB01F088FB0022114601F06BFB2D
:1051C00001466FF0090001F087FB01F07DFB002232
:1051D000114601F060FB01466FF0040001F07CFB1A
:1051E00001F072FB0022114601F055FB01466FF001
:1051F000030001F071FB01F067FB0022114601F092
:105200004AFB01466FF0010001F066FB01F05CFB18
:105210000022114601F03FFB0146BDE808404FF077
:10522000FF3001F059BB0000001002400CED00E01F
:105230000000FA054FF47A71B0FBF1F14FF0E02075
:10524000491E416100218161052101617047000013
:1052500070B500241F49204D4FF40046C02803D0EC
:10526000B0F5407F1CD019E0D1F8880000F0C000F4
:1052700040F440004038B0F5400027D0402804D02A
:1052800080281CD106E0044608E000F083F828B12D
:105290002C4603E000F086F800B13446204670BD8D
:1052A000D1F888000D4900F4407040F0407040187B
:1052B0000CD0B0F5807FE8D0B0F5007FEAD001F0E7
:1052C00095FC01F069FC01F075FCDCE701F08EFC57
:1052D000D9E70000001002400024F40000FFFFFCAA
:1052E00070B5002429492A4D4FF40046032804D004
:1052F0000C281AD030282FD040E0D1F888006FF465
:10530000403100F0030040F4403040180AD001283A
:1053100036D002282ED001F069FC01F03DFC01F0EE
:1053200057FC17E001F062FC14E0D1F8880000F0AF
:105330000C0040F44020001FB0F54020F2D00428BB
:105340001ED0082816D000BF01F050FC01F024FC4C
:1053500001F030FC044611E0D1F8880000F0300084
:1053600040F440101038B0F54010DBD0102807D0C2
:105370002028E9D100F016F800B13446204670BD6F
:1053800000F008F80028F9D02C46F7E7001002409A
:105390000024F40002480068C0F380207047000039
:1053A000001002400248D0F89000C0F3400070475F
:1053B000001002400248006800F0F0007047000052
:1053C000001002400248D0F8940000F4706070476A
:1053D0000010024002480068C0F3C000704700009F
:1053E000001002400248C06800F0700070470000E2
:1053F000001002400248C06800F00300704700003F
:10540000001002400149086070470000F4000020CD
:1054100070B5044600680D46002610F0010F42D119
:10542000E9686868AA690843296911430843216843
:10543000254A114008432060A868616821F4405162
:10544000014361606869A16821F440710143A16072
:105450001E48844201D1032008E01D48844201D146
:105460000C2003E01B48844203D13020FFF738FFB3
:105470000BE01948844201D1C02004E0174884425F
:1054800011D14FF44070FFF7E3FE60B1296851B1CC
:10549000AA690126B2F5004F07D000EB5100B0FB1E
:1054A000F1F080B2E060304670BD400000EB51008A
:1054B000B0FBF1F081B24FF6F07201EA0200C1F3E5
:1054C00042010843EEE70000F369FFEF00380140B6
:1054D0000044004000480040004C004000500040A4
:1054E00008B54FF0E0210A690092421C00D0401C30
:1054F0000A69D20300D5401E0028F9D108BD00007A
:1055000030B591B001208DF83C0014216846FAF7BF
:10551000C3FE142105A8FAF7BFFE14210AA8FAF762
:10552000BBFE80216B2000F02FFC6420FFF7D8FF2A
:1055300003216B2000F028FC0120FFF7D1FF102190
:10554000372000F021FC0120FFF7CAFF002138209E
:1055500000F01AFC0120FFF7C3FFC0216C2000F00F
:1055600013FC0120FFF7BCFF0721192000F00CFC01
:105570000120FFF7B5FF10211B2000F005FC0120E2
:10558000FFF7AEFF00211C2000F0FEFB0120FFF71B
:10559000A7FF1D2000F0BAFB40F003040120FFF735
:1055A0009FFF21461D2000F0EFFB0120FFF798FF31
:1055B00003211A2000F0E8FB0120FFF791FF6A2089
:1055C00000F0A4FB04460120FFF78AFF44F010011D
:1055D0006A2000F0D9FB0120FFF782FF6A2000F06B
:1055E00095FB04460120FFF77BFF44F020016A2071
:1055F00000F0CAFB0120FFF773FF372000F086FBA5
:1056000004460120FFF76CFF04F0FD01372000F095
:10561000BBFB0120FFF764FF01220B210C2000F0EF
:105620002EFA0220FFF75CFF10220A210C2000F066
:1056300026FA0120FFF754FF1F220A210C2000F058
:105640001EFA0120FFF74CFF0FAA0A210C2000F0E0
:1056500085F90120FFF744FF924D1C2289A12846BD
:1056600004F064FD1FE001220B210C2000F007FA7A
:105670000220FFF735FF10220A210C2000F0FFF96D
:105680000120FFF72DFF1F220A210C2000F0F7F95F
:105690000120FFF725FF0FAA0A210C2000F05EF978
:1056A0000120FFF71DFF9DF83C001F28DBD11C22C5
:1056B0007DA1284604F03AFD834B032210210C20E3
:1056C00000F08EF90A20FFF70BFF7F4C211D227896
:1056D00002F180000880607880304880A0788030B7
:1056E00088807AA1684602F063FA627877A105A8FB
:1056F00002F05EFAA27875A10AA802F059FA0B220C
:1057000073A1284604F012FD6846FAF7E2FD82B262
:105710006946284604F00AFD012270A1284604F0DB
:1057200005FD05A8FAF7D5FD82B205A9284604F0C3
:10573000FDFC012269A1284604F0F8FC0AA8FAF74A
:10574000C8FD82B20AA9284604F0F0FC012263A138
:10575000284604F0EBFC022261A1284604F0E6FC96
:105760000120FFF7BDFE01220B210C2000F087F97C
:105770000120FFF7B5FE0FAA0A210C2000F0EEF879
:105780000220FFF7ADFE102256A1284604F0CEFC01
:105790000FE001220B210C2000F071F90220FFF72D
:1057A0009FFE0FAA0A210C2000F0D8F80120FFF775
:1057B00097FE9DF83C000028EBD110224EA1284610
:1057C00004F0B4FC10220A210C2000F058F901204A
:1057D000FFF786FE0FAA0A210C2000F0BFF8012077
:1057E000FFF77EFE162249A1284604F09FFC07E041
:1057F00010220A210C2000F042F90120FFF770FE70
:105800009DF83C001028F3D11E2246A1284604F042
:105810008DFC5D21242000F0B7FA0120FFF760FE27
:105820008C21252000F0B0FA0120FFF759FE02215B
:10583000262000F0A9FA0120FFF752FE8821272038
:1058400000F0A2FA0120FFF74BFE0921342000F0FE
:105850009BFA0120FFF744FE8121672000F094FAB3
:105860006420FFF73DFE00F055F9752000F04EFA78
:10587000712804D1152233A1284604F057FC11B039
:1058800030BD0000B5C8B4FDC9E8D6C3B4C5C1A6D3
:10589000BCC64655534520524F4DC4A3CABD0D0A40
:1058A0000000000000480040C9E8D6C3B4C5C1A646
:1058B000BCC64655534520524F4DC4A3CABDB3C9BB
:1058C000B9A60D0A00000000480000202575000060
:1058D000726573706F6E73653A0D0A0009000000FF
:1058E0000D0A0000B5C8B4FDB4C5C1A6BCC6B8B4A5
:1058F000CEBB0D0A00000000B4C5C1A6BCC6B8B43A
:10590000CEBBB3C9B9A60D0A00000000B5C8B4FDEE
:10591000B4C5C1A6BCC6504F57455220444F574E40
:105920000D0A0000C9E8D6C3B4C5C1A6BCC6504F15
:1059300057455220444F574EC4A3CABDB3C9B9A658
:105940000D0A0000B6C1C8A14D5055363530302083
:10595000494420B3C9B9A60D0A00000077B5054631
:1059600081B0002016468DF80000044602AA0121ED
:10597000322000F021FA0120FFF7B2FD45F080004F
:105980008DF8080002AA0121312000F015FA01204B
:10599000FFF7A6FD80208DF8080002AA012134201F
:1059A00000F00AFA0120FFF79BFD2046641C322814
:1059B00003D96FF0010004B070BD6A4601213620A2
:1059C00000F0BEF90120FFF78BFD9DF800004006B6
:1059D000EBD532460121352000F0B2F90020EAE78C
:1059E0002DE9FC41002440F0800016460F468DF85A
:1059F000000098468DF8044025466A460121312072
:105A000000F0DAF90120FFF76BFD34E038198DF86A
:105A100000006A460121322000F0CEF90120FFF794
:105A20005FFD80208DF800006A460121342000F0DF
:105A3000C3F90120FFF754FD28466D1C322803D915
:105A40006FF00100BDE8FC8101AA0121362000F0C1
:105A500077F90220FFF744FD9DF804004006EBD5DE
:105A600008EB04020121352000F06AF90120FFF75C
:105A700037FD641CE4B2B442C8D30020E2E77CB531
:105A800015460E4600248DF800008DF804406A4645
:105A90000121312000F090F90120FFF721FD8DF860
:105AA00000606A460121322000F086F90120FFF7EC
:105AB00017FD8DF800506A460121332000F07CF973
:105AC0000120FFF70DFD80208DF800006A460121BE
:105AD000342000F071F90120FFF702FD2046641C1C
