:020000040800F2
:10000000680B00209D010008DF470008092C00084C
:10001000DD470008E90900081D570008000000003E
:10002000000000000000000000000000134F000866
:10003000EB0900080000000079480008995000080A
:10004000B7010008B7010008B7010008B7010008B0
:10005000B7010008B7010008B7010008B7010008A0
:10006000B7010008B7010008B7010008B701000890
:10007000B7010008B7010008B7010008B701000880
:10008000B7010008B7010008B7010008B701000870
:10009000B7010008B7010008B7010008B701000860
:1000A000B7010008B7010008B7010008B701000850
:1000B000B7010008B7010008B7010008B701000840
:1000C000B7010008B7010008B7010008B701000830
:1000D000B7010008B7010008B7010008F55600088D
:1000E000B7010008B7010008B7010008B701000810
:1000F000B7010008B7010008B7010008B701000800
:10010000B7010008B7010008B7010008B7010008EF
:1001100099520008B7010008B7010008B7010008AC
:10012000B7010008B7010008B7010008B7010008CF
:10013000B7010008B7010008B7010008B7010008BF
:10014000B7010008B7010008B7010008B7010008AF
:10015000B7010008B7010008B7010008B70100089F
:10016000B7010008B7010008B7010008B70100088F
:10017000B7010008B7010008B7010008000000003F
:10018000B7010008B7010008DFF80CD000F044FB0D
:100190000048004791690008680B00200648804726
:1001A00006480047FEE7FEE7FEE7FEE7FEE7FEE75C
:1001B000FEE7FEE7FEE7FEE7395200088901000886
:1001C0002DE9F05F0546002092469B46884606468C
:1001D000814640241BE0284641464746224600F01F
:1001E00034FA53465A46C01A914110D31146184664
:1001F000224600F01BFA2D1A67EB01084F462246F3
:100200000120002100F012FA17EB00094E41201ED8
:10021000A4F10104DFDC484631462A46434600F09B
:1002200000B830BCBDE8C09FD2B201E000F8012B9D
:10023000491EFBD270470022F6E710B513460A4666
:1002400004461946FFF7F0FF204610BD421C10F887
:10025000011B0029FBD1801A70472DE9FE4F804613
:1002600081EA0300C00F0C46009021F0004123F00A
:100270000045B8EB0200A94105D240462146904610
:100280001C460B46024623F00040104347D0270D82
:10029000C7F30A00C3F30A510290401A01904028A4
:1002A0006BDAC3F3130040F4801B0098924620B130
:1002B0000023D2EB030A63EB0B0B01985946C0F104
:1002C0004002504600F0B2F906460D4650465946E7
:1002D000019A00F0CAF910EB08006141002487EA96
:1002E000115284EAE7731A4340D0009A62B3019A2C
:1002F000012A4FEA075215DC001B61EB02014FF0A7
:10030000004202EA0752CDE90042001C41F580118B
:1003100032462B4600F001FA03B000F045B84046E3
:100320002146F9E7001B61EB0201001C41F5801337
:1003300000185B412018A2F5001747EB030140EAC3
:10034000D570B6196D4111E06D084FEA360645EAE1
:10035000C0754FEA0752001B61EB0201001C41F51A
:10036000801149084FEA30000019514132462B46AE
:1003700003B000F01CB800F0C1B9009801224000A1
:100380000023D0EB020263EBE073009821464FEAB2
:10039000E074B8EB000061EB0401E9E783F000438F
:1003A0005BE781F0004158E730BCBDE8C08F30BC4E
:1003B000BDE8C04FFFF7DFBF2DE9FE4F81EA030420
:1003C00004F0004421F0004100944FF0000B23F0B2
:1003D000004350EA01045ED052EA03045BD0C3F349
:1003E0000A54C1F30A552C44A4F2F3340194A0FB3F
:1003F0000254C1F3130141F48011C3F3130343F416
:10040000801301FB024400FB034E840A970A44EA6E
:10041000815447EA8357A4FB076802958D0A05FBC0
:1004200007854FEA932C04FB0C542705029D4FEAE5
:10043000065847EA1637B5EB08056EEB070C870E32
:10044000920E47EA811742EA8312A7FB0201B6EB3C
:100450000B0164EB00042B0D43EA0C335E1844EBF4
:100460001C50DA465146E7FB0201C5F313044FEA7C
:100470000B3343EA14534FEA0432019C43EA060368
:10048000A4F10C040294009CCDE900B400F045F9FD
:1004900003B000F003B800200146F9E730BCBDE826
:1004A000C08F2DE9F04D81EA030404F0004B21F0E8
:1004B000004514464FF0000A23F0004150EA0502BF
:1004C00020D054EA01021DD0C5F30A570246C5F3F5
:1004D0001303C1F31300C1F30A5640F4801543F42B
:1004E0008013A7EB0608101BD64608F2FD3873EB05
:1004F000050002D308F1010801E092185B41B8F150
:10050000000F03DA00200146BDE8F08D00204FF413
:100510008011064684460EE0171B73EB050705D3D2
:10052000121B63EB050306434CEA010C49084FEA32
:10053000300092185B4150EA0107EDD152EA030006
:1005400012D082EA040083EA0501084305D0101B9B
:10055000AB4106D20122002306E000224FF0004307
:1005600002E06FF0010253101AEB06004CEB085149
:1005700010EB0A0041EB0B01BDE8F04D00F0BEB8F6
:100580000EB5C10F80EAE0700844CA07002140F2AE
:1005900033438DE80E000A460B4600F0BEF803B068
:1005A00000BD00F0004230F000400AD0C10D01F55E
:1005B0006071C0F3160042EA0151C20840071143BE
:1005C000704700200146704701F0004330B421F02D
:1005D000004150EA010206D00A0DA2F56072C1F393
:1005E0001301002A02DC30BC00207047440F44EAAB
:1005F000C104C100E01830BC00EBC25000F047B8A5
:1006000030B50B46014600202022012409E021FAE2
:1006100002F59D4205D303FA02F5491B04FA02F5DF
:100620002844151EA2F10102F1DC30BD202A04DBB2
:10063000203A00FA02F1002070479140C2F12003F5
:1006400020FA03F3194390407047202A04DB203A34
:1006500021FA02F00021704721FA02F3D040C2F1E2
:1006600020029140084319467047202A06DBCB1729
:10067000203A41FA02F043EAE07306E041FA02F35D
:10068000D040C2F12002914008431946704700292A
:10069000A8BF7047401C490008BF20F00100704708
:1006A00010B4B0FA80FC00FA0CF050EA010404BF68
:1006B00010BC704749B1CCF1200421FA04F411FABE
:1006C0000CF118BF012121430843A3EB0C01CB1D02
:1006D0004FEA00614FEA102042BF002010BC704773
:1006E00000EBC35010440029A4BF10BC7047401C4D
:1006F000490008BF20F0010010BC704710B5141E5F
:1007000073F1000408DA401C41F1000192185B41CA
:100710001A4301D120F0010010BD2DE9F04D9246A1
:100720009B4611B1B1FA81F202E0B0FA80F22032B8
:100730009046FFF77BFF04460F4640EA0A0041EA75
:100740000B0153465A46084313D0114653EA0100A1
:1007500019D0C8F140025046FFF777FF05460E4614
:10076000504659464246FFF761FF084305D0012035
:1007700004E020463946BDE8F08D0020054346EAF6
:10078000E0762C4337430A986305E40AA0EB08009F
:100790000022FD0A44EA47540A3002D500200146EF
:1007A000E9E7010510196941DDE9084500196941CA
:1007B000BDE8F04DA2E7C1F30A52C1F3130140F2C4
:1007C000FF3341F480119A4202DA0020014670475B
:1007D00040F233439A42A2F2334202DC5242FFF724
:1007E00034BFFFF723BF000030B5041E71F10004D1
:1007F00004DB4FF00044404264EB0101141E73F12E
:10080000000405DB1C464FF00043524263EB040337
:10081000994208BF904230BD064C074D06E0E068A3
:1008200040F0010394E8070098471034AC42F6D337
:10083000FFF7AEFC607000088070000870B5144CC3
:1008400012482062134860621348A062204605F0F7
:1008500071FF05460246217F10A004F061FF15B12B
:100860004FF0FF3070BD042005F0FCFF044604206B
:1008700005F08CFF0444032005F0AEFF044404207F
:1008800005F0CAFF204440B270BD000075090008A1
:100890009C00002015090008753100084368697044
:1008A00049643A307820255820202020636F6D5FFE
:1008B00072736C743A25640D0A0000001CB513A114
:1008C0000623D1E90001CDE900016A46F7210020A5
:1008D00000F020F89DF803009DF80410000340EAA2
:1008E00001109DF8051040EA111005F071FE9DF809
:1008F00000009DF80110000340EA01109DF802106D
:1009000040EA111005F0B2FD1CBD000055555555CB
:10091000555500002DE9FF41144E9DF80400904606
:1009200040F0800000248DF804001F462246082174
:10093000304600F004FE0223012201A90C4801F018
:1009400029FE651E00B12C4602233A46414608485E
:1009500001F066FD00B12C4601220821304600F06E
:10096000EEFD04B02046BDE8F0810000000800481C
:10097000F4010020FEB500261D460A23771E3046EE
:10098000B3EB450F01D23846FEBD00246B460FE0A5
:1009900001F07F0C03F800C0401CC0B212F804C084
:1009A00003F800C0491C401C641CC9B2C0B2E4B2C8
:1009B000AC42EDD30A4C00220821204600F0BFFDD6
:1009C0006A0064236946074801F0E4FD00B13E4631
:1009D00001220821204600F0B2FD3046FEBD000095
:1009E00000080048F4010020FEE77047F0B5044617
:1009F00090F8540000269BB00D4601280DD0012030
:100A000084F85400324920680027884208D13149CF
:100A1000009102F004F958B10EE002201BB0F0BDC5
:100A2000A06D40F02000A06584F854700120F5E727
:100A3000009802F0F4F848B1A06D40F02000A065E5
:100A40005FF0010684F854703046E7E722482A68D0
:100A500040F61F71002A826822F460421FD0636B47
:100A600042EA43326B681A4382602268936803F05B
:100A70000303012B02D11268D207E3D1009A9268D6
:100A800002F00302012A03D1009A1268D207D9D1D9
:100A9000AB682A681A4383688B431A4315E0826067
:100AA0002268936803F00303012B02D11268D20776
:100AB000C8D1009A926802F00302012A03D1009A79
:100AC0001268D207BED182688A438260BAE700000A
:100AD0000000045000010450000304502DE9F843C5
:100AE00000250446009590F85400DFF870840E4607
:100AF000A946012807D0012784F85470206802F025
:100B00008AF818B1E5E10220BDE8F883706805288D
:100B100012D8022807D0032807D0042807D00528B8
:100B200007D0062007E00C2005E0122003E0182083
:100B300001E04FF480707060B1884FF4407C01F4A4
:100B400040739CFAACFCBCFA8CFC206823FA0CF3D2
:100B500000EB8300326801F01F014FF01F0C0CFA0C
:100B600001FC036BC2F3846223EA0C038A40134343
:100B700003632068816811F00C0F1CD1B2683168E2
:100B800002F051F820687169C268C2F3C1025200D4
:100B900091403269042A0FD000EB82003368DFF8FD
:100BA000C0C3026E03F0F84302EA0C020B431A437F
:100BB00042F00041016672E0002102F026F8400395
:100BC00020684FF0000173D002F01FF890FAA0F0F7
:100BD000B0FA80F1306842036FD090FAA0F0B0FA1A
:100BE00080F0814204D100221146206802F03EF8D4
:100BF0000121206802F009F8400320684FF001014C
:100C00005ED002F002F890FAA0F0B0FA80F13068FD
:100C100042035AD090FAA0F0B0FA80F0814204D199
:100C200000220121206802F021F80221206801F051
:100C3000ECFF400320684FF0020149D001F0E5FFCE
:100C400090FAA0F0B0FA80F13068420345D090FAF3
:100C5000A0F0B0FA80F0814204D100220221206885
:100C600002F004F80321206801F0CFFF4003206860
:100C70004FF0030134D001F0C8FF90FAA0F0B0FAB1
:100C800080F13068420330D090FAA0F0B0FA80F0E2
:100C9000814204D100220321206801F0E7FF20688F
:100CA000816801F00301012925D121E000E004E081
:100CB00001F0ABFFC0F384618CE7C0F3846090E780
:100CC00001F0A3FFC0F38461A1E7C0F38460A5E74E
:100CD00001F09BFFC0F38461B6E7C0F38460BAE71C
:100CE00001F093FFC0F38461CBE7C0F38460CFE7EA
:100CF0000168C9077ED1327B316850F8B03FC1F33B
:100D0000120C23EA0C0302F0200C4FF0FF3202FA1F
:100D10000CF20A40C2F312010B430360F168414533
:100D20006CD13068410318D090FAA0F1B1FA81F18A
:100D3000491C09294FEA40312ED8002910D000BFA4
:100D400090FAA0F1B1FA81F101F1010107FA01F77E
:100D500009D100BFC0F3846109E0C0F38461E7E713
:100D6000C0F38461F0E790FAA0F1B1FA81F101F1EA
:100D7000010147EA816102D1C0F3846003E090FA87
:100D8000A0F0B0FA80F000EB40004FF4401202EB0C
:100D9000005041EA00012AE000290CD090FAA0F1AD
:100DA000B1FA81F101F1010107FA01F706D100BFA3
:100DB000C0F3846106E0C0F38461F3E790FAA0F128
:100DC000B1FA81F101F1010147EA816102D1C0F379
:100DD000846003E090FAA0F0B0FA80F0614A00EB82
:100DE000400002EB005041EA000141F00071B2689E
:100DF000206801E072E001E001F015FF33685A4E0F
:100E00005A4FDFF86C815B49B34204D1886800F027
:100E1000E07000020DD5BB4204D1886800F0E0709C
:100E2000C00106D5434559D1886800F0E070400202
:100E300054D42268906800F00300012802D11068A1
:100E4000C00746D14C48824215D1D0F808C10CF0F9
:100E5000030CBCF1010F04D1D0F800C15FEACC7CD7
:100E600037D1D0F808C20CF0030CBCF1010F39D116
:100E7000D0F800C22AE0DFF804C16245D0F808C00B
:100E80000CF0030C11D1BCF1010F04D1D0F800C05B
:100E90005FEACC7C1DD1D0F808C20CF0030CBCF189
:100EA000010F0AD1D0F800C204E0BCF1010F04D157
:100EB000D0F800C05FEACC7C0BD1D0F808C10CF0B0
:100EC000030CBCF1010F0DD1D0F800C15FEACC7C5E
:100ED00008D0A06D40F02000A065012584F8549052
:100EE000284611E6DFF898C0B3421BD1824201D0F8
:100EF0006245F3D188688A6800F0E07040F4000031
:100F000022F0E07202438A601E481F490068B0FB6D
:100F1000F1F0C0EB0010C00000E0401E009000287F
:100F2000FBD1DBE7BB4209D1824201D06245D5D17A
:100F3000886800F0E07040F0807008E04345CDD153
:100F40008242CBD1886800F0E07040F480008A686B
:100F500022F0E07202438A60C0E7000000007F4098
:100F600000F0FF03000050FE000052C7000084CBD9
:100F700001000080000304500000045000010450F0
:100F8000000204508400002080841E00F8B54FF059
:100F9000000504002E46009502D0A06D10B107E0B8
:100FA0000120F8BD204600F0FDF8E66584F85460A5
:100FB00020688168C1F3407119B18168704A11409D
:100FC000816020688168C1F3007191B981686D4AC0
:100FD000114041F0805181606B486C490068B0FB62
:100FE000F1F000EB8000400000E0401E009000287F
:100FF000FBD120688168C1F3007141B9A16D41F056
:101000001001A165E16D41F00101E1650125A16DCE
:10101000C90602D401F0FFFD30B1A06D40F0100010
:10102000A06501252846F8BDA06D20F4807040F031
:101030000200A0652168886800F00300012802D141
:101040000868C0073FD15248814212D1D0F8081138
:1010500001F00301012903D1D0F80011C90732D1F1
:10106000D0F8081201F00301012925D1D0F80002BF
:1010700020E0484A9142816801F003010DD1012925
:1010800002D10168C9071ED1D0F8081201F003018E
:10109000012907D1D0F8001202E0012902D101682C
:1010A000C90710D1D0F8081101F00301012903D1BB
:1010B000D0F80001C00706D1374960688A6822F479
:1010C0007C1202438A60E168A06BE2690843A16870
:1010D00041EA42310843616A40EA0140012904D1F2
:1010E000218D2E4A02EB41410843E16A29B101F406
:1010F0007071226B014342EA01002268D168284BDB
:1011000019400143D1602068816811F00C0F12D1A1
:10111000A169626B890341EA4202C16844F2020399
:1011200099431143C160E06B01280CD0206801692C
:1011300021F001010161206901282068016B21F083
:101140000F0111D013E0D4E910010843D4E91212C1
:101150001143084321680A6940F2FC739A43104323
:1011600040F001000861E6E7226A521E1143016364
:10117000A06D20F0020040F00100A06552E70000E1
:10118000C0FFFF5FC0FFFF7F8400002080841E003F
:101190000000045000010450000304500000FEFF52
:1011A00007C0F0FF08B500680649884208D1064824
:1011B000C16C41F40051C164C06C00F40050009057
:1011C00008BD0000000004500010024030B51F238D
:1011D0005FF0010505FA03F40C4201D15B1EF9D260
:1011E0007AB1082A09D0102A04D0182A07D1072B6F
:1011F00005D206E0082B02D203E0102B01D3012018
:1012000030BD036859610068816821F018011143FD
:101210008160002030BD000010B5040010D0607F58
:1012200020B900202077204600F030F802206077B7
:10123000207938B1D4E902122046FFF7C7FF48B140
:10124000012010BD2168104848612068816821F0A4
:10125000180181606079A0B1206921680861206867
:101260008168626921F060011143816020688168B2
:10127000A26921F080011143816001206077002084
:1012800010BD4FF0FF30E8E7B71DC10408B5006896
:101290000649884208D10648816C41F48051816436
:1012A000806C00F48050009008BD000000300240C7
:1012B0000010024070B568B12B4C036814222B4912
:1012C000A34209D22A4C1C44B4FBF2F29200C0E9BA
:1012D00010120BE0012070BD234C64421C44B4FB8F
:1012E000F2F292004264204A083A0264022280F834
:1012F00025201C6847F6F0729443D0E902252A4362
:10130000D0E9045635432A4385692A43C5692A43EF
:10131000056A2A4322431A608268B2F5804F15D0CD
:10132000036C0F228B4202D151F8A83F02E00E4914
:10133000A0310B6890F84440A24093430B6090F8B2
:10134000443042689A400B681A430A600021C16227
:10135000016341638163C163012280F8252080F825
:101360002410084670BD000008040240000002403E
:10137000F8FFFDBF2DE9F84FDFF898B100234FF0DB
:10138000010C4FF0030A4FF00F090BF1040EB9E006
:101390000CFA03F4224070D04D68022D01D0122DBA
:1013A0000ED1DD0800EB8508D8F820505E07F70E57
:1013B00009FA07F6B5430E69BE402E43C8F820600F
:1013C00007685E0091F804800AFA06F508F0030841
:1013D000AF4308FA06F848EA0708C0F800804F68EB
:1013E000012F05D0022F03D0112F01D0122F13D1BE
:1013F000D0F80880CF6828EA0508B74047EA080710
:101400008760D0F804800F7928EA0408C7F3001732
:101410009F4047EA08074760D1F804806FEA080751
:10142000BF0706D1C76AA743C8F3C0049C403C432A
:10143000C462C468AC438D68B5402543C5604C6840
:10144000E4005ED5344C256E45F001052566246E1A
:1014500023F0030504F001040094304C2E19B46805
:101460009D072F0F09FA07F5AC43B0F1904F05D057
:101470002B4DA84204D101251CE042E0002519E0D3
:10148000284DA84201D1022514E0274DA84201D1E0
:1014900003250FE0254DA84201D104250AE0244D83
:1014A000A84201D1052505E0224DA84201D106251B
:1014B00000E00725BD402543B560DBF800405D46F0
:1014C0004E689443F60300D514432C60DEF80040C8
:1014D00075464E689443B60300D514432C600D4DF9
:1014E00008352C684E689443F60200D514432C60EE
:1014F000084D0C352C684E689443B60200D5144351
:101500002C605B1C0A6832FA03F57FF441AF00F0EF
:1015100013B8000000040140001002400000014028
:101520000004004800080048000C00480010004873
:10153000001400480018004818BCBDE8E08F0AB14C
:101540008161704781627047014800687047000000
:101550008000002010B5032000F088F8002000F083
:1015600005F800F017F8002010BD000010B5044683
:1015700007484FF47A710068B0FBF1F001F0F2F91E
:1015800000222146501E00F051F8002010BD00003E
:10159000840000201E4808B5016E41F0010101667B
:1015A000016E01F001010091816D41F08051816572
:1015B000806D00F080500090032000F057F800226A
:1015C00011466FF00B0000F031F8002211466FF069
:1015D0000A0000F02BF8002211466FF0090000F01D
:1015E00025F800221146501F00F020F80022114675
:1015F000101F00F01BF800221146901E00F016F894
:101600000022BDE808401146501E00F00FB800004F
:101610000010024000F01F020121914040098000AB
:1016200000F1E020C0F8001170470000F0B40E4B4C
:101630001B680C46C3F30223C3F10705042D00D930
:101640000425191D072901D2002300E0DB1E012615
:1016500006FA05F1491E214099409E40761E16402B
:101660003143F0BC03F0F8B80CED00E0064900F09F
:10167000070208684FF6FF03184040EA0220034AB9
:1016800010430860704700000CED00E00000FA0510
:101690001549B0F5007F0868C0F3412009D0022841
:1016A00005D0086820F4C06040F480600860002025
:1016B00070470128FBD0086820F4C06040F4007037
:1016C00008600A480A4A0068B0FBF2F03222504330
:1016D00000E0401E10B14A695205FAD4486940053D
:1016E000E5D5032070470000007000408400002012
:1016F00040420F000248416841F400714160704768
:10170000007000400248006800F4C06070470000AC
:1017100000700040F8B50446FFF716FF06465CB1BE
:1017200094F83800012809D0012784F8387094F81B
:101730003900002520B10BE00120F8BD0220F8BDE2
:1017400084F83850204600F03DF841F2883020649B
:1017500020680168A2686FF0FF0321F4706103EB59
:10176000022211430160206C0090334600222021A8
:10177000204603F082F8E8B921680A680F4B1A4046
:10178000237942EA0362E3681A430A60D4E9051246
:101790001143226853680A4E3340268A43EA0643BF
:1017A0001943516021680A6842F001020A60E5634A
:1017B00084F8397084F83850F8BD0000EFFFFF005E
:1017C000FEF8E0FFF0B50068154987B0884224D1E3
:1017D0001448016D41F480710165006D022400F42C
:1017E0008070059040F60340002503260A278DE807
:1017F000F10069460C48FFF7BDFDC0208DE8F100FF
:1018000069464FF09040FFF7B5FD00220F214720B9
:10181000FFF70CFF4720FFF7FDFE07B0F0BD00000B
:10182000001000A000100240000400482DE9F84F0D
:10183000044600270088E54D3E46010504F1200BD3
:101840001DD5606E78B1B0F5800F11D0B0F5000FE6
:1018500004D0B0F5400F22D001270FE0E86840F433
:101860008030E8601BE00021201D03F02BF803E02E
:101870000021584603F0BCF8070010D03E462088EF
:10188000C00426D5A06EC0B1B0F1807F1AD0B0F1EF
:10189000007F0DD0B0F1407F19D0012718E0D5F8B6
:1018A0008800616E20F440000843C5F88800E6E730
:1018B000E86840F48030E86009E00021201D03F072
:1018C00001F803E00021584603F092F80746F7B10B
:1018D0003E46206880033AD5A86D4FF00008C0004E
:1018E00009D4A86D40F08050A865A86D4FF001089C
:1018F00000F080500090DFF8D8A2DAF8001041F430
:101900008071CAF80010FFF71FFE814610E0D5F87D
:101910008800A16E20F040700843C5F88800D8E721
:10192000FFF712FEA0EB0900022801D9032705E00A
:10193000DAF80000C005F3D5002F7CD04FEA070687
:10194000B8F1000F03D0A86D20F08050A865207872
:10195000C00707D0D5F88800A16B20F0030008432A
:10196000C5F888002078800707D5D5F88800E16B96
:1019700020F00C000843C5F888002078400707D500
:10198000D5F88800216C20F030000843C5F88800A5
:101990002078000707D5D5F88800616C20F0C000DA
:1019A0000843C5F888002078C00607D5D5F8880018
:1019B000A16C20F440700843C5F8880020788006A8
:1019C00007D5D5F88800E16C20F440600843C5F8DD
:1019D00088002088800507D5D5F88800E16D20F4BF
:1019E00040200843C5F888002088400507D5D5F871
:1019F0008800216E20F440100843C5F88800207844
:101A0000400607D5D5F88800216D20F440500843E2
:101A1000C5F888002078000607D5D5F88800616DE4
:101A200020F440400843C5F888002088C00509D547
:101A3000D5F8880000E01CE0A16D20F44030084398
:101A4000C5F8880020884FF0006780044FF0806858
:101A50004FD5D5F88800E16E20F040600843C5F806
:101A60008800E06EB8423CD1E86840F48010E8603D
:101A70003FE0D5F8900010F4407015D0D4F88410F1
:101A8000814211D0D5F89000D5F8901020F4407024
:101A900041F48031C5F89010D5F8901021F48031D0
:101AA000C5F89010C5F89000C00710D0FFF74CFDA6
:101AB000074641F2883906E0FFF746FDC11B49455C
:101AC00001D903263CE7D5F890008007F4D5D5F876
:101AD0009000D4F8841020F440700843C5F89000BA
:101AE0002EE7404505D10121201D02F0EBFE00B19B
:101AF00006462068000317D5D5F88800216F20F02E
:101B000040600843C5F88800206FB84204D1E868F7
:101B100040F48010E86007E0404505D10121201D18
:101B200002F0D0FE00B106462068400317D5D5F874
:101B30008800616F20F040600843C5F88800606F3E
:101B4000B84204D1E86840F48010E86007E04045FE
:101B500005D10121201D02F0B5FE00B10646208806
:101B600040041AD5D5F88800A16F20F040500843F2
:101B7000C5F88800A06FB0F1805F03D0B0F1005FBE
:101B800005D00AE00221201D02F09CFE03E00221A4
:101B9000584602F02DFF00B106462088000407D504
:101BA000D5F88800E16F20F080400843C5F8880030
:101BB0002068C00307D555F8880FD4F8801020F0AE
:101BC000004008432860304600F004B8001002408E
:101BD0000070004018BCBDE8E08F00002DE9F04720
:101BE000DFF8608105460E46D8F8000000F00700D7
:101BF000B0420CD2D8F8001021F007013143C8F8E8
:101C00000010D8F8000000F00700B04275D1287825
:101C10004D4CC00757D06868032818D0022819D047
:101C20002168D0B14905002967DAA16821F00301D4
:101C30000143A160FFF788FC6968074641F28830DC
:101C4000032913D002291FD0814651B336E0216801
:101C50008901E8E721688903E5E78907E3E700BF31
:101C6000FFF772FCC11B494501D924E08146A068F9
:101C7000C0F381000328F3D125E000BFFFF764FC27
:101C8000C11B494501D916E08146A068C0F3810017
:101C90000228F3D117E000BFFFF756FCC11B4945EE
:101CA00009D8A06810F00C0FF6D10CE0FFF74CFC3F
:101CB000C11B494502D90320BDE8F087A068C0F3E5
:101CC00081000128F2D12878800705D5A068A9688D
:101CD00020F0F0000843A060D8F80010404601F062
:101CE0000701B1420BD9016821F0070131430160BE
:101CF000006800F00700B04201D00120DCE728783E
:101D0000400705D5A068E96820F4E0600843A060BA
:101D10002878000706D5A068296920F4605040EAB9
:101D2000C100A06000F03CF8A168084AC1F30311AB
:101D3000515CC840064908600020FFF717FC0020EE
:101D4000BAE70000002002400010024018700008AE
:101D500084000020014800687047000084000020D3
:101D60000448054900688968044AC1F30221515CAE
:101D7000C8407047840000200010024058700008DE
:101D80000448054900688968044AC1F3C221515CCE
:101D9000C8407047840000200010024058700008BE
:101DA00030B52D49002318468A682C4C12F00C0FD0
:101DB0004FEA640514D08A68C2F38102032A04D171
:101DC000CA6802F00302012A0AD08A68C2F38102BB
:101DD000012A19D08A68C2F38102022A16D016E0BD
:101DE0000A68120704D4D1F89420C2F3032202E057
:101DF0000A68C2F303121A4B53F822308A6812F0B1
:101E00000C0F04D1184602E0204600E028468A68FC
:101E1000C2F38102032A1DD1C868CA6800F003001A
:101E2000C2F30212521C022804D0032805D0B3FBCF
:101E3000F2F004E0B4FBF2F001E0B5FBF2F0CA68A6
:101E4000C968C2F306225043C1F34161491C4900ED
:101E5000B0FBF1F030BD0000001002400024F4009F
:101E6000287000082DE9F84304460078FE4DC006AE
:101E70005DD5A86810F00C0F0AD0A069002828686A
:101E800071D040F001002860FFF75EFB064654E089
:101E90002868800702D5A06900287DD0216A2868BB
:101EA000000703D5286800F0F00004E0D5F894009E
:101EB000F02202EA1010814216D9084602F0C6FE4E
:101EC000002869D1286840F0080028602868216A45
:101ED00020F0F000084328606868E16920F47F4042
:101EE00040EA0120686015E0286840F0080028609A
:101EF0002868216A20F0F000084328606868E169DA
:101F000020F47F4040EA01206860206A02F09EFED3
:101F10000028D6D1FFF744FFA968D44AC1F30311C2
:101F2000515CC840D24908600020FFF71FFB29E040
:101F3000FFF70AFB801B02287ED828688007F7D5A8
:101F4000286840F0080028602868216A20F0F00026
:101F5000084328606868E16920F47F4040EA012076
:101F600068600FE0FFE720F001002860FFF7ECFA5F
:101F7000064604E0FFF7E8FA801B0228DCD8286850
:101F80008007F7D42078C0074AD0A868C0F3810042
:101F900002281FD0A86800E098E0C0F38100032861
:101FA00003D1E868C043800714D06068B0F5803F73
:101FB00017D0B0F5A02F286817D020F48030286003
:101FC000286820F4802028606068E0B1FFF7BCFA40
:101FD000064614E02868800322D56068002875D082
:101FE0001EE0286840F48030EDE740F4802028604F
:101FF000F7E700BFFFF7A8FA801B64289CD8286881
:102000008003F7D50CE0FFF79FFA064605E000BF16
:10201000FFF79AFA801B64288ED828688003F7D4CB
:102020002078800742D5A868C0F38100012816D027
:10203000A868C0F3810000E0A9E0032804D1E868A3
:1020400000F0030002280AD0E068002828681DD0AC
:1020500040F480702860FFF777FA06460BE02868A6
:1020600040050BD5E0680028B9D007E0FFF76CFA0F
:10207000801B0228C2D828684005F7D56868217CF3
:1020800020F0F85040EA016068600FE020F48070B2
:102090002860FFF759FA064605E000BFFFF754FA3B
:1020A000801B022873D828684005F7D420780007E1
:1020B00029D560690028D5F8940013D040F00100BC
:1020C000C5F89400FFF740FA064606E0FBE000BFC3
:1020D000FFF73AFA801B022859D8D5F894008007F8
:1020E000F6D510E020F00100C5F89400FFF72CFAB7
:1020F000064604E0FFF728FA801B022847D8D5F8E7
:1021000094008007F6D42078400763D5A86D002698
:10211000C00008D4A86D40F08050A865A86D0126C5
:1021200000F08050009053480168C90511D401683F
:10213000804641F480710160FFF706FA074604E02B
:10214000FFF702FAC01B022821D8D8F80000C0050A
:10215000F6D5A068012815D00528D5F8900017D02D
:1021600020F00100C5F89000D5F8900020F00400A0
:10217000C5F89000A06841F28838C8B1FFF7E4F9CB
:10218000074610E0D5F8900040F00100F0E777E056
:1021900040F00400C5F89000F4E700BFFFF7D4F961
:1021A000C11B41456CD8D5F890008007F6D50CE0EE
:1021B000FFF7CAF9074604E0FFF7C6F9C11B41451E
:1021C00079D8D5F890008007F6D41EB1A86D20F01C
:1021D0008050A865A06AE0B3A968C1F38101032912
:1021E00072D00228286820F08070286011D02868FA
:1021F000000106D42868800003D4E86820F00300BA
:10220000E860E8681C490840E860FFF79DF904466B
:1022100054E0FFF799F9064605E000BFFFF794F98F
:10222000801B022847D828688001F7D4206BE16A18
:10223000000110380843616BA26B0902120941EAE0
:1022400042410843A18F0D4A490802EB415108431E
:1022500000E036E094F840104908120102EB4161B9
:102260000843E86028680CE000100240187000087D
:102270008400002000700040FFFFEEFE0000E0FF41
:1022800019E040F080702860E86840F08070E860F5
:10229000FFF75AF9044604E0FFF756F9001B02283D
:1022A00009D828688001F7D50BE000BFFFF74CF98B
:1022B000001B022802D90320BDE8F88328688001AA
:1022C000F4D40020F8E7FFE70120F5E72DE9F0411D
:1022D000040005D00025A56294F85D0018B107E060
:1022E0000120BDE8F08184F85C50204600F044F8FD
:1022F000022384F85D302068016821F0400101600C
:10230000E0684FF4E066B04201D9002101E04FF4EB
:102310008051B0F5706F02D0B04200D0A562276B3B
:10232000012227B9B04201D9236300E02263D4E936
:1023300001031843D4E9043633431843238B03F4D1
:1023400000731843E3691843236A1843A36A1843C8
:1023500023681860636B606AA66918430427E36802
:1023600007EA164633431843084321684860256648
:1023700084F85D200020B4E72DE9F041234A01688C
:1023800000252348022403260527DFF8888086B02D
:10239000914215D1016E41F480510166006E69468B
:1023A00000F48050059038208DE8F1004046FEF79B
:1023B000E1FF00220D212320FFF738F923201FE041
:1023C000154A91421ED1816D41F480418165806D35
:1023D000694600F48040059004208DE8F1000F4824
:1023E000FEF7C8FF4FF420408DE8F10069464046F3
:1023F000FEF7C0FF00220E212420FFF717F924204A
:10240000FFF708F906B0BDE8F08100000030014098
:102410000010024000040048003800400008004856
:102420002DE9F84F044640680026984617460D46A9
:102430004FF0040AB0F5827F01D1A06890B194F802
:102440005C00012819D04FF0010B84F85CB0FFF755
:102450007BF8009094F85D004FF0000901280ED041
:1024600002268EE084F85DA013460A462046CDF889
:10247000008000F04DF900F08AB80220FBE7002D43
:102480007ED0002F7CD084F85DA0C4F860902564D5
:10249000A4F84470A4F84670C4F83890A4F83C90AE
:1024A000A4F83E90C4F84C90C4F85090E0684FF403
:1024B000E06188422068426802D922F4805201E03B
:1024C00042F480524260A068B0F5004F04D1206809
:1024D000026822F48042026020680268520603D437
:1024E000026842F040020260E068884219D939E08F
:1024F00020688168C90708D0007B05F8010BB4F893
:102500004600401EA4F846000BE0B8F1000F26D0AC
:10251000B8F1FF3F05D0FFF717F80099411A414580
:102520001DD2B4F846000028E2D11FE0206881687F
:10253000C90708D0C06825F8020BB4F84600401E51
:10254000A4F846000EE0B8F1000F08D0B8F1FF3F44
:1025500008D0FEF7F9FF0099411A414502D303263E
:102560000FE00DE0B4F846000028DFD141462046D8
:10257000009A02F0B9FB08B120202066206E00B15D
:10258000012684F85DB084F85C90304673E718BC8F
:10259000BDE8E08F2DE9F84F044690F85C00002676
:1025A000984617460D4601280DD04FF0010A84F8D1
:1025B0005CA0FEF7C9FF834694F85D00B146012890
:1025C00004D002269BE0022000F09FB8002D73D0BB
:1025D000002F71D0032084F85D00C4F86090A563DB
:1025E000A787E787C4F84090A4F84490A4F84690E1
:1025F000C4F85090C4F84C90A068B0F5004F04D1D6
:102600002068016841F48041016020680168490642
:1026100003D4016841F040010160E068B0F5E06F6B
:10262000606823D910B1E08F01281BD1216835F8EB
:10263000020BC86006E020688168890706D535F876
:10264000021BC160E08F401EE0870BE0B8F1000F75
:102650003FD0B8F1FF3F05D0FEF776FFA0EB0B01AE
:10266000414536D2E08F0028E5D137E010B1E08F48
:10267000012830D1E08F012804D9216835F8020BF8
:10268000C86010E0216815F8010B087311E0E087BD
:1026900021E02068816889070FD5E18F012905D9DC
:1026A00035F8021BC160E08F801EF0E715F8011BB2
:1026B0000173E08F401EEAE720E0B8F1000F08D078
:1026C000B8F1FF3F07D0FEF73FFFA0EB0B014145FC
:1026D00001D3032613E0E08F0028DAD15A464146A1
:1026E000204602F03BFB08B120202066A06818B904
:1026F0002068C16880680090206E00B1012684F8CF
:102700005DA084F85C9030465EE718BCBDE8E08FC1
:102710002DE9F05F044690F85C0000260A9F994678
:1027200092460D464FF0010801280ED0012084F892
:102730005C00FEF709FF834694F85D00616801289C
:102740000CD0B1F5827F07D102E0022000F0FBB887
:10275000A16809B9042801D00226ECE04DB3BAF112
:10276000000F26D0B9F1000F23D094F85D000428A3
:1027700002D0052084F85D0000202066C4F840A047
:10278000A4F84690A4F84490A563A4F83E90A4F859
:102790003C90E0642065E0684FF4E061884203D833
:1027A000B4F84600012806D92068426822F4805215
:1027B00005E00126BFE02068426842F48052426092
:1027C00020680268520603D4026842F040020260A8
:1027D000E068884260683DD910B1E08F012831D1AE
:1027E000216835F8020BC860E08F401EE08729E0C1
:1027F000B8F1000F0DD0E08F58B1206881688907CB
:1028000007D535F8021BC160E08F401EE0874FF00E
:102810000008B4F8460068B120688168C90709D08B
:10282000C0682AF8020BB4F84600401EA4F846001F
:102830004FF00108781C05D0FEF786FEA0EB0B00D8
:10284000B84266D2E08F0028D2D1B4F84600002802
:10285000CED167E010B1E08F01285CD1E08F012874
:1028600006D9216835F8020BC860E08F801E05E0AC
:10287000216815F8010B0873E08F401EE0874AE0DD
:10288000B8F1000F16D0E08FA0B1206881688907E9
:1028900010D5E18F012905D935F8021BC160E08F01
:1028A000801E04E015F8011B0173E08F401EE087D5
:1028B0004FF00008B4F8460018B320688168C907D3
:1028C0001FD0B4F84610012911D9C0682AF8020BAC
:1028D000B4F84600801EA4F84600B4F8460001286B
:1028E0000DD82068416841F48051416007E0017BC8
:1028F0000AF8011BB4F84600401EA4F846004FF049
:102900000108781C07D0FEF71FFEA0EB0B00B842B1
:1029100001D303260FE0E08F0028B1D1B4F84600C0
:102920000028ADD15A463946204602F017FA10B1B8
:10293000012620202066012084F85D00002084F814
:102940005C00304602E730BCBDE8C09F4FF0E0219C
:102950000428086903D020F004000861704740F0A3
:102960000400FAE710B5401EB0F1807F01D30120CA
:1029700010BD4FF0E02460610F21601701F06CFF83
:102980000020A06107202061002010BD10B50400C8
:1029900003D094F8710010B107E0012010BD0020B1
:1029A00084F87000204600F027F8242084F8710095
:1029B0002068016821F001010160204602F018FD45
:1029C0000128EBD0606A10B1204602F07FFC20683D
:1029D000416821F4904141602068816821F02A011A
:1029E00081602068016841F0010101602046BDE876
:1029F000104002F0CFBC00002DE9F0410746454BE6
:102A00000168002444480325022686B04FF0904216
:102A10004FF0800899422AD1816D41F400218165EF
:102A2000806D029400F400200590CDE90056082046
:102A3000CDE9035069461046FEF79CFC384D3748F7
:102A40002860C5E90164C5E903486C61AC61EC61CB
:102A500028462C62FEF72EFC20B140F2BD1131A0B9
:102A600002F05DFEFD66AF6206B0BDE8F081344B5A
:102A70000727994219D1016E41F480410166006E29
:102A800002AA00F4804005905815CDE9000682E8BE
:102A9000B00069462B48FEF76DFC02AA694682E841
:102AA000B000CDE90086284831E0284B99421AD180
:102AB000816D41F400318165806D02AB00F400301E
:102AC00005900C20CDE9000683E8B0006946104669
:102AD000FEF750FC002207212620FEF7A7FD262046
:102AE000FEF798FDC0E71A4A9142BDD1816D41F4CD
:102AF00080218165806D02AA00F4802005904FF44A
:102B00004060CDE9000682E8B00069461148FEF752
:102B100031FCA9E7004C004000100240580402407C
:102B2000240500202E2E2F5372632F73746D3332C1
:102B30006C3478785F68616C5F6D73702E63000031
:102B400000380140001800480004004800440040DC
:102B500000480040000800482DE9F843044690F87A
:102B600071001F4616460D4620284BD1C5B1BEB197
:102B700094F87000012845D0012084F870004FF0CF
:102B80000008C4F87480212084F87100FEF7DCFC92
:102B9000A4F850608146A4F852604FF4805615E0C6
:102BA0000120BDE8F8838021204602F071FDD8B9EC
:102BB000A068B04201D12069C0B115F8010B2168AD
:102BC0000885B4F85200401EA4F85200B4F8520030
:102BD0004B464FF0000200970028E4D14FF040012F
:102BE000204602F055FD30B10320DAE735F8020B3C
:102BF000C0F30800E3E7202084F8710084F87080B7
:102C00000020CEE70220CCE7FEE700EB8100006E5B
:102C100000F0F84070478068C0F38000704780681B
:102C2000C0F38000704770B54FF0007401F000737E
:102C300094FAA4F4B4FA84F4E3404FF0F87494FAEC
:102C4000A4F501F0F871B5FA85F500EB830021FADF
:102C500005F50726AE4094FAA4F44369B4FA84F467
:102C6000E140B3438A401343436170BD00EB8100F0
:102C7000016E21F00041114301667047044908B517
:102C8000CA6C0243CA64C96C0140009108BD0000CF
:102C900000100240044908B58A6D02438A65896DB7
:102CA0000140009108BD000000100240F0B50A6824
:102CB000032492FAA2F2B2FA82F30F257EE03246A2
:102CC00001269E40324078D0D1F804E0066892FA9E
:102CD000A2F7B7FA87F74FEA470C04FA0CF7BE439E
:102CE00092FAA2F7B7FA87F77F000EFA07FE46EAD4
:102CF0000E0606604E68012E01D0022E15D1D1F8C5
:102D000008E0866892FAA2F7B7FA87F74FEA470C0D
:102D100004FA0CF7BE4392FAA2F7B7FA87F77F00DE
:102D20000EFA07FE46EA0E068660D1F810C0C668A5
:102D300092FAA2F7B7FA87F77F0004FA07FE92FA31
:102D4000A2F7B7FA87F77F0026EA0E060CFA07FC0F
:102D500046EA0C06C6604E68022E2ED192FAA2F602
:102D6000B6FA86F6082E4E6913D2076A92FAA2FCCA
:102D7000BCFA8CFC4FEA8C0C05FA0CFC92FAA2F21D
:102D8000B2FA82F2920027EA0C07964037430762B4
:102D900013E0476A120A92FAA2FCBCFA8CFC4FEAD2
:102DA0008C0C05FA0CFC92FAA2F2B2FA82F29200B2
:102DB00027EA0C079640374347625B1C0A681646B1
:102DC000DA407FF47CAF4A68012A01D0022A07D199
:102DD000CB6841683246914306FB03F211434160E0
:102DE0000120F0BD354808B5016E41F001010166D2
:102DF000016E01F001010091816D41F0805181650A
:102E0000806D2F4900F08050009008684FF6FF0257
:102E100010402C4A40F440701043086001F004FD5B
:102E20000022114601F0E7FC01466FF00B0001F0B3
:102E300003FD01F0F9FC0022114601F0DCFC014623
:102E40006FF00A0001F0F8FC01F0EEFC00221146E0
:102E500001F0D1FC01466FF0090001F0EDFC01F03A
:102E6000E3FC0022114601F0C6FC01466FF00400AD
:102E700001F0E2FC01F0D8FC0022114601F0BBFC9D
:102E800001466FF0030001F0D7FC01F0CDFC0022F9
:102E9000114601F0B0FC01466FF0010001F0CCFCDE
:102EA00001F0C2FC0022114601F0A5FC0146BDE87C
:102EB00008404FF0FF3001F0BFBC0000001002409E
:102EC0000CED00E00000FA054FF47A71B0FBF1F16F
:102ED0004FF0E020491E416100218161052101611F
:102EE0007047000070B500241F49204D4FF4004684
:102EF000C02803D0B0F5407F1CD019E0D1F888007D
:102F000000F0C00040F440004038B0F5400027D049
:102F1000402804D080281CD106E0044608E000F0D8
:102F200083F828B12C4603E000F086F800B134465F
:102F3000204670BDD1F888000D4900F4407040F083
:102F4000407040180CD0B0F5807FE8D0B0F5007F1D
:102F5000EAD001F0FBFD01F0CFFD01F0DBFDDCE785
:102F600001F0F4FDD9E70000001002400024F40055
:102F700000FFFFFC70B5002429492A4D4FF400469C
:102F8000032804D00C281AD030282FD040E0D1F8E4
:102F900088006FF4403100F0030040F440304018E6
:102FA0000AD0012836D002282ED001F0CFFD01F042
:102FB000A3FD01F0BDFD17E001F0C8FD14E0D1F85C
:102FC000880000F00C0040F44020001FB0F54020C5
:102FD000F2D004281ED0082816D000BF01F0B6FD9C
:102FE00001F08AFD01F096FD044611E0D1F8880059
:102FF00000F0300040F440101038B0F54010DBD045
:10300000102807D02028E9D100F016F800B1344686
:10301000204670BD00F008F80028F9D02C46F7E7EC
:10302000001002400024F40002480068C0F3802031
:1030300070470000001002400248D0F89000C0F332
:1030400040007047001002400248006800F0F000A5
:1030500070470000001002400248D0F8940000F4CD
:10306000706070470010024002480068C0F3C00062
:1030700070470000001002400248C06800F0700075
:1030800070470000001002400248C06800F00300D2
:1030900070470000001002400149086070470000BE
:1030A0008400002070B5044600680D46002610F02C
:1030B000010F42D1E9686868AA6908432969114388
:1030C00008432168254A114008432060A8686168C8
:1030D00021F44051014361606869A16821F44071A5
:1030E0000143A1601E48844201D1032008E01D482D
:1030F000844201D10C2003E01B48844203D13020DC
:10310000FFF738FF0BE01948844201D1C02004E0EA
:103110001748844211D14FF44070FFF7E3FE60B1CD
:10312000296851B1AA690126B2F5004F07D000EB1A
:103130005100B0FBF1F080B2E060304670BD40005D
:1031400000EB5100B0FBF1F081B24FF6F07201EAF2
:103150000200C1F342010843EEE70000F369FFEF0C
:10316000003801400044004000480040004C00404E
:103170000050004008B54FF0E0210A690092421C5F
:1031800000D0401C0A69D20300D5401E0028F9D1A6
:1031900008BD000030B591B001208DF83C0014212D
:1031A0006846FDF748F8142105A8FDF744F81421F6
:1031B0000AA8FDF740F880216B2000F083FD642011
:1031C000FFF7D8FF03216B2000F07CFD0120FFF703
:1031D000D1FF1021372000F075FD0120FFF7CAFF55
:1031E0000021382000F06EFD0120FFF7C3FFC02151
:1031F0006C2000F067FD0120FFF7BCFF07211920BC
:1032000000F060FD0120FFF7B5FF10211B2000F04A
:1032100059FD0120FFF7AEFF00211C2000F052FDF8
:103220000120FFF7A7FF1D2000F00EFD40F0030472
:103230000120FFF79FFF21461D2000F043FD0120E4
:10324000FFF798FF03211A2000F03CFD0120FFF753
:1032500091FF6A2000F0F8FC04460120FFF78AFF86
:1032600044F010016A2000F02DFD0120FFF782FFDD
:103270006A2000F0E9FC04460120FFF77BFF44F0E0
:1032800020016A2000F01EFD0120FFF773FF3720A8
:1032900000F0DAFC04460120FFF76CFF04F0FD01AA
:1032A000372000F00FFD0120FFF764FF01220B2102
:1032B0000C2000F02EFA0220FFF75CFF10220A21FA
:1032C0000C2000F026FA0120FFF754FF1F220A21EC
:1032D0000C2000F01EFA0120FFF74CFF0FAA0A2174
:1032E0000C2000F085F90120FFF744FF924D1C22CD
:1032F00089A1284603F048FE1FE001220B210C2083
:1033000000F007FA0220FFF735FF10220A210C20F7
:1033100000F0FFF90120FFF72DFF1F220A210C20EA
:1033200000F0F7F90120FFF725FF0FAA0A210C2072
:1033300000F05EF90120FFF71DFF9DF83C001F28FB
:10334000DBD11C227DA1284603F01EFE834B032205
:1033500010210C2000F08EF90A20FFF70BFF7F4CA4
:10336000211D227802F1800008806078803048803A
:10337000A078803088807AA1684602F0E1F962780E
:1033800077A105A802F0DCF9A27875A10AA802F0DD
:10339000D7F90B2273A1284603F0F6FD6846FCF727
:1033A00055FF82B26946284603F0EEFD012270A166
:1033B000284603F0E9FD05A8FCF748FF82B205A9FD
:1033C000284603F0E1FD012269A1284603F0DCFD57
:1033D0000AA8FCF73BFF82B20AA9284603F0D4FDF5
:1033E000012263A1284603F0CFFD022261A12846F5
:1033F00003F0CAFD0120FFF7BDFE01220B210C20C6
:1034000000F087F90120FFF7B5FE0FAA0A210C2072
:1034100000F0EEF80220FFF7ADFE102256A128467C
:1034200003F0B2FD0FE001220B210C2000F071F936
:103430000220FFF79FFE0FAA0A210C2000F0D8F807
:103440000120FFF797FE9DF83C000028EBD11022E9
:103450004EA1284603F098FD10220A210C2000F00E
:1034600058F90120FFF786FE0FAA0A210C2000F070
:10347000BFF80120FFF77EFE162249A1284603F07F
:1034800083FD07E010220A210C2000F042F9012000
:10349000FFF770FE9DF83C001028F3D11E2246A1D4
:1034A000284603F071FD5D21242000F00BFC012073
:1034B000FFF760FE8C21252000F004FC0120FFF7BF
:1034C00059FE0221262000F0FDFB0120FFF752FEED
:1034D0008821272000F0F6FB0120FFF74BFE092191
:1034E000342000F0EFFB0120FFF744FE812167202C
:1034F00000F0E8FB6420FFF73DFE00F055F9752071
:1035000000F0A2FB712804D1152233A1284603F054
:103510003BFD11B030BD0000B5C8B4FDC9E8D6C34D
:10352000B4C5C1A6BCC64655534520524F4DC4A391
:10353000CABD0D0A0000000000480040C9E8D6C31B
:10354000B4C5C1A6BCC64655534520524F4DC4A371
:10355000CABDB3C9B9A60D0A000000004000002092
:1035600025750000726573706F6E73653A0D0A0001
:10357000090000000D0A0000B5C8B4FDB4C5C1A61D
:10358000BCC6B8B4CEBB0D0A00000000B4C5C1A6CD
:10359000BCC6B8B4CEBBB3C9B9A60D0A00000000C2
:1035A000B5C8B4FDB4C5C1A6BCC6504F57455220DE
:1035B000444F574E0D0A0000C9E8D6C3B4C5C1A692
:1035C000BCC6504F57455220444F574EC4A3CABDA6
:1035D000B3C9B9A60D0A0000B6C1C8A14D505536F1
:1035E00035303020494420B3C9B9A60D0A00000087
:1035F00077B5054681B0002016468DF800000446D8
:1036000002AA0121322000F075FB0120FFF7B2FD74
:1036100045F080008DF8080002AA0121312000F059
:1036200069FB0120FFF7A6FD80208DF8080002AAA3
:103630000121342000F05EFB0120FFF79BFD2046B6
:10364000641C322803D96FF0010004B070BD6A46D3
:103650000121362000F012FB0120FFF78BFD9DF8C1
:1036600000004006EBD532460121352000F006FB74
:103670000020EAE72DE9FC41002440F080001646D6
:103680000F468DF8000098468DF8044025466A469E
:103690000121312000F02EFB0120FFF76BFD34E00B
:1036A00038198DF800006A460121322000F022FB13
:1036B0000120FFF75FFD80208DF800006A460121A0
:1036C000342000F017FB0120FFF754FD28466D1C45
:1036D000322803D96FF00100BDE8FC8101AA012165
:1036E000362000F0CBFA0220FFF744FD9DF80400DD
:1036F0004006EBD508EB04020121352000F0BEFAAC
:103700000120FFF737FD641CE4B2B442C8D30020A7
:10371000E2E77CB515460E4600248DF800008DF8D2
:1037200004406A460121312000F0E4FA0120FFF74D
:1037300021FD8DF800606A460121322000F0DAFA9E
:103740000120FFF717FD8DF800506A460121332054
:1037500000F0D0FA0120FFF70DFD80208DF8000069
:103760006A460121342000F0C5FA0120FFF702FD6E
:103770002046641C322802D96FF001007CBD01AAEA
:103780000121362000F07AFA0120FFF7F3FC9DF8C2
:1037900004004006ECD59DF80400C00602D56FF089
:1037A00002007CBD00207CBD2DE9F041154F164D77
:1037B00000264FF04308002408EB440007EB4402C6
:1037C000C0B20023022101F0EDFA55F8240037F9C8
:1037D0001410084445F82400641CE4B2032CEBD315
:1037E000761CF6B20A2EE6D300200A2155F82020D6
:1037F00092FBF1F245F82020401CC0B20328F5D31B
:10380000BDE8F0810A000020900000202DE9F0437F
:10381000B5B00D4607461446142108A8FCF70BFD69
:1038200014210DA8FCF707FD142112A8FCF703FDD5
:10383000142117A8FCF7FFFC14211CA8FCF7FBFCC3
:10384000142121A8FCF7F7FC142126A8FCF7F3FCAF
:1038500014212BA8FCF7EFFC142130A8FCF7EBFC9B
:103860000921342000F02EFA0120FFF783FC81218A
:10387000672000F027FA6420FFF77CFC01220B216F
:103880000C20FFF746FF0120FFF774FC6A460A216F
:103890000C20FFF7ADFE0120FFF76CFCBE4E14E0DC
:1038A00001220B210C20FFF734FF0120FFF762FCFF
:1038B0006A460A210C20FFF79BFE0120FFF75AFC05
:1038C0001022B6A1304603F05FFB9DF800000028EF
:1038D000E6D10120FFF74EFC10220A210C20FFF751
:1038E00018FF0120FFF746FC6A460A210C20FFF76B
:1038F0007FFE0120FFF73EFC0CE010220A210C2085
:10390000FFF707FF0120FFF735FC1622A8A130467C
:1039100003F03AFB9DF800001028EED111220A2195
:103920000C20FFF7F6FE0120FFF724FC6A46022177
:103930000C20FFF75DFE0120FFF71CFC1622A2A160
:10394000304603F021FB07E06A4602210C20FFF716
:103950004FFE0120FFF70EFC9DF800000028F3D079
:1039600016229FA1B146304603F00EFB01AA162194
:103970003B2000F083F9BDF804009F4940BA38802D
:10398000BDF8060040BA7880BDF8080040BAB8809B
:10399000BDF80C0040BA2880BDF80E0040BA68801F
:1039A000BDF8100040BAA880002000BF35F81020F4
:1039B00031F82030D21A25F81020401C0328F5DBFE
:1039C00000260DF1040800BFF01C08EB0602C1B28E
:1039D0000C200F32FFF70CFE0120FFF7CBFB761C0B
:1039E000062EF1DBBDF813002080BDF815006080C5
:1039F000BDF81700A080192280A14E46484603F06A
:103A0000C3FAB7F9002084A108A801F099FEB7F91C
:103A1000022081A10DA801F093FEB7F904207EA138
:103A200012A801F08DFEB5F900207BA117A801F0C6
:103A300087FEB5F9022078A11CA801F081FEB5F936
:103A4000042075A121A801F07BFEB4F9002072A129
:103A500026A801F075FEB4F902206FA12BA801F091
:103A60006FFEB4F904206CA130A801F069FE0822B1
:103A70006AA1304603F088FA08A8FCF7E7FB82B297
:103A800008A9304603F080FA012267A1304603F00E
:103A90007BFA0DA8FCF7DAFB82B20DA9304603F0E1
:103AA00073FA012260A1304603F06EFA12A8FCF707
:103AB000CDFB82B212A9304603F066FA08225BA160
:103AC000304603F061FA17A8FCF7C0FB82B217A9D1
:103AD000304603F059FA012253A1304603F054FA5C
:103AE0001CA8FCF7B3FB82B21CA9304603F04CFAC9
:103AF00001224DA1304603F047FA21A8FCF7A6FBAE
:103B000082B221A9304603F03FFA08224AA130468A
:103B100003F03AFA26A8FCF799FB82B226A93046B0
:103B200003F032FA012240A1304603F02DFA2BA80F
:103B3000FCF78CFB82B22BA9304603F025FA012258
:103B400039A1304603F020FA30A8FCF77FFB82B29F
:103B500030A9304603F018FA02221AA1304603F0C9
:103B600013FA022217A1304603F00EFA35482188D5
:103B7000028811FB02F1091221806188428811FB41
:103B800002F109126180A188808811FB00F0001207
:103B9000A08035B0BDE8F08300480040B4C5C1A6A0
:103BA000BCC6B8B4CEBBCAA7B0DC0D0A000000008A
:103BB000B4C5C1A6BCC6504F57455220444F574EBE
:103BC000CAA7B0DC0D0A0000B5C8B4FDB4C5C1A6D3
:103BD000BCC6CAFDBEDDD7BCB1B8BAC30D0A000071
:103BE000B4C5C1A6BCC6CAFDBEDDD2D1BEADD7BC70
:103BF000B1B8BAC30D0A0000900000200D0AB4D37A
:103C0000BCC4B4E6C6F7C0EFB6C1C8A1B5C4CAFD0E
:103C1000BEDD3A0D0A000000256400000D0A414394
:103C2000433A0D0A00000000090000000D0A475940
:103C30004F3A0D0A000000000D0A4D41473A0D0AA7
:103C4000000000004400002070B50B4E0546002423
:103C5000224640213046FDF772FC45F0800001F01D
:103C600033F8204601F030F8044601224021304666
:103C7000FDF765FC204670BD000400482DE9F047C3
:103C80000024DFF83C9017460D4680462646224623
:103C900040214846FDF753FC48F0800001F014F83D
:103CA00004E0304601F010F83855641CAC42F8D3FB
:103CB0004846BDE8F04701224021FDF740BC000026
:103CC0000004004870B50A4C0E460546002240210B
:103CD0002046FDF734FC284600F0F6FF304600F0A1
:103CE000F3FF2046BDE8704001224021FDF727BCCC
:103CF000000400482DE9F041DFF8308016460D46FB
:103D000007460024224640214046FDF718FC38466D
:103D100001E0305D641C00F0D7FFAC42F9D34046AF
:103D2000BDE8F04101224021FDF709BC0004004834
:103D300030B5204889B01E4901604FF4402100246D
:103D4000C0E901140425C460C0E90445012184616F
:103D5000C0E907414462C462046344638463C4638A
:103D6000FDF714F918B14E2113A001F0D8FC06A9F3
:103D700010480694FCF73AFE18B156210EA001F047
:103D8000CEFC1148009006200190022002907F2076
:103D90000594CDE9030569460648FCF79FFE002817
:103DA00003D0632104A001F0BAFC09B030BD0000CB
:103DB00000000450FC0600202E2E5C5372635C61F0
:103DC00064632E6300000000000084CB2DE9F04FF7
:103DD0005B4C8DB0E06C40F00100E064E06C00F002
:103DE00001000B90E06C40F04000E064E06C00F0FB
:103DF00040000B90FDF77EFCE06C40F00200E064B8
:103E0000E06C00F002000B90E06C40F00400E06415
:103E1000E06C00F004000B90E06C40F08000E06487
:103E2000E06C012200F080000B9040214548FDF736
:103E300086FB4FF480694FF0904B0022494658466C
:103E4000FDF77DFB404F00224FF460713846FDF7CF
:103E500076FB0122160231465846FDF770FB44F20C
:103E6000040A002251463748FDF769FB0122082168
:103E70003846FDF764FBF001002401258DE8310090
:103E800069465846FDF776FA4FF04008CDE90085BF
:103E9000CDE9025469462B48FDF76CFACDF8009045
:103EA000CDE90154694658460394FDF763FA4FF48F
:103EB0002270CDE90005CDE9025469463846FDF788
:103EC00059FACDE90065CDE9025469465846FDF737
:103ED00051FA0096CDE90154694638460394FDF73E
:103EE00049FACDE90084694638460294FDF742FA62
:103EF000CDF800A0CDE90154694612480394FDF7BE
:103F000039FA2803CDE9000469460E480294FDF70A
:103F100031FA0120FEF7B2FE0420FEF7AFFE80204A
:103F2000FEF7ACFE8020B862CDE9065405900894F7
:103F300005A938460994FEF7B9FE0DB000F006B8A1
:103F400000100240000400480008004830BCBDE8F2
:103F5000C08F0000114810B50F4901604FF4827105
:103F6000416000214FF4E062C0E9021202220261C6
:103F700001224261520282610822C0E90721072220
:103F80004162C0E90A1201634163FEF79FF900280C
:103F900000D0FEE710BD000000300140900100207D
:103FA000114810B50F4901604FF482714160002142
:103FB0004FF4E062C0E90212022202610122426172
:103FC000520282610822C0E9072107224162C0E94A
:103FD0000A1201634163FEF779F9002800D0FEE779
:103FE00010BD000000380040F401002010B58EB074
:103FF0004FF40020FEF74EFE03200221CDE9070119
:104000000024CDE909040820CDE90B4007A94FF0B1
:104010009040FEF74BFE4FF4E130CDE900040C2058
:104020000294CDE9034005940694094C6946204664
:10403000FFF738F8606820F490406060A06820F0D6
:104040002A00A060206840F0010020600EB010BD82
:10405000004C00400C4810B50A4901604FF4E131B2
:104060004160002181600C22C160C0E904128161BD
:10407000C16101624162FEF789FC002800D0FEE7C1
:1040800010BD000000380140580200200C4810B557
:104090000A4901604FF4E1314160002181600C2246
:1040A000C160C0E904128161C16101624162FEF731
:1040B0006DFC002800D0FEE710BD00000044004069
:1040C000D002002010B58EB04FF48020FEF7E2FD44
:1040D0004FF4406007900220089003200024CDE9AF
:1040E00009040720CDE90B4007A91048FEF7DEFDC3
:1040F0004FF4E130CDE900040C200294CDE90340F7
:10410000059406940A4C69462046FEF7CBFF60688A
:1041100020F490406060A06820F02A00A060206831
:1041200040F0010020600EB010BD00000008004803
:10413000004800400D48B7EE001ADFED0D0A80ED93
:10414000011A80ED021AC0ED030AC0ED040AC0EDA9
:10415000050AC0ED060AC0ED070AC0ED080AC1EE67
:10416000000A00210170C0ED090A70471800002004
:104170000000000010B5264C2DED028BB6EE008A33
:1041800094ED030AF0EE480AD4ED021A40EE400A1C
:1041900094ED041A21EE800AD4ED051A41EE410A8D
:1041A00001EE210A01F08AFB1A4880ED000A94ED25
:1041B000030AD4ED050A94ED041A20EE200AD4ED8A
:1041C000020A00EEC10AF8EE000A20EE200A01F011
:1041D000DFFA1148F0EE480A80ED000A94ED040A77
:1041E000D4ED031A94ED051A40EE400A21EE800A40
:1041F000D4ED021A01EE810A41EE410A01F05EFBA4
:10420000064880ED000A01202070BDEC028B10BD35
:104210001800002078000020740000207C0000209E
:1042200010EE100AF6EE000A0B4960EE200AA1EB30
:10423000600000EE100AB7EE081A20EE802AF0EEB9
:10424000411A42EE401A21EE800A60EE800A00EE2A
:10425000C01A21EE000A7047DF59375F10B52DED07
:10426000108BBCB0F0EE44AAB0EE63BAF0EE43CAD5
:10427000F0EE629AB0EE42AAB0EE61CAB0EE418AA8
:10428000F0EE608AB0EE409A142107A8FBF7D3FF46
:1042900014210CA8FBF7CFFF142111A8FBF7CBFFCB
:1042A000142116A8FBF7C7FF142132A8FBF7C3FFA0
:1042B00014211BA8FBF7BFFF142120A8FBF7BBFFAD
:1042C000142125A8FBF7B7FF14212AA8FBF7B3FF99
:1042D000FF4C1322F9A1204602F056FE1CEE100AF4
:1042E000FCF75FF941EC100BFAA153EC102B07A877
:1042F00001F026FA1AEE100AFCF753F941EC100B04
:10430000F4A153EC102B0CA801F01AFA19EE900A44
:10431000FCF747F941EC100BEEA153EC102B11A860
:1043200001F00EFA19EE100AFCF73BF941EC100B04
:10433000E8A153EC102B16A801F002FA18EE900A2F
:10434000FCF72FF941EC100BE2A153EC102B32A833
:1043500001F0F6F918EE100AFCF723F941EC100B06
:10436000DCA153EC102B1BA801F0EAF91CEE900A1B
:10437000FCF717F941EC100BD6A153EC102B20A839
:1043800001F0DEF91BEE100AFCF70BF941EC100B03
:10439000D0A153EC102B25A801F0D2F91AEE900A07
:1043A000FCF7FFF841EC100BCAA153EC102B2AA824
:1043B00001F0C6F90822C8A1204602F0E5FD07A8D1
:1043C000FBF744FF82B207A9204602F0DDFD01227F
:1043D000C4A1204602F0D8FD0CA8FBF737FF82B23B
:1043E0000CA9204602F0D0FD0122BEA1204602F019
:1043F000CBFD11A8FBF72AFF82B211A9204602F0DB
:10440000C3FD0822B8A1204602F0BEFD16A8FBF7A6
:104410001DFF82B216A9204602F0B6FD0122B1A10D
:10442000204602F0B1FD32A8FBF710FF82B232A99C
:10443000204602F0A9FD0122AAA1204602F0A4FD17
:104440001BA8FBF703FF82B21BA9204602F09CFDCC
:104450000822A8A1204602F097FD20A8FBF7F6FE4F
:1044600082B220A9204602F08FFD01229DA12046A4
:1044700002F08AFD25A8FBF7E9FE82B225A92046B5
:1044800002F082FD012297A1204602F07DFD2AA8BC
:10449000FBF7DCFE82B22AA9204602F075FD02225B
:1044A00097A1204602F070FD022295A1204602F05D
:1044B0006BFDB5EEC0CAF6EE00BAF1EE10FA914C03
:1044C00009D1B5EEC0AAF1EE10FA04D1F5EEC09A0A
:1044D000F1EE10FA7ED02CEE0C0A0AEE0A0A09EE72
:1044E000A90AFFF79DFE6CEE00DA2AEE00EA69EEFB
:1044F00080EA2CEEAC0A0BEE0B0A0AEEAA0AFFF7D2
:104500008FFED4ED021A6CEE809A2BEE00AA21EEFB
:10451000A12A6AEE80AA8DED372A94ED041A94ED53
:10452000050AD4ED030A61EE01FA21EE802A60EE5D
:1045300080CA21EE00CA20EE00BA3BEEEF0A21EE5F
:10454000A0FA21EE81DA60EE811A30EE4B4A60EE7D
:10455000A02A7CEE8D0A8DED304A24EE290A31EE38
:10456000C24A8DED2F4A0AEE040A0AEEA00AF0EEC6
:10457000000A20EE200A71EE820A7BEEE21A20EE9B
:10458000000A60EEA90A31EECB1ACDED001A4AEE10
:10459000010A3CEE4F1A4AEE810AB0EE001A60EEB4
:1045A000810A00EEA00A01F0B1FAF0EE400A3CEEFA
:1045B000CD0A7CEE0F1A20EE291A0AEE211ADDED43
:1045C000001A31EEEF3AF0EE001A0AEE831A61EEAD
:1045D000211A00E06FE09DED372A9DED304A3FEE55
:1045E0000C1A32EE6B2A64EE202A9DED2F4A72EEF1
:1045F0000B3A24EE202A3DEE2C4A41EE802A01EEB1
:10460000812A64EE200A41EE830A6EEE231A4EEEF2
:10461000C11A2AEE203A0AEEC23A71EE831A2EEE41
:10462000803A0DEEE33A6AEEA23A49EEE03A6DEED8
:10463000810A4EEE400A29EE820A33EE233A0AEE50
:10464000620A70EE800A94ED010AB5EEC00AF1EE3E
:1046500010FA20DD20EE211A94ED092AD4ED062A65
:1046600060EE033A41EE022AC4ED062A94ED071AE1
:1046700039EE229A03EE821A60EE203A84ED071A90
:1046800094ED080A78EE818A03EE820A84ED080A26
:1046900038EE008A07E09FED1C0A84ED060A84EDDF
:1046A000070A84ED080A9FED190A01EE809A43EE8D
:1046B000008A00EE808A94ED090A29E00D0AD7AA43
:1046C000BBBBBAF3B5C4B8A1B5E3CAFD3A0D0A0045
:1046D00000480040256600000D0A4143433A0D0A98
:1046E00000000000090000000D0A47594F3A0D0A6A
:1046F000000000000D0A4D41473A0D0A000000007D
:104700000D0A000018000020000000000000C84250
:1047100020EE2B0A94ED041A94ED053AD4ED020A2A
:1047200060EE091A20EE282A60EE082A94ED030AAA
:1047300060EE613A41EE423A43EE623A33EEA04A0D
:1047400060EEA13A84ED024A41EE223A43EE423A4B
:1047500073EE804A60EE823A60EEA20AC4ED034A2C
:1047600040EE623A40EE020A24EE040A43EE213A99
:1047700004EEA40A41EE610A73EE813A70EE830AF8
:10478000C4ED043A03EEA30AC4ED050A00EEA00A44
:10479000FFF746FDD4ED020A002060EE800AC4ED6A
:1047A000020AD4ED030A60EE800AC4ED030AD4EDD8
:1047B000040A60EE800AC4ED040AD4ED050A20EE76
:1047C000800A84ED050A20703CB000F001B810BDED
:1047D000BDEC088BBDEC08CBFFF7F9BFFEE77047D7
:1047E00000F01F02012191404009800000F1E0200B
:1047F000C0F80011704730B500F00703C3F107049B
:10480000042C00D90424181D072801D2002300E03D
:10481000DB1E012505FA04F0401E084098409D402B
:104820006D1E1540284330BD02480068C0F30220C9
:10483000704700000CED00E00907090E002806DAB9
:1048400000F00F0000F1E02080F8141D704700F127
:10485000E02080F8001470470907090E002806DAE6
:1048600000F00F0000F1E02080F8141D704700F107
:10487000E02080F80014704770472DE9F041984619
:1048800016460F460446069D12E0681C10D02DB156
:10489000FCF75AFEA0EB0800A84209D9042084F8CE
:1048A0003900E06B40F00100E0630120BDE8F081D9
:1048B00020688068384000D00120B042E5D1002057
:1048C000F4E700002DE9F041444C05468846E068D5
:1048D0000026810728680DD0E16801F003018142BC
:1048E00016D1A8B1E0686968C0F30210401C884284
:1048F0000ED120E0012804D0022805D0032807D1DA
:1049000008E02168890701E021684905002907DBE3
:1049100001265FE02168890302D421684903F5E795
:10492000E1686A686FF00F0321F0730103EB021274
:1049300011430143E160206820F080602060FCF7B3
:1049400003FE074605E000BFFCF7FEFDC01B022882
:1049500037D820680001F7D4B8F1000F18D0B8F1AB
:10496000010F1ED0287D4FF07E41400801EB4060D2
:10497000A96840EA01202169194A114008432061D1
:10498000206840F080602060FCF7DEFD07461AE0FA
:10499000A868E9680002090940EA41402169114A12
:1049A000EBE7288A1049400801EB4050A96840EA2B
:1049B000012021690D4AE0E7FCF7C6FDC01B022873
:1049C00001D9032606E020680001F5D52069A96910
:1049D000084320613046BDE8F0810000001002402D
:1049E000FF80FFF9FF80FDFF0000E0FFFF809FFFD9
:1049F0002DE9F0413D4C06468846E06800258107D8
:104A000030680DD0E16801F00301814216D1A8B1F0
:104A1000E0687168C0F30210401C88420ED120E0AB
:104A2000012804D0022805D0032807D108E0216816
:104A3000890701E021684905002907DB012551E0CC
:104A40002168890302D421684903F5E7E1687268A7
:104A50006FF00F0321F0730103EB021211430143C6
:104A6000E160206820F080502060FCF76DFD074673
:104A700005E000BFFCF768FDC01B022829D82068AC
:104A80008000F7D4B8F1000F15D0307C4FF07E4194
:104A9000400801EB4060B16840EA01206169144AB6
:104AA000114008436061206840F080502060FCF7AE
:104AB0004BFD07460FE0B068F1680002090940EAC3
:104AC000414061690B4AEBE7FCF73EFDC01B022841
:104AD00001D9032506E020688000F5D56069716979
:104AE000084360612846BDE8F081000000100240E4
:104AF000FF80FFF9FF80FDFF04498968044A01F047
:104B0000F0010909515CC8407047000000100240E4
:104B10001870000804498968044A01F4E06102EB56
:104B200011210978C84070470010024058700008F1
:104B300004498968044A01F4605102EBD1210978E3
:104B4000C84070470010024058700008184810B55F
:104B50008068184C10F00C0005D004281AD00828E2
:104B60001AD00C281AD0FEF77FFAD8B1FEF77CFADB
:104B700050B1FEF769FA09E0FEF766FA02E000BFFD
:104B8000FEF76AFA000A02E0FEF766FA000954F836
:104B9000200010BD084810BD084810BDBDE81040F9
:104BA00000F00EB8FEF760FA0028E9D0E4E7000054
:104BB00000100240287000080024F40000127A005F
:104BC00010B5FEF761FA1D4C012803D002282AD047
:104BD00003282AD0FEF748FA28B1FEF745FA48B371
:104BE000FEF732FA06E0FEF73FFA00B3FEF72CFAC2
:104BF000000A00E0000954F8204000BFFEF73CFA2C
:104C0000012101EB1010B4FBF0F20D48C368C0683D
:104C1000C3F306235A4300F0C06001EB506040002C
:104C2000B2FBF0F010BD074CE8E7074CE6E7FEF7F3
:104C300013FADDE7FEF710FADCE700002870000841
:104C4000001002400024F40000127A00F8B51C4D58
:104C500006460024A86DC00002D5FCF753FD0DE008
:104C6000A86D40F08050A865A86D00F080500090BD
:104C7000FCF748FDA96D21F08051A965B0F5007FD2
:104C800004D0802E07D94FF003040AE0802E08D903
:104C9000A02E01D804E001D1022402E0702E00D140
:104CA00001240848016821F00701214301600068E0
:104CB00000F00700A04201D00120F8BD0020F8BD9F
:104CC000001002400020024001B582B06420009034
:104CD000012301AA02A90348FDF71AFD9DF804006B
:104CE0000EBD0000900100202DE9F8430446406805
:104CF0004FF48276154689464FF400474FF480689A
:104D0000B04209D1A068B84201D0404504D1206822
:104D1000016821F0400101604B46002280212046BD
:104D2000009500F0ACF880B96068B04214D1A0687A
:104D3000B84201D040450FD14B4600224FF4C0612C
:104D40002046009500F04CF830B1206E40F0200075
:104D500020660320BDE8F8830020FBE7F8B5154680
:104D60000E460B460092044600224FF4C05100F05C
:104D700037F888B93346002280212046009500F09C
:104D80007EF848B9334600224FF4C06120460095B2
:104D900000F026F8002804D0206E40F020002066A5
:104DA0000320F8BD2DE9F041984616460D4607460A
:104DB00000240AE007EB0400B8F1000FC0B208D0ED
:104DC000FEF742FF3055641CE4B2AC42F2D3BDE8BA
:104DD000F081FEF739FF291B314401F8010CF2E79D
:104DE0002DE9F8431D4617460E4604464FF4C068A9
:104DF000DDF820903CE0464505D127B9007B8DF8D1
:104E000000009DF80000681C32D02DB1FCF79CFB1F
:104E1000A0EB0900A8422BD32068416821F0E001F3
:104E200041606068B0F5827F0BD1A068B0F5004F9B
:104E300002D0B0F5806F04D12068016821F04001F4
:104E40000160A06AB0F5005F09D12068016821F413
:104E5000005101602068016841F4005101600120A7
:104E600084F85D00002084F85C000320BDE8F8832E
:104E7000206881683140B942BDD10020F6E72DE9B4
:104E8000F0411D4617460E460446DDF8188034E012
:104E9000681C32D02DB1FCF757FBA0EB0800A842EC
:104EA0002BD32068416821F0E00141606068B0F5D3
:104EB000827F0BD1A068B0F5004F02D0B0F5806FB3
:104EC00004D12068016821F040010160A06AB0F5BA
:104ED000005F09D12068016821F400510160206859
:104EE000016841F400510160012084F85D00002058
:104EF00084F85C000320BDE8F0812068806836EA11
:104F0000000004D00020B842C2D10020F3E7012005
:104F1000F9E770472DE9F041534C00202DED0A8B45
:104F2000A61FB6F106054F4B5049514A33F8107091
:104F300024F8107031F8107026F8107032F81070E4
:104F400025F81070401C0328F0DBB4F90400FBF7CF
:104F500017FB9FED488B53EC182BFBF72DFAFBF753
:104F600033FB0BEE100AB4F90200FBF709FB53EC1C
:104F7000182BFBF721FAFBF727FB0AEE900AB4F98E
:104F80000000FBF7FDFA53EC182BFBF715FAFBF7C3
:104F90001BFB0AEE100AB5F90400FBF7F1FA9FEDCE
:104FA000378B53EC182BFBF707FAFBF70DFB0BEED7
:104FB000900AB5F90200FBF7E3FA53EC182BFBF764
:104FC000FBF9FBF701FB09EE900AB5F90000FBF7CE
:104FD000D7FA53EC182BFBF7EFF9FBF7F5FA08EECD
:104FE000100AB6F90400FBF7CBFA9FED26CB53EC81
:104FF0001C2BFBF7E1F9FBF7E7FA09EE100AB6F90B
:105000000200FBF7BDFA53EC1C2BFBF7D5F9FBF7BD
:10501000DBFA08EE900AB6F90000FBF7B1FA53ECA0
:105020001C2BFBF7C9F9FBF7CFFA00EE100AB0EE24
:105030004B4AF0EE6A3AB0EE4A3AF0EE6B2AB0EE26
:10504000692AF0EE481AB0EE491AF0EE680AFFF746
:1050500005F9FFF78FF800F019B80220BDE8F0411C
:10506000FEF788B864000020100000205E000020D9
:1050700058000020000000000000583F0000000021
:105080000000103F218F2F030A74413FBDEC088BB5
:10509000BDEC02CBFFF7E1BF704700002DE9F04304
:1050A000B9B0192022904FF480304FF001092390BD
:1050B0000024CDE9289402250326CDF89C90CDE963
:1050C0002C56B0212A910C274FF00708CDE93085E6
:1050D000CDE92E97329522A8FCF7C4FE00B1FEE779
:1050E0000F20CDE9346433903694022133A83794ED
:1050F000FCF774FD00B1FEE74A480F9400904FF0B2
:1051000080501E900E94109411940011CDE9065019
:10511000C413CDE90485C00003971B902194CDE909
:1051200001696846FCF782FB00B1FEE72046FCF708
:10513000AFFA00B1FEE7FCF70DFE4FF47A71B0FB59
:10514000F1F0FDF70FFC0420FDF700FC0022551ED6
:1051500011462846FCF76AFA3348016821F0070136
:1051600041F002010160006800F00700022800D051
:10517000FEE72E48016821F4C06141F4007101602E
:105180002B4C206840F0010020602068C0F34000F4
:105190000028FAD0206840F008002060206820F045
:1051A000F00040F0B0002060606820F47F40606054
:1051B000A06820F00300A060A06810F00C0FFBD1E5
:1051C000A06820F0F000A060A06820F4E060A0607B
:1051D000A06820F46050A060164E3046FDF774FEC3
:1051E0004FF0E020016941F0040101613046FDF714
:1051F00053FFD4F8880020F03000C4F88800D4F8B9
:10520000880020F0C000C4F88800FFF70DFB0022E2
:105210001146FFF7F0FA01462846FFF70DFB39B0BB
:10522000BDE8F0830F6002000020024000700040E3
:1052300000100240006CDC020D48016841F470016E
:1052400001600C48016841F00101016000218160AA
:105250000268094B1A4002608214C260026822F49C
:105260008022026081610249C00380390860704772
:1052700088ED00E000100240FFFFF6EA10B5C821FB
:105280000348FAF7D8FF03490020086010BD00006A
:1052900034060020700000200948C169C1F3C00134
:1052A00009B108210162C169C1F34011002906D08A
:1052B000808C054A034B11685854491C1160704793
:1052C000004C0040340600207000002090F82410AC
:1052D000C90706D001684A68836A22F400321A437B
:1052E0004A6090F82410890706D501684A68C36AA5
:1052F00022F480321A434A6090F82410490706D5F8
:1053000001684A68036B22F480221A434A6090F8CD
:105310002410090706D501684A68436B22F400424D
:105320001A434A6090F82410C90606D501688A68B5
:10533000836B22F480521A438A6090F82410890605
:1053400006D501688A68C36B22F400521A438A604A
:1053500090F82410490611D501684A68036C22F4BC
:1053600080121A434A60016CB1F5801F06D10168B2
:105370004A68436C22F4C0021A434A6090F8241031
:10538000090606D501684A68806C22F400220243AF
:105390004A607047F8B5002604464667FCF7D4F823
:1053A0000546206800686FF07E47000708D52B4649
:1053B00000224FF400112046009700F069F960B90F
:1053C0002068006840070AD52B4600224FF4800170
:1053D0002046009700F05CF908B10320F8BD2020BA
:1053E00084F8710084F8720084F870600020F8BDC1
:1053F0002DE9F0410446016880682369E669184395
:1054000063691025002733431843954A0B68954E6E
:10541000334003430B6020684168E36821F4405146
:10542000194341602168A069914201D0236A184361
:105430008B6823F4306303438B608B4B21688B486C
:1054400099420DD1D0F8880010F0030006D0012851
:105450005AD0022856D0032859D157E0012556E0EA
:10546000834B99420BD1D0F8880010F00C0047D044
:10547000042849D0082845D00C2848D146E07D4B67
:1054800099420BD1D0F8880010F0300038D01028A5
:105490003AD0202836D0302839D137E0764B99429F
:1054A0000BD1D0F8880010F0C00029D040282BD0B4
:1054B000802827D0C0282AD128E0704B99420ED1ED
:1054C000D0F8880010F440701AD0B0F5807F1BD05F
:1054D000B0F5007F16D0B0F5407F18D116E09142AC
:1054E00015D1D0F8880010F4406009D0B0F5806F75
:1054F0000AD0B0F5006F05D0B0F5406F07D105E0D8
:10550000002504E0022502E0042500E008255C4BAC
:1055100000264FF4004091423DD135B1022D07D015
:10552000042D07D0082D10D107E0FCF719FC03E08B
:10553000184602E0FCF734FCA8B3626802EB4201B3
:10554000814202D8B0EB023F01D9012775E0DFF8B4
:1055500034815DB1022D0CD0042D13D0082DF4D16F
:1055600050082905401846F1000105E0FCF7F8FB5A
:105570000AE050084449F5E70023FAF721FEA0F5B8
:10558000407156E0FCF70CFC6268010E0302500803
:1055900018187141F0E7E1694FF6EF7881422FD199
:1055A000092DD2D200E048E0DFE805F00609200529
:1055B000230505052600C8E7FCF7D2FB01E0FCF750
:1055C000DFFB4100D4F8040001EB5001B1FBF0F027
:1055D00080B2A0F110014145B7D84FF6F0710140FB
:1055E000C0F3420001432068C16026E0274960689B
:1055F000EAE7FCF7D5FBE4E74FF480316068E3E7C6
:10560000092DA2D2DFE805F006091E0522050505D1
:1056100025009AE7FCF7A4FB01E0FCF7B1FB01468B
:10562000606801EB500100BFB1FBF0F080B2A0F167
:105630001001414589D82168C860266638466666EB
:10564000BDE8F081606803EB5001EDE7FCF7A8FBD3
:10565000E5E7616800EB5100B0FBF1F0E6E7000020
:1056600000800040F369FFEF003801400010024065
:105670000044004000480040004C00400050004002
:105680000024F400FFFC0F00000024F40048E801AF
:105690002DE9F041984617460E460446069D1DE04A
:1056A000681C1BD02DB1FBF74FFFA0EB0800A842F0
:1056B00014D92068016821F4D071016020688168E4
:1056C00021F001018160202084F8710084F87200CB
:1056D000002084F870000320BDE8F0812068C069D4
:1056E00036EA000004D00020B842D9D00020F3E709
:1056F0000120F9E70648C169C1F34011002906D02D
:10570000808C054A034B11685854491C116070473E
:10571000004800406C0500206C000020FEE7FEE71A
:105720000FB4054B10B503A9044A029800F0FEFA25
:1057300010BC5DF814FB0000FD6800088800002024
:105740000FB4084B10B504A902AA039800F0EEFAB2
:10575000044602A9002000F083FE204610BC5DF83C
:1057600014FB0000616400084100080218BF042017
:105770000A0E18BF40F001004FF07F4232EA0101EB
:1057800008BF40F00200012808BF05207047000054
:1057900010B54FF00E402DED028BB0EE408A18EEA2
:1057A000104A00EB4400B0F1506F4AD84FF0FC4073
:1057B000B0EB440F22D2B0EEC80AF7EE000A30EE8A
:1057C000C00AF6EE000A60EE208A18EE900A01F098
:1057D000EBFB01EE100A14F0004F1DBFDFED2D0AA8
:1057E0009FED2D0AB1EE411ADFED2C0A08BF9FEDA7
:1057F0002C0AF8EE001A21EE218A05E0DFED290AD5
:1058000068EE088AB0EE600A9FED271ADFED271ACE
:1058100030EE080A48EE811A9FED251A08EEA11A0B
:10582000DFED241A48EE811A9FED231A08EEA11A23
:1058300068EE281ABDEC028B01EE810A30EE200AD8
:1058400010BD4FF0E440B0EB440F0CD918EE100A35
:10585000FFF78AFF042808BF00F084F9B0EE480A79
:10586000BDEC028B10BD4FF07F40B0EB440F07D270
:10587000B0EE480ABDEC028BBDE8104000F063B901
:10588000012000F087F9BDEC028BBDE8104000F06C
:1058900061B900000000C9BF22AAFDB90000C93FDC
:1058A00022AAFD390000000024FE1C3DC78AD83C16
:1058B0001E67383D1B93993DAFAA2A3E10EE100A91
:1058C00010B510EE901A4FF0684202EB40032DED38
:1058D000028BB3F1654F3CBF02EB4102B2F1654F61
:1058E0007CD200BFC0F3C753C1F3C7529A1A1B2A18
:1058F00009DD10F0004F14BF9FED6E0A9FED6E0A98
:10590000BDEC028B10BD12F11A0F1BDA11F0004F23
:1059100009D010F0004F0CBF9FED680A9FED680A98
:10592000BDEC028B10BD80EE208A18EE100AFFF746
:105930001BFF042808BF00F015F9B0EE480ABDECC3
:10594000028B10BD4200B2EB410F37D910F0004F6F
:1059500019BFDFED5C1A9FED5C1ADFED5C1A9FED5D
:105960005C1AB0EE602A0A46F1EE400A80F000416F
:10597000B0EE420A10460A1A5200B2F1807F34D2C9
:10598000484010F0004FDFED532A9FED533A1DBF02
:10599000BEEE002A71EEE21A31EE431AB6EE002A8C
:1059A00004BF71EEA21A31EE031AF0EE402A42EE65
:1059B000602A40EE020A82EEA02A18E011F0004FA1
:1059C00004BF9FED461AF0EE411AD4D010F0004FFC
:1059D0001CBFDFED431A9FED431A00E026E004BF31
:1059E000DFED411A9FED411AC5E780EE202A22EE35
:1059F000020ADFED3F0ADFED3F2ABDEC028B40EEED
:105A0000202ADFED3D0A40EE220ADFED3C2A40EE7F
:105A1000202ADFED3B0A40EE220A22EE000A00EEC9
:105A2000201A31EE020A30EE210A10BD4FF07F42FB
:105A3000B2EB400F28BFB2EB410F05D2BDEC028B99
:105A4000BDE8104000F082B840EA01035B0008BFE7
:105A500041F0FF410BD0B2EB400F08BFB2EB410F5A
:105A600008D120F0804000EE100A21F0804100EEC5
:105A7000901A37E7B2EB400F12BF5FEA410240F0E5
:105A8000FF4001F000413FF42DAF4A0092EA40038D
:105A90003FF528AF002AACBF9FED1A1A9FED1A1AE6
:105AA00020EE010A60EE810A10EE100A10EE901A44
:105AB00018E70000DB0FC9BFDB0FC93FDB0F494010
:105AC000DB0F49C00000C9BF22AAFDB90000C93FD1
:105AD00022AAFD390060ED3EC30ACE370000000067
