:020000040800F2
:10000000F01E00209D0100083F820008BD77000817
:100010003D82000813610008358F000800000000D1
:10002000000000000000000000000000C38800087D
:100030001561000800000000D9820008C58800088A
:10004000B7010008B7010008B7010008B7010008B0
:10005000B7010008B7010008B7010008B7010008A0
:10006000B7010008B7010008B7010008B701000890
:10007000B7010008B7010008B7010008B701000880
:10008000B7010008B7010008B7010008B701000870
:10009000B7010008B7010008B7010008B701000860
:1000A000B7010008B7010008B7010008B701000850
:1000B000B7010008B7010008B7010008B701000840
:1000C000B7010008B7010008B7010008B701000830
:1000D000B7010008B7010008B7010008E58E000865
:1000E000B7010008B7010008B7010008B701000810
:1000F000B7010008B7010008B7010008B701000800
:10010000B7010008B7010008B7010008B7010008EF
:10011000898A0008B7010008B7010008B701000884
:10012000B7010008B7010008B7010008B7010008CF
:10013000B7010008B7010008B7010008B7010008BF
:10014000B7010008B7010008B7010008B7010008AF
:10015000B7010008B7010008B7010008B70100089F
:10016000B7010008B7010008B7010008B70100088F
:10017000B7010008B7010008B7010008000000003F
:10018000B7010008B7010008DFF80CD005F0A2FFA6
:1001900000480047A1E10008F01E00200648804703
:1001A00006480047FEE7FEE7FEE7FEE7FEE7FEE75C
:1001B000FEE7FEE7FEE7FEE7458A00088901000842
:1001C000FE4880ED3A0A70472DE9F047DFF8EC93DE
:1001D00000262DED0A8B0446B0EE408AF0EE608AD0
:1001E000884635463746D9F8AC0005F09FFD53ECFC
:1001F000182B05F0FFFD6FD3D9F8B00005F096FD80
:1002000053EC182B05F00EFEF5D3B4F90000B4F949
:100210000610401A05F08AFD53EC182B05F0EAFD94
:1002200000D20126B4F90E00B4F91410401A05F0FA
:100230007DFD53EC182B05F0DDFD00D2761CB4F9E2
:100240001C00B4F92210401A05F070FD53EC182B75
:1002500005F0D0FD00D2761C9FEDD90B012E3BDCC2
:1002600053EC102B51EC180B05F066FC8946064642
:1002700049EC180BB4F90000B4F90610401A05F067
:1002800055FD53EC182B05F0CDFD00D20125B4F936
:100290000E00B4F9141049EC186B401A05F046FD35
:1002A00053EC182B05F0BEFD00D26D1CB4F91C00F8
:1002B000B4F9221049EC186B401A05F037FD53ECE5
:1002C000182B05F0AFFD00D26D1C002D05DD0220BE
:1002D00002F0EEB9BDE8F08765E000269FEDBACBED
:1002E00006EB460904EB8905B5F90A0005F01EFD89
:1002F00098ED048B53EC182B05F010FC41EC190B16
:10030000B5F9040005F012FD53EC182B05F006FCBE
:1003100053EC192B05F010FC41EC190BB5F9080052
:1003200005F004FD98ED028B53EC182B05F0F6FB5D
:1003300041EC1A0BB5F9020005F0F8FC53EC182B50
:1003400005F0ECFB53EC1A2B05F0F6FB41EC1A0B15
:10035000B5F9060005F0EAFC98ED008B53EC182B7C
:1003600005F0DCFB41EC1B0B34F9290005F0DEFC49
:1003700053EC182B05F0D2FB53EC1B2B05F0DCFBE8
:1003800053EC1A2B05F029FB53EC192B05F025FB38
:1003900053EC1C2B05F02EFD00D27F1C761C032E87
:1003A0009EDB022F01DA012092E7002090E78849C6
:1003B0000A684B68D00180EAD20080EA03104860E6
:1003C0008B68520380EAC30382EA5312520282EA24
:1003D000D0208B600860704710B52DED048BF0EED7
:1003E000408AFFF7E4FF00EE100AB8EE400ADFEDA6
:1003F000790A20EE200A9FED789A20EE090A09F08A
:100400008BFCB0EE408AFFF7D2FF00EE100AB8EE88
:10041000400A20EE090AB5EEC00AF1EE10FA01D149
:10042000B7EE000A10EE100A05F0D1FC41EC100BFB
:1004300009F026FD9FED691B51EC100B53EC112BBD
:1004400005F07AFB05F006FD00EE100A0AF011F83F
:1004500020EE280A20EE080ABDEC048B10BD2DE921
:10046000F04105462DED048BB0EE608AF0EE408A37
:100470000F4618EE100A05F0AAFC97ED301B53EC5E
:10048000112B05F059FB41EC190B18EE900A05F001
:100490009EFC95ED301B53EC112B05F04DFB53ECFE
:1004A000192B05F09AFA0024C5E9300118EE100A5C
:1004B00005F08DFC07EBC40898ED001B53EC112BE5
:1004C00005F03AFB41EC190B18EE900A05F07FFCA1
:1004D00005EBC40696ED001B53EC112B05F02CFB2D
:1004E00053EC192B05F079FAC6E9000118EE100A51
:1004F00005F06DFC98ED241B53EC112B05F01CFB53
:1005000041EC190B18EE900A05F061FC96ED241BE6
:1005100053EC112B05F010FB53EC192B05F05DFA91
:10052000641CC6E92401062CC0DB002418EE100A66
:1005300005F04DFC41EC100B07EBC40090ED121BD5
:1005400051EC100B53EC112B05F0F6FA41EC190BA2
:1005500018EE900A05F03BFC05EBC40696ED121B65
:1005600053EC112B05F0E8FA53EC192B05F035FA92
:10057000641CC6E91201092CD8DB002418EE100A0D
:1005800005F025FC41EC100B07EBC40090ED0C1BB3
:1005900051EC100B53EC112B05F0CEFA41EC190B7A
:1005A00018EE900A05F013FC05EBC40696ED0C1B43
:1005B00053EC112B05F0C0FA14E00000D00D002020
:1005C00000000000000004400000000000000000E7
:1005D0007C000020DB0FC9400000802F00000000DD
:1005E000000000C053EC192B05F0F7F9641CC6E9B4
:1005F0000C01032CC2DBBDEC048BBDE8F0812DE9BE
:10060000F04F04462DED068B83B00D46086805F0CB
:100610008DFB41EC1A0B686805F088FB41EC190B67
:10062000A86805F083FB41EC180B94ED300B9FEDAF
:10063000FE1B51EC100B53EC112B05F0CEF9C4E965
:10064000300194ED0C0B53EC1A2B51EC100B05F010
:10065000C4F9C4E90C0194ED0E0B53EC192B51ECC9
:10066000100B05F0BAF9C4E90E0194ED100B53EC30
:10067000182B51EC100B05F0B0F9C4E9100153EC44
:100680001A2B51EC1A0B05F057FA029194ED001B4E
:10069000064653EC112B05F0A0F9C4E9000153EC18
:1006A000192B51EC1A0B05F047FA894649EC100B4F
:1006B00094ED021B054653EC112B51EC100B05F089
:1006C0008CF9C4E9020153EC182B51EC1A0B05F01C
:1006D00033FA8B464BEC100B94ED041B804653EC25
:1006E000112B51EC100B05F078F9C4E9040153EC1F
:1006F000192B51EC190B05F01FFA019194ED061B13
:10070000074653EC112B05F068F9C4E9060153ECD8
:10071000182B51EC190B05F00FFA009194ED081B02
:10072000824653EC112B05F058F9C4E9080153EC4B
:10073000182B51EC180B05F0FFF994ED0A1B53EC44
:10074000112B05F04AF9C4E90A01029953EC1A2B5E
:1007500041EC106B51EC100B05F0EEF994ED121B0F
:1007600053EC112B05F039F949EC105BC4E9120187
:1007700053EC192B51EC100B05F0DEF994ED141B22
:1007800053EC112B05F029F94BEC108BC4E9140143
:1007900053EC182B51EC100B05F0CEF994ED161B11
:1007A00053EC112B05F019F949EC105BC4E9160163
:1007B00053EC1A2B51EC100B05F0BEF994ED181BFD
:1007C00053EC112B05F009F9C4E91801019953EC18
:1007D000192B41EC107B51EC100B05F0ADF994EDA9
:1007E0001A1B53EC112B05F0F8F8C4E91A01009913
:1007F000554641EC10AB0E4653EC182B51EC100B48
:1008000005F09AF994ED1C1B53EC112B05F0E5F85B
:10081000C4E91C0153EC1A2B51EC180B05F08CF9B0
:1008200053EC1A2B05F088F994ED1E1B53EC112B99
:1008300005F0D3F846EC105BC4E91E0153EC192B0C
:1008400051EC100B05F078F994ED201B53EC112BB3
:1008500005F0C3F8C4E9200153EC182B51EC180B38
:1008600005F06AF9894649EC100B074653EC182B42
:1008700051EC100B05F060F994ED221B53EC112B99
:1008800005F0ABF8C4E9220153EC1A2B51EC1A0B1A
:1008900005F052F9884648EC100B054653EC1A2B2C
:1008A00051EC100B05F048F953EC1A2B05F044F904
:1008B00094ED241B53EC112B05F08FF8C4E92401AF
:1008C00053EC192B51EC190B05F036F98A464AEC1A
:1008D000100B064653EC192B51EC100B05F02CF9BC
:1008E00053EC192B05F028F994ED261B53EC112B32
:1008F00005F073F849EC107BC4E9260153EC182B82
:1009000051EC100B05F018F953EC182B05F014F905
:1009100094ED281B53EC112B05F05FF848EC105BAD
:10092000C4E9280153EC192B51EC100B05F004F924
:1009300053EC192B05F000F994ED2A1B53EC112B05
:1009400005F04BF848EC105BC4E92A0153EC182B76
:1009500051EC100B05F0F0F853EC182B05F0ECF807
:1009600094ED2C1B53EC112B05F037F84AEC106B6F
:10097000C4E92C0153EC182B51EC100B05F0DCF8FA
:1009800053EC182B05F0D8F894ED2E1B53EC112BDB
:1009900005F023F8C4E92E0103B0BDEC068B01F08D
:1009A0008DBE2DE9F04F93462DED108B0D4604467C
:1009B00093B090ED0CEB53EC1E2B51EC1E0B05F09D
:1009C000BBF894ED000B41EC190B8DED080B94ED89
:1009D000308B53EC102B51EC180B05F0ADF853ECA9
:1009E000192B05F09BF894ED0EDB41EC1F0B53EC3B
:1009F0001D2B51EC1D0B05F09FF894ED060B41ECFF
:100A0000190B8DED060B53EC102B51EC180B05F068
:100A100093F853EC192B05F081F841EC100B8DED98
:100A2000040B94ED10CB03E0000000000000F03F49
:100A300053EC1C2B51EC1C0B05F07EF894ED0A0BCB
:100A400041EC190B8DED020B53EC102B51EC180BF4
:100A500005F072F853EC192B05F060F841EC110B1E
:100A600053EC1D2B8DED001B51EC1E0B05F064F8B3
:100A700094ED020B41EC190B53EC102B51EC180BBD
:100A800005F05AF853EC192B05F048F841EC1B0B14
:100A900053EC1C2B51EC1E0B05F04EF894ED040B9F
:100AA00041EC190B53EC102B51EC180B05F044F8EA
:100AB00053EC192B05F032F841EC1A0B53EC1C2BBC
:100AC00051EC1D0B05F038F894ED080B41EC190BB7
:100AD00053EC102B51EC180B05F02EF853EC192B9E
:100AE00005F01CF89DED020B41EC190B53EC102B9B
:100AF00051EC1E0B05F020F841EC110B51EC180BDA
:100B00008DED101B94ED160B53EC102B05F014F823
:100B100041EC110B51EC1E0B8DED0E1B9DED060BE8
:100B200053EC102B05F008F841EC110B51EC180BAD
:100B30008DED0C1B94ED140B53EC102B04F0FCFF0B
:100B400041EC110B51EC1E0B8DED0A1B9DED080BBA
:100B500053EC102B04F0F0FF94ED120B41EC1E0B44
:100B600053EC102B51EC180B04F0E6FF53EC1E2B4A
:100B700004F0D4FF9DED0A1B53EC112B04F02DFF64
:100B80009DED0C1B53EC112B04F0C8FF9DED0E1BCB
:100B900053EC112B04F021FF9DED101B53EC112B96
:100BA00004F0BCFF9FEDFE1B53EC112B04F0C4FFBF
:100BB0009DED020B41EC1E0B53EC102B51EC1D0B69
:100BC00004F0BAFF41EC110B51EC180B8DED101B2A
:100BD00094ED1C0B53EC102B04F0AEFF41EC110B09
:100BE00051EC1D0B8DED0E1B9DED060B53EC102BE8
:100BF00004F0A2FF41EC110B51EC180B8DED0C1B16
:100C000094ED1A0B53EC102B04F096FF41EC110BF2
:100C100051EC1D0B8DED0A1B9DED080B53EC102BB9
:100C200004F08AFF94ED180B41EC1D0B53EC102BD4
:100C300051EC180B04F080FF53EC1D2B04F06EFFF9
:100C40009DED0A1B53EC112B04F0C7FE9DED0C1B10
:100C500053EC112B04F062FF9DED0E1B53EC112B96
:100C600004F0BBFE9DED101B53EC112B04F056FF5E
:100C70009FEDCB1B53EC112B04F05EFF9DED020B9F
:100C800041EC1D0B53EC102B51EC1C0B04F054FFEA
:100C900041EC110B51EC180B8DED021B94ED220B66
:100CA00053EC102B04F048FF41EC110B51EC1C0BE2
:100CB0008DED0A1B9DED060B53EC102B04F03CFF51
:100CC00041EC110B51EC180B8DED0C1B94ED200B2E
:100CD00053EC102B04F030FF41EC110B51EC1C0BCA
:100CE0008DED061B9DED080B53EC102B04F024FF3B
:100CF00094ED1E0B41EC1C0B53EC102B51EC180B1C
:100D000004F01AFF53EC1C2B04F008FF9DED061BAA
:100D100053EC112B04F061FE9DED0C1B53EC112BD9
:100D200004F0FCFE9DED0A1B53EC112B04F055FE64
:100D30009DED021B53EC112B04F0F0FE9FED981B70
:100D400053EC112B04F0F8FE9DED040B41EC180B55
:100D500053EC102B51EC1F0B04F0EEFE10919DEDA7
:100D6000001B824653EC112B04F0E6FE41EC110B04
:100D700053EC192B8DED0A1B51EC1F0B04F0DCFE1C
:100D800053EC192B04F0D8FE41EC110B53EC1A2B49
:100D90008DED081B9DED040B51EC100B04F0CCFE07
:100DA000814653EC1A2B119104F0C6FE41EC110B55
:100DB0008DED061B9FED7C0B51EC1B0B53EC102BA8
:100DC00004F0BAFE53EC1A2B04F0B6FE53EC192BC8
:100DD00004F0B2FE9DED001B41EC1C0B53EC1B2BF1
:100DE00051EC110B04F0A8FE074653EC1B2B0291AB
:100DF00004F0A2FE53EC1C2B04F090FE9DED061BAC
:100E000053EC112B04F0E9FD9DED081B53EC112B65
:100E100004F0E3FD9DED0A1B53EC112B04F07EFE64
:100E200041EC1C0B9FED620B53EC102B04F0E2FF26
:100E30007DD053EC192B51EC1B0B04F07DFE53ECD1
:100E4000182B04F079FE41EC110B53EC1D2B8DEDAA
:100E50000E1B029941EC107B51EC100B04F06CFE60
:100E600041EC110B8DED0C1B9DED000B53EC102B89
:100E70009DED040B51EC100B04F05EFE53EC1E2BA9
:100E800004F05AFE41EC110B53EC192B8DED081BAD
:100E900051EC190B04F050FE53EC1E2B04F04CFEE9
:100EA00041EC110B53EC1D2B8DED0A1B51EC190B72
:100EB00004F042FE41EC110B53EC182B8DED061B98
:100EC0009DED040B51EC100B04F036FE9DED061B5E
:100ED00053EC112B04F022FE53EC1A2B04F02CFEE1
:100EE0009DED0A1B53EC112B04F077FD9DED081BC3
:100EF00053EC112B04F012FE9DED0C1B53EC112B47
:100F000004F06BFD9DED0E1B53EC112B04F006FE5F
:100F100041EC100B53EC1A2B8DED060B51EC1B0B17
:100F200004F00AFE8846064648EC100B00E065E136
:100F300053EC182B51EC100B04F0FEFD41EC110B9F
:100F400053EC1E2B8DED041B029941EC107B51ECF0
:100F5000100B04F0F1FD41EC110B51EC1F0B8DED6A
:100F6000021B9DED000B53EC102B04F0E5FD53EC40
:100F70001D2B04F0E1FD41EC110B53EC1A2B8DED10
:100F8000081B51EC1A0B04F0D7FD53EC1D2B04F099
:100F9000D3FD41EC110B53EC1E2B8DED001B0BE030
:100FA000000000000000E03F0000000000000040E2
:100FB000000000000000000051EC1A0B04F0BCFD22
:100FC00041EC1A0B53EC182B51EC1F0B04F0B4FD41
:100FD00053EC1A2B04F0A2FD53EC192B04F0ACFDDA
:100FE0009DED001B53EC112B04F0F7FC9DED081B4D
:100FF00053EC112B04F092FD9DED021B53EC112BD1
:1010000004F0EBFC9DED041B53EC112B04F086FD6A
:1010100041EC100B53EC1D2B8DED040B48EC106BC9
:1010200051EC100B04F088FD41EC110B53EC1E2B1E
:101030008DED001B119941EC109B51EC100B04F04D
:101040007BFD41EC110B53EC182B8DED021B10991D
:1010500041EC10AB51EC100B04F06EFD41EC1A0B9F
:1010600053EC1B2B51EC1B0B04F066FD53EC182BBF
:1010700004F062FD41EC180B53EC1E2B51EC1B0BE2
:1010800004F05AFD41EC1B0B53EC1D2B51EC1F0BD4
:1010900004F052FD53EC1B2B04F040FD53EC192BD4
:1010A00004F04AFD53EC182B04F097FC53EC1A2B78
:1010B00004F034FD9DED021B53EC112B04F08DFC6C
:1010C0009DED001B53EC112B04F028FD9DED060B4C
:1010D00041EC190B53EC1C2B51EC100B04F0A1FD4F
:1010E00041EC180B53EC1C2B85ED008B9DED040B94
:1010F00051EC100B04F095FD41EC1A0B53EC1C2B3A
:1011000085ED02AB51EC190B04F08BFD41EC190B92
:1011100085ED049B94ED100B53EC102B04F00CFDAB
:1011200094ED0E0B41EC1B0B53EC102B51EC1A0BF6
:1011300004F002FD94ED0C0B41EC1C0B53EC102B56
:1011400051EC180B04F0F8FC53EC1C2B04F045FC9C
:1011500053EC1B2B04F041FC1FED6D1B53EC112BCA
:1011600004F0EAFC94ED061B94ED000B41EC1B0B24
:1011700053EC112B51EC100B04F02FFC94ED0A1BD7
:1011800053EC112B04F029FC53EC1B2B04F0C6FC90
:1011900094ED301B53EC112B04F043FD41EC1B0B81
:1011A00053EC192B51EC190B04F0C6FC41EC190B54
:1011B00053EC1A2B51EC1A0B04F0BEFC41EC1A0B49
:1011C00053EC182B51EC180B04F0B6FC53EC1A2B13
:1011D00004F003FC53EC192B04F0FFFB53EC1B2B26
:1011E00004F0FBFB41EC100B09F006F98BED000B52
:1011F000012013B001F065BA01F060BA0020F8E7F1
:101200002DE9F04F0D462DED108B04468BB091ED7E
:1012100000AB53EC1A2B51EC1A0B04F08DFC94ED3F
:101220000CCB53EC1C2B04F087FC53EC1C2B04F070
:1012300083FC94ED30FB41EC180B53EC1A2B51EC72
:101240001F0B04F079FC8B464BEC100B074653EC5C
:101250001A2B51EC100B04F06FFC94ED00EB53ECE7
:101260001E2B04F069FC53EC182B04F057FC41ECE6
:10127000190B53EC1E2B51EC1A0B04F05DFC53ECD4
:101280001C2B04F059FC4BEC107B94ED121B41EC31
:10129000180B53EC112B51EC100B04F04DFC53ECDC
:1012A000192B04F03EFC53EC182B04F096FB41EC98
:1012B0001B0B1FEDC30B51EC1A0B53EC102B04F05E
:1012C0003BFC894649EC100B95ED029B064653EC1E
:1012D000192B51EC100B04F02FFC53EC1C2B04F0D9
:1012E0002BFC94ED0EDB53EC1D2B04F025FC41ECA4
:1012F000180B1FEDD30B51EC1F0B53EC102B04F00C
:101300001BFC824653EC1A2B069104F015FC53EC9F
:10131000192B04F011FC94ED021B53EC112B04F07B
:101320000BFC53EC1B2B04F058FB53EC182B04F074
:10133000F5FB41EC180B53EC1C2B51EC1A0B04F091
:10134000FBFB049194ED06BB804653EC1B2B04F091
:10135000F3FB41EC110B4BEC107B8DED001B94ED7E
:10136000141B51EC100B53EC112B04F0E5FB53EC68
:10137000182B04F0D6FB9DED001B53EC112B04F051
:101380002CFB41EC110B49EC106B8DED001B95ED26
:10139000048B51EC100B53EC182B04F0CDFB53ECE9
:1013A0001C2B04F0C9FB94ED10CB53EC1C2B04F068
:1013B000C3FB41EC110B53EC1A2B8DED021B06996C
:1013C00041EC10AB51EC100B04F0B6FB53EC182BB6
:1013D00004F0B2FB94ED041B53EC112B04F0ACFBB6
:1013E0009DED001B53EC112B04F0F7FA9DED021B51
:1013F00053EC112B04F092FB41EC100B8DED000B24
:10140000049994ED0AAB41EC108B53EC1A2B51EC80
:10141000100B04F091FB41EC110B4BEC107B8DEDAC
:10142000021B94ED161B51EC100B53EC112B04F026
:1014300083FB9DED001B53EC112B04F072FB9DED23
:10144000021B53EC112B04F0C8FA41EC110B8DED8B
:10145000001B9FEDFE0B51EC1E0B53EC102B04F008
:101460006BFB53EC1E2B04F067FB41EC110B8DED75
:10147000021B9FEDF60B51EC1F0B53EC102B04F0ED
:101480005BFB059194ED241B814653EC112B04F07A
:1014900053FB9DED001B53EC112B04F09EFA9DEDC8
:1014A000021B53EC112B04F039FB41EC110B53ECF4
:1014B0001E2B8DED001B51EC190B04F03DFB53EC82
:1014C0001D2B04F039FB41EC110B53EC192B8DED66
:1014D000081B51EC1F0B04F02FFB039194ED181B1C
:1014E000064653EC112B04F027FB9DED001B53EC3B
:1014F000112B04F016FB9DED081B53EC112B04F08F
:101500006CFA41EC110B8DED001B9FEDD20B51ECF1
:101510001E0B53EC102B04F00FFB8B464BEC100B07
:10152000054653EC1B2B51EC100B04F005FB41EC72
:10153000110B8DED081B9FEDC70B51EC1F0B53ECEE
:10154000102B04F0F9FA049194ED2A1B804653EC19
:10155000112B04F0F1FA9DED001B53EC112B04F05C
:101560003CFA9DED081B53EC112B04F0D7FA41EC2B
:10157000110B53EC1E2B8DED001B51EC180B04F0DE
:10158000DBFA53EC1C2B04F0D7FA41EC1E0B53ECA6
:10159000182B51EC1F0B04F0CFFA029194ED1E1B97
:1015A000074653EC112B04F0C7FA9DED001B53ECDA
:1015B000112B04F0B6FA53EC1E2B04F00EFA4BEC90
:1015C000105B41EC1F0B53EC1A2B51EC100B04F089
:1015D000B3FA41EC1E0B049994ED2C1B41EC108BDB
:1015E00053EC112B51EC100B04F0A6FA53EC1F2B0B
:1015F00004F0F3F953EC1E2B04F090FA41EC1F0BAE
:1016000053EC192B51EC190B04F096FA53EC1D2BEB
:1016100004F092FA53EC1D2B04F08EFA41EC1E0BF1
:10162000039953EC192B41EC106B51EC100B04F0A7
:1016300083FA53EC1B2B04F07FFA53EC1F2B04F0BE
:10164000CCF953EC1E2B04F069FA41EC1F0B53EC60
:101650001B2B51EC190B04F06FFA53EC1D2B04F00B
:101660006BFA41EC1E0B039994ED1A1B41EC106BC5
:1016700053EC112B51EC100B04F05EFA53EC1F2BC2
:1016800004F04FFA53EC1E2B04F0A7F941EC1F0BAA
:101690009FED720B51EC190B53EC102B04F04CFA2C
:1016A00053EC182B04F048FA53EC1D2B04F044FAC9
:1016B00053EC1C2B04F040FA41EC1E0B069953EC42
:1016C000192B41EC10AB51EC100B04F035FA53EC34
:1016D000182B04F031FA94ED081B53EC112B04F095
:1016E0002BFA53EC1F2B04F078F953EC1E2B04F06B
:1016F00015FA41EC1E0B53EC1D2B51EC190B04F0A9
:101700001BFA53EC1A2B04F017FA41EC190B03994E
:1017100094ED1C1B41EC106B53EC112B51EC100B96
:1017200004F00AFA53EC1E2B04F0FBF953EC192BCE
:1017300004F053F941EC1D0B9FED44EB51EC1B0BF6
:1017400053EC1E2B04F0F8F953EC1B2B04F0F4F9C6
:1017500041EC190B059994ED261B41EC109B53ECC1
:10176000112B51EC100B04F0E7F953EC1D2B04F096
:1017700034F953EC192B04F0D1F941EC1D0B53EC67
:101780001B2B51EC180B04F0D7F953EC1C2B04F075
:10179000D3F941EC190B029994ED201B41EC107B1D
:1017A00053EC112B51EC100B04F0C6F953EC1D2B2C
:1017B00004F0B7F953EC192B04F00FF99FED250B4A
:1017C00041EC190B53EC102B51EC1B0B04F0B4F94A
:1017D00053EC1A2B04F0B0F941EC1B0B049994ED77
:1017E0002E1B41EC108B53EC112B51EC100B04F021
:1017F000A3F953EC192B04F0F0F853EC1B2B04F075
:101800008DF941EC1B0B53EC182B51EC180B04F029
:1018100093F953EC1C2B04F08FF953EC1C2B04F0C0
:101820008BF941EC190B029953EC182B41EC107B0E
:1018300051EC100B04F080F953EC1A2B04F07CF9F6
:1018400053EC1B2B04F0C9F80CE000000000000072
:101850000000D03F000000000000E03F000000005A
:101860000000004053EC192B04F058F941EC190B1F
:1018700053EC1A2B51EC180B04F05EF953EC1C2BB3
:1018800004F05AF941EC180B029994ED221B41EC3B
:10189000107B53EC112B51EC100B04F04DF953EC71
:1018A000192B04F03EF953EC182B04F096F841EC98
:1018B000180B53EC1E2B51EC1A0B04F03DF953ECB2
:1018C0001A2B04F039F941EC190B059994ED281BFA
:1018D00041EC109B53EC112B51EC100B04F02CF944
:1018E00053EC182B04F079F853EC192B04F016F98B
:1018F00041EC100B0BB07DE430B50446B0F88C0021
:1019000089B000040690B4F88E000D4600040790DC
:10191000B4F8900088340004089002A80BF01AFD77
:10192000029906982B46401A06900399079806AA32
:10193000401A079004990898401A08902088616A14
:1019400080B20BF0EDFB09B030BDF0B50D462DEDCA
:10195000048B87B06946FFF7CFFF9FEDFE8B002415
:101960006F469FEDFE9A03AE57F8240000EE100A72
:1019700006EB8400B8EEC00A20EE090A80ED000AEA
:1019800020EE000A10EE100A04F021FA53EC182B96
:1019900004F023F841EC180B641C032CE4DBB0EEDC
:1019A000480AF0EE680A08F027FDB0EE408AF0EE33
:1019B000608A002456F8240004F009FA53EC182B2E
:1019C00004F02FF904F046FA00EE100A05EB84004B
:1019D000641CD0ED000A032C30EE200A80ED000AD2
:1019E000E8DB686D401C68650BF048FEE86707B0EF
:1019F000BDEC048BF0BD2DE9F04104460BF03CFD3D
:101A000040BB0BF0C7FC042824D0D54920460E4625
:101A1000FFF79BFFD34DD5E95C01814205DB3046E2
:101A200003F019FC0020C5F87401208E4FF0040665
:101A3000C00515D504F118000BF010FD8009B0F5B4
:101A4000C87F0AD2D5F8B800002850DD401EC5F87E
:101A5000B8004AE00120BDE8F081C5F8B86044E074
:101A6000D4F8A010D5F81401081A01D4034600E0F8
:101A70004342BB4A4FF4A02C583A634505DDD4E9F4
:101A800029035365C2E913102FE00312D4F8A470A0
:101A9000D5F818015B43381A01D4864601E0C0F13D
:101AA000000EE64505DDD4F8A800D164C2E9147043
:101AB0001BE0001200FB0033D4F8A800D5F81C117D
:101AC000401A01D4014600E0414261450DDC00129C
:101AD00000FB0030B0F5403FB4DBA034C5F8B8607F
:101AE00094E80B004C3282E80B000020B3E70220A0
:101AF000B1E72DE9F04F9B4C2DED028B93B0D4F85C
:101B0000A81090ED000B04EBC10181ED000BD4F89F
:101B1000A810491CC4F8A81090ED020B04EBC101F9
:101B200081ED000BD4F8A810491CC4F8A81090ED62
:101B3000040B04EBC10080ED000BD4F8A800401C9E
:101B4000C4F8A800152802DB0020C4F8A800182259
:101B500084490CA803F0FBFE1822824904A803F074
:101B6000F6FE01260DF1300A0DF1100BA1460024FE
:101B700006EB460808EB040109EBC1050AEBC407B4
:101B800095ED001B97ED000B53EC112B51EC100B56
:101B900004F048F903D295ED000B87ED000B0BEB39
:101BA000C40795ED001B97ED000B53EC112B51EC86
:101BB000100B04F01FF903D295ED000B87ED000B1D
:101BC000641C032CD6DB761C072ED0DB9DED0C1B92
:101BD0009DED040B53EC112B51EC100B03F09EFF09
:101BE0009DED0E1B9DED060B41EC180B53EC112BDC
:101BF00051EC100B03F092FF53EC182B04F0FAF8A1
:101C00000BD39DED0E1B9DED060B53EC112B51ECF0
:101C1000100B03F083FF41EC180B9DED101B9DEDA5
:101C2000080B53EC112B51EC100B03F077FF53EC26
:101C3000182B04F0DFF80BD39DED101B9DED080B66
:101C400053EC112B51EC100B03F068FF41EC180B17
:101C500013B0B0EE480AF0EE680ABDEC028B00F05B
:101C60002DBD10B504462DED068B9CB000215520EE
:101C70000E91CDE90F1011909FED3B8B0AA80BF050
:101C800035FB12A90AA80BF0D9FD16AA0EA912A8B5
:101C90000BF0F7FD6A460AA916A80BF0F2FD0198B1
:101CA000B2EE059A00F5967001900298B0EE490ADE
:101CB00000F596700290039800F596700390FEF779
:101CC0008BFBBDEEC00A019910EE100AB0EE490A76
:101CD00008440190FEF780FBBDEEC00A029810EEAA
:101CE000101AB0EE490A08440290FEF775FBBDEEEB
:101CF000C00A039910EE100A08440390204601A977
:101D0000FEF77DFC94ED300B9FED191B51EC100B91
:101D100053EC112B04F086F85DD21AAA04A92046D0
:101D2000FEF73FFE60B39DED080B9FED138B51EC6A
:101D3000100B53EC182B03F0F1FE41EC100B53EC9D
:101D4000102B03F0F9FE41EC190B9DED060B53EC43
:101D5000182B16E000000000000000000000803793
:101D6000F00E0020D00D00200000000000408F4049
:101D700000000000000034400000000000C072407D
:101D800029E051EC100B03F0C9FE41EC100B53ECB1
:101D9000102B03F0D1FE9DED040B41EC1A0B53EC1C
:101DA000182B51EC100B03F0B9FE41EC100B53EC67
:101DB000102B03F0C1FE53EC1A2B03F00EFE53EC74
:101DC000192B03F00AFE41EC100B08F015FBB0EEE6
:101DD000408AF0EE608A9FEDFD0B51EC180B53EC3E
:101DE000102B03F01EFF1CB041EC100BBDEC068B5A
:101DF00010BD10B5E821F74803F0D0FDF648F749CB
:101E000020F8BC1F4A0CC280C18182828183428437
:101E1000F048E821E83003F0C1FDEF490020C1F8A7
:101E2000B40010BD2DE9F043EB4D04462DED108BB1
:101E3000C3B0006BC5F8A0012046FFF7DCFD002809
:101E40007ED1D5F8941105F1BC08012911D1B4F95E
:101E50008C003D90B4F98E003E90B4F990003F9014
:101E60003DA9DC48FEF7CBFB04F18C01404600F0B5
:101E7000A4FB1FED48DB9FEDDABB9FEDDBCB9FEDB5
:101E8000DCAB9FEDDDEBD34ED5F80801E83E002832
:101E900002DD401EC5F8080196ED300B53EC1D2BFA
:101EA00051EC100B03F0BEFF7DD2CA49E822E8399D
:101EB000684603F04CFDC7483DA9E838FEF79FFB94
:101EC000C44940AA20390F46A1F1C800FEF769FDB8
:101ED00000287BD0BF483946E838FFF791F9B0EECB
:101EE000408AF0EE608A95ED400B51EC180B53ECF4
:101EF000102B03F013FE96ED300B41EC190B53EC55
:101F00001B2B51EC100B03F009FE41EC100B51ECB4
:101F1000190B53EC102B03F084FE41EC100B08F06E
:101F20006BFA96ED30FBB0EE409AF0EE609A53EC0F
:101F30001B2B51EC1F0B03F0F1FD53EC1F2B00E0AA
:101F4000E9E003F0F9FD41EC1F0B53EC1C2B51ECC5
:101F5000180B03F0F1FD53EC1F2B03F062FE41EC74
:101F6000100B08F049FAD5F8E80003F030FF95EDC2
:101F7000381B53EC112B03F0DFFD53EC192B03F04E
:101F800039FF03D3D5F80801002826DD9148E8225F
:101F90006946E83803F0DBFCD5F8E80003F017FFEA
:101FA00095ED381B01E010E010E053EC112B03F02D
:101FB000C3FD53EC192B03F01DFF5CD24FF4FA70F4
:101FC00001F070FE0A20C5F8080154E08148E822BB
:101FD0006946E83803F0BBFC4DE0D5F898010128CC
:101FE00049D1D5F8B400401CC5F8B40000200BF06E
:101FF000D7FF96ED320B53EC1A2B51EC100B03F07C
:102000009BFD03F0C5FE3A9096ED340B53EC1A2B72
:1020100051EC100B03F090FD03F0BAFE3B9096EDEF
:10202000360B53EC1A2B51EC100B03F085FD03F02B
:10203000AFFE3C9003213AA80BF04AFF96ED300B1F
:1020400053EC1E2B51EC100B03F0ECFE11D29FED64
:102050006C0A6049E839F0EE400A0846FEF7FFF9DD
:102060005C483946E838FFF7CBF8B0EE408AF0EE2E
:10207000608A85ED408B208E564FC0050CD5B4F894
:102080007400C00508D507F1E800FFF7EAFDB0EEDF
:10209000408AF0EE608A01E09FED4C8B97ED300BAB
:1020A0001FEDCD1B51EC100B53EC112B03F0A2FED6
:1020B00031D3484940AAC83189464648FEF771FCE9
:1020C00000287CD0D4F8AC0003F030FE41EC100BBB
:1020D00053EC102B9FED4B0B51EC100B03F0A1FDBB
:1020E00041EC1F0B4846FFF704FDB0EE409AF0EEBE
:1020F000609A53EC1F2B51EC190B03F093FE0BD29B
:102100009FED420B51EC180B53EC102B03F072FEB9
:1021100002D2FFF76EFEDBE153EC1F2B51EC190BE3
:1021200003F068FE51D251EC180B9FED3A9B53EC33
:10213000192B03F05FFEF5D297ED300B9FED371BA7
:1021400051EC100B53EC112B03F06CFEEAD296ED20
:10215000300B53EC1D2B51EC100B03F04BFE7CD1DC
:1021600049461C48FFF74CF8B0EE408AF0EE608A12
:1021700085ED408B97ED309B53EC1B2B51EC190BED
:1021800003F0CCFC53EC192B03F0D6FC41EC190BFB
:1021900053EC1C2B51EC180B03F0CEFC53EC192B19
:1021A00003F03FFD41EC100B08F026F9B0EE408A39
:1021B000F0EE608AD5F8E80003F009FE00E088E15F
:1021C00095ED381B53EC112B2CE078E1000000005A
:1021D00000000840000C0020D00D00200080FFFF10
:1021E000000000000000F03F000000000000004080
:1021F000000000000000F0400000000000409F4090
:102200006666E63E9A9999999999A941000000005D
:102210000000F83F00000000000010400000000037
:1022200000003E4003F088FC53EC182B03F0E2FD65
:10223000FFF46FAF9DED400B49464046FDF7C4FFEC
:1022400002283FF466AF00287ED1D5F89801012816
:10225000FAD100200BF0A4FE00E02FE097ED320B46
:1022600053EC1A2B51EC100B03F066FC03F090FDBD
:102270003A9097ED340B53EC1A2B51EC100B03F002
:102280005BFC03F085FD3B9097ED360B53EC1A2B6E
:1022900051EC100B03F050FC03F07AFD3C9003214D
:1022A0003AA80BF015FE01200BF03EFE192000901D
:1022B0000190029068460BF02FFEF6E0D5F8B400CE
:1022C00003F034FD97ED301B53EC112B03F0A9FC08
:1022D0009FEDE71B53EC112B03F0A4FDA8D3494657
:1022E000E548FEF78DFF97ED30DBB0EE408AF0EE6B
:1022F000608A53EC1B2B51EC1D0B03F00FFC53ECCD
:102300001D2B03F019FC41EC1B0B53EC1C2B51EC67
:10231000180B03F011FC53EC1B2B03F082FC41EC77
:10232000100B08F069F8B0EE40BAF0EE60BAD5F8DC
:10233000E80003F04CFD95ED381B53EC112B03F036
:10234000FBFB53EC1B2B00E087E003F053FDC5D3F0
:102350009DED400B49464046FDF736FF00287CD1F5
:1023600096ED361B97ED360B53EC112B51EC100B01
:1023700003F0D4FB41EC100B53EC102B03F0DCFB0F
:1023800096ED341B97ED340B41EC1B0B53EC112BEA
:1023900051EC100B03F0C2FB41EC100B53EC102B73
:1023A00003F0CAFB96ED321B97ED320B41EC1C0B90
:1023B00053EC112B51EC100B03F0B0FB41EC100B64
:1023C00053EC102B03F0B8FB53EC1C2B03F005FB74
:1023D00053EC1B2B03F001FB41EC100B08F00CF845
:1023E000B0EE40BAF0EE60BAD4F8AC0003F09EFC58
:1023F00053EC1B2B03F0A0FB9FEDA01B53EC112B08
:1024000003F09AFB41EC1B0B53EC192B03F00AFD74
:102410001AD39FED9C0B51EC1B0B53EC102B03F0CC
:1024200001FDBFF476AED5F8B40003F07FFC97ED64
:10243000301B53EC112B03F0F4FB9FED941B53EC7A
:10244000112B03F0D7FCECD2D5F8980101287FF4CA
:1024500060AE00200BF0A4FD00E039E085ED408B7C
:1024600097ED320B53EC1A2B51EC100B03F064FB7D
:1024700003F08EFC3A9097ED340B53EC1A2B51EC91
:10248000100B03F059FB03F083FC3B9097ED360BE8
:1024900053EC1A2B51EC100B03F04EFB03F078FCBD
:1024A0003C9003213AA80BF013FDF7EE000A9FEDD4
:1024B000790A7149A1F1E800FDF7D1FF29E697ED0E
:1024C000300B53EC1E2B51EC100B03F0ABFCF5D38F
:1024D000002043B000F0FBB8BDE8F08370B56E4C4F
:1024E0000546D4F80C0110B9284600F091F8D5F84B
:1024F000B01044F6206081420ADAD4F81021114469
:102500008142C4F810114FF0000005DBC4F810013F
:102510002846BDE8704085E470BD04224FF4C871C0
:10252000AFF247000BF094BBAFF24F000BF0EEBDE3
:10253000514810B5E821E83803F030FAFFF759FCAC
:102540004FF4D471544803F029FA534CB7EE000A03
:1025500004F5907084ED3A0A02F0C9FD0A20C4F82F
:102560007001B2EE000A84ED570A1E209FED4B0A5F
:10257000C4F87C0184ED620A9FED490A84ED610A8A
:102580009FED480A002084ED630A10BD10B5FFF7E7
:10259000CFFF002805D1AFF27D00BDE810400BF061
:1025A000DFBB10BD10B5AFF2CB000BF0AFFDAFF24B
:1025B0009500BDE810400BF0CFBD30B50022C2EB56
:1025C000C20331F9124030F91350AC420ADD02EB7C
:1025D00042040D8820F8245000EB84044D88658067
:1025E0008D88A58000EB430331F91240B3F9063022
:1025F0009C4209DA02EB420300EB83030C88DC8087
:102600004C881C818C885C81521C032AD7DB30BD2E
:1026100070B5214DD0F8AC200446EAB1D3170020A4
:10262000192103F042F945F8AC0F54F8AC2F002003
:10263000D317052103F039F9686022680020D31709
:10264000962103F032F903F071FBC5E90D01AC3DB1
:102650000120C5F80C0170BD6FF00040C5F8AC005A
:102660009FED110BC5F8B00085ED380BF0E70000C9
:102670000AD7A3703D0AE73F000C002000000000CD
:102680000000103E000000000000044033333333EC
:102690003333C33F00000000D00D0020CDCCCC3E32
:1026A0003333333F9A99193F0000C0FFFFFFDF41EA
:1026B000BDEC088BBDEC02CBFDF70CBE30BCBDE819
:1026C000C08FBDEC088BBDEC08CBFEF795BDBDEC13
:1026D000088BBDEC08CBFFF7FFBE000010B5FF492B
:1026E000C4074FF040434FF0804205D08B66CB6665
:1026F000C1E91C328A67CA67840709D5C1F800316D
:10270000C1F80431C1E94232C1F81021C1F81421E5
:10271000400709D5C1F89831C1F89C31C1E9683248
:10272000C1F8A821C1F8AC2110BD2DE9F14F00205E
:1027300082B0824681460298806F00287ED00022B7
:102740000020401C0428FCDB029800EBC203D3E904
:102750000010A1FB0167D3E9065400FB017701FBE0
:102760000077AB46AD1BCDE900670326A5FB06C885
:10277000A64664EB070404FB0684002705FB074517
:10278000DDE900671CEB06047D41A4FB016705FB46
:10279000017504FB0055D3E90C47341B65EB0705B5
:1027A000CDE900455D46A5FB05670324A6FB04585B
:1027B0000EFB0B770BFB0E7707FB04844FF0000C2E
:1027C00006FB0C44D3E91263761B63EB04034C183D
:1027D000A4FB017C40EB000505FB01C504FB005593
:1027E000A7FB014C05FB01C507FB0055A4FB017CC1
:1027F00005FB01C504FB0054F6196341DDE9004502
:10280000AD0045EA9475A400A4FB017C05FB01C161
:1028100004FB0014F01B73EB040103D500234042BA
:1028200063EB0101BAEB000479EB010301DA8246A4
:102830008946521C032A83DB504600E016E04946D5
:1028400003F05EFA00EE900AA54890ED0E1A80EEB5
:10285000810A10EE100A03F07AFAA04AD2F80C228C
:1028600003B0920000F046BC03F05FB8002003B054
:10287000014600F044BC2DE9F14F0020009A0146CA
:10288000926FE2B300240022521C042AFCDB009A5F
:1028900002EBC405AA46D5E90029A2FB023CD5E912
:1028A00006769E46FB1A0325A3FB057809FB02CC9E
:1028B00002FB09CB66EB0B0606FB05854FF0000C0F
:1028C00003FB0C5617EB0E03A3FB027C46EB0B0637
:1028D00006FB02C203FB0923DAE90C25BA1AAB4155
:1028E00003D50025524265EB0303851A71EB0305FE
:1028F00001DA10461946641C032CC4DB00E015E025
:1029000003F0FEF900EE900A754890ED0E1A80EE85
:10291000810A10EE100A03F01AFA704AD2F80C225B
:1029200000F0F0BB02EB420202F0FFBF00200146C4
:1029300000F0EDBB2DE9FE43684D80460024D5F83C
:1029400010626F4605EBC4013246D1E9020102F084
:10295000DDFF05EB8401B1F884100904401847F845
:10296000240004F10104032CECDB5C4898210830BE
:1029700003F014F80120FFF7B1FE95F8E801019982
:10298000042807D1D5F81802B0F5201F02DD052074
:1029900085F8E801524C0098636AC11A01D40E46CA
:1029A00000E01E1A0198A26A801A01D4074601E0CD
:1029B000019FD71BBE4206DD002901D4084606E070
:1029C0000098181A03E0002801D50198101A029AFD
:1029D000E16A521A01D4134601E0029BCB1A8342EA
:1029E00005DB002A01D4104601E00298081AD8F845
:1029F00024100AF0EAFED5F81812814206DD032100
:102A000068460BF0D3FA02200BF022FB00986062BC
:102A10000198A0620298E06200F07CBB304AC2E9F3
:102A2000020170472E4AC2E9060170472C4AC2E9EA
:102A300004017047294AD2F8E0310360D2E97402F8
:102A4000C1E900027047254AD2F8E0310360D2E9BB
:102A50007602C1E9000270472DE9FE478146002059
:102A6000EA468A6F22B901EB800339F91020DA6750
:102A700001EB800239F91030D46F1D1B4AF8205049
:102A8000136E9D4200DD1566D36E9D4200DAD56659
:102A90000123002422464FEAE578A3FB056704FBE7
:102AA000057403FB0844334602EB420601EBC606FD
:102AB00006EBC00CDCE90076FF186641CCE9007635
:102AC000521C042AE9DB401C0328CADB886F401C27
:102AD00088670120C1F8900000F01FBB780F00202C
:102AE000D811002030B5002302EB830550F82340B5
:102AF0005B1CEC66032BF7DBC2F88810916F79B191
:102B0000002102EB810450F82130E56F5B1B00D5FA
:102B10005B42256E9D4200DA2366491C0329F0DBE7
:102B2000906F401C90670120C2F8900030BD10B536
:102B300000210B4600EB8102491CD46ED46713665A
:102B40000329F7DBD0F8881040F8783FC0E9051377
:102B500010BDD0E92210081A70470146D1E91802C9
:102B6000824200DB1046896E814200DB08467047D6
:102B70002DE9F0478046501E012686408946C2F165
:102B80002007404602F0D1FE04460D464046494625
:102B90003A4602F0BBFE3A4602F0C7FEB04203DD01
:102BA000641C45F1000505E07142884202DA641EAA
:102BB00045F1FF3520462946BDE8F087F74900205A
:102BC000086248628862C862086448648864C864AD
:102BD000086348638863C863086548658865C86595
:102BE000704730B5EE4AD2F8483223B1D2E990545A
:102BF0002D1A8C4101DAC2E990015B1CC2F84832FF
:102C000030BD30B5E64AD2F8583223B1D2E99454F7
:102C10002D1A8C4101DAC2E994015B1CC2F85832CA
:102C200030BD30B5DE4AD2F828322BB1D2E9884522
:102C3000041B71EB050401DAC2E988015B1CC2F8D0
:102C4000283230BD30B5D64AD2F838322BB1D2E96D
:102C50008C45041B71EB050401DAC2E98C015B1C95
:102C6000C2F8383230BD2DE9F0470246CC48012584
:102C700008308046C36E016E046FC91A436E1B1B79
:102C80008B4200DB1946836ED8F87400181A88420C
:102C900000DB0146C14F6037F86B884204DA00243C
:102CA00000F010FA204687E7108E0124BC4EC005C4
:102CB0004FF000010ED5D6F880303068834209DB32
:102CC000B2F87420D20506D5D6F8B021824201DBD5
:102CD000052400E00C4674B3600719D5AF48C83826
:102CE0008146FFF722FD000D40EA01300915C6E9D3
:102CF0007601D7E904321B1A8A4102DA0025FFF770
:102D0000A1FF9821484602F049FE0420FFF7E6FCA7
:102D1000E0070ED04046FFF708FDC6E97C01D7E981
:102D200006340246181A8C4103DA00251046FFF7D4
:102D300078FF284640E7FFE702203DE71EB504463E
:102D400090F83000C0F38110032804D19449201D6D
:102D50000831FFF781FE94F87400C0F38110032856
:102D600005D18E4904F14800C839FFF775FED4F843
:102D7000B8008B4AC0F38113A0326946032B0FD0F1
:102D8000C0F3411003281AD1002004EB8003D3F8CC
:102D9000A0309B1341F82030401C0328F5DB09E0EC
:102DA000002004EB4003B3F98C3041F82030401C84
:102DB0000328F6DB6846D4F8C010FFF793FE1EBD6B
:102DC0002DE9F04705460020296BCA056AD501F0B8
:102DD0005001402900D1012095F8741001F05001F4
:102DE000402900D1012095F8B8106D4C01F0500138
:102DF000402900D030B100F065F90020C4F8E001AE
:102E000084F8E801654ED4F80812E86A6036814219
:102E100028D0C4F808020A28306B0CDA4000206081
:102E2000716B00EE100A491CC4F80C12B8EEC00A0F
:102E300007F01FFB05E02060706BC4F80C0296EDF4
:102E40000E0A84ED850AD4F80C02C0F11000C4F813
:102E500010024FF48040C4F8180296F8341019207C
:102E60008840F0632846FFF769FF94F8E811DFF81F
:102E7000309105274FF0020809F1A009072911D266
:102E8000DFE801F0041127305E7E8500D4F8E00110
:102E9000411CC4F8E0110A2804DB00F013F90120FA
:102EA00084F8E80186E0D4F89800012810D128467B
:102EB000FFF7D9FE10B1012803D004E084F8E871CF
:102EC00001E084F8E8814846FFF731FEFFF776FE1F
:102ED00070E0032084F8E8012846FFF72BFD00F09E
:102EE000F1F867E02846FFF7BEFEE8B3012861D19C
:102EF000B5F8B8004FF00403C00515D54846FFF7F4
:102F00002CFE0146C017C4E97410D6E902C2BCEB1E
:102F10000101824102DA84F8E87108E04846FFF7CF
:102F200018FE316A884202D384F8E83124E0F4E9DB
:102F30007601FFF766FED4E90601FFF752FE39E09D
:102F4000B5F8B800C0050BD54846FFF706FE0146A8
:102F5000C017C4E97410D6E90232591A824108DB5D
:102F60002846FFF780FE00E003E010B1012803D0FF
:102F700020E084F8E8711DE02846FFF7DBFCD6E787
:102F8000062084F8E80101200BF062F80DE02846E5
:102F9000FFF769FE012805D038B10BE07811002059
:102FA000780F002084F8E88104E000F08BF84846B0
:102FB000FFF7BDFD0020FFE510B5002140100028FF
:102FC00002D001F10101F9DC4FF0010001F1010132
:102FD00000FA01F0434C00EE100AC4E90C01B8EE0F
:102FE000C00A07F046FA84ED0E0A94F8341019204E
:102FF0008840E06310BD10B54FF418713A4802F0F4
:10300000CDFC4021374802F0C9FC0720FFF766FBE2
:10301000344840F2DC510022C0E906121421C0E914
:1030200002124FF41671C0E9041230492E4C0162AD
:103030000120C4F8E4011920FFF7BEFF0020C4F806
:10304000080210BD10B54FF41871274802F0A6FC15
:103050000720FFF743FB244801210022C0F8E411B8
:1030600080F8E811032101200AF0E8FF072264211B
:10307000AFF2B320BDE810400AF0EABD10B5012060
:103080000AF0E6FFAFF2C720BDE810400BF03EB8F3
:1030900010B5FFF7B0FF002805D1AFF25700BDE82B
:1030A00010400AF05DBE10BD10B5FFF7E7FFAFF2AC
:1030B0006B00BDE810400BF04FB80B49D1E97C0123
:1030C00070477047084810B59821083002F066FC38
:1030D0009821074802F062FCBDE810400520FFF788
:1030E000FDBA0000D8110020780F00200008AF2F93
:1030F000B010002030BCBDE8C04FFFF7B5BB30BCFE
:10310000BDE8C08F18BCBDE8E04FFFF70BBC18BC92
:10311000BDE8E08F06BCBDE8F8830EBCBDE8F087D3
:10312000F0B516462DED028B85B01F460C460546C0
:103130003C22FE49A1F10C0002F009FCFB4950229F
:103140004C31A1F1100002F002FCF84996E80D00A4
:103150000C3901F13C0C8CE80D005CCC01F19800BD
:1031600080E85C009FEDF28AD1F82401401CC1F890
:103170002401062802DD0620C1F82401C0F106065C
:103180000C46A0351AE004EB06116A463846483171
:103190000AF077FB06EB460004EB80016A462846FE
:1031A00009F068FFF0EEC00AB0EEC81AF4EEC10AEA
:1031B000F1EE10FA01D2B0EE408A761C062EE2DB68
:1031C00005B0B0EE480ABDEC028BF0BD70B51446F8
:1031D0002DED048B0E46B0EE408A00259FEDD59A6A
:1031E000416BF0EE498A002904DBD0F8BC000328CB
:1031F00000D10125CD492422B431081F02F0A7FBDC
:10320000CA480C38002380ED388A00EB83015B1C30
:1032100091ED2F0A0A2B70EE288AF6DBB2EE040A33
:10322000C822C8EE800AC0ED390A9FEDC31A322EBB
:103230001DDB9FEDC20AC0F81C21B6F57A7FC8EEEF
:10324000001A00EE104AB8EEC00A61EE801A81EE54
:10325000810A2FDB9FEDBA0AC8EE001A00EE104A71
:10326000B8EEC00A61EE801A81EE810A22E041F2D6
:10327000883194FBF1F14942D0F81C3101EB810116
:10328000C918C0F81C1102D50021C0F81C119FED0F
:10329000AD0AC8EE001A00EE104AB8EEC00A61EEA0
:1032A000801A81EE810A29B9D0F82811012901D1AB
:1032B000B0EE490AD0F8201109B1B0EE480AA2498F
:1032C0008C4201D1B0EE480AB5EEC00AF1EE10FA18
:1032D00001D0C0ED3A0A90ED3A1A9C4B71EE600AAB
:1032E000F0EEE00A10EE901A994227DDD0ED2E0A9A
:1032F000F5EEC00AF1EE10FA20D1002D1ED0C0F874
:103300001C21204602F012FD41EC190B18EE100AA8
:1033100002F05DFD9FED8E1B53EC112B02F081FC42
:1033200053EC192B02F008FC9FED8B1B53EC112B77
:1033300002F077FC02F08EFD00EE100ABDEC048B6B
:1033400070BD2DE9F04F04462DED048BA9B09FED23
:10335000799A4FF0000A754ECDF810A00C3ECDF8CA
:1033600014A0CDF818A0D6F82011022003297DD092
:1033700000209FED7B8A20AD06EB800191ED2A0AAB
:1033800005EB8001401CB8EEC00A042820EE080AB4
:1033900081ED000AF0DB0FA809F0A8FF24A809F0CE
:1033A000FFFF624B24AA9C330FA920462793FFF707
:1033B000B7FEF0EE408A04F118000AF04FF88109D8
:1033C0006148D6F83021824200DB0246B0EE680A3E
:1033D0002046FFF7FBFED6ED3B0AB3460BA820EED6
:1033E000200A86ED2E0A09F081FF13A90BA80AF026
:1033F000C2FB4E480FAAF0300BA906460AF041FA6C
:1034000031460BA80AF01AFA00210DF13C080DF123
:103410004C090DF1100E00221346104601EB410C31
:103420000CEB000759F8276008EB8007401C7F6809
:103430000328C6FB0723F3DB900F40EA83004EF816
:103440002100491C0329E6DBDBF820015E46002849
:103450006AD05046CDF818A0404200EE100AB8EEEF
:10346000C00A20EE080A06F057FC00E0A2E08DED4D
:10347000000A8DED019A8DED029A0698404200EE09
:10348000100AB8EEC00A20EE080A06F0EDFE8DED37
:10349000030A9DED060ADFED330AD6F83001B8EED7
:1034A000C00A41F2883190FBF1F080EE201A00EE64
:1034B000100AF8EEC01A81EE210AB0EE001AC0EE32
:1034C000011ABDEEE10A10EE101A490000EE101AC2
:1034D0000691B8EEC00A60EE200A00EE100AB8EEBF
:1034E000C00A20EE800ABDEEC00A8DED060AB8EED5
:1034F000C00A20EE080A06F00FFC8DED070A8DEDDC
:10350000089A8DED099A9DED060AB8EEC00A20EEE4
:10351000080A06F0A9FE8DED0A0A1CAA694620A831
:103520000AF007FA6A461FE04BE000002412002070
:10353000002474490000000000409C4500004843FE
:10354000000048420000C84340420F000E2DB23D2B
:103550000000000000007940000000000088B34037
:1035600000008030E102374707A91CA80AF0E1F902
:103570006F46DFED958AD4F8BC00002813DD0020EB
:1035800007EB800191ED000A05EB800181ED000A57
:1035900020EE280A06EB8001401C0428BDEEC00A7C
:1035A00081ED2A0AECDBD4F8BC00F6EE009A032881
:1035B0000CD108E0C6F8200129B0BDEC048B00F066
:1035C00007B9069848E700F045FEE0B396ED2A0AF1
:1035D000B8EEC00A20EE080A8DED1C0A96ED2B0A03
:1035E000B8EEC00A20EE080A8DED1D0A96ED2C0AF1
:1035F000B8EEC00A20EE080A8DED1E0A96ED2D0ADF
:10360000B8EEC00A20EE080A8DED1F0AD6F8200198
:103610000028D1D096ED2E0A20EE290A06F07CFB78
:1036200020EE280ABDEEC00A86ED2A0AC6F8ACA034
:10363000C6F8B0A096ED2E0A20EE290A06F014FE78
:1036400020EE280A00E004E0BDEEC00A86ED2D0A57
:103650002BE096ED2E0A20EE290A06F05DFB8DED9B
:10366000070A8DED089A8DED099A96ED2E0A20EE47
:10367000290A06F0F9FD8DED0A0A6A4607A920A875
:103680000AF057F968460AF0FFF9002007EB8001BD
:1036900091ED000A06EB8001401C20EE280A042868
:1036A000BDEEC00A81ED2A0AF0DBD4F8C0102798DD
:1036B0000AF040FCD6F820010028AAD0401E79E785
:1036C00070B590F8B810414ACC064FF000034FF0A7
:1036D000030101D4C2E94813B0F82041E40509D43C
:1036E000048EE40503D5B0F87440E40502D4C2E9C1
:1036F00048131AE0D2F8341139B1D0E93013C91A9D
:103700004FF47A73B1FBF3F105E0D0F8B01044F652
:103710002064A14202DBC2F830110AE0D2F82C5139
:103720002944C2F82C11A14201DA002070BDC2E97F
:103730004B31FFF706FEF8E710B54FF49C712348B4
:1037400002F02CF9214C4FF080400021C4F8FC001D
:1037500044F8A80F1D48A8300AF0ECFB4FF47A702B
:10376000B7EE000A606784ED110A10BD174880EDBE
:103770003B0A002070471549C1F828010020704716
:103780001249C1F834010020704704224FF4167129
:10379000AFF2D3000AF05CBAAFF2DB000AF0B6BCBD
:1037A00010B5FFF7C9FF09490020C1F82801C1F889
:1037B0003401AFF22900BDE810400AF0D1BAAFF2EF
:1037C00035000AF0C9BC00000000804E181200202D
:1037D00030BCBDE8C08F00001FB50146102268460E
:1037E00002F0B5F8F7489DE80E0080E80E00F649B3
:1037F0009DF80C0081F8B001002004B010BD1FB589
:10380000F0490EC98DE80E00EF49102291F8B01171
:103810008DF80C10694602F09AF80020EDE72DE9CA
:10382000F04F91B000251821684602F0B7F8002447
:10383000182106A802F0B2F8E348A046C14690F865
:10384000C01101297ED1D0F8B8B1D0F8B4A10022BE
:10385000C2EBC20000EB4001DB4800EB810E9EF89A
:1038600050000F90002864D000215FE0DDE90007E0
:103870006D1C5EF821300E93181847EBE376CDE906
:1038800000060EEB8100EDB243690D93DDE9027C89
:103890004FEAE376DB1946EB0C06CDE90236836A84
:1038A000DDE9047CDE170C93DB1946EB0C06CDE951
:1038B0000436C06B0E9BDDE9067C83FB0063360C8F
:1038C00046EA0346F6194CEB2343CDE906630D9B0C
:1038D000DDE9087C83FB00634FEA164646EA0346AF
:1038E000F6194CEB2343CDE908630C9BDDE90A7C18
:1038F00083FB00634FEA164646EA0346F6194CEB93
:103900002343CDE90A6380FB00634FEA164646EA8B
:10391000034616EB080849EB23490444584501DAED
:10392000834602E0504500DD8246491C0F988842DC
:103930009CDC521C052A8BDBA348AAEB0B01D0F8B8
:10394000BC0100E056E0814254DBA5FB0823E017F0
:103950000026109006FB083005FB0900CDE90C207D
:1039600084FB0420110C41EA00410014CDE90E0152
:1039700006A800EBC601D1E90003A0FB05B203FBDA
:103980000522002100FB012C684600EBC601D1E9AD
:103990000001A0FB043701FB0471109A00FB021028
:1039A000190C41EA00490CAA4FEA204A92E8890022
:1039B0000F9983EA070880EA010252EA080212D04E
:1039C000421A63EB0703BBEB09006CEB0A0C4FEAEE
:1039D0000C4141EA1041000401F067FF7A4901EB14
:1039E0008601C1F8A401761C032EC1DB76480121B3
:1039F00080F8B01111B0002000F050B9F8B5724D48
:103A00000E460446D5E96D01091A052291FBF2F133
:103A1000301A90FBF1F0C0B28DF80000042801D9F3
:103A20002020F8BDC0EBC00000EB400005EB80019A
:103A300091F85000052816D0421C81F850209DF8BE
:103A40000010C1EBC10101EB410105EB810202EB6A
:103A50008001CE63236842F8203060684861A06826
:103A600088620020F8BD01F14003181F102219469A
:103A700001F06DFF9DF800001022C0EBC00000EBCC
:103A8000400005EB8000011D01F061FF9DF8000082
:103A90001022C0EBC00000EB400005EB800000F1FD
:103AA0001801143001F053FF9DF800001022C0EB04
:103AB000C00000EB400005EB800000F12C01283035
:103AC00001F045FF0420BAE730B585B0044603A9EC
:103AD000684609F09DFC04A809F05CFD02282BD083
:103AE000D4F8E4000399401A374991F8B02112B391
:103AF00008B3D1F8A421009C80FB0232150445EAEA
:103B0000134222440092D1F8A821019C80FB02328A
:103B1000150445EA134222440192D1F8AC11029AED
:103B200080FB0110030443EA11401044029003217A
:103B300068460AF03BFA0CE0606B032809D109F0F3
:103B400079FC30B168460399FFF758FF08B9FFF7D1
:103B500066FE05B0002030BD10B54FF4E2711A4882
:103B600001F01CFF18481949C0F8B4114FF4AA011C
:103B7000C0F8B8114FF4A021C0F8BC11012180F8A1
:103B8000C011002010BD1049C1F8B80100207047D5
:103B90000D49C1F8B401002070470B49C1F8BC01C0
:103BA0000020704758B10849D1F8A4210260D1F82B
:103BB000A8214260D1F8AC11816000207047052037
:103BC00070470000F4140020501300200000D8FFBC
:103BD0002420F5E720B12D4981F8C0010020EFE74E
:103BE0002420EDE7294B93F8B1010028E8D0D3E970
:103BF0006D10401A052190FBF1F00020C0EBC001D0
:103C000001EB410103EB810191F8502022B1002129
:103C100000E0491C8A42FCDC401C0528EEDB002049
:103C2000CEE7082296211A480AF012B818480AF07E
:103C30006DBA10B5FFF790FF4FF49A731022154933
:103C400015480AF057F820B9AFF229000AF088F8B1
:103C500008B1012010BD0D49012081F8B1010020FB
:103C600010BD10B5094C94F8B101002808D00848DF
:103C70000AF04CFAAFF255000AF06EFA08B10120D2
:103C800010BD002084F8B10110BD000050130020C9
:103C9000C93A0008FF370008D937000830BCBDE832
:103CA000C08F0000002803DDFE490122C1E9200287
:103CB0000020704710B5B821FA4801F06FFE9FED63
:103CC000FA0AF84880ED030A9FEDF80A80ED020A2F
:103CD0009FEDF70A4FF0804180ED000AB3EE0E0A27
:103CE00080ED010A41664FF4FA619FEDF20AC16767
:103CF00080ED270A002010BD70B5EA4C002594ED38
:103D0000001AB4EEC01AF1EE10FA17D394ED011AAE
:103D1000B4EEC01AF1EE10FA10DC2069012817D1B8
:103D200094ED030AB4EEE00AF1EE10FA06D394ED36
:103D3000020AB4EEE00AF1EE10FA09DD606F20B974
:103D4000D848A16D18300AF0F5F80120C4E91D0526
:103D5000D4E91E01884204DB606F012800D1E565CB
:103D6000656770BD10B504462DED028BB0EE408A3C
:103D700009F0C6FACB49002220B918EE100ACE4B42
:103D8000984202DD0A614A6102E00869002808D110
:103D9000486920444861B0F5FA7F02DD0120C1E99D
:103DA0000402BDEC028B10BDF0B58DB00D4614467B
:103DB0000646694609F0DFFE09AA3146284609F0A1
:103DC00060FD2946304609F039FD0021EC460DF131
:103DD000240E00231A46184601EB41073D180EEB4E
:103DE00080065CF825507668401CC5FB0632032827
:103DF000F4DB980F40EA820044F82100491C0329B3
:103E0000E7DB0DB0F0BDA7490020C1F88C0070477A
:103E100010B590ED000AD0ED010AB8EEC00AB8EE78
:103E2000E01AF8EEE00A20EE000A01EE200AD0EDDA
:103E3000020AB8EEE01AF8EEE00A01EE200A06F0F7
:103E400018FBDFED9E0A20EE200A10BD00229549E6
:103E5000012330B1012810D0C1F8983041F88C2FDF
:103E600031E081ED280A81ED290A9FED950A81ED67
:103E70002A0AE1E924328A607047D1ED280A91EDDF
:103E8000271A70EE600AF0EEE00AF4EEC10AF1EED5
:103E900010FA16D2D1F89400401CC1F89400D1ED6C
:103EA000290A312830EE800A81ED290AE4DD02205A
:103EB000DFED840AC1F8900080EE201A81ED2A1A05
:103EC000704741F8902F4A6070472DE9F0479846B7
:103ED0002DED088B8AB017468A4604469FED788AF6
:103EE0000025704E039504950595D6F888000028A6
:103EF0007DD009F0ABFA10B103A809F07BFAD6F82F
:103F000080004FF00109002817DDC6F8849009F001
:103F10009DFA48B103A809F0A1FA8009B0F5C87F5D
:103F200002D2D6F8800004E0D6F88000001BC6F864
:103F30008000002801DCC6F8845009F09FFB0028AF
:103F400055D000209FED5D9A57F8201000EE101A12
:103F500058F82010401CB8EEC00A032860EE090A89
:103F600000EE101AB8EEC00A20EE800A00EE098AB0
:103F7000EADB3846FFF74CFFF0EE408A4FF07E5701
:103F800088EE280AF7EE00AA10EE100AB84201DD0A
:103F9000B0EE6A0A10EE100ADFF82C81BFEE00BA0C
:103FA000404501D9B0EE4B0A05F074F8D6F88C0004
:103FB000B0EE40AA98B196ED000AB4EEE80AF1EE30
:103FC00010FA0CDD96ED010AB4EEE80AF1EE10FAF3
:103FD00005D2B0EE4A0AD6F89000FFF737FF6846E0
:103FE00009F0C2FA2F490C22AC31684600E0E2E049
:103FF00001F0E6FC18B9D6F8980001286BD12948E1
:104000009DE80E00AC3080E80E00009818B90198C9
:1040100008B90298F0B36846FFF7FAFEB0EE408A9E
:10402000B5EEC08AF1EE10FA55D0F2EE049A38EEF1
:10403000690A20EE000A06F01CFA86ED010A38EE45
:10404000290A20EE000A06F014FA86ED000A9DED1A
:10405000020AB8EEC00A60EE090AB0EE480A80EE25
:10406000808A18EE100AB84201DDB0EE6A8A18EEB6
:10407000100A404501D9B0EE4B8AB0EE480A05F06F
:1040800009F8D6ED270A30EE600A86ED020AB0EE96
:10409000480A00E024E004F0FDFFD6ED270A30EEE8
:1040A000200A14E0141500200000B4420000B4C23D
:1040B000000070427B142E3E00401C4600008037FA
:1040C0000000000000004842000080BF03E086EDD1
:1040D000030AC6F88C50DFF88481F16D21B32FE01C
:1040E0001FED0D0A86ED000AB3EE0E0A86ED010AF9
:1040F000D6F89800012808D01FED140A86ED020AB0
:104100001FED170A86ED030AE5E796ED2A0A96EDFC
:10411000271A70EE410A30EE010AC6ED020A86ED5A
:10412000030AC6F89850D6E70027C6F85C9006EB5D
:1041300007104146183009F017F97F1C042FF6DBF1
:10414000464906AA0C310F465046FFF72DFE394668
:10415000504609F073FB03A809F080F900EE100A3D
:10416000DFED3F0A2046B8EE400A20EE200AFFF7B6
:10417000F9FDF0EE4A0AB0EE680AFFF7BDFDD6E998
:104180001E01884201DA2044B067706F90B9306E2A
:1041900020443066B0F57A7F0CDD3049302230396A
:1041A000A1F11000356601F0D2FB2C4841461038D1
:1041B00009F0DAF8706F0AB0BDEC088BBDE8F08743
:1041C00070B588B0044604A809F0EAF8D4E93001D3
:1041D000451A684609F08AF8064604AB04F1A002C5
:1041E00069462846FFF771FE09F0B6FE08B0304672
:1041F00070BD04224FF49671AFF23B0009F028BD68
:10420000AFF2430009F082BF10B5FFF753FD00285D
:104210000DD1124800215838C0F88C100121C0F887
:104220008810AFF23100BDE8104009F099BD10BD13
:1042300010B5AFF2730009F069FFAFF27B00BDE883
:10424000104009F063BF054901205839C1F88C00BE
:104250000020704701485838406F70476C150020A7
:104260000000803CF0B51D462DED028B99B090ED1D
:10427000000AD0ED010A1746B8EEC00AB8EEE01AFF
:10428000F8EEE00A0E4620EE000A044601EE200A8F
:10429000D0ED020AB8EEE01AF8EEE00A01EE200ACC
:1042A00006F0E7F8F0EEC00A10EE900AB0F18D4F7C
:1042B0007EDDD6ED000AB8EEE01ADFEDFE0A21EE53
:1042C000201A8DED041A96ED011AB8EEC11A21EEEE
:1042D000201A8DED051A96ED021AB8EEC11A21EEDC
:1042E000201A8DED061A96ED031AB8EEC11A61EE8A
:1042F000200ACDED070A9FEDF08A10AA8DED0C8AF9
:10430000D4ED000A0CA904A8F8EEE00A80EE801AA9
:104310008DED0D1AD4ED010AF8EEE00A80EE801A58
:104320008DED0E1AD4ED020AF8EEE00A80EE801A46
:104330008DED0F1A09F0FDFA14A904A809F08AFA04
:104340006A4614A910A809F0F4FA9DED021ADDEDF1
:10435000010ADA4921EE010A00EEA00A10EE100A65
:10436000884202DA9FEDD60A11E010EE100AD54914
:10437000884202DA9FEDD40A09E010EE100AD34910
:10438000884202DAB5EE000A01E09FEDD10A01EEA3
:10439000907AB8EEE12ADFEDCF2A8DED088AC2EEE1
:1043A000221A21EE800A21EE001A8DED091A00E092
:1043B00038E020EEC00A6A4604A98DED0A0A8DEDA8
:1043C0000B8A08A809F0B5FA6A4604A9104609F054
:1043D00014FA684609F016FBDDED000A9FEDBE0AEF
:1043E00060EE800AFDEEE00AC5ED000ADDED010A8F
:1043F00060EE800AFDEEE00AC5ED010ADDED020A7D
:1044000060EE800AFDEEE00AC5ED020ADDED030A6A
:1044100020EE800ABDEEC00A85ED030A19B0BDEC9E
:10442000028BF0BD96E80F0085E80F00F6E72DE956
:10443000F0410C462DED068B054690ED000AD0EDBF
:10444000010AB8EEC00AB8EEE01AF8EEE00A20EE73
:10445000000A01EE200AD0ED020AB8EEE01AF8EEEA
:10446000E00A01EE200A06F004F810EE100A4FF000
:104470007E5800264FF0804740453FDDD5ED020ACB
:10448000B7EE009AF8EEE00AC0EE808A39EE680ACC
:104490009FED89AAB5EEC00AF1EE10FA01DCB0EE8C
:1044A0004A0AF6EE009A20EE290A05F0E2FFB0EE85
:1044B000408A38EE890AB5EEC00AF1EE10FA01DC46
:1044C000B0EE4A0A20EE290A05F0D3FFF0EE408A4A
:1044D00095ED000AB8EEC00A60EE000A95ED010AFB
:1044E000B8EEC01AB8EEC00A41EE000AB0EE600A9B
:1044F00005F0BFFF10EE100A404503DCC4E900766A
:10450000A66025E0DFED740A28EEA01ABDEEC11A00
:1045100084ED001A95ED011AF8EEC11A81EE801AA9
:1045200021EE081A61EE200AFDEEE00AC4ED010A50
:10453000D5ED000AF8EEE00A80EE801A21EE080AB6
:10454000DFED660A20EE200ABDEEC00A84ED020A05
:10455000E660BDEC068BBDE8F08170B590ED000A19
:10456000D0ED010A0546B8EEC00AB8EEE01AF8EE42
:10457000E00A0C4620EE000A01EE200AD0ED020A05
:10458000B8EEE01AF8EEE00A01EE200AD0ED030AD8
:10459000B8EEE01AF8EEE00A01EE200AB5EEC00A25
:1045A000F1EE10FA07D84FF08040206000206060E4
:1045B000A060C86070BD05F05CFFB7EE001AC1EEE8
:1045C000000A9FED450A20EE800AD5ED000AF8EEBC
:1045D000E00A60EE800AFDEEE00AC4ED000AD5EDC7
:1045E000010AF8EEE00A60EE800AFDEEE00AC4ED92
:1045F000010AD5ED020AF8EEE00A60EE800AFDEE4F
:10460000E00AC4ED020AD5ED030AF8EEE00A20EE56
:10461000800ABDEEC00A84ED030A70BD70B5044681
:1046200090F8300088B040067ED5A069002801DBF4
:10463000014600E041424FF480320026284D91426D
:104640000BDAE169002900DA4942914205DA216A70
:10465000002900DA4942914267DB002800DA404233
:104660004FF4C80188420BDCE069002800DA4042C0
:10467000884205DC206A002800DA4042884201DDD9
:10468000032000E00220A863696BA06A814242D047
:10469000686394ED0A0A9FED131AF8EEC00A80EEE3
:1046A000810ADFED110A20EE200A10EE100A01F057
:1046B0008EFB1BE0000080300000000017B751396E
:1046C000A69BC43B0AD7233C8FC2753DCDCC4C3E44
:1046D000CDCCCC3E0014CD470000804E000080CEF3
:1046E000CC150020002474490000004E9FEDFA1BF9
:1046F00053EC112B01F020FA9FEDF91B53EC112B19
:1047000001F01AFA9FEDF81B53EC112B01F089FA16
:1047100001F03EFB28630496296BA06909F055F867
:104720000590296BE06901E022E023E009F04DF8F3
:104730000690296B206A09F048F807906A4604A998
:10474000EB4809F09EF80098E94A80010090019832
:1047500069468001019002988001029003988001CF
:104760000390104609F037F8E1490846FFF7F5FED7
:1047700008B070BDAE63FBE770B504462DED048B49
:104780008EB0D0F82001410676D5D94DD4F810115D
:10479000D84B2A68891AD4F82C215A438A4201DA64
:1047A000032100E00221A963800504F5887602D583
:1047B000CF493046B5E0002107A808F029FECC49D2
:1047C0000C223C3107A801F0FBF820B9D4F82801ED
:1047D000A96D88427ED020886B4680B207AA616AA4
:1047E00008F09EFC9DED000ADDED010AB8EEC00A5E
:1047F000B8EEE01AF8EEE00A20EE000A01EE200A18
:10480000DDED020AB8EEE01AF8EEE00A01EE200A49
:1048100005F02FFEB0EE408A9FEDB70A68EE000A61
:104820009FEDB61A80EE810ADFEDB50A20EE200A70
:10483000D4ED4A0AF8EEE00A60EE800A1FED571A3E
:1048400080EE810AF6EE000A20EE209AB0EE490AC8
:1048500005F062FAF0EE408AB0EE490A05F004FD78
:1048600018EE100A4FF08041884206DA0020C5E9B0
:1048700012102865686532E055E05FED690A68EE60
:10488000A00AFDEEE00AC5ED120A5FED6C0A20EE0B
:10489000200ADDED000AF8EEE00A60EE200A80EE64
:1048A000881AFDEEC10AC5ED130ADDED010AF8EE26
:1048B000E00A60EE200A80EE881AFDEEC10AC5ED1E
:1048C000140ADDED020AF8EEE00A20EE200AC0EE3E
:1048D000080A00E00DE0BDEEE00A85ED150A07AB21
:1048E00093E8070005F13C0383E80700D4F82801AA
:1048F000A8657F4903AA4831304608F0C2FF7C48CA
:104900000AAA5C3003A9044608F0BBFF21463046E2
:1049100008F094FF03AA0AA9754808F0B2FF744989
:1049200003A8FFF71AFE0EB0BDEC048B70BD1FB5D7
:10493000044669466E4808F081FF6D4A6946203298
:10494000204608F09EFF6A491DCC103181E81D0009
:104950001FBD2DE9F0470446654E90F8740006F13E
:104960005C0A06F12008012500F05001103692B0D3
:1049700004F5887904F15C07402906D094F82001F9
:1049800000F0500040280DD01DE031463846FFF7BA
:104990004EFDB4F82001C0050CD55146484608F03C
:1049A0004DFF07E05146484608F048FFB4F8740050
:1049B000C00508D569464E4808F040FF42466946A2
:1049C000304608F05EFFB4F82001C005204602D54D
:1049D000FFF7D2FE01E0FFF721FE32464449404690
:1049E00008F04FFF94F8740040066FD5208EB4F89D
:1049F00020110843C0056DD50FAA3946304609F08D
:104A00009BF8D4E9172080FB0001C2FB0201626E13
:104A1000374FC2FB02014FF08042801A71F1020051
:104A200014DB04A808F060FDDDE9042080FB000130
:104A3000C2FB0201069AC2FB02014FF08042801ABB
:104A400071F1020002DB0420B8630BE0B86B0428AC
:104A500008D041F28832022806D0032804D0012869
:104A600052D009E0002507E0E16E91FBF2F5012D3F
:104A700000DA0125032800D0AD0022480024454378
:104A8000109807948002294608F09FFE08900F981E
:104A900029464042800208F098FECDE909040BAA9D
:104AA000314607A808F0EDFE32460BA9104608F083
:104AB00092FE31460846FFF750FD69460C4808F063
:104AC000BDFE42466946304608F0DBFE12B00020CB
:104AD000BDE8F08720E00000112D4454FB2109407F
:104AE00000000000000070400000000000806640F0
:104AF000CC15002071981C00DB0F494000003443A6
:104B000000008037A69BC400E06E90FBF2F0012805
:104B100000DA01204500AFE7334619463846E26E19
:104B2000FFF7A0FBC9E770B50446008EC105D4F8B5
:104B3000200107D4B4F87410C90503D4C10501D409
:104B4000002070BDC0F30120032807D02046FFF7E6
:104B500000FF2348A16B09F0C9FAF1E704F5887159
:104B60001F482EC980E82E00F3E71E4809F0CEBA90
:104B70001B4810B56C21103800F010FF18484FF09A
:104B800080411038016101600162C163C16500208C
:104B900010BD184810B5082213A1006800F010FFDE
:104BA00008B1322010BD1322BDE81040C8210D48C5
:104BB00009F04EB810B5FFF7DBFF002805D1AFF2C2
:104BC0002D00BDE8104009F0CBB810BD10B5054868
:104BD00009F09CFAAFF24500BDE8104009F0BCBAFC
:104BE000DC150020274B0008654D504C20352E3138
:104BF000000000002C00002000209FEDFE0AFE4A6D
:104C0000DFEDFE0A02EB8001401C81ED080AC0B214
:104C1000C1ED0B0A0328F5D37047F74A002002EBD9
:104C20008001D1ED080A91ED2D0AF4EEC00AF1EEF3
:104C300010FA01D281ED080AD1ED0B0AF4EEC00A98
:104C4000F1EE10FA01DD81ED0B0A401CC0B2032821
:104C5000E5D370473EB50B46B0F848100904009103
:104C6000B0F84A10009A09040191B0F84C100904F8
:104C70000291E1494C6E121B0092019A8C6E121B3C
:104C80000192029AC96E511A0291816EB0F84400E5
:104C90006A4680B208F044FA3EBDF0B5D64F002413
:104CA0002546D7F894208DB02E46012A01D1C7F8A9
:104CB000946009A9FFF7CEFF05A808F071FB0599DC
:104CC00009986022A0EBA130099006990A98A0EB00
:104CD000A1300A9007990B98A0EBA130C8490B901E
:104CE000081F00F034FE0DF1240CC5489CE80E00AE
:104CF000143080E80E00684608F0F6FBC0496022D8
:104D00006C31081F00F023FEBD489DE80E00803086
:104D100080E80E0000210922D7F82C04401CC7F8B7
:104D20002C0401EB410007EB8000DDF800C0D0F857
:104D30004C33491C93FBF2F31C44D0F8503309293F
:104D400093FBF2F31D44D0F8543393FBF2F31E446B
:104D5000D0F8B83393FBF2F363440093D0F8BC333C
:104D6000DDF804C093FBF2F363440193D0F8C00371
:104D7000029B90FBF2F018440290CDDB002C00DA8D
:104D80006442002D00DA6D42002E00DA764200986F
:104D9000002800DA404200900198002800DA4042E2
:104DA00001900298002800DA404202900099002009
:104DB0008C4200DA012001998D4200DA401C0299F0
:104DC0008E4200DA401CD7F82C14092900DB401C65
:104DD00004280DD197F8240402280BD901468648EF
:104DE000D7F82824643009F02DF8012009F024F8C0
:104DF0000DB0F0BD09F012F8FAE72DE9F0417E4D53
:104E000000272DED048B06463C4685F824749FED63
:104E10007D9B9FED7E8BC5F8287405EB8400D5ED56
:104E20000F0A90ED330AB4EEE00AF1EE10FA1EDB41
:104E300095ED140B53EC182B51EC100B00F06EFE9B
:104E400041EC100B05F010F853EC192B51EC100B42
:104E500000F0D0FF0BD295F824040121401C85F806
:104E60002404D5F82804A1400843C5F82804641C8C
:104E7000E4B2032CD1D395F82404B8B3002406EB94
:104E8000C40090ED000B51EC100B00F081FF05EB1E
:104E90008401641CE4B24866032CF0D3C5F82C747A
:104EA000A868042802DA95F82404A86095F8240478
:104EB00003281BD15749E868884217DC95ED140B8D
:104EC00053EC182B51EC100B00F028FE41EC100BAA
:104ED00004F0CAFF53EC192B51EC100B00F08AFFC1
:104EE00004D2A868032801D10420A8604A4928698F
:104EF00088421DDA4949E868884219DC95ED140BAF
:104F000053EC182B51EC100B00F008FE41EC100B89
:104F100004F0AAFF9FED421B51EC100B53EC112B38
:104F200000F068FF04D2A868042801D10520A86019
:104F3000BDEC048BBDE8F0812DE9F0412E4C074615
:104F4000D4F8A404012802D000252846F2E7364907
:104F5000F7EE000AA1F1E800B7EE000A0646FBF7FB
:104F60007EFA254A3046503202F5AC71FBF719FD46
:104F70000500EAD06068401C606094ED140B51ECB1
:104F8000100B00F005FFB96E08F01FFC00EE100AD0
:104F9000DFED260AB8EEC00A20EE200A10EE100A55
:104FA00000F015FFC4E9140194ED6A0B51EC100BED
:104FB00000F0EEFEA06594ED6C0B51EC100B00F0D0
:104FC000E7FEE06594ED6E0B51EC100B00F0E0FE97
:104FD000206694ED680B9FED161B51EC100B53EC03
:104FE000112B00F01FFFB0D231469FED130AF0EEF7
:104FF000400A23E000401CC63816002000401C4632
:10500000881900209A9999999999B93F0000000050
:105010000000F03FAE47E13D00007A43BC74933C92
:105020009CC420B07268913F0018002000008037B7
:10503000000000000070A740CDCCCC3E0846FBF736
:105040000EFA82E7D0ED030A90ED040A0021012256
:10505000F4EEC00A0223F1EE10FA12DD90ED051A0B
:10506000F4EEC10AF1EE10FA0BDDB4EEC10A0164F0
:10507000F1EE10FA02DBC0E911237047C0E91132EA
:105080007047B4EEE00AF1EE10FA12DD90ED051A69
:10509000B4EEC10AF1EE10FA0BDDF4EEC10A0264BF
:1050A000F1EE10FA02DBC0E911137047C0E91131CB
:1050B0007047F4EEC00A0364F1EE10FA02DBC0E9B7
:1050C00011127047C0E911217047002319469FED66
:1050D000FE0AC36400EB8102491C82ED000A82EDE6
:1050E000090A0329F6DB0121C0E91D13704730B519
:1050F00004461420A0650A202066002584F870501C
:105100002046FFF7E2FF656530BD70B52DED048BDD
:1051100086B06946FFF79EFD9FEDEC8B1FED3D9A33
:1051200000246E4603AD56F8240000EE100A05EB8D
:105130008400B8EEC00A20EE090A80ED000A20EED5
:10514000000A10EE100A00F042FE53EC182B00F09B
:1051500044FC41EC180B641C032CE4DBB0EE480A61
:10516000F0EE680A05F048F9DA4EB0EE408AF0EE4B
:10517000608A002455F8240000F029FE53EC182B17
:1051800000F04FFD00F066FE00EE100A06EB840012
:1051900000F58060641CD0ED0C0A032C30EE200A70
:1051A00080ED0C0AE6DBD6F88404401CC6F88404C3
:1051B0000120C6F8AC0406B0BDEC048B70BD70B520
:1051C00005462DED028B86B004AA03A9684608F0B7
:1051D00023FA9FEDBE8B00246E4606EB840090ED13
:1051E000000A20EE000A10EE100A00F0F0FD53EC69
:1051F000182B00F0F2FB41EC180B641C032CECDBC9
:10520000B0EE480AF0EE680A05F0F6F8B0EE408A13
:10521000F0EE608A002456F8240000F0D8FD53EC2C
:10522000182B00F0FEFC00F015FE00EE100A05EB56
:105230008400641CD0ED000A032C30EE200A80EDBF
:10524000000AE8DB686D401C68650120E86706B06D
:10525000BDEC028B70BDF0B504460021F7EE001ADC
:105260009FED992A94ED140A04EB8100B8EEC01A60
:10527000D0ED000A80EE810AB5EEC00AF1EE10FA18
:1052800002DBB0EE401A01E0B1EE401AD0ED060AA2
:10529000F5EEC00AF1EE10FA01DAF1EE600A71EEF5
:1052A000600AC0ED0C0A80ED060A94ED0F1AD0EDED
:1052B000092A71EE610A00EEA20AC0EE010AC0EDF1
:1052C000090AF5EEC00AF1EE10FA01DAF1EE600A11
:1052D000C0ED030A491C80ED002A0329C2DB2046E9
:1052E000FFF7B0FEE06CB0F57A7F01DA401CE064B5
:1052F00094F8707000210526042303250122206CF8
:10530000062F09D2DFE807F00309102B5237626736
:10531000A267E16484F87020F0BDE06F0128FBD142
:10532000022084F870000DE004EB8000D4ED190A2F
:1053300090ED030AB4EEE00AF1EE10FA04DB84F813
:10534000703031E0A167F0BDD4ED1A0AB4EEE00A86
:10535000F1EE10FA22D934E06267A267F0BD04EBE7
:105360008000D4ED190A90ED030AB4EEE00AF1EEE4
:1053700010FAE4DAF0BD04EB8000D4ED1A0A90EDE7
:10538000030AB4EEE00AF1EE10FA07D9006B524EB0
:10539000B04206D9216EE06C8842EBDB84F8705095
:1053A000DAE784F87030E1646167CBE704EB8000F2
:1053B000D4ED1B0A90ED030AB4EEE00AF1EE10FA08
:1053C000D8D884F87060E164C6E710B5044600EEF2
:1053D000104AB8EEC00ADFED410A20EE200A9FED28
:1053E000401AC0EE010AB6EE000A20EE800A10EE66
:1053F000100A00F0ECFC41EC100B04F029FC9FEDCE
:10540000391B51EC100B53EC112B00F095FB00F005
:10541000BFFC01462F48C0E9204110BD2DE9F04FE7
:1054200000242DED028B91B005460494059406945A
:10543000C06E44F62061274E884206DBD6F8801005
:10544000884210D0FFF7C1FF0DE0D6F84823104482
:10545000C6F8480388427DDBE96E814201D0FFF740
:10546000B4FFC6F84843286BC6F8B0042846FFF7D7
:105470004CFE06F5906003C8814204DB1B48FFF731
:10548000EAFEC6F88444D6F8A804012802D12846CA
:10549000FFF703FCD6F8A40401285BD104A808F0A8
:1054A00041F89DED040ADDED050A20EE000A00EE4C
:1054B000A00ADDED060A00EEA00A04F0DAFF86ED90
:1054C000030ADFED0B0A15E00000000000000000F9
:1054D0000000000038160020CDCC4CBD368D274092
:1054E00000247449000000000000D041681A002028
:1054F0000000804620EE200AC149A146ADF82040B8
:10550000BDEEC00A099110EE100AADF81C00ADF80E
:105510001E4007A8FDF7A0FA684608F043F8316F6F
:10552000009808F052F90446716F019808F04DF99F
:105530000444B16F029808F048F90444F16F0398ED
:1055400008F043F904EB00089DE80F0000240DF17A
:10555000340A00E0A2E006F170079FEDAA8A87E80E
:105560000F000DF1280B05EB4407A96E37F8480F23
:10557000000408F02AF900EE100A4AF8240006EBAD
:105580008400B8EEC00A20EE080A80ED050A3888CB
:1055900001044BF82410641CE4B2032CE3D39848B4
:1055A0000AA9E8380446FBF72AF83168D6F8280338
:1055B000884273DB95ED390AD6ED360AB8EEC00A9B
:1055C000F5EEC00A20EE080AF1EE10FA05D070EEF2
:1055D000600AF0EEE00AC6ED370A86ED360AB068DA
:1055E000062818D2DFE800F0030303030D249FED23
:1055F000860AC82086ED0E0AB7EE000A86ED0F0A6D
:1056000008E09FED820A86ED0E0A9FED810A642074
:1056100086ED0F0A3064288EC005099812D4FDF774
:105620002AF900F06DFB00EE100A5FED530A11E05D
:105630009FED780A86ED0E0A9FED770A322086EDFF
:105640000F0AE7E7FDF771F800F05AFB00EE100AC9
:10565000DFED720A982180EE201A86ED041A09986F
:1056600000F09CF9D6F88410414543DA96ED040A1F
:10567000B5EEC00AF1EE10FA3CDDD6ED0E0AB4EE3E
:10568000E00AF1EE10FA35D2316C7068884206DA21
:105690002846FFF751FC002859D00CE056E060493D
:1056A000D6F8B000884206DB2846FFF745FC002804
:1056B0004DD0C6F80490002006EB8001401C91ED0F
:1056C000050AC0B281ED2D0A0328F5D3FFF7A5FA2C
:1056D000002006EB8001401C91ED080AD1ED0B0A79
:1056E000C0B2032830EE600A81ED330AF1D34D4891
:1056F000FFF783FB002006EB8001401C91ED260A9A
:10570000D1ED050AC0B2032830EE600AB0EEC00A3F
:1057100081ED290AEFD396ED290AD6ED2A0A002059
:1057200030EE200AD6ED2B0A30EE200A86ED2C0A48
:1057300006EB8001401C91ED050AC0B281ED260AFE
:105740000328F5D3E821204600F028F9002011B005
:10575000BDEC028B00F072B810B54FF4976132487F
:1057600000F01CF9304C0A20206040072067FFF74A
:1057700043FA04F58660FFF7BAFC2068C4F8800499
:105780009FED2A0A04F580601E2180ED1B0A9FED23
:10579000280AC4F88C1480ED260A9FED260A80EDB5
:1057A000250A9FED250A80ED270A1920FDF704FC44
:1057B000002010BD012240F25231AFF29F3008F0BC
:1057C00047BAAFF2A73008F0A1BC10B5FFF7C4FF8D
:1057D000002805D1AFF22300BDE8104008F0C0BAA0
:1057E00010BD10B5AFF2CB3008F090FCAFF23B002B
:1057F000BDE8104008F0B0BC0B488068704700005E
:10580000E8180020000080370080BB440000964369
:105810009A99993F000070423333B33F0050C34719
:10582000CDCC4C3DE017002038160020000000428F
:10583000CDCCCC3ECDCC4C3F3333333F30BCBDE838
:10584000C08F2DE9F05F0546002092469B468846B2
:105850000646814640241BE02846414647462246EC
:1058600000F02AFB53465A46C01A914110D3114604
:105870001846224600F04AF82D1A67EB01084F46F9
:1058800022460120002100F041F817EB00094E41AB
:10589000201EA4F10104DFDC484631462A46434677
:1058A00000F000B830BCBDE8C09F2DE9F0410024F5
:1058B000061B254671F1000605DA01240027D0EB0E
:1058C000070067EB0101161E73F1000605DA0027D9
:1058D000D2EB0702012567EB0303FFF7B2FF864611
:1058E0000E4617469C46AC4204D00025D0EB050E70
:1058F00065EB010624B10020D2EB000760EB030C3E
:10590000704631463A466346BDE8F081202A04DB02
:10591000203A00FA02F1002070479140C2F12003C2
:1059200020FA03F3194390407047202A06DBCB1777
:10593000203A41FA02F043EAE07306E041FA02F34A
:10594000D040C2F12002914008431946704710B57B
:10595000431A934209D28318881803E010F8011DF6
:1059600003F8011D521EF9D210BD40EA01039B0746
:1059700003D009E008C9121F08C0042AFAD203E0C4
:1059800011F8013B00F8013B521EF9D210BDD2B212
:1059900001E000F8012B491EFBD270470022F6E718
:1059A00010B513460A4604461946FFF7F0FF204695
:1059B00010BD421C10F8011B0029FBD1801A704752
:1059C00030B504460020034600E05B1C934203D23E
:1059D000E05CCD5C401BF8D030BD2DE9FE4F804629
:1059E00081EA0300C00F0C46009021F0004123F033
:1059F0000045B8EB0200A94105D240462146904639
:105A00001C460B46024623F00040104347D0270DAA
:105A1000C7F30A00C3F30A510290401A01904028CC
:105A20006BDAC3F3130040F4801B0098924620B158
:105A30000023D2EB030A63EB0B0B01985946C0F12C
:105A400040025046FFF762FF06460D465046594653
:105A5000019AFFF76AFF10EB08006141002487EA12
:105A6000115284EAE7731A4340D0009A62B3019A54
:105A7000012A4FEA075215DC001B61EB02014FF0CF
:105A8000004202EA0752CDE90042001C41F58011B4
:105A900032462B4600F066FA03B000F045B84046A7
:105AA0002146F9E7001B61EB0201001C41F5801360
:105AB00000185B412018A2F5001747EB030140EAEC
:105AC000D570B6196D4111E06D084FEA360645EA0A
:105AD000C0754FEA0752001B61EB0201001C41F543
