:020000040800F2
:10000000980A00209D0100086F2800087D2500083F
:100010006D2800082903000889320008000000004C
:10002000000000000000000000000000372C000865
:10003000450300080000000091280008392C000842
:10004000B7010008B7010008B7010008B7010008B0
:10005000B7010008B7010008B7010008B7010008A0
:10006000B7010008B7010008B70100082D03000818
:10007000B7010008B7010008B7010008B701000880
:10008000B7010008B70100081D030008B701000808
:10009000B7010008B7010008B7010008B701000860
:1000A000B7010008B7010008B7010008B701000850
:1000B000B7010008B7010008B7010008B701000840
:1000C000B7010008B7010008B70100080D2C0008AF
:1000D000192C0008B7010008713200087D320008B1
:1000E000B7010008B7010008B7010008B701000810
:1000F000B7010008B7010008B7010008B701000800
:10010000B7010008B7010008B7010008B7010008EF
:10011000312D0008B7010008B7010008B701000839
:10012000B7010008B7010008B7010008B7010008CF
:1001300039030008B7010008B7010008B70100083B
:10014000B7010008B7010008B7010008B7010008AF
:10015000B7010008B7010008B70100081529000819
:10016000B7010008B7010008B7010008B70100088F
:10017000B7010008B7010008B7010008000000003F
:10018000B7010008B7010008DFF80CD000F096F8BE
:1001900000480047B1350008980A0020064880470B
:1001A00006480047FEE7FEE7FEE7FEE7FEE7FEE75C
:1001B000FEE7FEE7FEE7FEE7ED2C000889010008F8
:1001C0002DE9F05F0546002092469B46884606468C
:1001D000814640241BE0284641464746224600F01F
:1001E0005DF853465A46C01A914110D3114618463D
:1001F000224600F044F82D1A67EB01084F462246CC
:100200000120002100F03BF817EB00094E41201EB1
:10021000A4F10104DFDC484631462A46434600F09B
:1002200000B830BCBDE8C09F40EA01039B0703D083
:1002300009E008C9121F08C0042AFAD203E011F825
:10024000013B00F8013B521EF9D27047D2B201E0E7
:1002500000F8012B491EFBD270470022F6E710B5CB
:1002600013460A4604461946FFF7F0FF204610BD24
:10027000421C10F8011B0029FBD1801A7047202A6C
:1002800004DB203A00FA02F1002070479140C2F1ED
:10029000200320FA03F3194390407047202A04DB1F
:1002A000203A21FA02F00021704721FA02F3D040EF
:1002B000C2F120029140084319467047064C074D91
:1002C00006E0E06840F0010394E807009847103426
:1002D000AC42F6D3FFF75CFF84380008A43800086E
:1002E00030B58C1810F8012B12F00F0301D110F863
:1002F000013B120906D110F8012B03E010F8015B55
:1003000001F8015B5B1EF9D101E001F8013B521ECF
:10031000FBD1A142E6D3002030BD0000014800F02F
:100320000DB900003C010020FEE70000014800F08C
:10033000FFBA0000A4010020014800F0F9BA000053
:100340004C0600207047000010B50F4C01228021A0
:10035000204600F098FCC82000F09EFB002280217F
:10036000204600F090FC4FF4967000F095FB00F0F2
:10037000A5F8C82000F090FB20460122BDE81040FF
:10038000802100F080BC0000000800482DE9F04109
:1003900037494FF4967632233246A1F5F07001F0DA
:1003A000E5FF334D0024295D4F2903D041B13029A9
:1003B00011D01AE0281940784B2816D12DA007E05B
:1003C000281942788AB982787AB9C07868B92BA09E
:1003D00002F05CFF0FE028194278302A05D18278BC
:1003E000302A02D1C078302805D027A002F04EFF75
:1003F000641CB442D7D325A002F048FF0024285D36
:100400003A2826D1281910F8011C432921D110F8C7
:10041000020C4F281DD10027641C18E0295D31B95A
:10042000281942781AB982780AB9C07820B11848D8
:100430004F29C15502D005E010A016E028194078D8
:100440004B2811D010A002F021FF641C7F1CB44285
:10045000E4D3641CB442D2D3002001462954401C8A
:10046000B042FBD3BDE8F0810AA002F00FFFF0E735
:10047000200500204F4B0D0A000000000A2A2A2AFE
:100480002A2A2A20090D0A00256300000D0A00000F
:1004900003000020475053CAFDBEDD0A00000000E3
:1004A00010B50446FFF7E4FE214682B2BDE81040D5
:1004B0003223014801F0CFBF4003002000B589B0CE
:1004C00020220BA16846FFF7AFFE1D2269461048A7
:1004D00002F01AF818B1DE210EA002F0D6FE124882
:1004E00001780129FCD10021017009B000BD000094
:1004F00041542B515552434346473D227572637018
:100500006F7274222C227561727431220D0A000000
:10051000400300202E2E5C5372635C454332305CF6
:10052000454332302E6300000100002070477047C1
:100530007047704770477047704700002DE9F041E1
:100540000446006806684568B0070ED5A8070CD5B4
:10055000A06DC00603D4A06D40F40060A0652046E5
:10056000FFF7E4FF216802200860DFF84C82934F18
:10057000700701D5680703D430073AD5280738D566
:10058000A06DC00603D4A06D40F40070A065216882
:10059000C86810F4406F26D1B9425CD041455AD0AA
:1005A000D7F80803C00656D0D7F8080300F01F009C
:1005B000052850D0D7F80823384602F01F02092A30
:1005C00049D0C06880040ED4086800070BD50846DF
:1005D00001F0D5FFF0B3A06D40F01000A065E06D14
:1005E00040F00100E0652046FFF7A5FF21680C20E0
:1005F0000860B00601D5A80603D4700659D5680670
:1006000057D5A06DC00603D4A06D40F40050A0657E
:100610002068B84232D0404530D0D7F80813C90618
:100620002CD0D7F8081301F01F01062926D0D7F8DF
:100630000823394602F01F02072A1FD0C968C26C7E
:1006400012F0C00F1ED08A012DD4C26812F4406F80
:1006500016D028E001E0C868B4E72068416821F0BE
:100660000C014160A06D20F48070A065A06DC004F5
:10067000B9D4A06D40F00100A065B4E7C168DEE721
:100680008A0410D4026852060DD589020BD4816801
:10069000C1F3C001F1B3A06D40F01000A065E06DA2
:1006A00040F00100E0652046FFF741FF216860202F
:1006B000086030060BD5280609D5A06D40F48030BF
:1006C000A065204600F07EF8216880200860F005D3
:1006D0000CD5E8050AD5A06D40F40030A065204691
:1006E000FFF727FF21684FF480700860B0050CD534
:1006F000A8050AD5A06D40F48020A0652046FFF72C
:1007000019FF21684FF400700860F0063DD5E80637
:100710003BD500E018E0A06B48B32068B84202D097
:100720002749884220D1D7F80813C9061CD0D7F82A
:100730000803C0F38130022819D0D7F80803C0F3AA
:100740008130032813D01DE0416821F06001416031
:10075000A06D20F48050A065A06DC005A3D4A06D4D
:1007600040F00100A0659EE7C068C0070AD0A06DF8
:1007700040F48060A065E06D40F00200E065204636
:10078000FFF7DAFE216810200860700512D56805B1
:1007900010D5A06D40F48040A065E06D40F00800E9
:1007A000E06521684FF4806008602046BDE8F041B4
:1007B000FFF7BEBEBDE8F081000204500000045007
:1007C000000104507047000030B51F235FF00105A1
:1007D00005FA03F40C4201D15B1EF9D27AB1082A62
:1007E00009D0102A04D0182A07D1072B05D206E019
:1007F000082B02D203E0102B01D3012030BD036887
:1008000059610068816821F018011143816000205E
:1008100030BD000010B5040010D0607F20B900206A
:100820002077204600F030F802206077207938B138
:10083000D4E902122046FFF7C7FF48B1012010BDDE
:100840002168104848612068816821F018018160A2
:100850006079A0B1206921680861206881686269B7
:1008600021F060011143816020688168A26921F054
:1008700080011143816001206077002010BD4FF09E
:10088000FF30E8E7B71DC10408B500680649884293
:1008900008D10648816C41F480518164806C00F479
:1008A0008050009008BD000000300240001002405F
:1008B000B8B101680A6822F00E020A6001680A688D
:1008C00022F001020A6090F84420036C012101FA31
:1008D00002F25A6080F82510002180F824100846A2
:1008E00070470120704710B590F8251000240229A8
:1008F00003D00421C163012418E001680A6822F0D2
:100900000E020A6001680A6822F001020A6090F88B
:100910004420036C012101FA02F25A6080F825108C
:10092000002180F82410816B01B18847204610BD5A
:10093000F0B4016C0D6801680C68466C042202FA80
:1009400006F32B420FD063070DD50B689B0603D42B
:100950000B6823F004030B6090F844108A40016C8C
:100960004A60016B1BE0022303FA06F72F424FF0A7
:10097000000C4FF0010216D0A70714D50C68A4068E
:1009800005D40C6824F00A040C6080F8252090F847
:1009900044108B40016C4B6080F824C0C16A002970
:1009A00018D0F0BC08470823B3402B4212D02307CD
:1009B00010D50B6823F00E030B6090F84410036C05
:1009C00002FA01F15960C26380F8252080F824C042
:1009D000416BE4E7F0BC704770B568B12B4C03681D
:1009E00014222B49A34209D22A4C1C44B4FBF2F234
:1009F0009200C0E910120BE0012070BD234C64424C
:100A00001C44B4FBF2F292004264204A083A0264A9
:100A1000022280F825201C6847F6F0729443D0E942
:100A200002252A43D0E9045635432A4385692A43DF
:100A3000C5692A43056A2A4322431A608268B2F5CF
:100A4000804F15D0036C0F228B4202D151F8A83F82
:100A500002E00E49A0310B6890F84440A240934355
:100A60000B6090F8443042689A400B681A430A6061
:100A70000021C162016341638163C163012280F887
:100A8000252080F82410084670BD000008040240AC
:100A900000000240F8FFFDBF70B5044600F0F8F812
:100AA0000546601C00D0641C00F0F2F8401BA04218
:100AB000FAD370BD2DE9F84FDFF898B100234FF05D
:100AC000010C4FF0030A4FF00F090BF1040EB9E0CF
:100AD0000CFA03F4224070D04D68022D01D0122D83
:100AE0000ED1DD0800EB8508D8F820505E07F70E20
:100AF00009FA07F6B5430E69BE402E43C8F82060D8
:100B000007685E0091F804800AFA06F508F0030809
:100B1000AF4308FA06F848EA0708C0F800804F68B3
:100B2000012F05D0022F03D0112F01D0122F13D186
:100B3000D0F80880CF6828EA0508B74047EA0807D8
:100B40008760D0F804800F7928EA0408C7F30017FB
:100B50009F4047EA08074760D1F804806FEA08071A
:100B6000BF0706D1C76AA743C8F3C0049C403C43F3
:100B7000C462C468AC438D68B5402543C5604C6809
:100B8000E4005ED5344C256E45F001052566246EE3
:100B900023F0030504F001040094304C2E19B468CE
:100BA0009D072F0F09FA07F5AC43B0F1904F05D020
:100BB0002B4DA84204D101251CE042E0002519E09C
:100BC000284DA84201D1022514E0274DA84201D1A9
:100BD00003250FE0254DA84201D104250AE0244D4C
:100BE000A84201D1052505E0224DA84201D10625E4
:100BF00000E00725BD402543B560DBF800405D46B9
:100C00004E689443F60300D514432C60DEF8004090
:100C100075464E689443B60300D514432C600D4DC1
:100C200008352C684E689443F60200D514432C60B6
:100C3000084D0C352C684E689443B60200D5144319
:100C40002C605B1C0A6832FA03F57FF441AF00F0B8
:100C500013B80000000401400010024000000140F1
:100C60000004004800080048000C0048001000483C
:100C7000001400480018004818BCBDE8E08F426925
:100C80004A40426170470AB1816170478162704792
:100C900001480068704700003001002002480168E8
:100CA000491C0160704700003001002010B503208E
:100CB00000F088F8002000F005F800F017F8002098
:100CC00010BD000010B5044607484FF47A71006863
:100CD000B0FBF1F001F079F900222146501E00F03E
:100CE00051F8002010BD0000340100201E4808B556
:100CF000016E41F001010166016E01F001010091F8
:100D0000816D41F080518165806D00F080500090D0
:100D1000032000F057F8002211466FF00B0000F09E
:100D200031F8002211466FF00A0000F02BF8002283
:100D300011466FF0090000F025F800221146501FFF
:100D400000F020F800221146101F00F01BF80022CE
:100D50001146901E00F016F80022BDE8084011462A
:100D6000501E00F00FB800000010024000F01F02FB
:100D7000012191404009800000F1E020C0F80011FD
:100D800070470000F0B40E4B1B680C46C3F30223FF
:100D9000C3F10705042D00D90425191D072901D227
:100DA000002300E0DB1E012606FA05F1491E214062
:100DB00099409E40761E16403143F0BC01F058BD6C
:100DC0000CED00E0064900F0070208684FF6FF034B
:100DD000184040EA0220034A1043086070470000B0
:100DE0000CED00E00000FA051549B0F5007F086839
:100DF000C0F3412009D0022805D0086820F4C06063
:100E000040F480600860002070470128FBD008682B
:100E100020F4C06040F4007008600A480A4A006884
:100E2000B0FBF2F03222504300E0401E10B14A699C
:100E30005205FAD448694005E5D503207047000003
:100E4000007000403401002040420F000248416819
:100E500041F4007141607047007000400248006832
:100E600000F4C06070470000007000407047000050
:100E700010B590F839100024890725D5002180F895
:100E80003810082180F8391001680A6822F4F81235
:100E90000A6001680A6852070AD50A6822F004024B
:100EA0000A60426B09499163406BFFF71CFD0BE040
:100EB0000222CA6001680A6842F400320A600068CF
:100EC000016841F002010160204610BD932800082E
:100ED000704770477047000070B50446006881682D
:100EE00002684B0732D5530330D594F839102030BF
:100EF00012290ED094F83910222919D01CE0616A09
:100F0000F1B1E1694A1CE26109780170616A491E28
:100F10006162216889684907F1D40DE0216B79B1DC
:100F20000378A16A4A1CA2620B70216B491E2163DF
:100F3000216889684907F1D42046FFF7CBFF70BDCF
:100F40002068016821F480210160F5E78B074FF0EC
:100F500001056DD593036BD50221C160206801683E
:100F600021F4E021016094F83900122810D094F89F
:100F70003900222823D094F8390002284AD094F866
:100F800039000828DBD184F83950E06BF0B34BE02E
:100F900020680168490709D5016821F00401016052
:100FA000606B0068016821F0010101602046FFF7D5
:100FB0005FFF84F83950204600F00BF970BD2068BF
:100FC000016849070AD5016821F004010160606BDE
:100FD0000068016821F00101016010E0203009E0A3
:100FE000216B61B10378A16A4A1CA2620B70216B6C
:100FF000491E21632168896811F4F85FF0D1204609
:10100000FFF736FF84F83950204600E008E000F092
:10101000DDF870BD84F839502046FFF759FF70BDE8
:101020002046FFF723FF70BD2046FFF752FF70BD3B
:101030000B0711D513030FD50821C1602068016883
:10104000490205D5016821F41021016084F8395066
:10105000204600F0BCF870BDCB071ED0D3031CD5D2
:10106000C5602068016821F470210160E06B40F0E8
:101070000200E0632068016849070BD5016821F090
:1010800004010160616B0A488863606BBDE87040D1
:10109000FFF729BC84F83950C6E7C906DBD5D10271
:1010A000D9D51021C160204600F092F870BD000033
:1010B00093280008F8B50446FFF7EAFD06465CB140
:1010C00094F83800012809D0012784F8387094F882
:1010D0003900002520B10BE00120F8BD0220F8BD49
:1010E00084F83850204600F03DF841F28830206402
:1010F00020680168A2686FF0FF0321F4706103EBC0
:10110000022211430160206C00903346002220210E
:10111000204601F0DBFBE8B921680A680F4B1A4052
:10112000237942EA0362E3681A430A60D4E90512AC
:101130001143226853680A4E3340268A43EA064325
:101140001943516021680A6842F001020A60E563B0
:1011500084F8397084F83850F8BD0000EFFFFF00C4
:10116000FEF8E0FFF0B50068154987B0884224D149
:101170001448016D41F480710165006D022400F492
:101180008070059040F60340002503260A278DE86D
:10119000F10069460C48FFF78DFCC0208DE8F10096
:1011A00069464FF09040FFF785FC00220F21472051
:1011B000FFF7E8FD4720FFF7D9FD07B0F0BD0000BD
:1011C000001000A000100240000400487047704763
:1011D000704770472DE9F84F044600270088E54D19
:1011E0003E46010504F1200B1DD5606E78B1B0F5C7
:1011F000800F11D0B0F5000F04D0B0F5400F22D011
:1012000001270FE0E86840F48030E8601BE000212F
:10121000201D01F085FB03E00021584601F016FC7B
:10122000070010D03E462088C00426D5A06EC0B16D
:10123000B0F1807F1AD0B0F1007F0DD0B0F1407FC7
:1012400019D0012718E0D5F88800616E20F440001D
:101250000843C5F88800E6E7E86840F48030E860B5
:1012600009E00021201D01F05BFB03E0002158464E
:1012700001F0ECFB0746F7B13E46206880033AD503
:10128000A86D4FF00008C00009D4A86D40F0805050
:10129000A865A86D4FF0010800F080500090DFF8BD
:1012A000D8A2DAF8001041F48071CAF80010FFF7F4
:1012B000EFFC814610E0D5F88800A16E20F0407068
:1012C0000843C5F88800D8E7FFF7E2FCA0EB090067
:1012D000022801D9032705E0DAF80000C005F3D59C
:1012E000002F7CD04FEA0706B8F1000F03D0A86D9D
:1012F00020F08050A8652078C00707D0D5F8880076
:10130000A16B20F003000843C5F88800207880070F
:1013100007D5D5F88800E16B20F00C000843C5F82C
:1013200088002078400707D5D5F88800216C20F088
:1013300030000843C5F888002078000707D5D5F8A5
:101340008800616C20F0C0000843C5F88800207850
:10135000C00607D5D5F88800A16C20F4407008437A
:10136000C5F888002078800607D5D5F88800E16C9C
:1013700020F440600843C5F888002088800507D520
:10138000D5F88800E16D20F440200843C5F88800B6
:101390002088400507D5D5F88800216E20F440103C
:1013A0000843C5F888002078400607D5D5F888009E
:1013B000216D20F440500843C5F8880020780006CD
:1013C00007D5D5F88800616D20F440400843C5F882
:1013D00088002088C00509D5D5F8880000E01CE009
:1013E000A16D20F440300843C5F8880020884FF0F4
:1013F000006780044FF080684FD5D5F88800E16E13
:1014000020F040600843C5F88800E06EB8423CD147
:10141000E86840F48010E8603FE0D5F8900010F4F0
:10142000407015D0D4F88410814211D0D5F89000C6
:10143000D5F8901020F4407041F48031C5F8901038
:10144000D5F8901021F48031C5F89010C5F89000BF
:10145000C00710D0FFF71CFC074641F2883906E0B0
:10146000FFF716FCC11B494501D903263CE7D5F817
:1014700090008007F4D5D5F89000D4F8841020F4BB
:1014800040700843C5F890002EE7404505D1012182
:10149000201D01F045FA00B106462068000317D56B
:1014A000D5F88800216F20F040600843C5F8880017
:1014B000206FB84204D1E86840F48010E86007E08B
:1014C000404505D10121201D01F02AFA00B1064650
:1014D0002068400317D5D5F88800616F20F0406080
:1014E0000843C5F88800606FB84204D1E86840F44A
:1014F0008010E86007E0404505D10121201D01F082
:101500000FFA00B10646208840041AD5D5F88800A5
:10151000A16F20F040500843C5F88800A06FB0F1DB
:10152000805F03D0B0F1005F05D00AE00221201DEA
:1015300001F0F6F903E00221584601F087FA00B104
:1015400006462088000407D5D5F88800E16F20F012
:1015500080400843C5F888002068C00307D555F8C7
:10156000880FD4F8801020F00040084328603046EF
:1015700000F004B8001002400070004018BCBDE844
:10158000E08F00002DE9F047DFF8608105460E4648
:10159000D8F8000000F00700B0420CD2D8F80010D4
:1015A00021F007013143C8F80010D8F8000000F01E
:1015B0000700B04275D128784D4CC00757D06868F5
:1015C000032818D0022819D02168D0B14905002974
:1015D00067DAA16821F003010143A160FFF758FB1E
:1015E0006968074641F28830032913D002291FD0C9
:1015F000814651B336E021688901E8E72168890313
:10160000E5E78907E3E700BFFFF742FBC11B494558
:1016100001D924E08146A068C0F381000328F3D1FA
:1016200025E000BFFFF734FBC11B494501D916E097
:101630008146A068C0F381000228F3D117E000BF03
:10164000FFF726FBC11B494509D8A06810F00C0F15
:10165000F6D10CE0FFF71CFBC11B494502D9032062
:10166000BDE8F087A068C0F381000128F2D1287896
:10167000800705D5A068A96820F0F0000843A060A5
:10168000D8F80010404601F00701B1420BD90168BB
:1016900021F0070131430160006800F00700B0420B
:1016A00001D00120DCE72878400705D5A068E9686B
:1016B00020F4E0600843A0602878000706D5A06801
:1016C000296920F4605040EAC100A06000F03CF8B5
:1016D000A168084AC1F30311515CC840064908607B
:1016E0000020FFF7EFFA0020BAE7000000200240D8
:1016F000001002403C380008340100200148006816
:1017000070470000340100200448054900688968DA
:10171000044AC1F30221515CC840704734010020E3
:10172000001002407C3800080448054900688968B8
:10173000044AC1F3C221515CC84070473401002003
:10174000001002407C38000830B52D4900231846AF
:101750008A682C4C12F00C0F4FEA640514D08A688A
:10176000C2F38102032A04D1CA6802F00302012AEB
:101770000AD08A68C2F38102012A19D08A68C2F3AA
:101780008102022A16D016E00A68120704D4D1F8A2
:101790009420C2F3032202E00A68C2F303121A4B38
:1017A00053F822308A6812F00C0F04D1184602E078
:1017B000204600E028468A68C2F38102032A1DD130
:1017C000C868CA6800F00300C2F30212521C022863
:1017D00004D0032805D0B3FBF2F004E0B4FBF2F030
:1017E00001E0B5FBF2F0CA68C968C2F306225043B3
:1017F000C1F34161491C4900B0FBF1F030BD00006C
:10180000001002400024F4004C3800082DE9F84391
:1018100004460078FE4DC0065DD5A86810F00C0F98
:101820000AD0A0690028286871D040F00100286023
:10183000FFF72EFA064654E02868800702D5A06913
:1018400000287DD0216A2868000703D5286800F0A9
:10185000F00004E0D5F89400F02202EA1010814272
:1018600016D9084601F076F9002869D1286840F0B9
:10187000080028602868216A20F0F00008432860EA
:101880006868E16920F47F4040EA0120686015E063
:10189000286840F0080028602868216A20F0F000DD
:1018A000084328606868E16920F47F4040EA01202D
:1018B0006860206A01F04EF90028D6D1FFF744FF96
:1018C000A968D44AC1F30311515CC840D2490860E9
:1018D0000020FFF7F7F929E0FFF7DAF9801B02286B
:1018E0007ED828688007F7D5286840F0080028606F
:1018F0002868216A20F0F000084328606868E169E0
:1019000020F47F4040EA012068600FE0FFE720F00C
:1019100001002860FFF7BCF9064604E0FFF7B8F9BC
:10192000801B0228DCD828688007F7D42078C007FD
:101930004AD0A868C0F3810002281FD0A86800E040
:1019400098E0C0F38100032803D1E868C043800712
:1019500014D06068B0F5803F17D0B0F5A02F28688C
:1019600017D020F480302860286820F48020286078
:101970006068E0B1FFF78CF9064614E02868800340
:1019800022D56068002875D01EE0286840F48030B9
:10199000EDE740F480202860F7E700BFFFF778F913
:1019A000801B64289CD828688003F7D50CE0FFF7DB
:1019B0006FF9064605E000BFFFF76AF9801B64284F
:1019C0008ED828688003F7D42078800742D5A8688D
:1019D000C0F38100012816D0A868C0F3810000E0A0
:1019E000A9E0032804D1E86800F0030002280AD027
:1019F000E068002828681DD040F480702860FFF758
:101A000047F906460BE0286840050BD5E06800283A
:101A1000B9D007E0FFF73CF9801B0228C2D828683C
:101A20004005F7D56868217C20F0F85040EA016055
:101A300068600FE020F480702860FFF729F90646FF
:101A400005E000BFFFF724F9801B022873D828683F
:101A50004005F7D42078000729D560690028D5F81B
:101A6000940013D040F00100C5F89400FFF710F97E
:101A7000064606E0FBE000BFFFF70AF9801B0228DC
:101A800059D8D5F894008007F6D510E020F0010071
:101A9000C5F89400FFF7FCF8064604E0FFF7F8F8F5
:101AA000801B022847D8D5F894008007F6D4207808
:101AB000400763D5A86D0026C00008D4A86D40F08B
:101AC0008050A865A86D012600F080500090534812
:101AD0000168C90511D40168804641F48071016034
:101AE000FFF7D6F8074604E0FFF7D2F8C01B02283C
:101AF00021D8D8F80000C005F6D5A068012815D077
:101B00000528D5F8900017D020F00100C5F8900006
:101B1000D5F8900020F00400C5F89000A06841F2CC
:101B20008838C8B1FFF7B4F8074610E0D5F8900040
:101B300040F00100F0E777E040F00400C5F89000C5
:101B4000F4E700BFFFF7A4F8C11B41456CD8D5F8F6
:101B500090008007F6D50CE0FFF79AF8074604E0FE
:101B6000FFF796F8C11B414579D8D5F8900080075A
:101B7000F6D41EB1A86D20F08050A865A06AE0B32D
:101B8000A968C1F38101032972D00228286820F0D6
:101B90008070286011D02868000106D42868800071
:101BA00003D4E86820F00300E860E8681C490840B6
:101BB000E860FFF76DF8044654E0FFF769F8064661
:101BC00005E000BFFFF764F8801B022847D82868AB
:101BD0008001F7D4206BE16A000110380843616B83
:101BE000A26B0902120941EA42410843A18F0D4A42
:101BF000490802EB4151084300E036E094F84010F8
:101C00004908120102EB41610843E86028680CE0D2
:101C1000001002403C3800083401002000700040F1
:101C2000FFFFEEFE0000E0FF19E040F0807028604A
:101C3000E86840F08070E860FFF72AF8044604E0A6
:101C4000FFF726F8001B022809D828688001F7D57D
:101C50000BE000BFFFF71CF8001B022802D903208D
:101C6000BDE8F88328688001F4D40020F8E7FFE796
:101C70000120F5E770B5040003D094F8210010B1FD
:101C800007E0012070BD002084F82000204600F00D
:101C90004DF8022084F821002168CA20486221689A
:101CA00053204862204600F093FFFF25042618BB0E
:101CB000206881681C4A11408160216888686268D8
:101CC000A369104322691A43104388602168E068C1
:101CD000086120680169228941EA024101612068A6
:101CE000C16821F08001C16020688068800608D446
:101CF000204600F02BF820B12068456284F821606E
:101D0000BFE72068C16C21F00301C1646169E0692B
:101D100008432168CA6C1043C864206845620120EA
:101D200084F82100002070BDBFFF8FFF00680549C7
:101D3000884205D1044850F8901F41F400410160E9
:101D400070470000002800400010024070B50446B3
:101D50000068C16821F0A001C160FEF799FF054647
:101D60004FF47A7607E000BFFEF792FF401BB042C7
:101D700001D9032070BD2068C0688006F4D500201A
:101D800070BD704738B504460068426881684B06EC
:101D900005D4CB0703D0530601D5E16C04E08B07D3
:101DA00007D5130605D5216D01B02046BDE83040AA
:101DB000084711F4B07F4AD0930648D54B060AD5A0
:101DC00094F85D30032B3FD0236E43F00403236669
:101DD000C368836800938B0609D5236E43F0010323
:101DE000236683680093036823F040030360C805FB
:101DF00006D5206E40F008002066206880680090BC
:101E0000206E002823D02068416821F0E001416065
:101E1000012084F85D00900701D4D00718D0206815
:101E2000416821F0030141600B4DA06D18B185633D
:101E3000A06DFEF758FD606D002808D08563606DC9
:101E4000BDE83840FEF74FBDC1688068009038BDDE
:101E50002046FFF796FF38BD252C00082DE9F041FC
:101E6000040005D00025A56294F85D0018B107E0D4
:101E70000120BDE8F08184F85C50204600F044F871
:101E8000022384F85D302068016821F04001016080
:101E9000E0684FF4E066B04201D9002101E04FF460
:101EA0008051B0F5706F02D0B04200D0A562276BB0
:101EB000012227B9B04201D9236300E02263D4E9AB
:101EC00001031843D4E9043633431843238B03F446
:101ED00000731843E3691843236A1843A36A18433D
:101EE00023681860636B606AA66918430427E36877
:101EF00007EA1646334318430843216848602566BD
:101F000084F85D200020B4E72DE9F041234A016800
:101F100000252348022403260527DFF8888086B0A1
:101F2000914215D1016E41F480510166006E6946FF
:101F300000F48050059038208DE8F1004046FEF70F
:101F4000B9FD00220D212320FEF71CFF23201FE0F6
:101F5000154A91421ED1816D41F480418165806DA9
:101F6000694600F48040059004208DE8F1000F4898
:101F7000FEF7A0FD4FF420408DE8F1006946404691
:101F8000FEF798FD00220E212420FEF7FBFE242000
:101F9000FEF7ECFE06B0BDE8F08100000030014025
:101FA00000100240000400480038004000080048CB
:101FB0004FF0E0210428086903D020F004000861F4
:101FC000704740F00400FAE7704710B5401EB0F1CA
:101FD000807F01D3012010BD4FF0E02460610F210C
:101FE000601700F045FC0020A06107202061002060
:101FF00010BD10B5FFF7E8FF10BD704710B50446DF
:1020000090F8710021280ED12068816809060AD550
:10201000816821F080018160A06E08B1FEF748FC64
:10202000204600F059FF94F8720022280ED1206853
:10203000816849060AD5816821F040018160E06E1F
:1020400008B1FEF735FC204600F036FF002010BD39
:10205000FEE700002DE9F04102680446D0691168EE
:10206000936810F00F0F4FF000055BD003F00106EE
:1020700001F49077374369D0C70707D0CF0505D55E
:1020800001271762626F42F001026267820708D57A
:10209000DA0706D0276802223A62626F42F0040231
:1020A0006267420708D5DA0706D0236804221A625D
:1020B000626F42F00202626702070AD501F0200255
:1020C000324306D0236808221A62626F42F0080287
:1020D0006267626F002A32D0800605D5880603D574
:1020E000216E09B120468847606F000703D420683D
:1020F0008068400625D5204600F0DEFE2068816815
:10210000490619D5816821F040018160E06E98B1DF
:1021100022498163E06EFEF7E6FB00280FD0E06EF7
:10212000816B06E0860611D58E060FD5216E23E061
:102130002046BDE8F04108472046FFF789FFBDE88B
:10214000F0812046FFF784FF6567F8E7C7024FF08C
:1021500020060CD55B020AD5F003106284F871608A
:1021600084F872602046BDE8F041FFF746BF0306E1
:1021700005D50B0603D5616E0029D9D1DFE74006EE
:10218000DDD54806DBD51168204621F040011160FD
:1021900084F87160656600F0EBF9D0E7A52E0008C1
:1021A00010B5040003D094F8710010B107E00120CD
:1021B00010BD002084F87000204600F027F824208D
:1021C00084F871002068016821F001010160204657
:1021D00000F08CFE0128EBD0606A10B1204600F0C0
:1021E000CFFD2068416821F49041416020688168FA
:1021F00021F02A0181602068016841F0010101603D
:102200002046BDE8104000F01FBE00002DE9F0415F
:102210000746454B0168002444480325022686B042
:102220004FF090424FF0800899422AD1816D41F4DD
:1022300000218165806D029400F400200590CDE9B5
:1022400000560820CDE9035069461046FEF732FCDF
:10225000384D37482860C5E90164C5E903486C6119
:10226000AC61EC6128462C62FEF7B6FB20B140F26F
:10227000BD1131A001F009F8FD66AF6206B0BDE8FE
:10228000F081344B0727994219D1016E41F4804106
:102290000166006E02AA00F4804005905815CDE951
:1022A000000682E8B00069462B48FEF703FC02AA4C
:1022B000694682E8B000CDE90086284831E0284B25
:1022C00099421AD1816D41F400318165806D02AB74
:1022D00000F4003005900C20CDE9000683E8B00042
:1022E00069461046FEF7E6FB002207212620FEF78E
:1022F00049FD2620FEF73AFDC0E71A4A9142BDD1BA
:10230000816D41F480218165806D02AA00F48020F6
:1023100005904FF44060CDE9000682E8B0006946C0
:102320001148FEF7C7FBA9E7004C0040001002402F
:10233000580402404C0600202E2E2F5372632F7338
:10234000746D33326C3478785F68616C5F6D737074
:102350002E630000003801400018004800040048C7
:102360000044004000480040000800482DE9F84FB4
:10237000044690F872009A4616460D46202865D10C
:10238000EDB1E6B194F8700001285FD0012084F827
:10239000700000276767222084F872005434FEF72B
:1023A00077FCA6808146E68054F84C0C4FF48058A8
:1023B000FF21543C404508D1206918B10DE00120AF
:1023C00000F046B840F2FF100DE07F2218B1B0F1E6
:1023D000805F05D009E0206950B9A4F85C1004E0E2
:1023E000206928B13F20A4F85C00B4F85C601CE0D0
:1023F000A4F85C20F9E74B46002220212046CDF8C6
:1024000000A000F002FF08B10320D9E7A068404512
:1024100001D12069A0B12068808C304005F8010B03
:10242000B4F85A00401EA4F85A00B4F85A00002824
:10243000E1D1202084F8720084F870700020BFE79A
:102440002068808C304025F8020BE9E70220B7E7CE
:1024500018BCBDE8E08F2DE9F843044690F8710000
:102460001F4616460D4620284BD1C5B1BEB194F883
:102470007000012845D0012084F870004FF000085A
:10248000C4F87480212084F87100FEF701FCA4F8E0
:1024900050608146A4F852604FF4805615E0012048
:1024A000BDE8F8838021204600F0AFFED8B9A068CF
:1024B000B04201D12069C0B115F8010B216808852F
:1024C000B4F85200401EA4F85200B4F852004B4633
:1024D0004FF0000200970028E4D14FF04001204661
:1024E00000F093FE30B10320DAE735F8020BC0F3B9
:1024F0000800E3E7202084F8710084F87080002051
:10250000CEE70220CCE7000090F87130202B29D1D3
:10251000B9B1B2B190F87030012B23D0012380F80B
:102520007030C164A0F85020A0F85220002141660C
:102530004167212280F871208268B2F5805F02D065
:1025400003E001207047026952B1074A426680F8F1
:1025500070100068016841F0800101600020704740
:10256000024AF3E702207047CF3100088D3100089E
:10257000014901204870704700000020FEE7806894
:10258000C0F38000704700002DE9F04F514C87B038
:10259000E06C40F00100E064E06C00F001000590A8
:1025A000E06C40F04000E064E06C00F0400005901A
:1025B000FEF74CFCE06C40F00200E064E06C00F0E0
:1025C00002000590E06C40F00400E064E06C00F074
:1025D00004000590E06C40F08000E064E06C0122B3
:1025E00000F08000059040213B48FEF74CFB4FF483
:1025F00080684FF0904A002241465046FEF743FB68
:10260000DFF8D8B000224FF460715846FEF73BFB6C
:102610000122160231465046FEF735FB44F204090A
:10262000002249462C48FEF72EFB0122082158467D
:10263000FEF729FBF001002401258DE831006946F1
:102640005046FEF737FA4027CDE90075CDE9025430
:1026500069462148FEF72EFACDF80080CDE90154F5
:10266000694650460394FEF725FA4FF42270CDE9EF
:102670000005CDE9025469465846FEF71BFACDE93C
:102680000065CDE9025469465046FEF713FA0096FC
:10269000CDE90154694658460394FEF70BFACDE99B
:1026A0000074694658460294FEF704FACDF800908B
:1026B000CDE90154694608480394FEF7FBF9280365
:1026C000CDE90004694604480294FEF7F3F907B027
:1026D00000F006B80010024000040048000800485E
:1026E00030BCBDE8C08F0000114810B50F49016033
:1026F0004FF48271416000214FF4E062C0E90212A0
:102700000222026101224261520282610822C0E972
:10271000072107224162C0E90A1201634163FFF702
:102720009DFB002800D0FEE710BD000000300140F6
:1027300078020020114810B50F4901604FF48271F2
:10274000416000214FF4E062C0E9021202220261FE
:1027500001224261520282610822C0E90721072258
:102760004162C0E90A1201634163FFF777FB002869
:1027700000D0FEE710BD000000380040DC02002061
:102780000F4810B50D4901604FF4E131416000215F
:1027900081600C22C160C0E904128161C1610162E3
:1027A000302141624FF4805181634900C163FFF7DA
:1027B000F7FC002800D0FEE710BD0000004C0040F0
:1027C000400300200C4810B50A4901604FF4E13184
:1027D0004160002181600C22C160C0E90412816166
:1027E000C16101624162FFF7DBFC002800D0FEE717
:1027F00010BD000000380140B80300200C4810B59F
:102800000A4901604FF4E1314160002181600C22EE
:10281000C160C0E904128161C16101624162FFF7D8
:10282000BFFC002800D0FEE710BD000000440040BF
:10283000300400200C4810B50A4901604FF4E13122
:102840004160002181600C22C160C0E904128161F5
:10285000C16101624162FFF7A3FC002800D0FEE7DE
:1028600010BD000000480040A8040020FEE77047AB
:102870000907090E002806DA00F00F0000F1E02039
:1028800080F8141D704700F1E02080F800147047B4
:10289000704710B5806A00210163416290F83910D9
:1028A000082905D0012180F83910FEF712FB10BD70
:1028B00002680221D16001680A6842F400320A60AD
:1028C0000068016841F00201016010BD2DE9F0418E
:1028D000984616460F460446069D12E0681C10D026
:1028E0002DB1FEF7D5F9A0EB0800A84209D90420C4
:1028F00084F83900E06B40F00100E0630120BDE89E
:10290000F08120688068384000D00120B042E5D1D5
:102910000020F4E70148FEF7DFBA000010020020B3
:102920002DE9F041444C05468846E06800268107C1
:1029300028680DD0E16801F00301814216D1A8B1E9
:10294000E0686968C0F30210401C88420ED120E0A4
:10295000012804D0022805D0032807D108E0216807
:10296000890701E021684905002907DB01265FE0AE
:102970002168890302D421684903F5E7E1686A68A0
:102980006FF00F0321F0730103EB021211430143B7
:10299000E160206820F080602060FEF779F907464A
:1029A00005E000BFFEF774F9C01B022837D8206885
:1029B0000001F7D4B8F1000F18D0B8F1010F1ED004
:1029C000287D4FF07E41400801EB4060A96840EA55
:1029D00001202169194A114008432061206840F014
:1029E00080602060FEF754F907461AE0A868E9689D
:1029F0000002090940EA41402169114AEBE7288AAF
:102A00001049400801EB4050A96840EA01202169C3
:102A10000D4AE0E7FEF73CF9C01B022801D9032666
:102A200006E020680001F5D52069A9690843206106
:102A30003046BDE8F081000000100240FF80FFF941
:102A4000FF80FDFF0000E0FFFF809FFF2DE9F041C8
:102A50003D4C06468846E0680025810730680DD069
:102A6000E16801F00301814216D1A8B1E068716804
:102A7000C0F30210401C88420ED120E0012804D08F
:102A8000022805D0032807D108E02168890701E062
:102A900021684905002907DB012551E021688903E8
:102AA00002D421684903F5E7E16872686FF00F030B
:102AB00021F0730103EB021211430143E16020682E
:102AC00020F080502060FEF7E3F8074605E000BFE5
:102AD000FEF7DEF8C01B022829D820688000F7D452
:102AE000B8F1000F15D0307C4FF07E41400801EB6B
:102AF0004060B16840EA01206169144A114008430E
:102B00006061206840F080502060FEF7C1F8074601
:102B10000FE0B068F1680002090940EA41406169CC
:102B20000B4AEBE7FEF7B4F8C01B022801D90325D6
:102B300006E020688000F5D560697169084360612E
:102B40002846BDE8F081000000100240FF80FFF938
:102B5000FF80FDFFF8B51C4D06460024A86DC0009F
:102B600002D5FEF77BF90DE0A86D40F08050A86516
:102B7000A86D00F080500090FEF770F9A96D21F06B
:102B80008051A965B0F5007F04D0802E07D94FF0A1
:102B900003040AE0802E08D9A02E01D804E001D158
:102BA000022402E0702E00D101240848016821F0BF
:102BB000070121430160006800F00700A04201D036
:102BC0000120F8BD0020F8BD0010024000200240A6
:102BD00070B504460068C168490614D44FF0FF314F
:102BE000C160FEF755F805464FF47A7607E000BF5E
:102BF000FEF74EF8401BB04201D9032070BD20689B
:102C0000C0684006F4D5002070BD00000148FFF701
:102C1000B9B80000780200200148FFF7B3B80000FF
:102C2000DC02002010B5806A0021A0F84610C187A0
:102C3000FFF7A7F810BD704710B5FEF72FF8BDE8F5
:102C40001040FFF7D6B9000010B5B8B009202290A7
:102C50004FF48030012123902791022003242C90EF
:102C6000CDE92D410C212F910721CDE93010329073
:102C700022A8FEF7CBFD00B1FEE70F20CDE933041B
:102C8000002435943694022133A83794FEF77AFC59
:102C900000B1FEE70F9414480E9410941194009024
:102CA0004FF040504FF400741E90A0041B902194EC
:102CB0006846FEF78FFA00B1FEE72046FEF794F86B
:102CC00000B1FEE7FEF71AFD4FF47A71B0FBF1F0A8
:102CD000FFF77BF90420FFF76BF900221146501E25
:102CE000FEF750F838B010BD0F6002000D480168C3
:102CF00041F4700101600C48016841F0010101607C
:102D0000002181600268094B1A4002608214C2608F
:102D1000026822F48022026081610249C003803986
:102D20000860704788ED00E000100240FFFFF6EAFF
:102D300010B50E48FFF78EF90C480D49006888421F
:102D400012D1C169C943C9060ED4102101620748D6
:102D5000FFF754F90748006840680749C0F1FF00D1
:102D6000087006490120087010BD000040030020D3
:102D7000004C00404C060020020000200000002013
:102D800090F82410C90706D001684A68836A22F4C3
:102D900000321A434A6090F82410890706D501686A
:102DA0004A68C36A22F480321A434A6090F82410B9
:102DB000490706D501684A68036B22F480221A434A
:102DC0004A6090F82410090706D501684A68436BE9
:102DD00022F400421A434A6090F82410C90606D52E
:102DE00001688A68836B22F480521A438A6090F8E3
:102DF0002410890606D501688A68C36B22F4005244
:102E00001A438A6090F82410490611D501684A686F
:102E1000036C22F480121A434A60016CB1F5801FE2
:102E200006D101684A68436C22F4C0021A434A6022
:102E300090F82410090606D501684A68806C22F4CF
:102E4000002202434A607047F8B5002604464667F0
:102E5000FDF71EFF0546206800686FF07E470007FB
:102E600008D52B4600224FF400112046009700F0B1
:102E7000CCF960B92068006840070AD52B460022CB
:102E80004FF480012046009700F0BFF908B10320FD
:102E9000F8BD202084F8710084F8720084F8706016
:102EA0000020F8BD10B5806A0021A0F85A10A0F8E3
:102EB0005210FFF7CDF810BD01680A6822F4907235
:102EC0000A6001688A6822F001028A60202180F885
:102ED000721000210166704701680A6822F0C00282
:102EE0000A60202180F87110704700002DE9F04140
:102EF0000446016880682369E66918436369102500
:102F0000002733431843954A0B68954E33400343DB
:102F10000B6020684168E36821F440511943416027
:102F20002168A069914201D0236A18438B6823F479
:102F3000306303438B608B4B21688B4899420DD1E2
:102F4000D0F8880010F0030006D001285AD00228DB
:102F500056D0032859D157E0012556E0834B9942BA
:102F60000BD1D0F8880010F00C0047D0042849D0CD
:102F7000082845D00C2848D146E07D4B99420BD11A
:102F8000D0F8880010F0300038D010283AD020282F
:102F900036D0302839D137E0764B99420BD1D0F872
:102FA000880010F0C00029D040282BD0802827D0DE
:102FB000C0282AD128E0704B99420ED1D0F8880061
:102FC00010F440701AD0B0F5807F1BD0B0F5007FB0
:102FD00016D0B0F5407F18D116E0914215D1D0F847
:102FE000880010F4406009D0B0F5806F0AD0B0F5C9
:102FF000006F05D0B0F5406F07D105E0002504E073
:10300000022502E0042500E008255C4B00264FF471
:10301000004091423DD135B1022D07D0042D07D09B
:10302000082D10D107E0FEF76FFB03E0184602E021
:10303000FEF78AFBA8B3626802EB4201814202D824
:10304000B0EB023F01D9012775E0DFF834815DB1B3
:10305000022D0CD0042D13D0082DF4D150082905D1
:10306000401846F1000105E0FEF74EFB0AE050086B
:103070004449F5E70023FDF7A3F8A0F5407156E0B9
:10308000FEF762FB6268010E0302500818187141D6
:10309000F0E7E1694FF6EF7881422FD1092DD2D2C6
:1030A00000E048E0DFE805F00609200523050505F6
:1030B0002600C8E7FEF728FB01E0FEF735FB4100DC
:1030C000D4F8040001EB5001B1FBF0F080B2A0F1A4
:1030D00010014145B7D84FF6F0710140C0F34200EE
:1030E00001432068C16026E027496068EAE7FEF7EF
:1030F0002BFBE4E74FF480316068E3E7092DA2D2AF
:10310000DFE805F006091E052205050525009AE7FA
:10311000FEF7FAFA01E0FEF707FB0146606801EBF3
:10312000500100BFB1FBF0F080B2A0F110014145A9
:1031300089D82168C860266638466666BDE8F08191
:10314000606803EB5001EDE7FEF7FEFAE5E7616822
:1031500000EB5100B0FBF1F0E6E70000008000401A
:10316000F369FFEF003801400010024000440040C6
:1031700000480040004C0040005000400024F40093
:10318000FFFC0F00000024F40048E80190F87110E3
:10319000212910D1B0F8521071B1C16C02680988B0
:1031A000C1F308011185C16C891CC164B0F85210CB
:1031B000491EA0F85210704701680A6822F0800288
:1031C0000A600068016841F040010160704790F8B2
:1031D000711021290DD1B0F8521059B1C16C4A1C9F
:1031E000C264026809781185B0F85210491EA0F82F
:1031F0005210704701680A6822F080020A60006875
:10320000016841F04001016070472DE9F0419846A6
:1032100017460E460446069D1DE0681C1BD02DB1C6
:10322000FDF736FDA0EB0800A84214D9206801681C
:1032300021F4D07101602068816821F00101816072
:10324000202084F8710084F87200002084F8700057
:103250000320BDE8F0812068C06936EA000004D090
:103260000020B842D9D00020F3E70120F9E70000A0
:103270000148FEF7EFBE0000300400200148FEF7D1
:10328000E9BE0000A8040020FEE7FEE70FB4054BEE
:1032900010B503A9044A029800F018F810BC5DF8B4
:1032A00014FB0000953500083801002002E008C832
:1032B000121F08C1002AFAD170477047002001E0B0
:1032C00001C1121F002AFBD1704700002DE9FF4FFA
:1032D0008DB09B460F460446002606E025280BD0FD
:1032E0005A460F999047641C761C20780028F5D127
:1032F00011B0304600F04AB90025A846012298498D
:1033000000E0054314F8013F203B02FA03F00842B5
:10331000F7D120782E2817D114F8010F45F00405B5
:103320002A280ED06FF02F022078A0F13001092951
:103330000AD808EB880102EB410100EB0108641C8C
:10334000F2E757F8048B641C20786C280DD004DC5D
:103350004C2812D06A2811D104E074280DD07A28A4
:103360000CD10AE045F4001507E0617845F48015BA
:10337000814202D1641C05F58015641C2278692AFB
:1033800045D008DC002AB3D0582A69D0632A10D06F
:10339000642A08D13BE0702A67D0732A13D0752ABB
:1033A0005CD0782A5CD010465A460F999047761C1C
:1033B000D3E017F8040B8DF8000000208DF8010011
:1033C000E946012003E057F8049B4FF0FF306907FE
:1033D0004FF0000501D40AE06D1C45450DDA854229
:1033E000FADB19F805100029F6D106E06D1C8542BC
:1033F000FCDB19F805100029F8D12E4404E019F877
:10340000010B5A460F9990476D1EF8D2A5E00A208D
:103410000021CDE90801C5F3025002280DD001CFEB
:10342000C117031E71F100030DDA4FF0000CD0EB51
:103430000C006CEB01012D2308E0FF1D27F00707AE
:10344000F7E80201EDE72B0504D52B238DF8283092
:1034500001233BE0EB0739D02023F7E70A2000E007
:1034600010200021CDE9080107E01020002145F0DF
:103470000405CDE908014FF00808C5F30250022801
:103480000FD001CF00214FF0000A2B071FD5702A63
:103490000DD0DDE908C38CF0100C5CEA030C0CD0F5
:1034A00015E0FF1D27F00707F7E80201EBE74022D0
:1034B0008DF828204FF0010A0BE050EA010306D0F6
:1034C00030238DF828308DF8292002239A46582A77
:1034D00004D024A20DF120090B9209E026A2F9E7FD
:1034E000DDE90823FCF76CFE0B9B9B5C09F8013DB2
:1034F00050EA0102F4D1ADEB0900203008906807D2
:1035000001D44FF001080899884502DDA8EB0100BD
:1035100000E000208046002506E00AA85A46405DEB
:103520000F9990476D1C761C5545F6DB04E0302062
:103530005A460F999047761CB8F10001A8F101088E
:10354000F5DC05E019F8010B5A460F999047761CF7
:103550000899481E08900029F4DC641CC5E60000A8
:103560000928010030313233343536373839616259
:10357000636465660000000030313233343536371D
:1035800038394142434445460000000030BCBDE8A4
:10359000C08F000038B504468DF800000A230122D0
:1035A00069460248FEF757FF204638BDA8040020B0
:1035B000ADF5087DFDF77AFB14225CA15AA8FCF753
:1035C00033FE18225EA152A8FCF72EFE62A1202233
:1035D000D1E90001CDE9580161A14AA8FCF724FE18
:1035E000302267A134A8FCF71FFE142270A15FA847
:1035F000FCF71AFE282273A140A8FCF715FE34211F
:103600006846FCF72AFE34210DA8FCF726FE34217B
:103610001AA8FCF722FE342127A8FCF71EFE14216D
:1036200064A8FCF71AFE142169A8FCF716FE142101
:103630006EA8FCF712FE142173A8FCF70EFE1421ED
:1036400078A8FCF70AFE14217DA8FCF706FE1421D9
:1036500082A8FCF702FEFFF7F7FAFEF795FF644831
:1036600062490024016004714471446101250562CE
:103670008461FDF7CFF800B1FEE75D485D49683031
:10368000FF26C0E900147F218160C0E90364446122
:103690008461C461FEF7EEFA00B1FEE7FFF770F84F
:1036A000FFF790F8FFF7AAF8FFF7C4F8504852491F
:1036B0002430C0E90254C0E904548461C0E9001612
:1036C000FDF7F8FC00B1FEE7FFF70EF8FFF732F860
:1036D000002208213420FDF755FB3420FDF746FB7E
:1036E00000220B212720FDF74DFB2720FDF73EFB95
:1036F000002204213C20FDF745FB3C20FDF736FB72
:10370000FCF722FE3DA0FFF7C1FD44A0FFF7BEFD80
:1037100047A0FFF7BBFD484C04212046FDF7AFFA58
:1037200058A8FCF7BDFEFCF731FEF5E741544431E3
:10373000333033363639393639360D0A0000000059
:1037400041542B434D47533D2231333033363639C4
:1037500039363936220D0A004154490D0A0000005D
:1037600041542B514750534346473D226770736E77
:103770006D656174797065222C310D0A00000000BE
:1037800041542B51494F50454E3D312C302C225441
:103790004350222C223131392E32372E3138342EFB
:1037A000323438222C313233342C302C310D0A0093
:1037B00041542B434E4D493D312C322C302C312C71
:1037C000300D0A0048454C4C4F2C574F524C442169
:1037D0002121434F4E4E45435445442053554355B4
:1037E000535346554C2121210D0A00000030024060
:1037F000EC01002000280040001000A046696E691E
:10380000736865642074686520696E6974696F6E99
:10381000206F6620454332300D0A0000496E6974FE
:10382000696F6E2046696E69736865640D0A0000F1
:103830000D0A0D0A0D0A00000004004800000000F7
:10384000000000000102030406070809A086010029
:10385000400D0300801A060000350C0040420F00A6
:1038600080841E0000093D0000127A000024F4004C
:1038700000366E010048E801006CDC020000000028
:1038800001020304A4380008000000203C010000ED
:10389000E0020008C43800083C0100205C09000078
:1038A000BC320008410015FF436F6E6E65637420E3
:1038B000746865206465766963650D0A0121630992
:0438C0003D000000C7
:040000050800018965
:00000001FF
