:020000040800F2
:10000000880700209D010008231F00089D16000896
:10001000211F0008E10200087D2A000800000000FE
:100020000000000000000000000000000D24000897
:10003000E302000800000000BD1F00080F240008B4
:10004000B7010008B7010008B7010008B7010008B0
:10005000B7010008B7010008B7010008B7010008A0
:10006000B7010008B7010008B7010008B701000890
:10007000B7010008B7010008B7010008B701000880
:10008000B7010008B7010008B7010008B701000870
:10009000B7010008B7010008B7010008B701000860
:1000A000B7010008B7010008B7010008B701000850
:1000B000B7010008B7010008B7010008B701000840
:1000C000B7010008B7010008B7010008B701000830
:1000D000B7010008B7010008B70100082D2A000881
:1000E000B7010008B7010008B7010008B701000810
:1000F000B7010008B7010008B7010008B701000800
:10010000B7010008B7010008B7010008B7010008EF
:10011000D1250008B7010008B7010008B7010008A1
:10012000B7010008B7010008B7010008B7010008CF
:10013000B7010008B7010008B7010008B7010008BF
:10014000B7010008B7010008B7010008B7010008AF
:10015000B7010008B7010008B7010008B70100089F
:10016000B7010008B7010008B7010008B70100088F
:10017000B7010008B7010008B7010008000000003F
:10018000B7010008B7010008DFF80CD000F096F8BE
:1001900000480047A12A0008880700200648804739
:1001A00006480047FEE7FEE7FEE7FEE7FEE7FEE75C
:1001B000FEE7FEE7FEE7FEE78D250008890100085F
:1001C0002DE9F05F0546002092469B46884606468C
:1001D000814640241BE0284641464746224600F01F
:1001E0005DF853465A46C01A914110D3114618463D
:1001F000224600F044F82D1A67EB01084F462246CC
:100200000120002100F03BF817EB00094E41201EB1
:10021000A4F10104DFDC484631462A46434600F09B
:1002200000B830BCBDE8C09F40EA01039B0703D083
:1002300009E008C9121F08C0042AFAD203E011F825
:10024000013B00F8013B521EF9D27047D2B201E0E7
:1002500000F8012B491EFBD270470022F6E710B5CB
:1002600013460A4604461946FFF7F0FF204610BD24
:10027000421C10F8011B0029FBD1801A7047202A6C
:1002800004DB203A00FA02F1002070479140C2F1ED
:10029000200320FA03F3194390407047202A04DB1F
:1002A000203A21FA02F00021704721FA02F3D040EF
:1002B000C2F120029140084319467047064C074D91
:1002C00006E0E06840F0010394E807009847103426
:1002D000AC42F6D3FFF75CFFC42C0008E42C000806
:1002E000FEE7704710B50E4C01228021204600F039
:1002F0005EF9C82001F050FC00228021204600F069
:1003000056F94FF4967001F047FCC82001F044FC08
:1003100020460122BDE81040802100F048B90000CD
:100320000008004870B568B12B4C036814222B49B3
:10033000A34209D22A4C1C44B4FBF2F29200C0E959
:1003400010120BE0012070BD234C64421C44B4FB2E
:10035000F2F292004264204A083A0264022280F8D3
:1003600025201C6847F6F0729443D0E902252A4301
:10037000D0E9045635432A4385692A43C5692A438F
:10038000056A2A4322431A608268B2F5804F15D06D
:10039000036C0F228B4202D151F8A83F02E00E49B4
:1003A000A0310B6890F84440A24093430B6090F852
:1003B000443042689A400B681A430A600021C162C7
:1003C000016341638163C163012280F8252080F8C5
:1003D0002410084670BD00000804024000000240DE
:1003E000F8FFFDBF2DE9F84FDFF898B100234FF07B
:1003F000010C4FF0030A4FF00F090BF1040EB9E0A6
:100400000CFA03F4224070D04D68022D01D0122D59
:100410000ED1DD0800EB8508D8F820505E07F70EF6
:1004200009FA07F6B5430E69BE402E43C8F82060AE
:1004300007685E0091F804800AFA06F508F00308E0
:10044000AF4308FA06F848EA0708C0F800804F688A
:10045000012F05D0022F03D0112F01D0122F13D15D
:10046000D0F80880CF6828EA0508B74047EA0807AF
:100470008760D0F804800F7928EA0408C7F30017D2
:100480009F4047EA08074760D1F804806FEA0807F1
:10049000BF0706D1C76AA743C8F3C0049C403C43CA
:1004A000C462C468AC438D68B5402543C5604C68E0
:1004B000E4005ED5344C256E45F001052566246EBA
:1004C00023F0030504F001040094304C2E19B468A5
:1004D0009D072F0F09FA07F5AC43B0F1904F05D0F7
:1004E0002B4DA84204D101251CE042E0002519E073
:1004F000284DA84201D1022514E0274DA84201D180
:1005000003250FE0254DA84201D104250AE0244D22
:10051000A84201D1052505E0224DA84201D10625BA
:1005200000E00725BD402543B560DBF800405D468F
:100530004E689443F60300D514432C60DEF8004067
:1005400075464E689443B60300D514432C600D4D98
:1005500008352C684E689443F60200D514432C608D
:10056000084D0C352C684E689443B60200D51443F0
:100570002C605B1C0A6832FA03F57FF441AF00F08F
:1005800013B80000000401400010024000000140C8
:100590000004004800080048000C00480010004813
:1005A000001400480018004818BCBDE8E08F0AB1EC
:1005B00081617047816270470148006870470000A0
:1005C0002000002010B5032000F088F8002000F083
:1005D00005F800F017F8002010BD000010B5044623
:1005E00007484FF47A710068B0FBF1F000F05CFF4F
:1005F00000222146501E00F051F8002010BD0000DE
:10060000240000201E4808B5016E41F0010101667A
:10061000016E01F001010091816D41F08051816511
:10062000806D00F080500090032000F057F8002209
:1006300011466FF00B0000F031F8002211466FF008
:100640000A0000F02BF8002211466FF0090000F0BC
:1006500025F800221146501F00F020F80022114614
:10066000101F00F01BF800221146901E00F016F833
:100670000022BDE808401146501E00F00FB80000EF
:100680000010024000F01F0201219140400980004B
:1006900000F1E020C0F8001170470000F0B40E4BEC
:1006A0001B680C46C3F30223C3F10705042D00D9D0
:1006B0000425191D072901D2002300E0DB1E0126B5
:1006C00006FA05F1491E214099409E40761E1640CB
:1006D0003143F0BC01F062BC0CED00E0064900F0D3
:1006E000070208684FF6FF03184040EA0220034A59
:1006F00010430860704700000CED00E00000FA05B0
:100700001549B0F5007F0868C0F3412009D00228E0
:1007100005D0086820F4C06040F4806008600020C4
:1007200070470128FBD0086820F4C06040F40070D6
:1007300008600A480A4A0068B0FBF2F032225043CF
:1007400000E0401E10B14A695205FAD448694005DC
:10075000E5D5032070470000007000402400002011
:1007600040420F000248416841F400714160704707
:10077000007000400248006800F4C060704700004C
:1007800000700040F8B50446FFF716FF06465CB15E
:1007900094F83800012809D0012784F8387094F8BB
:1007A0003900002520B10BE00120F8BD0220F8BD82
:1007B00084F83850204600F03DF841F2883020643B
:1007C00020680168A2686FF0FF0321F4706103EBF9
:1007D000022211430160206C009033460022202148
:1007E000204601F0ECFBE8B921680A680F4B1A407B
:1007F000237942EA0362E3681A430A60D4E90512E6
:100800001143226853680A4E3340268A43EA06435E
:100810001943516021680A6842F001020A60E563E9
:1008200084F8397084F83850F8BD0000EFFFFF00FD
:10083000FEF8E0FFF0B50068154987B0884224D182
:100840001448016D41F480710165006D022400F4CB
:100850008070059040F60340002503260A278DE8A6
:10086000F10069460C48FFF7BDFDC0208DE8F1009E
:1008700069464FF09040FFF7B5FD00220F21472059
:10088000FFF70CFF4720FFF7FDFE07B0F0BD0000AB
:10089000001000A000100240000400482DE9F84FAD
:1008A000044600270088E54D3E46010504F1200B73
:1008B0001DD5606E78B1B0F5800F11D0B0F5000F86
:1008C00004D0B0F5400F22D001270FE0E86840F4D3
:1008D0008030E8601BE00021201D01F095FB03E063
:1008E0000021584601F026FC070010D03E46208823
:1008F000C00426D5A06EC0B1B0F1807F1AD0B0F18F
:10090000007F0DD0B0F1407F19D0012718E0D5F855
:100910008800616E20F440000843C5F88800E6E7CF
:10092000E86840F48030E86009E00021201D01F013
:100930006BFB03E00021584601F0FCFB0746F7B1D2
:100940003E46206880033AD5A86D4FF00008C000ED
:1009500009D4A86D40F08050A865A86D4FF001083B
:1009600000F080500090DFF8D8A2DAF8001041F4CF
:100970008071CAF80010FFF71FFE814610E0D5F81D
:100980008800A16E20F040700843C5F88800D8E7C1
:10099000FFF712FEA0EB0900022801D9032705E0AA
:1009A000DAF80000C005F3D5002F7CD04FEA070627
:1009B000B8F1000F03D0A86D20F08050A865207812
:1009C000C00707D0D5F88800A16B20F003000843CA
:1009D000C5F888002078800707D5D5F88800E16B36
:1009E00020F00C000843C5F888002078400707D5A0
:1009F000D5F88800216C20F030000843C5F8880045
:100A00002078000707D5D5F88800616C20F0C00079
:100A10000843C5F888002078C00607D5D5F88800B7
:100A2000A16C20F440700843C5F888002078800647
:100A300007D5D5F88800E16C20F440600843C5F87C
:100A400088002088800507D5D5F88800E16D20F45E
:100A500040200843C5F888002088400507D5D5F810
:100A60008800216E20F440100843C5F888002078E3
:100A7000400607D5D5F88800216D20F44050084382
:100A8000C5F888002078000607D5D5F88800616D84
:100A900020F440400843C5F888002088C00509D5E7
:100AA000D5F8880000E01CE0A16D20F44030084338
:100AB000C5F8880020884FF0006780044FF08068F8
:100AC0004FD5D5F88800E16E20F040600843C5F8A6
:100AD0008800E06EB8423CD1E86840F48010E860DD
:100AE0003FE0D5F8900010F4407015D0D4F8841091
:100AF000814211D0D5F89000D5F8901020F44070C4
:100B000041F48031C5F89010D5F8901021F480316F
:100B1000C5F89010C5F89000C00710D0FFF74CFD45
:100B2000074641F2883906E0FFF746FDC11B4945FB
:100B300001D903263CE7D5F890008007F4D5D5F815
:100B40009000D4F8841020F440700843C5F8900059
:100B50002EE7404505D10121201D01F055FA00B1D5
:100B600006462068000317D5D5F88800216F20F0CD
:100B700040600843C5F88800206FB84204D1E86897
:100B800040F48010E86007E0404505D10121201DB8
:100B900001F03AFA00B106462068400317D5D5F8AF
:100BA0008800616F20F040600843C5F88800606FDE
:100BB000B84204D1E86840F48010E86007E040459E
:100BC00005D10121201D01F01FFA00B10646208841
:100BD00040041AD5D5F88800A16F20F04050084392
:100BE000C5F88800A06FB0F1805F03D0B0F1005F5E
:100BF00005D00AE00221201D01F006FA03E00221DF
:100C0000584601F097FA00B106462088000407D53F
:100C1000D5F88800E16F20F080400843C5F88800CF
:100C20002068C00307D555F8880FD4F8801020F04D
:100C3000004008432860304600F004B8001002402D
:100C40000070004018BCBDE8E08F00002DE9F047BF
:100C5000DFF8608105460E46D8F8000000F0070076
:100C6000B0420CD2D8F8001021F007013143C8F887
:100C70000010D8F8000000F00700B04275D12878C5
:100C80004D4CC00757D06868032818D0022819D0E7
:100C90002168D0B14905002967DAA16821F0030174
:100CA0000143A160FFF788FC6968074641F288307C
:100CB000032913D002291FD0814651B336E02168A1
:100CC0008901E8E721688903E5E78907E3E700BFD1
:100CD000FFF772FCC11B494501D924E08146A06899
:100CE000C0F381000328F3D125E000BFFFF764FCC7
:100CF000C11B494501D916E08146A068C0F38100B7
:100D00000228F3D117E000BFFFF756FCC11B49458D
:100D100009D8A06810F00C0FF6D10CE0FFF74CFCDE
:100D2000C11B494502D90320BDE8F087A068C0F384
:100D300081000128F2D12878800705D5A068A9682C
:100D400020F0F0000843A060D8F80010404601F001
:100D50000701B1420BD9016821F00701314301605D
:100D6000006800F00700B04201D00120DCE72878DD
:100D7000400705D5A068E96820F4E0600843A0605A
:100D80002878000706D5A068296920F4605040EA59
:100D9000C100A06000F03CF8A168084AC1F303114B
:100DA000515CC840064908600020FFF717FC00208E
:100DB000BAE7000000200240001002407C2C00082E
:100DC0002400002001480068704700002400002033
:100DD0000448054900688968044AC1F30221515C4E
:100DE000C84070472400002000100240BC2C0008BE
:100DF0000448054900688968044AC1F3C221515C6E
:100E0000C84070472400002000100240BC2C00089D
:100E100030B52D49002318468A682C4C12F00C0F6F
:100E20004FEA640514D08A68C2F38102032A04D110
:100E3000CA6802F00302012A0AD08A68C2F381025A
:100E4000012A19D08A68C2F38102022A16D016E05C
:100E50000A68120704D4D1F89420C2F3032202E0F6
:100E60000A68C2F303121A4B53F822308A6812F050
:100E70000C0F04D1184602E0204600E028468A689C
:100E8000C2F38102032A1DD1C868CA6800F00300BA
:100E9000C2F30212521C022804D0032805D0B3FB6F
:100EA000F2F004E0B4FBF2F001E0B5FBF2F0CA6846
:100EB000C968C2F306225043C1F34161491C49008D
:100EC000B0FBF1F030BD0000001002400024F4003F
:100ED0008C2C00082DE9F84304460078FE4DC0062E
:100EE0005DD5A86810F00C0F0AD0A069002828680A
:100EF00071D040F001002860FFF75EFB064654E029
:100F00002868800702D5A06900287DD0216A28685A
:100F1000000703D5286800F0F00004E0D5F894003D
:100F2000F02202EA1010814216D9084601F030FA88
:100F3000002869D1286840F0080028602868216AE4
:100F400020F0F000084328606868E16920F47F40E1
:100F500040EA0120686015E0286840F00800286039
:100F60002868216A20F0F000084328606868E16979
:100F700020F47F4040EA01206860206A01F008FA0E
:100F80000028D6D1FFF744FFA968D44AC1F3031162
:100F9000515CC840D24908600020FFF71FFB29E0E0
:100FA000FFF70AFB801B02287ED828688007F7D548
:100FB000286840F0080028602868216A20F0F000C6
:100FC000084328606868E16920F47F4040EA012016
:100FD00068600FE0FFE720F001002860FFF7ECFAFF
:100FE000064604E0FFF7E8FA801B0228DCD82868F0
:100FF0008007F7D42078C0074AD0A868C0F38100E2
:1010000002281FD0A86800E098E0C0F38100032800
:1010100003D1E868C043800714D06068B0F5803F12
:1010200017D0B0F5A02F286817D020F480302860A2
:10103000286820F4802028606068E0B1FFF7BCFADF
:10104000064614E02868800322D56068002875D021
:101050001EE0286840F48030EDE740F480202860EE
:10106000F7E700BFFFF7A8FA801B64289CD8286820
:101070008003F7D50CE0FFF79FFA064605E000BFB6
:10108000FFF79AFA801B64288ED828688003F7D46B
:101090002078800742D5A868C0F38100012816D0C7
:1010A000A868C0F3810000E0A9E0032804D1E86843
:1010B00000F0030002280AD0E068002828681DD04C
:1010C00040F480702860FFF777FA06460BE0286846
:1010D00040050BD5E0680028B9D007E0FFF76CFAAF
:1010E000801B0228C2D828684005F7D56868217C93
:1010F00020F0F85040EA016068600FE020F4807052
:101100002860FFF759FA064605E000BFFFF754FADA
:10111000801B022873D828684005F7D42078000780
:1011200029D560690028D5F8940013D040F001005B
:10113000C5F89400FFF740FA064606E0FBE000BF62
:10114000FFF73AFA801B022859D8D5F89400800797
:10115000F6D510E020F00100C5F89400FFF72CFA56
:10116000064604E0FFF728FA801B022847D8D5F886
:1011700094008007F6D42078400763D5A86D002638
:10118000C00008D4A86D40F08050A865A86D012665
:1011900000F08050009053480168C90511D40168DF
:1011A000804641F480710160FFF706FA074604E0CB
:1011B000FFF702FAC01B022821D8D8F80000C005AA
:1011C000F6D5A068012815D00528D5F8900017D0CD
:1011D00020F00100C5F89000D5F8900020F0040040
:1011E000C5F89000A06841F28838C8B1FFF7E4F96B
:1011F000074610E0D5F8900040F00100F0E777E0F6
:1012000040F00400C5F89000F4E700BFFFF7D4F900
:10121000C11B41456CD8D5F890008007F6D50CE08D
:10122000FFF7CAF9074604E0FFF7C6F9C11B4145BD
:1012300079D8D5F890008007F6D41EB1A86D20F0BB
:101240008050A865A06AE0B3A968C1F381010329B1
:1012500072D00228286820F08070286011D0286899
:10126000000106D42868800003D4E86820F0030059
:10127000E860E8681C490840E860FFF79DF904460B
:1012800054E0FFF799F9064605E000BFFFF794F92F
:10129000801B022847D828688001F7D4206BE16AB8
:1012A000000110380843616BA26B0902120941EA80
:1012B00042410843A18F0D4A490802EB41510843BE
:1012C00000E036E094F840104908120102EB416159
:1012D0000843E86028680CE0001002407C2C0008FD
:1012E0002400002000700040FFFFEEFE0000E0FF41
:1012F00019E040F080702860E86840F08070E86095
:10130000FFF75AF9044604E0FFF756F9001B0228DC
:1013100009D828688001F7D50BE000BFFFF74CF92A
:10132000001B022802D90320BDE8F8832868800149
:10133000F4D40020F8E7FFE70120F5E72DE9F041BC
:10134000040005D00025A56294F85D0018B107E0FF
:101350000120BDE8F08184F85C50204600F044F89C
:10136000022384F85D302068016821F040010160AB
:10137000E0684FF4E066B04201D9002101E04FF48B
:101380008051B0F5706F02D0B04200D0A562276BDB
:10139000012227B9B04201D9236300E02263D4E9D6
:1013A00001031843D4E9043633431843238B03F471
:1013B00000731843E3691843236A1843A36A184368
:1013C00023681860636B606AA66918430427E368A2
:1013D00007EA1646334318430843216848602566E8
:1013E00084F85D200020B4E72DE9F041234A01682C
:1013F00000252348022403260527DFF8888086B0CD
:10140000914215D1016E41F480510166006E69462A
:1014100000F48050059038208DE8F1004046FEF73A
:10142000E1FF00220D212320FFF738F923201FE0E0
:10143000154A91421ED1816D41F480418165806DD4
:10144000694600F48040059004208DE8F1000F48C3
:10145000FEF7C8FF4FF420408DE8F1006946404692
:10146000FEF7C0FF00220E212420FFF717F92420E9
:10147000FFF708F906B0BDE8F08100000030014038
:1014800000100240000400480038004000080048F6
:101490004FF0E0210428086903D020F0040008611F
:1014A000704740F00400FAE710B5401EB0F1807FAD
:1014B00001D3012010BD4FF0E02460610F216017BF
:1014C00000F06CFD0020A06107202061002010BD0D
:1014D00010B5040003D094F8710010B107E00120AA
:1014E00010BD002084F87000204600F027F824206A
:1014F00084F871002068016821F001010160204634
:1015000001F012F90128EBD0606A10B1204601F019
:1015100079F82068416821F4904141602068816831
:1015200021F02A0181602068016841F00101016019
:101530002046BDE8104001F0C9B800002DE9F04197
:101540000746454B0168002444480325022686B01F
:101550004FF090424FF0800899422AD1816D41F4BA
:1015600000218165806D029400F400200590CDE992
:1015700000560820CDE9035069461046FEF732FFB9
:10158000384D37482860C5E90164C5E903486C61F6
:10159000AC61EC6128462C62FEF7C4FE20B140F23B
:1015A000BD1131A001F06BFAFD66AF6206B0BDE877
:1015B000F081344B0727994219D1016E41F48041E3
:1015C0000166006E02AA00F4804005905815CDE92E
:1015D000000682E8B00069462B48FEF703FF02AA26
:1015E000694682E8B000CDE90086284831E0284B02
:1015F00099421AD1816D41F400318165806D02AB51
:1016000000F4003005900C20CDE9000683E8B0001E
:1016100069461046FEF7E6FE002207212620FFF766
:101620003DF82620FFF72EF8C0E71A4A9142BDD1B7
:10163000816D41F480218165806D02AA00F48020D3
:1016400005904FF44060CDE9000682E8B00069469D
:101650001148FEF7C7FEA9E7004C00400010024009
:10166000580402403C0300202E2E2F5372632F7328
:10167000746D33326C3478785F68616C5F6D737051
:101680002E630000003801400018004800040048A4
:10169000004400400048004000080048FEE7000009
:1016A000044908B5CA6C0243CA64C96C0140009180
:1016B00008BD000000100240044908B58A6D0243CD
:1016C0008A65896D0140009108BD0000001002404C
:1016D000F0B50A68032492FAA2F2B2FA82F30F2557
:1016E0007EE0324601269E40324078D0D1F804E0B8
:1016F000066892FAA2F7B7FA87F74FEA470C04FA9E
:101700000CF7BE4392FAA2F7B7FA87F77F000EFAFA
:1017100007FE46EA0E0606604E68012E01D0022E34
:1017200015D1D1F808E0866892FAA2F7B7FA87F7E0
:101730004FEA470C04FA0CF7BE4392FAA2F7B7FA45
:1017400087F77F000EFA07FE46EA0E068660D1F89C
:1017500010C0C66892FAA2F7B7FA87F77F0004FABA
:1017600007FE92FAA2F7B7FA87F77F0026EA0E067D
:101770000CFA07FC46EA0C06C6604E68022E2ED113
:1017800092FAA2F6B6FA86F6082E4E6913D2076AC6
:1017900092FAA2FCBCFA8CFC4FEA8C0C05FA0CFC09
:1017A00092FAA2F2B2FA82F2920027EA0C0796406D
:1017B0003743076213E0476A120A92FAA2FCBCFAA6
:1017C0008CFC4FEA8C0C05FA0CFC92FAA2F2B2FAED
:1017D00082F2920027EA0C079640374347625B1C6F
:1017E0000A681646DA407FF47CAF4A68012A01D0C5
:1017F000022A07D1CB6841683246914306FB03F2C7
:10180000114341600120F0BD354808B5016E41F03B
:1018100001010166016E01F001010091816D41F04D
:1018200080518165806D2F4900F0805000900868DC
:101830004FF6FF0210402C4A40F4407010430860FD
:1018400000F094FB0022114600F077FB01466FF098
:101850000B0000F093FB00F089FB0022114600F022
:101860006CFB01466FF00A0000F088FB00F07EFB85
:101870000022114600F061FB01466FF0090000F004
:101880007DFB00F073FB0022114600F056FB014681
:101890006FF0040000F072FB00F068FB00221146BC
:1018A00000F04BFB01466FF0030000F067FB00F017
:1018B0005DFB0022114600F040FB01466FF0010085
:1018C00000F05CFB00F052FB0022114600F035FBFB
:1018D0000146BDE808404FF0FF3000F04FBB00006C
:1018E000001002400CED00E00000FA054FF47A71A0
:1018F000B0FBF1F14FF0E020491E41610021816110
:10190000052101617047000070B500241F49204D7A
:101910004FF40046C02803D0B0F5407F1CD019E03A
:10192000D1F8880000F0C00040F440004038B0F525
:10193000400027D0402804D080281CD106E004466F
:1019400008E000F083F828B12C4603E000F086F8A8
:1019500000B13446204670BDD1F888000D4900F42E
:10196000407040F0407040180CD0B0F5807FE8D057
:10197000B0F5007FEAD000F08BFC00F05FFC00F0D7
:101980006BFCDCE700F084FCD9E7000000100240AB
:101990000024F40000FFFFFC70B5002429492A4D03
:1019A0004FF40046032804D00C281AD030282FD03A
:1019B00040E0D1F888006FF4403100F0030040F4BB
:1019C000403040180AD0012836D002282ED000F02E
:1019D0005FFC00F033FC00F04DFC17E000F058FC19
:1019E00014E0D1F8880000F00C0040F44020001F03
:1019F000B0F54020F2D004281ED0082816D000BF31
:101A000000F046FC00F01AFC00F026FC044611E051
:101A1000D1F8880000F0300040F440101038B0F5E4
:101A20004010DBD0102807D02028E9D100F016F8AC
:101A300000B13446204670BD00F008F80028F9D007
:101A40002C46F7E7001002400024F400024800682A
:101A5000C0F3802070470000001002400248D0F818
:101A60009000C0F340007047001002400248006838
:101A700000F0F00070470000001002400248D0F86B
:101A8000940000F470607047001002400248006843
:101A9000C0F3C00070470000001002400248C06858
:101AA00000F0700070470000001002400248C0685B
:101AB00000F0030070470000001002400149086078
:101AC000704700002400002070B5044600680D46F1
:101AD000002610F0010F42D1E9686868AA6908433E
:101AE0002969114308432168254A114008432060B1
:101AF000A868616821F44051014361606869A16888
:101B000021F440710143A1601E48844201D10320A9
:101B100008E01D48844201D10C2003E01B488442A8
:101B200003D13020FFF738FF0BE01948844201D180
:101B3000C02004E01748844211D14FF44070FFF7F1
:101B4000E3FE60B1296851B1AA690126B2F5004FE0
:101B500007D000EB5100B0FBF1F080B2E0603046FE
:101B600070BD400000EB5100B0FBF1F081B24FF6C8
:101B7000F07201EA0200C1F342010843EEE70000FF
:101B8000F369FFEF00380140004400400048004086
:101B9000004C00400050004008B54FF0E0210A69B9
:101BA0000092421C00D0401C0A69D20300D5401E9E
:101BB0000028F9D108BD00002DE9F04F5B4C8DB035
:101BC000E06C40F00100E064E06C00F001000B907C
:101BD000E06C40F04000E064E06C00F040000B90EE
:101BE000FEF7C0FDE06C40F00200E064E06C00F045
:101BF00002000B90E06C40F00400E064E06C00F048
:101C000004000B90E06C40F08000E064E06C012286
:101C100000F080000B9040214548FEF7C8FC4FF4CF
:101C200080694FF0904B002249465846FEF7BFFCB2
:101C3000404F00224FF460713846FEF7B8FC012295
:101C4000160231465846FEF7B2FC44F2040A00225E
:101C500051463748FEF7ABFC012208213846FEF713
:101C6000A6FCF001002401258DE8310069465846A4
:101C7000FEF7B8FB4FF04008CDE90085CDE90254EE
:101C800069462B48FEF7AEFBCDF80090CDE9015434
:101C9000694658460394FEF7A5FB4FF42270CDE940
:101CA0000005CDE9025469463846FEF79BFBCDE9B5
:101CB0000065CDE9025469465846FEF793FB00964D
:101CC000CDE90154694638460394FEF78BFBCDE914
:101CD0000084694638460294FEF784FBCDF800A0E4
:101CE000CDE90154694612480394FEF77BFB2803B3
:101CF000CDE9000469460E480294FEF773FB01200B
:101D0000FFF7CEFC0420FFF7CBFC8020FFF7C8FCD8
:101D10008020B862CDE906540590089405A938469C
:101D20000994FFF7D5FC0DB000F006B80010024092
:101D3000000400480008004830BCBDE8C08F000027
:101D4000114810B50F4901604FF4827141600021C4
:101D50004FF4E062C0E902120222026101224261F4
:101D6000520282610822C0E9072107224162C0E9CC
:101D70000A1201634163FFF7E1FA002800D0FEE791
:101D800010BD0000003001406C000020114810B56B
:101D90000F4901604FF48271416000214FF4E0620D
:101DA000C0E90212022202610122426152028261F2
:101DB0000822C0E9072107224162C0E90A12016333
:101DC0004163FFF7BBFA002800D0FEE710BD00001A
:101DD00000380040D000002010B58EB04FF4002035
:101DE000FFF76AFC03200221CDE907010024CDE9B9
:101DF00009040820CDE90B4007A94FF09040FFF7F8
:101E000067FC4FF4E130CDE900040C200294CDE9E9
:101E1000034005940694094C69462046FFF754FE9A
:101E2000606820F490406060A06820F02A00A06004
:101E3000206840F0010020600EB010BD004C004052
:101E40000C4810B50A4901604FF4E13141600021AE
:101E500081600C22C160C0E904128161C16101622C
:101E60004162FFF735FB002800D0FEE710BD0000FF
:101E700000380140AC0100200C4810B50A4901604F
:101E80004FF4E1314160002181600C22C160C0E962
:101E900004128161C16101624162FFF719FB0028F0
:101EA00000D0FEE710BD00000044004024020020E6
:101EB00010B58EB04FF48020FFF7FEFB4FF440606A
:101EC00007900220089003200024CDE90904072090
:101ED000CDE90B4007A91048FFF7FAFB4FF4E130BA
:101EE000CDE900040C200294CDE90340059406944A
:101EF0000A4C69462046FFF7E7FD606820F49040F1
:101F00006060A06820F02A00A060206840F0010016
:101F100020600EB010BD00000008004800480040DE
:101F2000FEE7704700F01F02012191404009800048
:101F300000F1E020C0F80011704730B500F0070351
:101F4000C3F10704042C00D90424181D072801D26A
:101F5000002300E0DB1E012505FA04F0401E0840C6
:101F600098409D406D1E1540284330BD02480068D2
:101F7000C0F30220704700000CED00E00907090ED5
:101F8000002806DA00F00F0000F1E02080F8141DB0
:101F9000704700F1E02080F8001470470907090E2F
:101FA000002806DA00F00F0000F1E02080F8141D90
:101FB000704700F1E02080F80014704770472DE969
:101FC000F041984616460F460446069D12E0681CEE
:101FD00010D02DB1FEF7F0FAA0EB0800A84209D905
:101FE000042084F83900E06B40F00100E063012038
:101FF000BDE8F08120688068384000D00120B04200
:10200000E5D10020F4E700002DE9F041444C0546FD
:102010008846E0680026810728680DD0E16801F055
:102020000301814216D1A8B1E0686968C0F30210CB
:10203000401C88420ED120E0012804D0022805D09F
:10204000032807D108E02168890701E021684905D4
:10205000002907DB01265FE02168890302D421689B
:102060004903F5E7E1686A686FF00F0321F0730137
:1020700003EB021211430143E160206820F080600D
:102080002060FEF799FA074605E000BFFEF794FAD4
:10209000C01B022837D820680001F7D4B8F1000F20
:1020A00018D0B8F1010F1ED0287D4FF07E414008B6
:1020B00001EB4060A96840EA01202169194A1140FA
:1020C00008432061206840F080602060FEF774FAC9
:1020D00007461AE0A868E9680002090940EA414099
:1020E0002169114AEBE7288A1049400801EB40506A
:1020F000A96840EA012021690D4AE0E7FEF75CFA91
:10210000C01B022801D9032606E020680001F5D58E
:102110002069A969084320613046BDE8F0810000CC
:1021200000100240FF80FFF9FF80FDFF0000E0FF8C
:10213000FF809FFF2DE9F0413D4C06468846E06850
:102140000025810730680DD0E16801F0030181426C
:1021500016D1A8B1E0687168C0F30210401C884233
:102160000ED120E0012804D0022805D0032807D191
:1021700008E02168890701E021684905002907DB9B
:10218000012551E02168890302D421684903F5E75C
:10219000E16872686FF00F0321F0730103EB021224
:1021A00011430143E160206820F080502060FEF779
:1021B00003FA074605E000BFFEF7FEF9C01B022840
:1021C00029D820688000F7D4B8F1000F15D0307CF2
:1021D0004FF07E41400801EB4060B16840EA0120C9
:1021E0006169144A114008436061206840F08050E2
:1021F0002060FEF7E1F907460FE0B068F1680002E1
:10220000090940EA414061690B4AEBE7FEF7D4F95E
:10221000C01B022801D9032506E020688000F5D5FF
:1022200060697169084360612846BDE8F08100007B
:1022300000100240FF80FFF9FF80FDFF044989681C
:10224000044A01F0F0010909515CC84070470000E0
:10225000001002407C2C000804498968044A01F4FB
:10226000E06102EB11210978C8407047001002407C
:10227000BC2C000804498968044A01F4605102EB4F
:10228000D1210978C840704700100240BC2C0008DA
:10229000184810B58068184C10F00C0005D00428C0
:1022A0001AD008281AD00C281AD0FFF7EFFBD8B1A3
:1022B000FFF7ECFB50B1FFF7D9FB09E0FFF7D6FBC6
:1022C00002E000BFFFF7DAFB000A02E0FFF7D6FBEF
:1022D000000954F8200010BD084810BD084810BD82
:1022E000BDE8104000F00EB8FFF7D0FB0028E9D0A1
:1022F000E4E70000001002408C2C00080024F400E9
:1023000000127A0010B5FFF7D1FB1D4C012803D055
:1023100002282AD003282AD0FFF7B8FB28B1FFF7FC
:10232000B5FB48B3FFF7A2FB06E0FFF7AFFB00B336
:10233000FFF79CFB000A00E0000954F8204000BFB2
:10234000FFF7ACFB012101EB1010B4FBF0F20D48DC
:10235000C368C068C3F306235A4300F0C06001EBB2
:1023600050604000B2FBF0F010BD074CE8E7074CAE
:10237000E6E7FFF783FBDDE7FFF780FBDCE7000024
:102380008C2C0008001002400024F40000127A0097
:10239000F8B51C4D06460024A86DC00002D5FEF716
:1023A000E9F90DE0A86D40F08050A865A86D00F037
:1023B00080500090FEF7DEF9A96D21F08051A965EB
:1023C000B0F5007F04D0802E07D94FF003040AE057
:1023D000802E08D9A02E01D804E001D1022402E009
:1023E000702E00D101240848016821F00701214323
:1023F0000160006800F00700A04201D00120F8BD94
:102400000020F8BD001002400020024070477047D5
:1024100070B5B8B0092022904FF48030012123908C
:102420002791022003242C90CDE92D410C212F91DE
:102430000721CDE93010329022A8FEF74BFD00B104
:10244000FEE70F20CDE933040024359436940221B1
:1024500033A83794FEF7FAFB00B1FEE70F94464825
:102460000E941094119400904FF040504FF400746B
:102470001E90A0041B9021946846FEF70FFA00B14D
:10248000FEE72046FEF73CF900B1FEE7FEF79AFCB6
:102490004FF47A71B0FBF1F0FFF706F80420FEF775
:1024A000F7FF0022551E11462846FEF7F7F833487D
:1024B000016821F0070141F002010160006800F0AD
:1024C0000700022800D0FEE72D48016821F4C06112
:1024D00041F4007101602B4C206840F00100206045
:1024E0002068C0F340000028FAD0206840F00800BF
:1024F0002060206820F0F00040F0B00020606068AC
:1025000020F47F406060A06820F00300A060A06815
:1025100010F00C0FFBD1A06820F0F000A060A068C4
:1025200020F4E060A060A06820F46050A060164E27
:102530003046FFF7DBF94FF0E020016941F004017C
:1025400001613046FFF7BAFAD4F8880020F0300075
:10255000C4F88800D4F8880020F0C000C4F88800CF
:10256000FFF704FD00221146FFF7E7FC014628466D
:10257000FFF704FD38B070BD0F600200002002407C
:102580000070004000100240006CDC020D48016841
:1025900041F4700101600C48016841F001010160E3
:1025A000002181600268094B1A4002608214C260F7
:1025B000026822F48022026081610249C0038039EE
:1025C0000860704788ED00E000100240FFFFF6EA67
:1025D0000948C169C1F3C00109B108210162C1699B
:1025E000C1F34011002906D0808C054A034B1168C5
:1025F0005854491C11607047004C004028030020CB
:102600000800002090F82410C90706D001684A6825
:10261000836A22F400321A434A6090F82410890732
:1026200006D501684A68C36A22F480321A434A60B8
:1026300090F82410490706D501684A68036B22F414
:1026400080221A434A6090F82410090706D50168D1
:102650004A68436B22F400421A434A6090F82410FF
:10266000C90606D501688A68836B22F480521A4332
:102670008A6090F82410890606D501688A68C36BC1
:1026800022F400521A438A6090F82410490611D5AA
:1026900001684A68036C22F480121A434A60016C94
:1026A000B1F5801F06D101684A68436C22F4C0026C
:1026B0001A434A6090F82410090606D501684A6852
:1026C000806C22F4002202434A607047F8B500266D
:1026D00004464667FDF770FF0546206800686FF006
:1026E0007E47000708D52B4600224FF400112046F4
:1026F000009700F069F960B92068006840070AD5C2
:102700002B4600224FF480012046009700F05CF930
:1027100008B10320F8BD202084F8710084F872000D
:1027200084F870600020F8BD2DE9F041044601688E
:1027300080682369E66918436369102500273343DD
:102740001843954A0B68954E334003430B6020684D
:102750004168E36821F44051194341602168A06950
:10276000914201D0236A18438B6823F430630343FA
:102770008B608B4B21688B4899420DD1D0F8880033
:1027800010F0030006D001285AD0022856D00328A2
:1027900059D157E0012556E0834B99420BD1D0F82F
:1027A000880010F00C0047D0042849D0082845D0F4
:1027B0000C2848D146E07D4B99420BD1D0F88800D7
:1027C00010F0300038D010283AD0202836D03028E9
:1027D00039D137E0764B99420BD1D0F8880010F010
:1027E000C00029D040282BD0802827D0C0282AD14B
:1027F00028E0704B99420ED1D0F8880010F4407058
:102800001AD0B0F5807F1BD0B0F5007F16D0B0F5A0
:10281000407F18D116E0914215D1D0F8880010F40D
:10282000406009D0B0F5806F0AD0B0F5006F05D0D8
:10283000B0F5406F07D105E0002504E0022502E075
:10284000042500E008255C4B00264FF4004091422F
:102850003DD135B1022D07D0042D07D0082D10D160
:1028600007E0FEF7B5FA03E0184602E0FEF7D0FAFB
:10287000A8B3626802EB4201814202D8B0EB023F8A
:1028800001D9012775E0DFF834815DB1022D0CD04C
:10289000042D13D0082DF4D150082905401846F115
:1028A000000105E0FEF794FA0AE050084449F5E714
:1028B0000023FDF785FCA0F5407156E0FEF7A8FA6D
:1028C0006268010E0302500818187141F0E7E169CF
:1028D0004FF6EF7881422FD1092DD2D200E048E0A7
:1028E000DFE805F006092005230505052600C8E7F1
:1028F000FEF76EFA01E0FEF77BFA4100D4F804001F
:1029000001EB5001B1FBF0F080B2A0F110014145A4
:10291000B7D84FF6F0710140C0F342000143206880
:10292000C16026E027496068EAE7FEF771FAE4E74C
:102930004FF480316068E3E7092DA2D2DFE805F0AB
:1029400006091E052205050525009AE7FEF740FA4F
:1029500001E0FEF74DFA0146606801EB500100BF4F
:10296000B1FBF0F080B2A0F11001414589D8216897
:10297000C860266638466666BDE8F081606803EB8D
:102980005001EDE7FEF744FAE5E7616800EB51001E
:10299000B0FBF1F0E6E7000000800040F369FFEFD4
:1029A0000038014000100240004400400048004050
:1029B000004C0040005000400024F400FFFC0F00D9
:1029C000000024F40048E8012DE9F041984617463C
:1029D0000E460446069D1DE0681C1BD02DB1FDF778
:1029E000EBFDA0EB0800A84214D92068016821F48F
:1029F000D07101602068816821F001018160202090
:102A000084F8710084F87200002084F870000320BC
:102A1000BDE8F0812068C06936EA000004D00020DB
:102A2000B842D9D00020F3E70120F9E70648C16990
:102A3000C1F34011002906D0808C054A034B116870
:102A40005854491C1160704700480040140300208E
:102A50000400002010B514210648FDF7FEFB0548D0
:102A600014211430FDF7F9FB034800214160816017
:102A700010BD00001403002000000020FEE7FEE768
:102A800002E008C8121F08C1002AFAD17047704737
:102A9000002001E001C1121F002AFBD17047000095
:102AA000E2B0FEF7B1FEFDF78DFD282248A134A863
:102AB000FDF7BAFB34216846FDF7CFFB34210DA8A2
:102AC000FDF7CBFB34211AA8FDF7C7FB342127A85B
:102AD000FDF7C3FB14213EA8FDF7BFFB142143A85B
:102AE000FDF7BBFB142148A8FDF7B7FB14214DA847
:102AF000FDF7B3FB142152A8FDF7AFFB142157A833
:102B0000FDF7ABFB14215CA8FDF7A7FBFFF780FCEA
:102B1000FFF752F8FFF794F9FFF7AEF93748364957
:102B200001220160FF21C0E901120021C0E9031266
:102B300041618161FDF726FE00B1FEE7FFF700F974
:102B4000FFF724F9FFF7B4F9FFF746F9FFF70EFA9C
:102B500000220B21FFF7F1F901462720FFF70EFABB
:102B60002720FFF7DFF9FFF701FA00220821FFF71E
:102B7000E4F901463420FFF701FA3420FFF7D2F9D7
:102B800000F064F8FDF7AEFBFFF764FF224C16225D
:102B90001BA1204600F04AF8204D40F6B836052229
:102BA0001FA1284600F042F805221DA1204600F092
:102BB0003DF83046FEF7F0FF1B48FDF759FB82B2A7
:102BC0001949204600F032F8FFF744FFE7E700001C
:102BD00048454C4C4F2C574F524C44212121434FD8
:102BE0004E4E454354454420535543555353465543
:102BF0004C2121210D0A0000001000A02800002017
:102C000050726F6772616D2069732072756E6E69A4
:102C10006E6721200D0A000000480040004C004073
:102C20004154490D0A0000002803002010B500237C
:102C300008E0CC5C04855B1C9BB2C469C4F38014BF
:102C4000002CFAD0521E92B2F3D210BD094801688E
:102C500041F020010160016841F480710160064883
:102C6000016841F020010160016841F48071016058
:102C70007047000000480040004C00400000000089
:102C8000000000000102030406070809A0860100F5
:102C9000400D0300801A060000350C0040420F0072
:102CA00080841E0000093D0000127A000024F40018
:102CB00000366E010048E801006CDC0200000000F4
:102CC00001020304E42C000800000020280000009A
:102CD000802A00080C2D0008280000206007000052
:102CE000902A000800000000000000000000000022
:102CF000436F6E6E656374207468652064657669E1
:0C2D000063650D0A0000000000093D00A2
:040000050800018965
:00000001FF
