:020000040800F2
:100000007004002081180008AD030008AF03000849
:10001000B3030008B7030008BB030008000000009A
:10002000000000000000000000000000BF03000806
:10003000C103000800000000C3030008C503000856
:100040009B1800089B1800089B1800089B180008C4
:100050009B1800089B1800089B1800089B180008B4
:100060009B1800089B1800089B1800089B180008A4
:100070009B1800089B1800089B1800089B18000894
:100080009B1800089B1800089B1800089B18000884
:100090009B1800089B1800089B1800089B18000874
:1000A0009B1800089B1800089B1800089B18000864
:1000B0009B1800089B1800089B1800089B18000854
:1000C0009B1800089B1800089B1800089B18000844
:1000D0009B1800089B1800089B1800089B18000834
:1000E0009B1800089B1800089B1800089B18000824
:1000F0009B1800089B1800089B1800089B18000814
:100100009B1800089B1800089B1800089B18000803
:100110009B1800089B1800089B1800089B180008F3
:100120009B1800089B1800089B1800089B180008E3
:10013000DFF80CD002F016FE004800474501000829
:100140007004002090B000BF4FF000090026B246B6
:10015000B34600BF00F038F901F044FB0A24002543
:1001600006E07649764800F0ADFA641E65F10005B8
:10017000002184EA010069400843F2D17048006818
:10018000064681466D48006883468246D5E00A24CB
:10019000002506E069496A4800F094FA641E65F19A
:1001A0000005002184EA010069400843F2D1644857
:1001B000006806468146614800688346824660487A
:1001C0000068484502D95E48D0F800905C48006855
:1001D000B04201D25A48066858480068504502D9D2
:1001E0005648D0F800A055480068584502D25348F8
:1001F000D0F800B05148006802F0E2FB0746514ACF
:10020000514B02F0EBFACDE90C0102F049FC0E90E3
:100210004EA002F00BFE671C45F100033A464DA0CC
:1002200002F004FE0EA801F09DFA074602F0F4FB6E
:10023000CDE90C014148006802F0C2FB0746414A83
:10024000414B02F0CBFACDE90A013D48006802F0CB
:10025000B7FB07463B4A3C4B02F0C0FACDE9080128
:10026000DDE90C01CDE90201DDE90A01CDE900017A
:100270003EA0DDE9082302F0D9FD584602F0A0FBBC
:100280000746304A304B02F0A9FACDE90C0150463E
:1002900002F096FB07462B4A2B4B02F09FFACDE962
:1002A0000A01304602F08CFB0746264A264B02F034
:1002B00095FACDE90801484602F082FB0746214A3B
:1002C000214B02F08BFACDE90601DDE90C01CDE905
:1002D0000401DDE90A01CDE90201DDE90801CDE90A
:1002E00000013048DDE9062302F0A0FDAAEB0B0077
:1002F00002F066FB134A144BCDE90A0102F06EFAD4
:1003000007468846A9EB060002F05AFB0D4A0E4B41
:10031000CDE90A0102F062FA02460B46CDE9007807
:10032000CDE90C01204802F081FD4FF4FA7000F095
:100330004DF94FF4FA7000F049F928E70400002065
:10034000000000207B14AE47E17A843F0D0A0D0ABD
:1003500000000000B5DA256C6C64B4CED4CBD0D0EC
:10036000CAFDBEDDC8E7CFC20D0A0000B5B1C7B0F7
:10037000CEC2B6C8A3BA252E326620446567432094
:100380002020B5B1C7B0D1B9C7BF3D252E326620F8
:100390006850612020BAA3B0CEA3BA252E326620C1
:1003A0006D0D0A00004300085C430008704700BF61
:1003B000FEE700BFFEE700BFFEE700BFFEE77047B5
:1003C000704770477047000000B585B0012144F2C6
:1003D000040001F083FD4FF40070ADF81000182008
:1003E0008DF8130003208DF8120004A9754801F060
:1003F000B9FA4FF48060ADF8100004208DF81300B6
:1004000004A9704801F0AEFA4FF4E13000900020EA
:10041000ADF80400ADF80600ADF80800ADF80C002A
:100420000C20ADF80A006946674801F0FEFD012185
:10043000654801F086FE05B000BD70B504460D4666
:10044000E1B2614801F0EAFE00BF5F48008800F0B9
:1004500080000028F9D0204670BDF0B503460D4657
:100460001646002729460A2E03D000200870284689
:10047000F0BD33B9302001F8010B00200870284688
:10048000F6E7002B03DA2D2001F8010B5B4242F264
:1004900010720DE093FBF2F404B937B104F13000AF
:1004A00001F8010B04FB123301270A2092FBF0F242
:1004B000002AEFDC002008702846D9E70FB470B599
:1004C00086B006460CA8019073E00B9800785C2873
:1004D0001CD10B98401C0B9000786E2809D0722814
:1004E0000FD10D21304601F099FE0B98401C0B9066
:1004F0000BE00A21304601F091FE0B98401C0B9056
:1005000003E00B98401C0B9000BF4BE00B98007869
:10051000252840D10B98401C0B900078642818D0F7
:10052000732833D1019810C801900BE02178304630
:1005300001F074FE00BF4021304601F0DDFE0028CE
:10054000F9D0641C20780028F0D10B98401C0B9047
:1005500020E0019820C801900A2202A92846FFF74E
:100560007CFF02AC0BE02178304601F057FE00BF63
:100570004021304601F0C0FE0028F9D0641C2078EC
:100580000028F0D10B98401C0B9003E00B98401C06
:100590000B9000BF06E00B9810F8011B0B90304643
:1005A00001F03CFE00BF4021304601F0A5FE0028CE
:1005B000F9D00B980078002887D106B070BC5DF8A0
:1005C00014FB000000080140003801404FF47A712C
:1005D00007E000BF0A1EA1F1010399B2FAD14FF45E
:1005E0007A71021EA0F1010398B2F2D170470000A7
:1005F0004FF47A7107E000BF0A1EA1F1010399B21E
:10060000FAD14FF47A71021EA0F10100F3D17047C4
:100610002DE9FC4781460E4617461D464FF000085F
:10062000524903C9CDE9000146F080008DF8000071
:10063000681CC2B26946684601F066F8804600242C
:1006400005E0601C1DF800003855601CC4B2AC42C7
:10065000F7DB4FFA88F0BDE8FC872DE9FE4F8246B4
:100660000E4617461D464FF000090024A04600BF65
:1006700010E060064FEA10683046711CCEB200F000
:100680007F000DF80800395D08F101000DF8001039
:10069000601CC4B2AC42ECDB6806010E684601F097
:1006A0004CF881464FFA89F0BDE8FE8FAFF2550055
:1006B0002F490862AFF2A7004862AFF2CB00886210
:1006C000002070472DE9F04188B005460E46002015
:1006D00007900690059000278046049003900290B2
:1006E0000190441EFFF7E2FF224800787B2806D1E4
:1006F0001F4800F0D3F8044600201E49087003206C
:1007000000F0FDFA0444002000F014FC0444002032
:1007100000F0E5FB044407A800F0C4FB044406A86D
:1007200000F0FAF8044405A800F045F904440698DE
:1007300000F017F90746059800F062F9804604A911
:1007400003A800F0CAF9044402A901A800F0FAF9CC
:1007500004440298286001983060002000F0CFFA2D
:100760000444204608B0BDE8F0810000644200085F
:10077000400000200800002030B587B04FF0FF3463
:10078000182101A801F03AFFFD48006810B96FF088
:100790007E0480E0FA490968487FF949096818230E
:1007A00001AA4D6A8821A84704469DF804009DF8D7
:1007B000051040EA0120F249096808809DF806000A
:1007C0009DF8071049B240EA0120ED4909684880C8
:1007D0009DF808009DF8091049B240EA0120E84957
:1007E000096888809DF80A009DF80B1040EA0120F6
:1007F000E3490968C8809DF80C009DF80D1049B2C6
:1008000040EA0120DE49096808819DF80E009DF844
:100810000F1049B240EA0120D949096848819DF882
:1008200010009DF8111049B240EA0120D44909682E
:1008300088819DF812009DF8131049B240EA01200A
:10084000CF490968C8819DF814009DF8151049B278
:1008500040EA0120CA49096808829DF816009DF8FF
:10086000171049B240EA0120C549096848829DF83D
:1008700018009DF8191049B240EA0120C0490968E2
:1008800088829DF81A009DF81B1049B240EA0120A9
:10089000BB490968C882204607B030BDF8B5064696
:1008A0004FF0FF34002000900525B54806601EE09B
:1008B000B3490968487FB249096801236A464F6A0B
:1008C000D021B84704469DF80000562807D09DF86F
:1008D0000000572803D09DF80000582800D108E0F8
:1008E000681EC5B2A6480068816A01208847002DAD
:1008F000DEDC00BF9DF80000A1490968087715B942
:100900004FF0FF3000E0002004461CB9FFF734FF31
:10091000204444B22046F8BDF8B504464FF0FF35F8
:10092000002000909648006810B96FF07E0516E030
:1009300093490968487F9249096803236A464E6AC9
:10094000FA21B04705469DF8000000039DF801100C
:1009500040EA01109DF8021040EA1110206028467C
:10096000F8BD30B50146002200230020CC10844D94
:100970002D682D88A4EB4504814D2D68B5F90250F2
:100980006C43E2127E4C24682488C4EB2114644337
:1009900024137B4D2D68B5F904506C43A313D41870
:1009A000774D2D68AC61764C2468A46904EB84040F
:1009B0008034201230BDF8B504464FF0FF350020DA
:1009C00000906F48006810B96FF07E0516E06C4922
:1009D0000968487F6A49096803236A464E6AF72115
:1009E000B04705469DF8000000039DF8011040EA5D
:1009F00001109DF8021040EA111020602846F8BD51
:100A000030B5044600BF00BF00BF5D480068806984
:100A10004FF47A45C5EB600188104043C012584D31
:100A20002D68B5F9105000FB05F355480068B0F982
:100A30000E00484303EB40039810514D2D68AD89DB
:100A400000EB05438810404340134D4D2D68B5F928
:100A50000A506843C5104A480068B0F90800484386
:100A600005EB6000811401F50040454D2D68ED88CF
:100A70006843C113C4F58010A0EB233040F6354520
:100A800000FB05F2B2F1004F06D219B15000B0FBE5
:100A9000F1F208E0002030BD19B1B2FBF1F04200E4
:100AA00001E00020F7E7D0084043400B344D2D68AB
:100AB000B5F91650684301139008314D2D68B5F90A
:100AC000145068434313C8182D4D2D68B5F91250C2
:100AD000284402EB20121046DDE72DE9FC410446D4
:100AE0000D464FF0FF36002000900190244800682A
:100AF00010B96FF07E0622E021490968487F20493D
:100B0000096806236A464F6AF721B84706469DF8EA
:100B1000000000039DF8011040EA01109DF802104A
:100B200040EA111020609DF8030000039DF80410B6
:100B300040EA01109DF8051040EA11102860304687
:100B4000BDE8FC817CB504460D464FF0FF36002021
:100B5000019000900A48006810B96FF07E060CE022
:100B6000694601A8FFF7B9FF06460098FFF7F9FEAE
:100B700028600198FFF744FF206030467CBD0000EC
:100B80000C000020F8B504464FF0FF35002000901F
:100B9000FD48006810B96FF07E0512E0FA49096857
:100BA000487FF949096801236A464E6AF421B04733
:100BB00005469DF80000400920702078F249096838
:100BC00088772846F8BDF8B504464FF0FF35002079
:100BD0000090ED48006810B96FF07E051FE0EA490B
:100BE0000968487FE849096801236A464E6AF4218A
:100BF000B04705469DB99DF8000064F3471000908A
:100C0000E1490968487FE049096801236A460E6A9C
:100C1000F421B047284445B2DB4800688477284671
:100C2000F8BDF8B504464FF0FF3500200090D648D7
:100C3000006810B96FF07E0513E0D3490968487F5A
:100C4000D149096801236A464E6AF421B047054636
:100C50009DF80000C0F3820020702078CA4909681E
:100C6000C8772846F8BDF8B504464FF0FF35002098
:100C70000090C548006810B96FF07E051FE0C249BA
:100C80000968487FC049096801236A464E6AF42111
:100C9000B04705469DB99DF8000064F384000090BC
:100CA000B9490968487FB849096801236A460E6A4C
:100CB000F421B047284445B2B3480068C4772846B9
:100CC000F8BDF8B504464FF0FF3500200090AE485F
:100CD000006810B96FF07E050FE0AB490968487FE6
:100CE000A949096801236A464E6AF421B0470546BE
:100CF0009DF8000000F0030020702846F8BDF8B50C
:100D000004464FF0FF35002000909F48006810B95E
:100D10006FF07E051BE0032C17DC9B480068807F8A
:100D2000400199490968C97F00EB81002044C0B2A5
:100D3000009095490968487F9349096801236A46EC
:100D40000E6AF421B047054601E06FF00105284620
:100D5000F8BD38B54FF0FF34B62000908A480068DF
:100D600010B96FF07E040AE087490968487F864918
:100D7000096801236A460D6AE021A8470446204617
:100D800038BDF8B504464FF0FF35002000907E488E
:100D9000006810B96FF07E050FE07B490968487F55
:100DA0007949096801236A464E6AF521B04705462C
:100DB0009DF8000000F0010020702846F8BDF8B54D
:100DC00005464FF0FF34002000906F48006810B9CE
:100DD0006FF07E041CE06C490968487F6A49096825
:100DE00001236A464E6AF521B047044684B99DF84E
:100DF000000065F30000009063490968487F62497C
:100E0000096801236A460E6AF521B047204444B2BE
:100E10002046F8BDF8B504464FF0FF35002000909D
:100E20005948006810B96FF07E050FE0564909680F
:100E3000487F5549096801236A464E6AF521B04743
:100E400005469DF80000C0F3820020702846F8BDDA
:100E5000F8B505460024002000904B48006810B902
:100E60006FF07E041CE048490968487F46490968DC
:100E700001236A464E6AF521B047044684B99DF8BD
:100E8000000065F3840000903F490968487F3E49AF
:100E9000096801236A460E6AF521B047204444B22E
:100EA0002046F8BDF8B504464FF0FF35002000900D
:100EB0003548006810B96FF07E050EE032490968C8
:100EC000487F3149096801236A464E6AF521B047D7
:100ED00005469DF80000400920702846F8BDF8B589
:100EE00005464FF0FF34002000902748006810B9F5
:100EF0006FF07E041CE024490968487F2249096894
:100F000001236A464E6AF521B047044684B99DF82C
:100F1000000065F3471000901B490968487F1A4993
:100F2000096801236A460E6AF521B047204444B29D
:100F30002046F8BDF8B504464FF0FF35002000907C
:100F40001148006810B96FF07E0563E0042C5FDC87
:100F50000D490968487F0C49096801236A464E6AB1
:100F6000F421B0470546002D54D1052C32D2DFE8DC
:100F700004F0030D161F2800012003490968887733
:100F800001490968C87725E00C0000200120FE49CE
:100F9000096888770220FC490968C8771AE00120AF
:100FA000F949096888770320F7490968C87711E08B
:100FB0000120F549096888770420F3490968C87752
:100FC00008E00220F049096888770520EE490968A1
:100FD000C87700BF00BFEC480068817F9DF8000023
:100FE00061F347100090E8480068C17F9DF8000059
:100FF00061F384000090E4490968487FE249096888
:1010000001236A460E6AF421B047284445B201E044
:101010006FF001052846F8BD30B501460022DA4BD5
:101020001B689C7F0123A3405C10D74B1B68DD7FAE
:101030000123AB4004EB630303EB830404EB431392
:101040001433D14C2468E47F002C01DD0A2400E035
:101050000024234403F10F00C31700EB1373C3F301
:1010600007130B70104630BD2DE9FC4105460E46B6
:101070004FF0FF34002001900090C348006810B981
:101080006FF07E0425E0C0480068807F4001BE49C3
:101090000968C97F00EB8100401CC0B20190BA49C9
:1010A0000968487FB8490968012301AA0F6AF42139
:1010B000B84704466846FFF7AFFFB3480068816A47
:1010C0009DF80000884731462846FFF706FD20447A
:1010D00044B22046BDE8FC812DE9F04104460D46AE
:1010E00016464FF0FF37A848006810B96FF07E072A
:1010F0000BE0A5490968487FA349096833462A4699
:10110000D1F820C02146E04707463846BDE8F081C7
:101110002DE9F04104460D4616464FF0FF379A4838
:10112000006810B96FF07E070BE097490968487FA7
:101130009549096833462A46D1F824C02146E0473C
:1011400007463846BDE8F0812DE9F14F8CB000BF6D
:1011500000BF00BF8C490968B1F9020001F01FFC13
:10116000CDE9080188490968088801F029FC804612
:101170000022864B01F0A4FBCDE904010C9801F09C
:101180000EFC80460022824B01F09AFB8246DDE98C
:10119000042301F01DFBCDE90601DDE9082301F080
:1011A0001DFB04460D4678490968B1F9040001F0B9
:1011B000F6FBCDE9080174490968088801F000FCD4
:1011C00080460022734B01F07BFB82468B460C98D5
:1011D00001F0E5FB804600224FF0824301F070FBF6
:1011E00052465B46CDE9000101F0F2FACDE9040177
:1011F00065490968088801F0E3FB80460022654BD9
:1012000001F05EFBCDE900010C9801F0C8FB8046BF
:1012100000224FF0824301F053FB8246DDE90023B8
:1012200001F0D6FACDE90201DDE9042301F0D6FA96
:10123000CDE90601DDE9082301F0D0FA06460F46A4
:1012400032463B462046294601F021FA804601F00D
:10125000C4FB4D490968886132463B462046294611
:1012600001F015FA804600224B4B01F029FBCDE935
:101270000A01DDE90A010DB0BDE8F08F2DE9F14F5B
:101280008AB000BF00BF00BF3F490968886901F00C
:1012900086FB00224FF08043CDE9080101F010FBEE
:1012A000824600223D4B01F093FA04460D46364932
:1012B0000968B1F9100001F072FB22462B46CDE916
:1012C00008012046294601F089FACDE90601DDE949
:1012D000082301F083FA82460022314B01F0F0FA34
:1012E0008046894628490968B1F90E0001F057FB8C
:1012F00022462B46CDE9060101F070FA00224FF09C
:101300008043CDE9080101F069FA824642464B4626
:1013100001F0BDF9804689461B490968B1F90C0006
:1013200001F03DFB00221F4BCDE9060101F056FA0A
:1013300082468B4600221C4B4046494601F0C0FACB
:1013400052465B46CDE9080101F0A1F98046894685
:101350000D490968B1F9080001F021FB82462246D7
:101360002B4601F03BFACDE9060107490968B1F9BE
:101370000A0001F014FB22462B46CDE9000101F0E2
:101380002DFA8246224611E00C0000200000904019
:101390000000D0400000C0400000B4400040EF40DA
:1013A0000000E0400000F040000010402B4601F03B
:1013B00015FA0022CB4BCDE9020101F081FACDE90B
:1013C0000401DDE9062301F062F90022C54BCDE9F5
:1013D000080101F075FA04460D46C3490968C8883A
:1013E00001F0EEFA0022C14BCDE908012046294662
:1013F00001F066FA82460022BD4B01F048F9CDE9C2
:101400000601DDE9082301F0E9F904460D460A98D2
:1014100001F0C5FA82460022B64B01F0DCF906461F
:101420000F46002213462046294601F021FB06D331
:10143000002213462046294601F002FB19D2002261
:10144000AD4B4046494601F03BFA32463B46CDE9BA
:10145000060101F0C0F90022A84BCDE9080101F016
:10146000BDF9824622462B4601F02AFA06460F466F
:1014700004E0002001460BB0BDE8F08F9A490968EE
:10148000B1F9160001F08BFA32463B46CDE9060170
:1014900001F0A4F9824632463B4601F09FF9002252
:1014A000974BCDE9080101F00BFA04460D468E4931
:1014B0000968B1F9140001F072FA32463B46CDE9F1
:1014C000080101F08BF982460022884B01F0F8F9FF
:1014D0008046894684490968B1F9120001F05FFA33
:1014E00082468B4642464B462046294601F0CFF8BD
:1014F00052465B46CDE9040101F0C9F80022814B58
:10150000CDE9060101F0DCF932463B46CDE90801A0
:1015100001F0BDF806460F4630463946ABE72DE9E7
:10152000F14F82B000BF00BF00BF6F480068806904
:10153000C1174FF4FA33C41A61F10005A4FB04107B
:1015400005FB040004FB050367480068B0F91000C0
:101550004FEAE07CA1FB008A03FB00A001FB0C0921
:1015600061480068B0F90E00C117A0FB042301FB1D
:10157000043100FB0510400440EAD230510411EB65
:10158000080840EB090958480068B0F90C0018F148
:10159000000849EBC009A4FB041005FB040004FB90
:1015A000050351480068B0F90A004FEAE072A1FB58
:1015B00000CA03FB00A001FB02004FEA1C2141EA24
:1015C00000614FEA202248480068B0F908004FEA5D
:1015D000E073A446A0FB0CBE03FB04E300FB053054
:1015E0004FEA003040EA1B504FEA0B338C461CEBAD
:1015F000030442EB0005221C45F500403A49096806
:10160000C9880023A2FB01AC00FB01C002FB03015F
:101610004C10CD170298C0F58010C7170646002160
:1016200084EA01006940084319D0F80740EA5600EF
:10163000F107B1EB080260EB090C40F635430021DD
:10164000A2FB030A0CFB03A302FB013122462B463B
:10165000CDE9000100F09AFF06460F4602E00020A7
:10166000BDE8FE8F20480068B0F91600C217710B64
:1016700041EAC74C7B13A0FB0C1A02FB0CA200FB37
:101680000322700B40EAC7407B13A1FB00CA02FB98
:1016900000A001FB03004FEA5C6141EAC01445165B
:1016A00011480068B0F91400C117A0FB062301FB24
:1016B000063100FB0710D10C41EA40384FEAE049FF
:1016C000311947EB050011EB080140EB0900020658
:1016D00042EA112004490968B1F9121009014618BB
:1016E0003046BDE7000020410C0000200000E04033
:1016F0000000F03F000030410000B040006AB840F8
:101700000000E041000030402DE9F04105460E4662
:10171000174602212C4800F0D4F9002404E0285D8B
:1017200000F084F83055641CBC42F8DB02212648E6
:1017300000F0C5F90020BDE8F08170B505460E4601
:101740000221214800F0BDF9002403E0285D00F0EB
:101750006DF8641CB442F9DB02211B4800F0AFF9BC
:10176000002070BD2DE9FF5F82460021DAF80000FD
:1017700001F0B2F925D21548DAF8001000F049FF5F
:10178000834601F049F9124A124BCDE9000102F0FB
:1017900057F806460022104B01F01AF84FF0C042ED
:1017A0000E4BCDE9020101F019F880464FF00042DE
:1017B0000B4B01F085F8044601F072F904B0BDE866
:1017C000F09F0020FAE7000000080140CDEC7D44C6
:1017D00028610C878A5AC83F0000F03F66A2724019
:1017E000BE9F7A3F08B50121042000F077FBA220BC
:1017F000ADF8000010208DF8030003208DF80200E2
:1018000069461E4800F0AEF802211C4800F057F966
:101810000120ADF8000048208DF8030003208DF86A
:1018200002006946154800F09DF808BD70B50646EF
:10183000002507241EE06806050E20210F4800F051
:1018400040F90120A040304020B180210B4800F039
:1018500036F903E08021094800F033F920210748D8
:1018600000F02DF94021054800F00FF908B145F0CE
:101870000105641E002CDEDA284670BD0008014018
:101880000648804706480047FEE7FEE7FEE7FEE71A
:10189000FEE7FEE7FEE7FEE7FEE7FEE78B24000833
:1018A0003101000810B50446CC48844208D101211A
:1018B000042000F02DFB0021042000F029FB46E06D
:1018C000C748844208D10121082000F021FB0021F3
:1018D000082000F01DFB3AE0C248844208D10121F3
:1018E000102000F015FB0021102000F011FB2EE06D
:1018F000BD48844208D10121202000F009FB0021CD
:10190000202000F005FB22E0B848844208D10121E4
:10191000402000F0FDFA0021402000F0F9FA16E026
:10192000B348844208D10121802000F0F1FA00215F
:10193000802000F0EDFA0AE0AE48844207D1012190
:10194000801500F0E5FA0021A01500F0E1FA10BDC5
:1019500010B50121084600F0DBFA0021012000F05B
:10196000D7FA10BD2DE9F0410246002500260020DF
:1019700000230024002791F803C00CF00F0591F814
:1019800003C00CF0100CBCF1000F03D091F802C0A2
:101990004CEA050591F800C0BCF1000F31D0146885
:1019A00000202BE04FF0010C0CFA00F3B1F800C05E
:1019B0000CEA03069E4220D183004FF00F0C0CFA74
:1019C00003F7BC4305FA03FC4CEA040491F803C096
:1019D000BCF1280F06D14FF0010C0CFA00FCC2F844
:1019E00014C00AE091F803C0BCF1480F05D14FF0D4
:1019F000010C0CFA00FCC2F810C0401C0828D1D31E
:101A00001460B1F800C0BCF1FF0F34DD5468002051
:101A10002EE000F1080C4FF0010808FA0CF3B1F8C1
:101A200000C00CEA03069E4221D183004FF00F0C48
:101A30000CFA03F7BC4305FA03FC4CEA040491F8E2
:101A400003C0BCF1280F05D100F1080C08FA0CF80E
:101A5000C2F8148091F803C0BCF1480F07D100F11F
:101A6000080C4FF0010808FA0CF8C2F81080401C6E
:101A70000828CED35460BDE8F0814FF6FF71018095
:101A8000022181700421C1707047024600209368D2
:101A90000B400BB1012000E0002070470146886830
:101AA00080B2704702460020D3680B400BB1012082
:101AB00000E0002070470146C86880B270470161AD
:101AC0007047416170470AB1016100E041617047B0
:101AD000C16070474FF480320A4382618161826144
:101AE00082698269704702460020434B18684FF6AE
:101AF0008073184040EA021008433F4B186070475B
:101B00003E49C8617047F0B50A4600230024002111
:101B1000002500F00046B6F1004F02D1364EF169C3
:101B200001E0354E7168C0F3034583B200F44016FE
:101B3000B6F5401F08D121F070612F4E766826F06F
:101B400070662D4F7E6012E000F48016B6F5801F9F
:101B500006D1032606FA05F4A14341F0706106E0C0
:101B6000460D360103FA06F6B14341F0706122B129
:101B7000460D360103FA06F6314300F00046B6F191
:101B8000004F02D11C4EF16101E01B4E7160F0BDAF
:101B900030B500228B071C0F0F2303FA04F2164BFB
:101BA00008338C1053F824309343134C08348D10B1
:101BB00044F8253023468C1053F824308C07240F2A
:101BC00000FA04F423430C4C08348D1044F82530FB
:101BD00030BD0A49DC310860704700000008014050
:101BE000000C0140001001400014014000180140A9
:101BF000001C014000200140000001400000204284
:101C0000DF48006840F00100DD4908600846406890
:101C1000DC490840DA49486008460068DA4908406B
:101C2000D74908600846006820F48020086008460C
:101C3000406820F4FE0048604FF41F008860704741
:101C4000CF49096821F48031CD4A116011460968F5
:101C500021F480211160B0F5803F03D0B0F5802FD2
:101C60000ED106E0C649096841F48031C44A1160CA
:101C700007E0C349096841F4A021C14A116000E0AE
:101C800000BF00BF704710B50146002200230020AE
:101C90004A11012A02D1BA4C236806E0022A02D175
:101CA000B74C236A01E0B64C636A01F01F020124BD
:101CB00094401C400CB1012000E0002010BD38B55C
:101CC000002000900024002500BF3120FFF7DBFF3B
:101CD00005460098401C00900098B0F5A06F01D018
:101CE000002DF2D03120FFF7CEFF08B1012400E033
:101CF0000024204638BD01460020A14A106820F08B
:101D0000F80040EAC10010607047A04908607047C1
:101D1000024600209A4B586820F47C1042EA0103E6
:101D20001843974B586070479849086670470146BA
:101D30000020934A506820F0030008435060704729
:101D40008F48406800F00C007047014600208C4A24
:101D5000506820F0F00008435060704701460020B2
:101D6000874A506820F4E06008435060704701469D
:101D70000020834A506820F4605040EAC10050605F
:101D8000704729B17E4A527A02437D4B5A7204E071
:101D90007B4A527A82437A4B5A7270477B49D831D8
:101DA0000860704701460020754A506820F44040A2
:101DB0000843506070470021714A20321170704A08
:101DC00082F82010012802D004280AD104E0012161
:101DD0006B4A2032117005E00521694A20321170EA
:101DE00000E000BF00BF7047694908607047644960
:101DF000096A0143624A11627047654944390860C3
:101E0000704730B500210022002400235C4D6D682E
:101E100005F00C0121B1042905D0082923D105E0E2
:101E20005C4D056022E05B4D05601FE0544D6D6820
:101E300005F47012524D6D6805F48034022505EBEF
:101E400092421CB9544D554305600BE04C4D6D68F2
:101E500005F400351DB1504D5543056002E04D4D70
:101E60005543056002E04B4D056000BF00BF444D87
:101E70006D6805F0F0010909484D6B5C0568DD40AF
:101E800045603F4D6D6805F4E061090A434D6B5CA8
:101E90004568DD4085603A4D6D6805F46051C90ABA
:101EA0003E4D6B5C4568DD40C560354D6D6805F4A1
:101EB0004041890B3A4D6B5CC568B5FBF3F5056194
:101EC00030BD29B12E4A526902432D4B5A6104E0BC
:101ED0002B4A526982432A4B5A61704729B1284ADA
:101EE00092690243264B9A6104E0254A9269824333
:101EF000234B9A61704729B1214AD2690243204B92
:101F0000DA6104E01E4AD26982431D4BDA617047F0
:101F100029B11B4AD2680243194BDA6004E0184A1F
:101F2000D2688243164BDA60704729B1144A1269AD
:101F30000243134B1A6104E0114A12698243104BA9
:101F40001A61704712494039086070470F49C864E8
:101F500070470B49C87170470948406A40F080706B
:101F600007494862704701460020054A92680A40C6
:101F70000AB1012000E000207047014988727047D3
:101F8000001002400000FFF8FFFFF6FE0000424292
:101F90008004424200127A0000093D001000002037
:101FA0002000002010B50446FB48844209D10121DD
:101FB0008803FFF7ADFF00214FF48040FFF7A8FF33
:101FC00032E0F648844209D101214804FFF7ADFF11
:101FD00000214FF40030FFF7A8FF25E0F0488442CD
:101FE00009D101218804FFF7A0FF00214FF48020D0
:101FF000FFF79BFF18E0EB48844209D10121C80498
:10200000FFF793FF00214FF40020FFF78EFF0BE056
:10201000E548844208D101210805FFF786FF002129
:102020004FF48010FFF781FF10BD2DE9F04786B017
:1020300005460E460024A24600BFA1460027B089EF
:1020400000B100BF2F462C8A4CF6FF700440F08888
:1020500004432C82AC894EF6F3100440B0883189D9
:102060000843718908430443AC81AC8A4FF6FF40B2
:102070000440B0890443AC8201A8FFF7C2FEC64801
:10208000874202D1DDF810A001E0DDF80CA0A8899C
:1020900000F4004040B10AEBCA0000EB0A103168BE
:1020A0004900B0FBF1F807E00AEBCA0000EB0A10A8
:1020B00031688900B0FBF1F86420B8FBF0F004014E
:1020C0002009642101FB1089A88900F4004040B177
:1020D000322000EBC900B0FBF1F000F00700044330
:1020E00008E0322000EB09106421B0FBF1F000F0B1
:1020F0000F0004432C8106B0BDE8F0874FF4165161
:10210000016000218180C18001810C214181002179
:102110008181704710B502460020108A4FF2FF03FC
:1021200018400B884C8823438C882343CC88234356
:102130001843108210BD0021018041808180C18040
:10214000704721B1828942F40052828104E0828981
:102150004DF6FF731A4082817047F0B503460024A4
:1021600000260025002040F66A17B94200D100BFC2
:102170001846C1F3421401F01F06012707FA06F5BD
:10218000012C01D10C3004E0022C01D1103000E010
:1021900014301AB107682F43076002E00768AF43A5
:1021A0000760F0BD1AB1838A0B43838202E0838A01
:1021B0008B4383827047028A4FF6F0731A40028283
:1021C000028A0A430282704782894FF2FF731A40E3
:1021D000828182890A438281704721B1828942F0DB
:1021E0000202828104E082894FF6FD731A408281E7
:1021F0007047028A4FF6DF731A400282028A0A434E
:102200000282704721B1028A42F48042028204E0D5
:10221000028A4BF6FF731A4002827047C1F308022C
:102220008280704701468888C0F308007047818922
:1022300041F0010181817047028BD2B20283028B8F
:1022400042EA012202837047028B02F47F4202833A
:10225000028B0A430283704721B1828A42F0200236
:10226000828204E0828A4FF6DF731A4082827047CE
:1022700021B1828A42F01002828204E0828A4FF603
:10228000EF731A408282704721B1828A42F00802BD
:10229000828204E0828A4FF6F7731A408282704786
:1022A00021B1828942F40042828103E08289C2F333
:1022B0000E028281704721B1828A42F400628282DA
:1022C00004E0828A4FF2FF731A4082827047828A4A
:1022D0004FF6FB731A408282828A0A4382827047D9
:1022E00021B1828A42F00202828204E0828A4FF6A1
:1022F000FD731A408282704702460020B1F5007FCC
:1023000000D100BF13880B400BB1012000E000207A
:10231000704701F40072B2F5007F00D100BFCA43DC
:102320000280704770B5024600240023002500207B
:1023300040F66A16B14200D100BFC1F3421501F068
:102340001F03012606FA03F3012D02D196893340BB
:1023500006E0022D02D1168A334001E0968A33400E
:102360000C12012606FA04F41688344013B10CB19D
:10237000012000E0002070BD10B50022002340F6CF
:102380006A14A14200D100BF0A1201249440A3B2F2
:10239000DC43048010BD00000038014000440040D0
:1023A00000480040004C0040005000400CB50020A8
:1023B000019000906C48006840F480306A490860E1
:1023C00000BF6948006800F4003000900198401C8C
:1023D0000190009818B90198B0F5A06FF1D162484A
:1023E000006800F4003010B10120009001E00020EE
:1023F00000900098012843D15C48006840F010002C
:102400005A4908600846006820F003000860084642
:10241000006840F002000860534840685249486034
:102420000846406848600846406840F4806048605C
:102430000846406820F47C1048600846406840F434
:10244000E81048600846006840F08070086000BFEF
:102450004548006800F000700028F9D04248406804
:1024600020F00300404948600846406840F0020000
:10247000486000BF3C48406800F00C000828F9D1D3
:102480000CBD10B5FFF792FF10BD10B536480068BF
:1024900040F001003449086008464068344908406B
:1024A0003149486008460068324908402E490860B2
:1024B0000846006820F4802008600846406820F440
:1024C000FE0048604FF41F008860FFF7DAFF4FF00E
:1024D00000602949086010BD10B5002100200022CD
:1024E000214B5B6803F00C0121B1042906D00829B7
:1024F00028D107E0214B224C236027E01F4B204CC2
:10250000236023E0184B5B6803F47010164B5B6884
:1025100003F48032022303EB904022B9194B43436A
:10252000174C23600DE0104B5B6803F4003323B1BC
:10253000144B4343124C236003E0104B4343104CB5
:10254000236003E00D4B0E4C236000BF00BF064B21
:102550005B68C3F303130C4CE15C094B1B68CB4075
:10256000074C236010BD0000001002400020024014
:102570000000FFF8FFFFF6FE08ED00E000127A0011
:102580002400002000093D00280000202DE9F04132
:102590000024061B254671F1000605DA01240027F8
:1025A000D0EB070067EB0101161E73F1000605DA98
:1025B0000027D2EB0702012567EB030300F0ACFA1A
:1025C00086460E4617469C46AC4204D00025D0EB0A
:1025D000050E65EB010624B10020D2EB000760EB8D
:1025E000030C704631463A466346BDE8F081D2B2EC
:1025F00001E000F8012B491EFBD270470022F6E7EC
:1026000010B513460A4604461946FFF7F0FF204668
:1026100010BD30B480EA010202F0004530F0004203
:1026200021F0004013D090B1C30DD40DC2F31601B8
:10263000C0F31600E41A41F4000140F400027D34B6
:10264000914201D3641C00E04900002C02DA30BC46
:10265000002070474FF400000023914201D3891AF3
:10266000034340084FEA4101F7D151B1914202D1F1
:102670004FF0004105E002D24FF0010101E06FF0A0
:10268000010103EBC450284430BC00F0A7BA2DE987
:10269000FE4F804681EA0300C00F0C46009021F0F7
:1026A000004123F00045B8EB0200A94105D24046A5
:1026B000214690461C460B46024623F0004010433C
:1026C00047D0270DC7F30A00C3F30A510290401AFE
:1026D000019040286BDAC3F3130040F4801B00988C
:1026E000924620B10023D2EB030A63EB0B0B019857
:1026F0005946C0F14002504600F03FFA06460D46EA
:1027000050465946019A00F057FA10EB0800614113
:10271000002487EA115284EAE7731A4340D0009AF2
:1027200062B3019A012A4FEA075215DC001B61EBE4
:1027300002014FF0004202EA0752CDE90042001CBC
:1027400041F5801132462B4600F08EFA03B0BDE809
:10275000F08F40462146F9E7001B61EB0201001CA7
:1027600041F5801300185B412018A2F5001747EBD4
:10277000030140EAD570B6196D4111E06D084FEACA
:10278000360645EAC0754FEA0752001B61EB0201AD
:10279000001C41F5801149084FEA300000195141F1
:1027A00032462B4603B0BDE8F04F00F04EBA009819
:1027B000012240000023D0EB020263EBE07300989B
:1027C00021464FEAE074B8EB000061EB0401E9E751
:1027D00083F000435BE781F0004158E72DE9FE4FAD
:1027E00081EA030404F0004421F0004100944FF01A
:1027F000000B23F0004350EA01045ED052EA0304C8
:102800005BD0C3F30A54C1F30A552C44A4F2F33449
:102810000194A0FB0254C1F3130141F48011C3F3EE
:10282000130343F4801301FB024400FB034E840AAC
:10283000970A44EA815447EA8357A4FB0768029544
:102840008D0A05FB07854FEA932C04FB0C542705E2
:10285000029D4FEA065847EA1637B5EB08056EEBBE
:10286000070C870E920E47EA811742EA8312A7FBF4
:102870000201B6EB0B0164EB00042B0D43EA0C33B1
:102880005E1844EB1C50DA465146E7FB0201C5F3E3
:1028900013044FEA0B3343EA14534FEA0432019C0A
:1028A00043EA0603A4F10C040294009CCDE900B4B1
:1028B00000F0DAF903B0BDE8F08F00200146F9E737
:1028C0002DE9F04D81EA030404F0004B21F00045AE
:1028D00014464FF0000A23F0004150EA050220D0D0
:1028E00054EA01021DD0C5F30A570246C5F313038B
:1028F000C1F31300C1F30A5640F4801543F480136A
:10290000A7EB0608101BD64608F2FD3873EB05004E
:1029100002D308F1010801E092185B41B8F1000F01
:1029200003DA00200146BDE8F08D00204FF480114D
:10293000064684460EE0171B73EB050705D3121BF2
:1029400063EB050306434CEA010C49084FEA3000EB
:1029500092185B4150EA0107EDD152EA030012D010
:1029600082EA040083EA0501084305D0101BAB414D
:1029700006D20122002306E000224FF0004302E0CD
:102980006FF0010253101AEB06004CEB085110EBEC
:102990000A0041EB0B01BDE8F04D00F056B90EB551
:1029A000C10F80EAE0700844CA07002140F23343B7
:1029B0008DE80E000A460B4600F056F903B000BD44
:1029C0000EB540F2334102910021CDE900110A46D3
:1029D0000B4600F049F903B000BD70B5C1F30A52CF
:1029E00001F000450024C1F3130140F2FF3341F42C
:1029F00080119A4201DA002070BD40F233439A42BE
:102A0000A2F2334203DC524200F0C6F800E09040EC
:102A10002C43F1D0404270BD00F0004230F0004045
:102A20000AD0C10D01F56071C0F3160042EA0151F0
:102A3000C20840071143704700200146704700005C
:102A400030B5041E71F1000404DB4FF00044404235
:102A500064EB0101141E73F1000405DB1C464FF00A
:102A60000043524263EB04038B4208BF824230BDF5
:102A700030B5041E71F1000404DB4FF00044404205
:102A800064EB0101141E73F1000405DB1C464FF0DA
:102A90000043524263EB0403994208BF904230BDA9
:102AA00001F0004330B421F0004150EA010206D0A9
:102AB0000A0DA2F56072C1F31301002A02DC30BCDA
:102AC00000207047440F44EAC104C100E01830BC44
:102AD00000EBC25000F082B8002801DBC0F10040DA
:102AE000002901DBC1F100418842704730B50B4637
:102AF000014600202022012409E021FA02F59D422E
:102B000005D303FA02F5491B04FA02F52844151E01
:102B1000A2F10102F1DC30BD2DE9F05F0546002095
:102B200092469B4688460646814640241BE028463E
:102B300041464746224600F02FF853465A46C01AEF
:102B4000914110D311461846224600F016F82D1A6E
:102B500067EB01084F4622460120002100F00DF8E6
:102B600017EB00094E41201EA4F10104DFDC4846AA
:102B700031462A464346BDE8F09F202A04DB203A2E
:102B800000FA02F1002070479140C2F1200320FAC0
:102B900003F3194390407047202A04DB203A21FABE
:102BA00002F00021704721FA02F3D040C2F1200266
:102BB0009140084319467047202A06DBCB17203A7C
:102BC00041FA02F043EAE07306E041FA02F3D04032
:102BD000C2F1200291400843194670470029A8BF5E
:102BE0007047401C490008BF20F00100704710B436
:102BF000B0FA80FC00FA0CF050EA010404BF10BCEB
:102C0000704749B1CCF1200421FA04F411FA0CF117
:102C100018BF012121430843A3EB0C01CB1D4FEA50
:102C200000614FEA102042BF002010BC704700EB4B
:102C3000C35010440029A4BF10BC7047401C490079
:102C400008BF20F0010010BC704710B5141E73F1CE
:102C5000000408DA401C41F1000192185B411A435C
:102C600001D120F0010010BD2DE9F04D92469B46A8
:102C700011B1B1FA81F202E0B0FA80F2203290464E
:102C8000FFF77BFF04460F4640EA0A0041EA0B01CA
:102C900053465A46084313D0114653EA010019D04F
:102CA000C8F140025046FFF777FF05460E465046F2
:102CB00059464246FFF761FF084305D0012004E072
:102CC00020463946BDE8F08D0020054346EAE0760F
:102CD0002C4337430A986305E40AA0EB080000225E
:102CE000FD0A44EA47540A3002D500200146E9E7CC
:102CF000010510196941DDE9084500196941BDE880
:102D0000F04DA2E770B521F0004303430CD0C1F3AE
:102D10000A550024D5EB040564EB0403D617AD1A5D
:102D2000B34102DB0020014670BD201841EB025187
:102D300070BDC1F30A52C1F3130140F2FF3341F4F5
:102D400080119A4202DA00200146704740F2334374
:102D50009A42A2F2334202DC5242FFF71DBFFFF754
:102D60000CBF0000064C074D06E0E06840F0010390
:102D700094E8070098471034AC42F6D3FDF7DCF92D
:102D8000A0430008C04300082DE9F04D00231A4677
:102D90001B1A8A4103DB00200146BDE8F08DC1F318
:102DA0000A52C1F3130141F480154FF0000BD10713
:102DB00002D100186D41521E0027044640F2FF1157
:102DC000384601EB620A3E468046024600204FF438
:102DD0008011FFF7E1FEC2197141BB1846EB0100FB
:102DE000B4EB030C75EB000C04D3E41A65EB00059F
:102DF00017460E46241908F101006D41804634281B
:102E0000E3DDF91946EB0600091BA84103D24FF098
:102E1000FF32134601E0002213461BEB070046EB8E
:102E20000A51BDE8F04DFFF710BF00000FB4054B8D
:102E300010B503A9044A029800F06AF910BC5DF8C5
:102E400014FB00003B04000838000020490050EA51
:102E5000C12018BF04204A0D18BF40F0010040F205
:102E6000FF72B2EB515F08BF40F00200012808BFBB
:102E7000052070472DE9F0414F1E00EBC7010446C5
:102E8000D1E9000115461E4637F006020DD02A464C
:102E90003346FFF7A3FC7F1E04EBC703D3E90023EF
:102EA000FFF7F5FB37F00602F1D1022F25D0042FF2
:102EB00013D0062F18BFBDE8F0812A463346FFF72E
:102EC0008DFCD4E90A23FFF7E2FB2A463346FFF7DD
:102ED00085FCD4E90823FFF7DAFB2A463346FFF7DF
:102EE0007DFCD4E90623FFF7D2FB2A463346FFF7E1
:102EF00075FCD4E90423FFF7CAFB2A463346FFF7E3
:102F00006DFCD4E90223FFF7C2FB2A463346FFF7E4
:102F100065FCD4E90023BDE8F041FFF7B8BB000031
:102F20000022134610460149FFF7CABC0000F03FDB
:102F3000FFF7ADBB0022134610461146FFF7C0BC99
:102F400040F2013200204FF0E041FFF7DBBE00000D
:102F5000024A00201107FFF7D5BE000001FDFFFF68
:102F600002E008C8121F08C1002AFAD17047704752
:102F7000002001E001C1121F002AFBD170470000B0
:102F800001490860704700003C0000202DE9FF5F08
:102F900082B00021DDE90430020DDDF840B00343CA
:102FA00018D044F61050A2F2FF3242431514119883
:102FB00001281FD0A5EB0B00401C5FEA000A4FF070
:102FC00000064E4FDFF83891B046504615D5CAF18D
:102FD000000413E0119801244AA3012801D16FEAEB
:102FE0000B010298119AC0E90031C0E9024206B013
:102FF000BDE8F09FCBF10000DFE704460021404A26
:10300000491842EB0450CDE9001012E0E00707D068
:1030100032463B4640464946FFF7E0FB804689463C
:1030200032463B4610461946FFF7D8FB06460F4688
:103030006410002CEAD1DDE90401DDE90023BAF1D6
:10304000000F06DAFFF7CAFB42464B46FFF7C6FB06
:1030500005E0FFF735FC42464B46FFF731FC0446DE
:103060000E460022284BFFF703FD03D84FF0FF3038
:10307000014607E00022254B20463146FFF707FBBB
:10308000FFF757FE102409E0002C0ADB0A22002378
:10309000FFF742FD039B30321A55641E50EA0102CD
:1030A000F2D1641C039AC4F111031444119A012A49
:1030B00003D0012208430DD10AE0084304D00020C8
:1030C0004FF0110B119072E7A3EB0B056D1E0DE095
:1030D0005B4504DD4FF0000205F1010504E003DA71
:1030E0004FF00002A5F10105002AECD002981199D9
:1030F000C0E90231C0E9004579E700000000144052
:103100000000F03F300000000000F0430000E03F0E
:103110002DE9FF4F95B09B468946064600250FE2F4
:10312000252877D100242746F84A0121059400E09C
:10313000044316F8013F203B01FA03F01042F7D197
:1031400030782A2811D06FF02F033078A0F13002A8
:10315000092A16D8059A44F0020402EB820203EB16
:1031600042021044761C0590EFE759F8042B0592B3
:10317000002A03DA504244F40054059044F002045B
:10318000761C30782E2816D116F8010F44F004046E
:103190002A280DD06FF02F023078A0F13003092BD0
:1031A00009D807EB870302EB4303C718761CF3E744
:1031B00059F8047B761C30786C280FD006DC4C283C
:1031C00017D068280DD06A2814D104E0742810D0D4
:1031D0007A280FD10DE044F400140AE044F480147E
:1031E00001E044F440147278824202D104F5801464
:1031F000761C761C307866280BD013DC582877D0E4
:1032000009DC002875D04528F6D04628F4D0472898
:103210001AD19DE118E0632835D0642879D065285B
:1032200012D195E1702873D008DC6728F1D06928A5
:103230006FD06E280DD06F2806D1B5E073282CD042
:10324000752875D0782874D05A46179990476D1C08
:1032500075E1C4F30250022809D003280DD0D9F833
:10326000001004280DD00D6009F1040967E1D9F8B8
:103270000010EA17C1E90052F6E7D9F800100D80F6
:10328000F2E70D70F0E719F8041B8DF8001000202C
:103290008DF80100EA46012003E059F804AB4FF035
:1032A000FF3061074FF0000102D40DE008F1010189
:1032B0008846B9420FDA8045F8DB1AF80810002971
:1032C000F4D108E008F1010188468142FADB1AF8DE
:1032D00008100029F6D105985B46A0EB08072146A7
:1032E0003846179A00F094FA284400EB080507E0E6
:1032F0004DE029E10DE01AF8010B5A461799904765
:10330000B8F10108F7D25B4621463846179A13E117
:1033100042E00A220092C4F302524FF0000A022A4D
:1033200008D059F804CB032A4FEAEC710AD00DE01B
:1033300029E02AE009F1070121F00702F2E802C1C1
:10334000914609E00FFA8CFC4FEAEC71042A03D194
:103350004FFA8CFC4FEAEC71002907DA0A4600218B
:10336000DCF1000C61EB02012D2202E0220504D504
:103370002B228DF80420012203E0E20701D0202255
:10338000F7E7904659E00A2102E010220DE01021F3
:103390004FF0000A00910BE010224FF0000A44F0B9
:1033A00004040827009203E008224FF0000A00926C
:1033B000C4F30252022A05D059F804CB0021032A93
:1033C00008D009E009F1070121F00702F2E802C183
:1033D000914605E01FFA8CFC042A01D10CF0FF0C89
:1033E0004FF00008220728D5702806D0009B83F0F4
:1033F000100353EA0A0305D00EE040228DF80420A2
:10340000012208E05CEA010206D030228DF8042097
:103410008DF8050002229046009B83F0080353EAD2
:103420000A030AD15CEA010201D1620705D5302204
:103430008DF804204FF001087F1E582804D034A0D6
:1034400003900EA802900DE036A0F9E753466046BF
:10345000009AFFF761FB84460398825C0298401E45
:10346000029002705CEA0100F0D1029806A9081AE5
:1034700000F1200A600702D524F4803400E001271F
:10348000574502DDA7EB0A0000E0002000EB0A012F
:10349000009005984144401A0590E00306D45B462D
:1034A0002146179A059800F0B3F90544002706E075
:1034B00001A85A46C05D179990476D1C7F1C47456F
:1034C000F6DBE0030CD55B462146179A059800F021
:1034D0009FF9054404E030205A46179990476D1C27
:1034E0000099481E00900029F5DC08E00298029936
:1034F0005A460078491C0291179990476D1CBAF101
:103500000001AAF1010AF1DC65E1000009280100CF
:103510003031323334353637383961626364656649
:10352000000000003031323334353637383941420B
:10353000434445460000000000F058F90544761C5D
:10354000307800287FF4ECAD19B02846BDE8F08F44
:10355000620700D4062709F1070222F0070CFCE8F5
:103560000223E14603F000485FEA080C02D00FF2A4
:10357000702C0DE05FEA045C02D50FF2682C07E0C6
:103580005FEAC47C02D00FF2602C01E0AFF2700C55
:103590004FF0FF3823F00043CDF850C065280CD021
:1035A00006DC452809D046281DD047283DD13DE0FE
:1035B000662818D067287ED138E00021112F01DB62
:1035C000112000E0781CCDE9000106A90EA8FFF744
:1035D000DDFCDDE90F010E9A03910021009207F155
:1035E000010A04914DE04FF000400097CDE9011031
:1035F00006A90EA8FFF7CAFCDDE90F0203920E9B95
:1036000011990022DDF80CA00093049211B9791CE5
:1036100000EB010AB7EB0A0004D4C0F1FF3007F158
:10362000010A0490AAEB0700019044E0012F00DAA0
:1036300001270021112F01DD112000E03846CDE9DE
:10364000000106A90EA8FFF7A1FCDDE90F010E9A03
:103650000391002104910092BA4621070CD40399EA
:10366000514500DA8A46BAF1010F05DD009AAAF148
:103670000101515C302908D0B84202DA10F1040F80
:1036800006DA0121CDE9011015E0AAF10101E9E70F
:10369000002805DC049901440491AAEB000102E032
:1036A000411C514500DD8A460499401A401C019096
:1036B0004FF000400290200704D40198504501DBF0
:1036C000CDF8048000208DF84F0002980DF14F07CF
:1036D000B0F1004F25D02B200E9002984FF0020839
:1036E00000280CDA404202902D200E9007E00A21BB
:1036F0000298FFF7FBF93031029007F8011DB8F18D
:103700000001A8F10108F2DC02980028EFD1791E2F
:103710000E980870307800F0200040F0450007F85F
:10372000020D12A8C01B00F107081498007800B120
:10373000012000EB0A01019801EBE071059841447A
:10374000401A401E0590E00306D45B462146179AB6
:10375000059800F05DF805441498007818B15A46B1
:10376000179990476D1CE00324D55B462146179AB4
:10377000059800F04DF805441CE00498002807DB8C
:10378000DDE90301884203DD0098405C179901E000
:10379000179930205A469047049805F10105401CBE
:1037A00004900198401E019004D12E205A4617998A
:1037B00090476D1CBAF10001AAF1010ADDDC05E0B9
:1037C00017F8010B5A46179990476D1CB8F1000184
:1037D000A8F10108F4DC5B462146179A0598ABE690
:1037E0002D0000002B000000200000002DE9F0411A
:1037F000044600251E461746880404D405E03946D1
:103800002020B0476D1C641EF9D52846BDE8F08124
:103810002DE9F041044600251E469046C80301D517
:10382000302700E02027880404D505E041463846CB
:10383000B0476D1C641EF9D52846BDE8F081000034
:103840002DE9F04D1D460C4698B0174621F0004179
:1038500023F00043002814BF4FF0010C4FF0000C80
:103860000CEB440CFE4A0CEB02064FEA620C664578
:103870002BD33E0018BF012606EB45061644F94A35
:10388000964222D3F84A53EA070C02D0944205D15B
:1038900048B918B000201146BDE8F08D002808BFD7
:1038A0004FF0000C01D04FF0010C0CEB440212F56C
:1038B000001F0AD8002F14BF4FF0010C4FF0000C6E
:1038C0000CEB450212F5001F07D918B03A462B46FB
:1038D0002146BDE8F04DFFF72BBB0022DFF88CA39B
:1038E000002CB8BF534526DADFF884C36345A8BF70
:1038F000022220DADFF870C39C451CDCDFF874C3B9
:103900000CEB235CBCF1140F08DDCCF1340627FA74
:1039100006FC0CFA06F6BE420DD108E05FB9CCF108
:10392000140623FA06FC0CFA06F69E4203D10CF0AC
:103930000102C2F1020251EA000C19D1002D17DA7E
:10394000002C18BF022A01D0012A07D00220FFF75D
:1039500017FB18B0BDE8F04DFFF7E2BA0220FFF701
:103960000FFBFFF7DDFA18B081F00041BDE8F08DE4
:10397000B7F1000C6CD1534525D104F1804212F50A
:10398000801201BF00280020B74918B008BFBDE869
:10399000F08DB548884207DC002DA1BF604629465E
:1039A00018B0BDE8F08D07E0281E05DA80F0004170
:1039B00018B06046BDE8F08DAF497944D1E9000107
:1039C00018B0BDE8F08DDFF8A0C2634525D1002D09
:1039D0001FDA19B1514512D1D8B909E0002840F0D9
:1039E000EC82A24A214618B062F31E01BDE8F08DB8
:1039F0000020214618B060F31E01BDE8F08D08DA02
:103A000018B02346BDE8F04D024600206146FEF79F
:103A100057BF18B02146BDE8F08D514518DAB5F111
:103A2000804F0DD0A5F1005CBCF1FF5C10D1B4F16A
:103A3000000C0DDB18B06146BDE8F04D00F0ECBBAA
:103A4000234618B00246BDE8F04D1946FEF7C6BE43
:103A5000060024F0004C3BD1D9B1514533D1002CA4
:103A600006DD002DA1BF0020514618B0BDE8F08D45
:103A7000002C01DD002D1BDB002C13DA002D11DBE7
:103A8000012A4FF0000014BF78497C4918B0BDE806
:103A9000F08D022A18BF002C0AD0012A08D1002C70
:103AA00006DA0AE0002CB8BF002D11DA012A04D092
:103AB000002018B00146BDE8F08D18B000204FF08E
:103AC0000041BDE8F08DA1F14050B0F17F601AD007
:103AD000012000EBE47050EA020421D0624C521E37
:103AE0004FF0000B104304BF4FF0000B644C6548CF
:103AF00083427CDD644A654893421FDD884217DBC0
:103B0000002D25DB37E0002C00DA4AB1022A0CBF79
:103B100001204FF0FF3018B0BDE8F04DFEF73FBF79
:103B20000120FFF72DFA18B0BDE8F04DFFF702BAFB
:103B30004D4A8A4202DC002D0ADC1CE0814202DA96
:103B4000002D18DA04E0484B994220DD002D12DDEB
:103B50000220FFF715FAFFF7F3F905460E4600229B
:103B6000534658462146FEF739FE18B066F31E014B
:103B70002846BDE8F08D0220FFF702FAFFF7E8F9CA
:103B80000A46214618B062F31E01BDE8F08D0022FE
:103B900030466146FEF71CFE80460E466FF001027D
:103BA000FFF7B0F84FF05532394BFEF714FE42469E
:103BB0003346FEF713FE0022364BFEF70CFE82461C
:103BC00042463346049110461946FEF707FE524618
:103BD000049BFEF703FE8A4600904FF0C0422E4B36
:103BE00040463146FEF7FAFD2C4A2B4B00E027E019
:103BF000CDE9060151460098FEF7F0FD824601919D
:103C0000274A284B40463146FEF7E8FD5246019BC5
:103C1000FEF7DEFD82460B4602460591DDE9060110
:103C2000FEF735FDDDE90623002688463046FEF71F
:103C3000CFFD5246059BFEF7CEFD024600F07EB951
:103C40000020B1F5801F07DA352230466146FFF7C4
:103C500059F806466FF0340000EB215024E00000D4
:103C6000FFFF1F00FFFF0F000000F03F0000F07F8C
:103C70000000404301FCFFFF3A0900000000F0FF94
:103C80000000F0BF0000E0410000F043FFFFEF3F05
:103C90005555D53F0000E03F4715F73FFE822B65A5
:103CA00044DF5DF80BAE543EA0F2FF300190C1F34B
:103CB000130040F07F6141F040510291FE4988427B
:103CC000D8BF002004DDFD498142C8BF012001DDCD
:103CD0000D9008E000200D900198401C0190029882
:103CE000A0F5801002900299F54878440B910D9947
:103CF00000EBC100D0E900230F9330460A920B99E4
:103D0000FEF766FDCDE90601DDE90A2130460F9B8D
:103D1000FEF7BDFC02460B460020EA49FEF7D0FD47
:103D2000059102460B460090DDE90601FEF756FDBF
:103D30001490E5488A464FF00008784402990068DC
:103D400012904FF0005040EA61010D980F9B01EB7B
:103D5000804000F5002109910A9A1298FEF738FD7B
:103D600032460B9BFEF737FD42465346FEF736FDC3
:103D70000646029140465146099B129AFEF72EFDD7
:103D8000DDE90623FEF727FD3246029BFEF720FD04
:103D9000059B009AFEF722FD0091149A0490534669
:103DA00010461946FEF71AFD06460246C7480B465E
:103DB000029106217844FFF75DF8CDE90510029BDA
:103DC000324610461946FEF709FDDDE90532FEF7D9
:103DD00005FD05910646534640461946149AFEF7DE
:103DE00056FC009B049AFEF7F9FC3246059BFEF751
:103DF0004EFCCDE905104246534610461946FEF7E3
:103E0000EDFC0022B24B02910A90FEF740FCDDE986
:103E10000532FEF73CFC0E464246AD4B4046FEF7EF
:103E2000D7FC029B0A9AFEF7D3FCDDE90532FEF7C8
:103E3000D2FC424602910A90334610465146FEF7A4
:103E4000CDFCCDE906015346149A02990A98FEF773
:103E5000C5FC8A4602903346424600990498FEF714
:103E6000BDFC5346029AFEF712FC82460B46024600
:103E70000591DDE90601FEF70AFCDDE906230020D5
:103E800088460646FEF7A4FC5246059BFEF7A3FCB7
:103E9000824609914FF060428E4B30464146FEF714
:103EA0009DFC049006918C4A8A4B50460999FEF776
:103EB00095FC82460291894A894B30464146FEF77D
:103EC0008DFC5246029BFEF7E2FB864B7B440D9A2B
:103ED00003EBC203D3E90023FEF7D9FB0E90079151
:103EE0000198FEF75CFD0591DDE9061382460E9A06
:103EF0000498FEF7CCFB7C4A7A440D9B02EBC3038B
:103F0000D3E9002300930292FEF7C1FB5246059BC2
:103F1000FEF7BDFB0026884652463046059BFEF75D
:103F200057FC009B029AFEF753FC069B049AFEF78F
:103F30004FFC079B0E9AFEF74EFC024600200B46F4
:103F4000029038462946FEF749FC824601912B46ED
:103F500038461946029AFEF73BFC32464346FEF7C6
:103F60003DFC5246019BFEF792FB07468A463246CD
:103F7000434629460298FEF731FC05460E463A466E
:103F80005346FEF784FB594A8846914221DBA8EB51
:103F9000020353EA000210D12A463346FEF718FC0A
:103FA000CDE90401524A534B38465146FEF76FFBA8
:103FB000DDE90423FEF75CFD21D20220FEF7E0FFDD
:103FC000FEF7BEFF0A46214618B062F31E01BDE8A7
:103FD000F08D494B28F000429A4210D3474A08EB33
:103FE000020353EA00027FF4C6AD2A463346FEF7C9
:103FF000EFFB3A465346FEF73BFD7FF6BCAD002291
:10400000019228F000403E493E4A01EB2051824295
:1040100023DA481C4FF4801121FA00F040443A4A58
:10402000C0F30A517A44394BA1F2FF31CB4020EA68
:104030000303C0F3130040F48010C1F11401C84021
:1040400012680190B8F1000FBCBF404201902846B1
:104050003146FEF7BDFB05460E462A463346384636
:104060005146FEF714FB4FF000084246284B4046ED
:104070000591FEF7B3FBCDE90601264A264B4046E3
:104080000599FEF7ABFB009102902A463346404665
:104090000599FEF79DFB3A465346FEF79CFB1F4AE7
:1040A0001F4BFEF79BFB009B029AFEF7F0FA0746B8
:1040B000884602460B4635E08E9803007AB60B0020
:1040C000820500000000F03FBA050000E80400008F
:1040D0000000084009C7EE3FFD033ADCF5015B1420
:1040E000E02F3EBEC00300008403000000009040AB
:1040F000FE822B654715973C00CC904000346F3F03
:1041000001FCFFFF0000E03FD0020000FFFF0F00B6
:10411000432EE63F396CA80C615C20BEEF39FAFEF5
:10412000422EE63FDDE90601FEF7B1FADDE906239E
:1041300005460E46FEF74CFB3A464346FEF74BFB60
:104140000F462A463346009010461946FEF746FBB6
:10415000824602462E4888460B4605217844FEF7E3
:1041600089FE52464346FEF739FB2A463346FEF7A0
:1041700032FB80468A463B4628463146009AFEF787
:104180002DFB3B46009AFEF782FA06910090002232
:104190004FF0804340465146FEF71AFB0F460C9005
:1041A0004246534628463146FEF718FB3B460C9ADA
:1041B000FEF786FB069B009AFEF70AFB2A4633466B
:1041C000FEF706FB0022134BFEF705FB05460198A0
:1041D0000E4601EB00510815002810DC2846314638
:1041E000019AFEF78FFDFEF731FE042808BFFEF7A7
:1041F000AFFE28463146019AFEF784FD05460B4680
:1042000018B02A4658462146BDE8F04DFEF7E6BAFA
:10421000700100000000F03F2DE9F04106460F4616
:10422000FEF7B2FD041E0D4618BF0120284320F002
:104230000040C0F17F6000F1E040C00F0ED0301CA4
:1042400018BF0120384320F00040C0F17F6000F12A
:10425000E040C00F04BF0120FEF792FE2046294631
:10426000BDE8F081FF000000000000000000000039
:10427000000000000000F03F000000000000F83FD8
:1042800000000000000000000000004003B8E23F12
:10429000000000000000000006D0CF43EBFD4C3EC4
:1042A000033333333333E33FFFAB6FDBB66DDB3FB9
:1042B0004D268F515555D53F01411DA96074D13F01
:1042C00065DBC9934A86CD3FEF4E454A287ECA3FFB
:1042D0003E5555555555C53F93BDBE166CC166BF7D
:1042E0002CDE25AF6A56113FF16BD2C541BDBBBE76
:1042F000D0A4BE726937663E0000000000000000D6
:10430000D7EEB8DFCEC2B6C8A3BA252E3266204497
:10431000656743202020D7EEB5CDCEC2B6C8A3BA7C
:10432000252E32662044656743202020202020204F
:10433000D7EEB4F3D1B9C7BFA3BA252E3266206831
:104340005061202020D7EED0A1D1B9C7BFA3BA2594
:104350002E3266206850610D0A00000020D7EEB4AE
:10436000F3CEC2B6C8202D20D7EED0A1CEC2B6C89B
:10437000A3BA252E32662044656743202020D7EE5D
:10438000B4F3D1B9C7BF202D20D7EED0A1D1B9C782
:10439000BFA3BA252E3266206850610D0A000000C6
:1043A000C04300080000002040000000602F00080B
:1043B000004400084000002030040000702F000876
:1043C00000000000000000007B0000000000000072
:1043D00000000000010203040102030406070809AB
:1043E0000204060800A24A040000000000000000C9
:1043F0000102030406070809000000000000000095
:0400000508000131BD
:00000001FF
