:020000040800F2
:10000000500E00209D010008D34800080D44000850
:10001000D1480008311500085958000800000000B8
:100020000000000000000000000000005550000823
:100030004D15000800000000F54800085750000862
:10004000B7010008B7010008B7010008B7010008B0
:10005000B7010008B7010008B7010008B7010008A0
:10006000B7010008B7010008B701000835150008FE
:10007000B7010008B7010008B7010008B701000880
:10008000B7010008B7010008DD090008B701000842
:10009000B7010008B7010008B7010008B701000860
:1000A000B7010008B7010008B7010008B701000850
:1000B000B7010008B7010008B7010008B701000840
:1000C000B7010008B7010008B70100081D4E00087D
:1000D000494E0008B70100088D56000899560008DF
:1000E000B7010008B7010008B7010008B701000810
:1000F000B7010008B7010008B7010008B701000800
:10010000B7010008B7010008B7010008B7010008EF
:100110004D510008B7010008B7010008B7010008F9
:10012000B7010008B7010008B7010008B7010008CF
:1001300041150008B7010008B7010008B701000821
:10014000B7010008B7010008B7010008B7010008AF
:10015000B7010008B7010008B70100087949000895
:10016000B7010008B7010008B7010008B70100088F
:10017000B7010008B7010008B7010008000000003F
:10018000B7010008B7010008DFF80CD000F0F6FB5B
:1001900000480047F1730008500E002006488047D1
:1001A00006480047FEE7FEE7FEE7FEE7FEE7FEE75C
:1001B000FEE7FEE7FEE7FEE70951000889010008B7
:1001C0002DE9F05F0546002092469B46884606468C
:1001D000814640241BE0284641464746224600F01F
:1001E00096FA53465A46C01A914110D31146184602
:1001F000224600F07DFA2D1A67EB01084F46224691
:100200000120002100F074FA17EB00094E41201E76
:10021000A4F10104DFDC484631462A46434600F09B
:1002200000B830BCBDE8C09F2DE9F0410024061B9A
:10023000254671F1000605DA01240027D0EB0700FE
:1002400067EB0101161E73F1000605DA0027D2EBF9
:100250000702012567EB0303FFF7B2FF86460E4650
:1002600017469C46AC4204D00025D0EB050E65EB4A
:10027000010624B10020D2EB000760EB030C7046AE
:1002800031463A466346BDE8F08140EA01039B07E8
:1002900003D009E008C9121F08C0042AFAD203E0FB
:1002A00011F8013B00F8013B521EF9D27047D2B25F
:1002B00001E000F8012B491EFBD270470022F6E74F
:1002C00010B513460A4604461946FFF7F0FF2046CC
:1002D00010BD421C10F8011B0029FBD1801A704789
:1002E0002DE9FE4F804681EA0300C00F0C460090C6
:1002F00021F0004123F00045B8EB0200A94105D2EE
:100300004046214690461C460B46024623F00040DC
:10031000104347D0270DC7F30A00C3F30A510290D8
:10032000401A019040286BDAC3F3130040F4801B9D
:100330000098924620B10023D2EB030A63EB0B0B2B
:1003400001985946C0F14002504600F0D1F90646E6
:100350000D4650465946019A00F0E9F910EB0800A5
:100360006141002487EA115284EAE7731A4340D0BE
:10037000009A62B3019A012A4FEA075215DC001B6A
:1003800061EB02014FF0004202EA0752CDE9004260
:10039000001C41F5801132462B4600F020FA03B0D4
:1003A00000F045B840462146F9E7001B61EB020129
:1003B000001C41F5801300185B412018A2F50017BE
:1003C00047EB030140EAD570B6196D4111E06D08A5
:1003D0004FEA360645EAC0754FEA0752001B61EB4B
:1003E0000201001C41F5801149084FEA3000001954
:1003F000514132462B4603B000F01CB800F0E0B982
:100400000098012240000023D0EB020263EBE0736E
:10041000009821464FEAE074B8EB000061EB04015C
:10042000E9E783F000435BE781F0004158E730BC27
:10043000BDE8C08F30BCBDE8C04FFFF7DFBF2DE97E
:10044000FE4F81EA030404F0004421F000410094CF
:100450004FF0000B23F0004350EA01045ED052EA53
:1004600003045BD0C3F30A54C1F30A552C44A4F22D
:10047000F3340194A0FB0254C1F3130141F4801141
:10048000C3F3130343F4801301FB024400FB034E48
:10049000840A970A44EA815447EA8357A4FB076811
:1004A00002958D0A05FB07854FEA932C04FB0C543B
:1004B0002705029D4FEA065847EA1637B5EB0805AF
:1004C0006EEB070C870E920E47EA811742EA831201
:1004D000A7FB0201B6EB0B0164EB00042B0D43EA12
:1004E0000C335E1844EB1C50DA465146E7FB020120
:1004F000C5F313044FEA0B3343EA14534FEA0432B3
:10050000019C43EA0603A4F10C040294009CCDE98B
:1005100000B400F064F903B000F003B80020014615
:10052000F9E730BCBDE8C08F2DE9F04D81EA030446
:1005300004F0004B21F0004514464FF0000A23F070
:10054000004150EA050220D054EA01021DD0C5F353
:100550000A570246C5F31303C1F31300C1F30A5649
:1005600040F4801543F48013A7EB0608101BD64611
:1005700008F2FD3873EB050002D308F1010801E031
:1005800092185B41B8F1000F03DA00200146BDE884
:10059000F08D00204FF48011064684460EE0171BB4
:1005A00073EB050705D3121B63EB050306434CEA07
:1005B000010C49084FEA300092185B4150EA0107EC
:1005C000EDD152EA030012D082EA040083EA050169
:1005D000084305D0101BAB4106D20122002306E0E0
:1005E00000224FF0004302E06FF0010253101AEBBB
:1005F00006004CEB085110EB0A0041EB0B01BDE883
:10060000F04D00F0DDB80EB5C10F80EAE07008448F
:10061000CA07002140F233438DE80E000A460B461C
:1006200000F0DDF803B000BD70B5C1F30A5201F06F
:1006300000450024C1F3130140F2FF3341F480115F
:100640009A4201DA002070BD40F233439A42A2F28E
:10065000334203DC524200F05AF800E090402C4351
:10066000F1D0404270BD00F0004230F000400AD0AE
:10067000C10D01F56071C0F3160042EA0151C208D4
:1006800040071143704700200146704701F00043C6
:1006900030B421F0004150EA010206D00A0DA2F563
:1006A0006072C1F31301002A02DC30BC00207047E5
:1006B000440F44EAC104C100E01830BC00EBC25052
:1006C00000F047B830B50B46014600202022012437
:1006D00009E021FA02F59D4205D303FA02F5491B10
:1006E00004FA02F52844151EA2F10102F1DC30BD26
:1006F000202A04DB203A00FA02F1002070479140E2
:10070000C2F1200320FA03F3194390407047202AD6
:1007100004DB203A21FA02F00021704721FA02F3AB
:10072000D040C2F120029140084319467047202A68
:1007300006DBCB17203A41FA02F043EAE07306E009
:1007400041FA02F3D040C2F1200291400843194619
:1007500070470029A8BF7047401C490008BF20F01F
:100760000100704710B4B0FA80FC00FA0CF050EAB7
:10077000010404BF10BC704749B1CCF1200421FA38
:1007800004F411FA0CF118BF012121430843A3EB33
:100790000C01CB1D4FEA00614FEA102042BF002040
:1007A00010BC704700EBC35010440029A4BF10BC1C
:1007B0007047401C490008BF20F0010010BC704782
:1007C00010B5141E73F1000408DA401C41F1000159
:1007D00092185B411A4301D120F0010010BD2DE9B0
:1007E000F04D92469B4611B1B1FA81F202E0B0FAA7
:1007F00080F220329046FFF77BFF04460F4640EA26
:100800000A0041EA0B0153465A46084313D01146E9
:1008100053EA010019D0C8F140025046FFF777FFB4
:1008200005460E46504659464246FFF761FF0843CB
:1008300005D0012004E020463946BDE8F08D0020B7
:10084000054346EAE0762C4337430A986305E40AF9
:10085000A0EB08000022FD0A44EA47540A3002D502
:1008600000200146E9E7010510196941DDE9084565
:1008700000196941BDE8F04DA2E72DE9F04D0023D4
:100880001A461B1A8A4103DB00200146BDE8F08DA1
:10089000C1F30A52C1F3130141F480154FF0000B6C
:1008A000D10702D100186D41521E0027044640F2C4
:1008B000FF11384601EB620A3E46804602460020A0
:1008C0004FF48011FFF723FFC2197141BB1846EBAB
:1008D0000100B4EB030C75EB000C04D3E41A65EBD8
:1008E000000517460E46241908F101006D418046A7
:1008F0003428E3DDF91946EB0600091BA84103D2B1
:100900004FF0FF32134601E0002213461BEB0700B5
:1009100046EB0A51BDE8F04DFFF752BFC1F30A5252
:10092000C1F3130140F2FF3341F480119A4202DA1D
:1009300000200146704740F233439A42A2F233420C
:1009400002DC5242FFF7E3BEFFF7D2BE30B5041E11
:1009500071F1000404DB4FF00044404264EB0101FC
:10096000141E73F1000405DB1C464FF00043524295
:1009700063EB0403994208BF904230BD064C074D1B
:1009800006E0E06840F0010394E80700984710345F
:10099000AC42F6D3FFF7FCFB6080000880800008C3
:1009A00030B58C1810F8012B12F00F0301D110F89C
:1009B000013B120906D110F8012B03E010F8015B8E
:1009C00001F8015B5B1EF9D101E001F8013B521E09
:1009D000FBD1A142E6D3002030BD0000014801F068
:1009E0000BB9000028020020F7B515462DED0A0BC3
:1009F0000E4607462DED108B9CB0FE4CD4ED0A4AF6
:100A000024EEA40A8DED0C0A94ED0D0A94ED0B1A58
:100A1000D4ED0C0A24EE805A21EE00AA20EE80EAE2
:100A200060EE00DA21EEA10A64EE81EA64EEA0AA8B
:100A300061EE204A02EE020A8DED095A61EE018A4A
:100A4000CDED084A20EEA08A02EEA20A06F0BAFC1A
:100A500061EE801ACDED2F1A62EE001ACDED301A3C
:100A600062EE801A23EE030ACDED311A03EEA30ADB
:100A700004EE040A06F0A6FC24EE00BA23EE00DA27
:100A800063EE80BAB0EE000A7AEE2A0A2BEE000A74
:100A90008DED0B0A20EE200A10EE100AFFF7E3FDA1
:100AA000B0EE000A41EC110B2BEE800A8DED121B0B
:100AB0008DED000ADDED084A9DED095A74EEC50A78
:100AC000CDED070A20EE200A10EE100AFFF7CBFD4D
:100AD00041EC1F0B1DEE900AFFF7C5FD41EC1C0B0E
:100AE00018EE100AFFF7BFFD9FEDC39B53EC192BC7
:100AF000FFF79AFC53EC1C2BFFF793FCB0EE000AB7
:100B000041EC1C0B2DEE000A8DED050A10EE100ACB
:100B1000FFF7A9FD53EC1C2BFFF791FC53EC1F2BA7
:100B2000FFF7DEFB9DED121B53EC112BFFF7D8FBFB
:100B3000FFF7ACFD00EE100A7EEE6E0A8DED060AA0
:100B40009DED0B0A20EE200A10EE100AFFF78BFD38
:100B500041EC1F0B1DEE900AFFF785FD41EC1C0BCD
:100B600018EE900AFFF77FFD53EC192BFFF75CFCA2
:100B700053EC1C2BFFF755FC9DED000A41EC1C0BC0
:100B800010EE100AFFF76FFD53EC1C2BFFF757FC1C
:100B9000DDED084A9DED095A9DED050A41EC1C0B5F
:100BA00074EE850A20EE200A10EE100AFFF75BFDB6
:100BB00053EC1C2BFFF794FB53EC1F2BFFF790FB20
:100BC000FFF764FD0FEE100A18EE100AFFF74BFD59
:100BD00041EC1C0B18EE900AFFF745FD53EC192B66
:100BE000FFF722FC53EC1C2BFFF71BFC9DED0B0ABF
:100BF00041EC1C0B10EE100AFFF735FD53EC1C2BDB
:100C0000FFF71DFC7AEE6AFA9DED050A3EEE2E1AFC
:100C100041EC1C0B60EE2F0A9DED000A40EE010A2C
:100C200010EE900AFFF71FFD53EC1C2BFFF758FB4B
:100C3000FFF72CFD9DED060A0CEE100A20EE000ACF
:100C40000FEE0F0A10EE100AFFF70DFD41EC100B2E
:100C500005F056FA51EC100BFFF718FD00EE100AE4
:100C6000F0EE000A8DED050AB0EE000A2FEE800AC4
:100C70008DED060A3EEE8E0A8DED000A20EE200A6A
:100C80008DED080A9DED0C0A30EE680A30EE480A38
:100C900030EE2D0A8DED0B0AB0EE000A2CEE00FAB4
:100CA0002FEE2F0A10EE100AFFF7DDFC41EC1E0BB1
:100CB0001DEE900AFFF7D7FC41EC1C0B18EE100A52
:100CC000FFF7D1FC53EC192BFFF7AEFB53EC1C2BB9
:100CD000FFF7A7FB9DED050AF0EE000A41EC1C0BA7
:100CE00060EE20DA1DEE900AFFF7BDFC53EC1C2BE2
:100CF000FFF7A5FB53EC1E2BFFF7F2FAFFF7C6FC3C
:100D0000DDED070A9DED000A0EEE900A2DEEA0EA39
:100D100018EE100A0FEE00EAFFF7A5FC41EC1C0BE1
:100D200018EE900AFFF79FFC53EC192BFFF77CFBA2
:100D300053EC1C2BFFF775FB41EC180B1FEE100A50
:100D4000FFF791FC53EC182BFFF779FB3AEE8A0A78
:100D500041EC180B2DEE800A10EE100AFFF783FC11
:100D600053EC182BFFF7BCFAFFF790FCDDED301ABF
:100D70009DED0B0A00EE900AD4ED0E2A21EE801AAA
:100D8000DDED311A9DED080A9FED1E4A01EEC01AF5
:100D90002BEEA00A0BEE4E0A31EE001A9DED060A6C
:100DA00021EE802ADDED2F1A9DED0B0A01EEC02AFF
:100DB0002BEE2E0A0DEE600A72EE000A9DED080A77
:100DC00021EE802ADDED301A9DED060A01EEC02AE3
:100DD0002DEE0E0ADFED0A1A0BEEEE0A20EEA13A16
:100DE00032EE002A21EE210A40EE042AC4ED0E2A3A
:100DF0000AE000000C000020000000000000E03FBE
:100E00000AD7A33C6F12033C94ED0F0A62EE211A3D
:100E100003EE040A84ED0F0A94ED103A01EE843AD1
:100E200084ED103ADDED2C3ADFEDFE1A41EE213A69
:100E30009DED2D1A00EEA11A73EEA24AD4ED0B2AF5
:100E400071EE003A9DED2E0A64EEE20A94ED0D1A61
:100E500002EE210AD4ED0C1AF0EE629AF0EE418A0D
:100E600043EEE10AB0EE619A30EE033AB6EE000AC4
:100E700043EE410A20EE805A84ED115A94ED0A2A7D
:100E800064EE820AB0EE428A43EE210A43EEC10AC2
:100E900060EE80AA63EE820AC4ED12AA43EE620AF3
:100EA00044EE810A60EE806A63EE020AC4ED136AC2
:100EB000CDED0E6A43EEA20A44EEE10A60EE805ADE
:100EC000C4ED145ACDED155ADFEDD70A4AEEA02A2B
:100ED00030EEE47A05EE202A46EEA01A30EEE3AAC0
:100EE00005EEA01A27EE226A70EEC36A73EE207A2E
:100EF00002EE206A0AEE216A06EE816A26EE00BA48
:100F000034EEA06A84ED15BA66EE025A42EEA05A9B
:100F100047EEA15A4AEE015A65EE80FA73EEA05AE6
:100F2000C4ED16FA65EE82BA46EEA2BA41EEA0BA58
:100F300046EE01BA27EE822A05EEA22A6BEE80EA7F
:100F4000C4ED17EA07EE212A01EE202AB0EE691A55
:100F50000FEEA01A22EE00EAF0EE411A27EE012A67
:100F6000B0EE481A84ED18EA0BEE201AF0EE412A92
:100F700001EE202AB0EE491A0EEEA01AF0EE41BAA8
:100F80000AEE012AB0EE681A0EEE201AB0EE41CA3F
:100F900006EE812A26EE221A01EEA01A22EE002A7F
:100FA00084ED192A07EEAB1A0AEE0C1A21EE00FAAC
:100FB00025EEA21A67EEA22A74EE437A33EE043AC3
:100FC00006EEA11A45EEA12A84ED1AFA0BEEA01A3C
:100FD00047EE2B2A34EE637A73EE843A06EE0C1A4F
:100FE0004CEE202AF0EE690A34EE646A4FEE040AF1
:100FF00074EE844A61EE00DA22EE80DAC4ED1BDA88
:10100000B0EE601A66EE202AF0EE480A84ED1CDA93
:1010100042EE040AF0EE601A40EE842AF0EE490A2D
:101020004DEE840AF0EE605A47EE202AF0EE680A90
:101030004DEE040A47EEA02A62EE806A64EEA12A11
:10104000C4ED1D6A41EE042A43EE252A47EE202A0C
:1010500062EE802AC4ED1E2ACDED1A2A63EEA12A83
:1010600063EE211AB0EE00AA04F1800047EE812A57
:1010700043EE811A0BEE0A5A45EE842A46EE251AF3
:1010800002EE0A5A44EEA02A40EE841A62EE802A4A
:1010900061EE800A35EE260AC4ED1F2ACDED072A3F
:1010A000C0ED000ACDED000A10EE100AFFF7DBFAE2
:1010B0009FED5EBB53EC1B2BFFF7C1F941EC1C0B02
:1010C00018EE100AFFF7CFFA53EC1C2BFFF708F9C4
:1010D000FFF7DCFA4FEE8AAA08EE100A84ED0A8ABE
:1010E000DDED1A2A4FEE0AAA3AEEA20A10EE100A15
:1010F000FFF7B9FA53EC1B2BFFF7A1F941EC1C0BDE
:1011000019EE900AFFF7AFFA53EC1C2BFFF7E8F843
:10111000FFF7BCFA09EE900AC4ED0B9A9DED0E0A9A
:10112000DDED072A0EEE8A0A0DEE8A0A30EE220A5B
:1011300010EE100AFFF797FA53EC1B2BFFF77FF91D
:1011400041EC1C0B19EE100AFFF78DFA53EC1C2B27
:10115000FFF7C6F8FFF79AFA09EE100A84ED0C9A29
:101160009DED150ADDED000A0EEE0A0A0DEE0A0AE3
:1011700030EE200A10EE100AFFF775FA53EC1B2B25
:10118000FFF75DF941EC1B0B18EE900AFFF76BFAC5
:1011900053EC1B2BFFF7A4F8FFF778FA28EE080AA8
:1011A00000EE900AC4ED0D0A09EEA90A09EE090A3B
:1011B00000EEA00A06F006F9D4ED0A0AB8EE008A9D
:1011C00060EE801AC4ED0A1AD4ED0B0A20EE801AE4
:1011D00084ED0B1AD4ED0C0A21EE081A60EE800A99
:1011E000C4ED0C0A94ED0D2A22EE000A84ED0D0ADE
:1011F00021EE000A21EE8A1A01EE200A10EE100AF2
:10120000FFF731FA41EC100B04F052FB9FED099B04
:1012100051EC100B53EC192BFFF711F9FFF736FACD
:1012200030600BE0000020426F12833B555555D5CE
:1012300067D8553F6666666666A64C40D4ED0B8A55
:1012400028EE880A60EE280A94ED0C0A20EE0A8A3D
:1012500048EE400AB7EE000A30EE800A10EE100A9F
:10126000FFF701FA94ED0D0AD4ED0A0A41EC1B0BCD
:1012700028EE000A60EE8A0A00EEA80A10EE100AB4
:10128000FFF7F1F941EC100BB0EE4B1AF0EE6B1AD0
:1012900004F03EFE53EC192B51EC100BFFF7CFF886
:1012A000FFF7F4F9386094ED0ACA94ED0B8AD4ED97
:1012B0000CAA2CEE0C0AD4ED0D8A08EE080A0AEEF0
:1012C000EA0A08EEE80A10EE100AFFF7CCF928EE59
:1012D0002A0A41EC1B0B0CEE280A20EE0A0A10EE3B
:1012E000100AFFF7C0F941EC100BB0EE4B1AF0EE0C
:1012F0006B1A04F00DFE53EC192B51EC100BFFF799
:101300009EF8FFF7C3F928601CB000F002B80DB0DA
:10131000F0BDBDEC088BBDEC08CBFFF7F8BF0000BB
:1013200070B5144C12482062134860621348A062E2
:10133000204605F0DBFE05460246217F10A004F0A2
:101340008DFA15B14FF0FF3070BD042005F0A6FFF7
:101350000446042005F036FF0444032005F058FF3E
:101360000444042005F074FF204440B270BD000026
:10137000BD140008F80100205D14000801240008D5
:101380004368697049643A3078202558202020202D
:10139000636F6D5F72736C743A25640D0A00000010
:1013A0001CB513A10623D1E90001CDE900016A466D
:1013B000F721002000F052F89DF803009DF804107A
:1013C000000340EA01109DF8051040EA111005F0F5
:1013D000BFFD9DF800009DF80110000340EA0110D8
:1013E0009DF8021040EA111005F0F8FB1CBD00004A
:1013F00055555555555500007CB501A805F0C2FE60
:10140000019805F0F1FD074C2060684605F09AFE52
:10141000009805F0E7FC0546009805F091FC606037
:1014200028467CBD8809002008B50BA0032300686E
:1014300000906A46FA21002000F010F89DF80000A4
:101440009DF80110000340EA01109DF8021040EAE7
:10145000111005F07DFD08BD555555002DE9FF41E2
:10146000144E9DF80400904640F0800000248DF852
:1014700004001F4622460821304601F0B8F8022336
:10148000012201A90C4802F075FB651E00B12C4633
:1014900002233A464146084802F0B2FA00B12C460F
:1014A00001220821304601F0A2F804B02046BDE830
:1014B000F08100000008004880030020FEB50026EF
:1014C0001D460A23771E3046B3EB450F01D238463E
:1014D000FEBD00246B460FE001F07F0C03F800C056
:1014E000401CC0B212F804C003F800C0491C401CE4
:1014F000641CC9B2C0B2E4B2AC42EDD30A4C0022C3
:101500000821204601F073F86A0064236946074801
:1015100002F030FB00B13E4601220821204601F0D6
:1015200066F83046FEBD0000000800488003002039
:10153000FEE70000014800F0AFBE0000C009002037
:10154000014800F0A9BE0000080A00207047000012
:1015500010B50F4C01228021204601F048F8C82028
:1015600000F04EFF00228021204601F040F84FF4A9
:10157000967000F045FF00F00DF8C82000F040FF25
:1015800020460122BDE81040802101F030B8000063
:101590000008004800B589B020220BA16846FEF77C
:1015A00074FE1D226946104802F0F6FE18B1DE21D5
:1015B0000EA004F052F9124801780129FCD1002153
:1015C000017009B000BD000041542B5155524343F6
:1015D00046473D22757263706F7274222C227561CA
:1015E000727431220D0A0000E40300202E2E5C5399
:1015F00072635C454332305C454332302E630000F9
:101600000D00002010B50446FEF763FE82B264238D
:101610002146064802F068FE18B1EB2104A004F050
:101620001CF908490020087010BD0000E4030020E8
:101630002E2E5C5372635C454332305C454332303E
:101640002E6300000D000020704770477047704700
:1016500070470000F0B5044690F8540000269BB097
:101660000D4601280DD0012084F85400324920682D
:101670000027884208D13149009102F019FF58B182
:101680000EE002201BB0F0BDA06D40F02000A06570
:1016900084F854700120F5E7009802F009FF48B182
:1016A000A06D40F02000A0655FF0010684F8547042
:1016B0003046E7E722482A6840F61F71002A826810
:1016C00022F460421FD0636B42EA43326B681A43D4
:1016D00082602268936803F00303012B02D1126831
:1016E000D207E3D1009A926802F00302012A03D1E3
:1016F000009A1268D207D9D1AB682A681A43836866
:101700008B431A4315E082602268936803F0030359
:10171000012B02D11268D207C8D1009A926802F058
:101720000302012A03D1009A1268D207BED182684F
:101730008A438260BAE700000000045000010450B0
:10174000000304502DE9F84300250446009590F865
:101750005400DFF870840E46A946012807D00127FF
:1017600084F85470206802F09FFE18B1E5E1022071
:10177000BDE8F8837068052812D8022807D003282E
:1017800007D0042807D0052807D0062007E00C2042
:1017900005E0122003E0182001E04FF48070706033
:1017A000B1884FF4407C01F440739CFAACFCBCFA65
:1017B0008CFC206823FA0CF300EB8300326801F004
:1017C0001F014FF01F0C0CFA01FC036BC2F3846283
:1017D00023EA0C038A40134303632068816811F0F5
:1017E0000C0F1CD1B268316802F066FE2068716986
:1017F000C268C2F3C102520091403269042A0FD07C
:1018000000EB82003368DFF8C0C3026E03F0F843D8
:1018100002EA0C020B431A4342F00041016672E0F7
:10182000002102F03BFE400320684FF0000173D01E
:1018300002F034FE90FAA0F0B0FA80F13068420372
:101840006FD090FAA0F0B0FA80F0814204D100226B
:101850001146206802F053FE0121206802F01EFEAE
:10186000400320684FF001015ED002F017FE90FAAD
:10187000A0F0B0FA80F1306842035AD090FAA0F09C
:10188000B0FA80F0814204D100220121206802F0E8
:1018900036FE0221206802F001FE400320684FF06E
:1018A000020149D002F0FAFD90FAA0F0B0FA80F1FE
:1018B0003068420345D090FAA0F0B0FA80F081423F
:1018C00004D100220221206802F019FE03212068C1
:1018D00002F0E4FD400320684FF0030134D002F031
:1018E000DDFD90FAA0F0B0FA80F13068420330D00C
:1018F00090FAA0F0B0FA80F0814204D100220321D6
:10190000206802F0FCFD2068816801F003010129D4
:1019100025D121E000E004E002F0C0FDC0F38461C5
:101920008CE7C0F3846090E702F0B8FDC0F38461F7
:10193000A1E7C0F38460A5E702F0B0FDC0F38461C5
:10194000B6E7C0F38460BAE702F0A8FDC0F3846193
:10195000CBE7C0F38460CFE70168C9077ED1327B53
:10196000316850F8B03FC1F3120C23EA0C0302F0C7
:10197000200C4FF0FF3202FA0CF20A40C2F31201BF
:101980000B430360F16841456CD13068410318D0C6
:1019900090FAA0F1B1FA81F1491C09294FEA4031CE
:1019A0002ED8002910D000BF90FAA0F1B1FA81F131
:1019B00001F1010107FA01F709D100BFC0F3846109
:1019C00009E0C0F38461E7E7C0F38461F0E790FACF
:1019D000A0F1B1FA81F101F1010147EA816102D17F
:1019E000C0F3846003E090FAA0F0B0FA80F000EB5E
:1019F00040004FF4401202EB005041EA00012AE09F
:101A000000290CD090FAA0F1B1FA81F101F10101A5
:101A100007FA01F706D100BFC0F3846106E0C0F306
:101A20008461F3E790FAA0F1B1FA81F101F10101CB
:101A300047EA816102D1C0F3846003E090FAA0F02C
:101A4000B0FA80F0614A00EB400002EB005041EA3E
:101A5000000141F00071B268206801E072E001E02D
:101A600002F02AFD33685A4E5A4FDFF86C815B4909
:101A7000B34204D1886800F0E07000020DD5BB428B
:101A800004D1886800F0E070C00106D5434559D103
:101A9000886800F0E070400254D42268906800F03A
:101AA0000300012802D11068C00746D14C48824289
:101AB00015D1D0F808C10CF0030CBCF1010F04D112
:101AC000D0F800C15FEACC7C37D1D0F808C20CF066
:101AD000030CBCF1010F39D1D0F800C22AE0DFF8C5
:101AE00004C16245D0F808C00CF0030C11D1BCF160
:101AF000010F04D1D0F800C05FEACC7C1DD1D0F832
:101B000008C20CF0030CBCF1010F0AD1D0F800C2DE
:101B100004E0BCF1010F04D1D0F800C05FEACC7C36
:101B20000BD1D0F808C10CF0030CBCF1010F0DD1A2
:101B3000D0F800C15FEACC7C08D0A06D40F0200056
:101B4000A065012584F85490284611E6DFF898C076
:101B5000B3421BD1824201D06245F3D188688A68C2
:101B600000F0E07040F4000022F0E07202438A606E
:101B70001E481F490068B0FBF1F0C0EB0010C00028
:101B800000E0401E00900028FBD1DBE7BB4209D1FA
:101B9000824201D06245D5D1886800F0E07040F003
:101BA000807008E04345CDD18242CBD1886800F0F7
:101BB000E07040F480008A6822F0E07202438A609C
:101BC000C0E7000000007F4000F0FF03000050FE6F
:101BD000000052C7000084CB0100008000030450C5
:101BE000000004500001045000020450D8010020FD
:101BF00080841E00704770472DE9F041044600685C
:101C000006684568B0070ED5A8070CD5A06DC006BC
:101C100003D4A06D40F40060A0652046FFF714FDDA
:101C2000216802200860DFF84C82934F700701D5CD
:101C3000680703D430073AD5280738D5A06DC00609
:101C400003D4A06D40F40070A0652168C86810F44A
:101C5000406F26D1B9425CD041455AD0D7F808032D
:101C6000C00656D0D7F8080300F01F00052850D052
:101C7000D7F80823384602F01F02092A49D0C06865
:101C800080040ED4086800070BD5084602F00CFC4F
:101C9000F0B3A06D40F01000A065E06D40F00100D1
:101CA000E0652046FFF7A6FF21680C200860B0061B
:101CB00001D5A80603D4700659D5680657D5A06D7E
:101CC000C00603D4A06D40F40050A0652068B8425F
:101CD00032D0404530D0D7F80813C9062CD0D7F8F9
:101CE000081301F01F01062926D0D7F8082339462A
:101CF00002F01F02072A1FD0C968C26C12F0C00F81
:101D00001ED08A012DD4C26812F4406F16D028E08C
:101D100001E0C868B4E72068416821F00C01416027
:101D2000A06D20F48070A065A06DC004B9D4A06D32
:101D300040F00100A065B4E7C168DEE78A0410D472
:101D4000026852060DD589020BD48168C1F3C00127
:101D5000F1B3A06D40F01000A065E06D40F001000F
:101D6000E0652046FFF771FC2168602008603006BE
:101D70000BD5280609D5A06D40F48030A06520461B
:101D800000F08AF9216880200860F0050CD5E8058C
:101D90000AD5A06D40F40030A0652046FFF757FC3F
:101DA00021684FF480700860B0050CD5A8050AD5ED
:101DB000A06D40F48020A0652046FFF749FC216813
:101DC0004FF400700860F0063DD5E8063BD500E012
:101DD00018E0A06B48B32068B84202D02749884277
:101DE00020D1D7F80813C9061CD0D7F80803C0F3D0
:101DF0008130022819D0D7F80803C0F381300328B6
:101E000013D01DE0416821F060014160A06D20F415
:101E10008050A065A06DC005A3D4A06D40F0010066
:101E2000A0659EE7C068C0070AD0A06D40F480603E
:101E3000A065E06D40F00200E0652046FFF7DBFEA4
:101E4000216810200860700512D5680510D5A06DB6
:101E500040F48040A065E06D40F00800E065216836
:101E60004FF4806008602046BDE8F041FFF7EEBB0C
:101E7000BDE8F0810002045000000450000104504D
:101E8000F8B54FF0000504002E46009502D0A06D75
:101E900010B107E00120F8BD204600F0FFF8E6652C
:101EA00084F8546020688168C1F3407119B1816879
:101EB000704A1140816020688168C1F3007191B956
:101EC00081686D4A114041F0805181606B486C49D6
:101ED0000068B0FBF1F000EB8000400000E0401E25
:101EE00000900028FBD120688168C1F3007141B9DE
:101EF000A16D41F01001A165E16D41F00101E165C5
:101F00000125A16DC90602D402F0CEFA30B1A06D50
:101F100040F01000A06501252846F8BDA06D20F412
:101F2000807040F00200A0652168886800F003001E
:101F3000012802D10868C0073FD15248814212D11E
:101F4000D0F8081101F00301012903D1D0F80011E4
:101F5000C90732D1D0F8081201F00301012925D1B7
:101F6000D0F8000220E0484A9142816801F0030164
:101F70000DD1012902D10168C9071ED1D0F808127C
:101F800001F00301012907D1D0F8001202E0012974
:101F900002D10168C90710D1D0F8081101F003017E
:101FA000012903D1D0F80001C00706D13749606884
:101FB0008A6822F47C1202438A60E168A06BE269BD
:101FC0000843A16841EA42310843616A40EA01409E
:101FD000012904D1218D2E4A02EB41410843E16AD7
:101FE00029B101F47071226B014342EA01002268B9
:101FF000D168284B19400143D1602068816811F0F5
:102000000C0F12D1A169626B890341EA4202C168D7
:1020100044F2020399431143C160E06B01280CD0E4
:102020002068016921F0010101612069012820680F
:10203000016B21F00F0111D013E0D4E91001084326
:10204000D4E912121143084321680A6940F2FC7373
:102050009A43104340F001000861E6E7226A521EED
:1020600011430163A06D20F0020040F00100A06563
:1020700052E70000C0FFFF5FC0FFFF7FD8010020D4
:1020800080841E000000045000010450000304502E
:102090000000FEFF07C0F0FF7047000038B505469E
:1020A0000068184988422BD11748C16C41F400518F
:1020B000C164C06C164C00F400500090134800211D
:1020C000C4E900018020A160C4E903104000606100
:1020D0008000C4E906012046216200F031F918B100
:1020E0006D210CA003F0B9FB2C6500220A211220FF
:1020F000A56200F067FBBDE83840122000F056BB37
:1021000038BD0000000004500010024008000240EA
:10211000C00900202E2E2F5372632F73746D33323B
:102120006C3478785F68616C5F6D73702E6300004B
:1021300030B51F235FF0010505FA03F40C4201D10D
:102140005B1EF9D27AB1082A09D0102A04D0182AC5
:1021500007D1072B05D206E0082B02D203E0102B93
:1021600001D3012030BD036859610068816821F006
:10217000180111438160002030BD000010B504003B
:1021800010D0607F20B900202077204600F030F882
:1021900002206077207938B1D4E902122046FFF797
:1021A000C7FF48B1012010BD216810484861206870
:1021B000816821F0180181606079A0B120692168EF
:1021C000086120688168626921F0600111438160C3
:1021D00020688168A26921F080011143816001209B
:1021E0006077002010BD4FF0FF30E8E7B71DC10455
:1021F00008B500680649884208D10648816C41F458
:1022000080518164806C00F48050009008BD000013
:102210000030024000100240B8B101680A6822F0A4
:102220000E020A6001680A6822F001020A6090F852
:102230004420036C012101FA02F25A6080F8251053
:10224000002180F82410084670470120704710B51F
:1022500090F825100024022903D00421C163012431
:1022600018E001680A6822F00E020A6001680A6834
:1022700022F001020A6090F84420036C012101FA67
:1022800002F25A6080F82510002180F82410816B3A
:1022900001B18847204610BDF0B4016C0D6801689B
:1022A0000C68466C042202FA06F32B420FD0630737
:1022B0000DD50B689B0603D40B6823F004030B6059
:1022C00090F844108A40016C4A60016B1BE00223C5
:1022D00003FA06F72F424FF0000C4FF0010216D020
:1022E000A70714D50C68A40605D40C6824F00A04CA
:1022F0000C6080F8252090F844108B40016C4B60F6
:1023000080F824C0C16A002918D0F0BC084708230F
:10231000B3402B4212D0230710D50B6823F00E03D5
:102320000B6090F84410036C02FA01F15960C2632B
:1023300080F8252080F824C0416BE4E7F0BC7047AA
:1023400070B568B12B4C036814222B49A34209D203
:102350002A4C1C44B4FBF2F29200C0E910120BE0CC
:10236000012070BD234C64421C44B4FBF2F2920085
:102370004264204A083A0264022280F825201C6840
:1023800047F6F0729443D0E902252A43D0E9045677
:1023900035432A4385692A43C5692A43056A2A4386
:1023A00022431A608268B2F5804F15D0036C0F2269
:1023B0008B4202D151F8A83F02E00E49A0310B68D0
:1023C00090F84440A24093430B6090F84430426838
:1023D0009A400B681A430A600021C162016341639D
:1023E0008163C163012280F8252080F8241008460B
:1023F00070BD00000804024000000240F8FFFDBF6D
:1024000070B5044600F0F8F80546601C00D0641C66
:1024100000F0F2F8401BA042FAD370BD2DE9F84F4E
:10242000DFF898B100234FF0010C4FF0030A4FF092
:102430000F090BF1040EB9E00CFA03F4224070D03E
:102440004D68022D01D0122D0ED1DD0800EB85085C
:10245000D8F820505E07F70E09FA07F6B5430E6963
:10246000BE402E43C8F8206007685E0091F80480E3
:102470000AFA06F508F00308AF4308FA06F848EA36
:102480000708C0F800804F68012F05D0022F03D045
:10249000112F01D0122F13D1D0F80880CF6828EA6D
:1024A0000508B74047EA08078760D0F804800F792D
:1024B00028EA0408C7F300179F4047EA0807476067
:1024C000D1F804806FEA0807BF0706D1C76AA7439F
:1024D000C8F3C0049C403C43C462C468AC438D68EC
:1024E000B5402543C5604C68E4005ED5344C256E8C
:1024F00045F001052566246E23F0030504F0010470
:102500000094304C2E19B4689D072F0F09FA07F577
:10251000AC43B0F1904F05D02B4DA84204D101251A
:102520001CE042E0002519E0284DA84201D1022517
:1025300014E0274DA84201D103250FE0254DA84204
:1025400001D104250AE0244DA84201D1052505E06A
:10255000224DA84201D1062500E00725BD402543B4
:10256000B560DBF800405D464E689443F60300D545
:1025700014432C60DEF8004075464E689443B60361
:1025800000D514432C600D4D08352C684E689443DB
:10259000F60200D514432C60084D0C352C684E68AB
:1025A0009443B60200D514432C605B1C0A6832FACF
:1025B00003F57FF441AF00F013B8000000040140C0
:1025C00000100240000001400004004800080048DC
:1025D000000C004800100048001400480018004893
:1025E00018BCBDE8E08F42694A40426170470AB1B9
:1025F0008161704781627047014800687047000040
:10260000D401002030B58BB0040003D094F89102BF
:1026100018B108E001200BB030BD002084F8900212
:10262000204600F023F8032084F89102206803F08C
:102630006DF804F1100128220D466846FDF725FECD
:1026400094E80F0003F02EF80121206803F0EEF863
:10265000282229466846FDF718FE94E80F0003F08B
:1026600093F8012084F891020020D4E710B50068A7
:1026700086B0B0F1A04F29D14FF4C0500090022095
:10268000019000200290032003900A2004906946E4
:102690004FF09040FFF7C2FE0F4CE06C40F48050CA
:1026A000E064E06C00F480500590A06DC0000FD491
:1026B000A06D40F08050A065A06D00F080500590A6
:1026C00000F0ECF8A06D20F08050A06506B010BDC1
:1026D00000F0E4F8FAE70000001002400248016848
:1026E000491C016070470000D401002010B5032090
:1026F00000F088F8002000F005F800F017F800203E
:1027000010BD000010B5044607484FF47A71006808
:10271000B0FBF1F001F017FC00222146501E00F042
:1027200051F8002010BD0000D80100201E4808B557
:10273000016E41F001010166016E01F0010100919D
:10274000816D41F080518165806D00F08050009076
:10275000032000F057F8002211466FF00B0000F044
:1027600031F8002211466FF00A0000F02BF8002229
:1027700011466FF0090000F025F800221146501FA5
:1027800000F020F800221146101F00F01BF8002274
:102790001146901E00F016F80022BDE808401146D0
:1027A000501E00F00FB800000010024000F01F02A1
:1027B000012191404009800000F1E020C0F80011A3
:1027C00070470000F0B40E4B1B680C46C3F30223A5
:1027D000C3F10705042D00D90425191D072901D2CD
:1027E000002300E0DB1E012606FA05F1491E214008
:1027F00099409E40761E16403143F0BC02F06AB804
:102800000CED00E0064900F0070208684FF6FF03F0
:10281000184040EA0220034A104308607047000055
:102820000CED00E00000FA051549B0F5007F0868DE
:10283000C0F3412009D0022805D0086820F4C06008
:1028400040F480600860002070470128FBD00868D1
:1028500020F4C06040F4007008600A480A4A00682A
:10286000B0FBF2F03222504300E0401E10B14A6942
:102870005205FAD448694005E5D5032070470000A9
:1028800000700040D801002040420F00024841681B
:1028900041F4007141607047007000400248416897
:1028A00041F4806141607047007000400248006858
:1028B00000F4C060704700000070004070470000E6
:1028C00010B590F839100024890725D5002180F82B
:1028D0003810082180F8391001680A6822F4F812CB
:1028E0000A6001680A6852070AD50A6822F00402E1
:1028F0000A60426B09499163406BFFF7A8FC0BE04B
:102900000222CA6001680A6842F400320A60006864
:10291000016841F002010160204610BDF74800083F
:10292000704770477047000070B5044600688168C2
:1029300002684B0732D5530330D594F83910203054
:1029400012290ED094F83910222919D01CE0616A9E
:10295000F1B1E1694A1CE26109780170616A491EBE
:102960006162216889684907F1D40DE0216B79B172
:102970000378A16A4A1CA2620B70216B491E216375
:10298000216889684907F1D42046FFF7CBFF70BD65
:102990002068016821F480210160F5E78B074FF082
:1029A00001056DD593036BD50221C16020680168D4
:1029B00021F4E021016094F83900122810D094F835
:1029C0003900222823D094F8390002284AD094F8FC
:1029D00039000828DBD184F83950E06BF0B34BE0C4
:1029E00020680168490709D5016821F004010160E8
:1029F000606B0068016821F0010101602046FFF76B
:102A00005FFF84F83950204600F00BF970BD206854
:102A1000016849070AD5016821F004010160606B73
:102A20000068016821F00101016010E0203009E038
:102A3000216B61B10378A16A4A1CA2620B70216B01
:102A4000491E21632168896811F4F85FF0D120469E
:102A5000FFF736FF84F83950204600E008E000F028
:102A6000DDF870BD84F839502046FFF759FF70BD7E
:102A70002046FFF723FF70BD2046FFF752FF70BDD1
:102A80000B0711D513030FD50821C1602068016819
:102A9000490205D5016821F41021016084F83950FC
:102AA000204600F0BCF870BDCB071ED0D3031CD568
:102AB000C5602068016821F470210160E06B40F07E
:102AC0000200E0632068016849070BD5016821F026
:102AD00004010160616B0A488863606BBDE8704067
:102AE000FFF7B5BB84F83950C6E7C906DBD5D1027C
:102AF000D9D51021C160204600F092F870BD0000C9
:102B0000F7480008F8B50446FFF776FD06465CB1C5
:102B100094F83800012809D0012784F8387094F817
:102B20003900002520B10BE00120F8BD0220F8BDDE
:102B300084F83850204600F03DF841F28830206497
:102B400020680168A2686FF0FF0321F4706103EB55
:102B5000022211430160206C0090334600222021A4
:102B6000204601F0E5FEE8B921680A680F4B1A40DB
:102B7000237942EA0362E3681A430A60D4E9051242
:102B80001143226853680A4E3340268A43EA0643BB
:102B90001943516021680A6842F001020A60E56346
:102BA00084F8397084F83850F8BD0000EFFFFF005A
:102BB000FEF8E0FFF0B50068154987B0884224D1DF
:102BC0001448016D41F480710165006D022400F428
:102BD0008070059040F60340002503260A278DE803
:102BE000F10069460C48FFF719FCC0208DE8F100A0
:102BF00069464FF09040FFF711FC00220F2147205B
:102C0000FFF7E0FD4720FFF7D1FD07B0F0BD000062
:102C1000001000A0001002400004004870477047F8
:102C2000704770472DE9F84F044600270088E54DAE
:102C30003E46010504F1200B1DD5606E78B1B0F55C
:102C4000800F11D0B0F5000F04D0B0F5400F22D0A6
:102C500001270FE0E86840F48030E8601BE00021C5
:102C6000201D01F08FFE03E00021584601F020FFF7
:102C7000070010D03E462088C00426D5A06EC0B103
:102C8000B0F1807F1AD0B0F1007F0DD0B0F1407F5D
:102C900019D0012718E0D5F88800616E20F44000B3
:102CA0000843C5F88800E6E7E86840F48030E8604B
:102CB00009E00021201D01F065FE03E000215846D7
:102CC00001F0F6FE0746F7B13E46206880033AD58C
:102CD000A86D4FF00008C00009D4A86D40F08050E6
:102CE000A865A86D4FF0010800F080500090DFF853
:102CF000D8A2DAF8001041F48071CAF80010FFF78A
:102D00007BFC814610E0D5F88800A16E20F0407071
:102D10000843C5F88800D8E7FFF76EFCA0EB090070
:102D2000022801D9032705E0DAF80000C005F3D531
:102D3000002F7CD04FEA0706B8F1000F03D0A86D32
:102D400020F08050A8652078C00707D0D5F888000B
:102D5000A16B20F003000843C5F8880020788007A5
:102D600007D5D5F88800E16B20F00C000843C5F8C2
:102D700088002078400707D5D5F88800216C20F01E
:102D800030000843C5F888002078000707D5D5F83B
:102D90008800616C20F0C0000843C5F888002078E6
:102DA000C00607D5D5F88800A16C20F44070084310
:102DB000C5F888002078800607D5D5F88800E16C32
:102DC00020F440600843C5F888002088800507D5B6
:102DD000D5F88800E16D20F440200843C5F888004C
:102DE0002088400507D5D5F88800216E20F44010D2
:102DF0000843C5F888002078400607D5D5F8880034
:102E0000216D20F440500843C5F888002078000662
:102E100007D5D5F88800616D20F440400843C5F817
:102E200088002088C00509D5D5F8880000E01CE09E
:102E3000A16D20F440300843C5F8880020884FF089
:102E4000006780044FF080684FD5D5F88800E16EA8
:102E500020F040600843C5F88800E06EB8423CD1DD
:102E6000E86840F48010E8603FE0D5F8900010F486
:102E7000407015D0D4F88410814211D0D5F890005C
:102E8000D5F8901020F4407041F48031C5F89010CE
:102E9000D5F8901021F48031C5F89010C5F8900055
:102EA000C00710D0FFF7A8FB074641F2883906E0BB
:102EB000FFF7A2FBC11B494501D903263CE7D5F822
:102EC00090008007F4D5D5F89000D4F8841020F451
:102ED00040700843C5F890002EE7404505D1012118
:102EE000201D01F04FFD00B106462068000317D5F4
:102EF000D5F88800216F20F040600843C5F88800AD
:102F0000206FB84204D1E86840F48010E86007E020
:102F1000404505D10121201D01F034FD00B10646D8
:102F20002068400317D5D5F88800616F20F0406015
:102F30000843C5F88800606FB84204D1E86840F4DF
:102F40008010E86007E0404505D10121201D01F017
:102F500019FD00B10646208840041AD5D5F888002E
:102F6000A16F20F040500843C5F88800A06FB0F171
:102F7000805F03D0B0F1005F05D00AE00221201D80
:102F800001F000FD03E00221584601F091FD00B17F
:102F900006462088000407D5D5F88800E16F20F0A8
:102FA00080400843C5F888002068C00307D555F85D
:102FB000880FD4F8801020F0004008432860304685
:102FC00000F004B8001002400070004018BCBDE8DA
:102FD000E08F00002DE9F047DFF8608105460E46DE
:102FE000D8F8000000F00700B0420CD2D8F800106A
:102FF00021F007013143C8F80010D8F8000000F0B4
:103000000700B04275D128784D4CC00757D068688A
:10301000032818D0022819D02168D0B14905002909
:1030200067DAA16821F003010143A160FFF7E4FA28
:103030006968074641F28830032913D002291FD05E
:10304000814651B336E021688901E8E721688903A8
:10305000E5E78907E3E700BFFFF7CEFAC11B494563
:1030600001D924E08146A068C0F381000328F3D190
:1030700025E000BFFFF7C0FAC11B494501D916E0A2
:103080008146A068C0F381000228F3D117E000BF99
:10309000FFF7B2FAC11B494509D8A06810F00C0F20
:1030A000F6D10CE0FFF7A8FAC11B494502D903206D
:1030B000BDE8F087A068C0F381000128F2D128782C
:1030C000800705D5A068A96820F0F0000843A0603B
:1030D000D8F80010404601F00701B1420BD9016851
:1030E00021F0070131430160006800F00700B042A1
:1030F00001D00120DCE72878400705D5A068E96801
:1031000020F4E0600843A0602878000706D5A06896
:10311000296920F4605040EAC100A06000F03CF84A
:10312000A168084AC1F30311515CC8400649086010
:103130000020FFF7E7FA0020BAE700000020024075
:1031400000100240287F0008D801002001480068D4
:1031500070470000D80100200448054900688968CC
:10316000044AC1F30221515CC8407047D8010020D5
:1031700000100240687F000804480549006889681B
:10318000044AC1F3C221515CC8407047D8010020F5
:1031900000100240687F000830B52D490023184612
:1031A0008A682C4C12F00C0F4FEA640514D08A6820
:1031B000C2F38102032A04D1CA6802F00302012A81
:1031C0000AD08A68C2F38102012A19D08A68C2F340
:1031D0008102022A16D016E00A68120704D4D1F838
:1031E0009420C2F3032202E00A68C2F303121A4BCE
:1031F00053F822308A6812F00C0F04D1184602E00E
:10320000204600E028468A68C2F38102032A1DD1C5
:10321000C868CA6800F00300C2F30212521C0228F8
:1032200004D0032805D0B3FBF2F004E0B4FBF2F0C5
:1032300001E0B5FBF2F0CA68C968C2F30622504348
:10324000C1F34161491C4900B0FBF1F030BD000001
:10325000001002400024F400387F00082DE9F843F4
:1032600004460078FE4DC0065DD5A86810F00C0F2E
:103270000AD0A0690028286871D040F001002860B9
:10328000FFF7BAF9064654E02868800702D5A0691E
:1032900000287DD0216A2868000703D5286800F03F
:1032A000F00004E0D5F89400F02202EA1010814208
:1032B00016D9084601F080FC002869D1286840F042
:1032C000080028602868216A20F0F0000843286080
:1032D0006868E16920F47F4040EA0120686015E0F9
:1032E000286840F0080028602868216A20F0F00073
:1032F000084328606868E16920F47F4040EA0120C3
:103300006860206A01F058FC0028D6D1FFF744FF1E
:10331000A968D44AC1F30311515CC840D24908607E
:103320000020FFF7EFF929E0FFF766F9801B02287C
:103330007ED828688007F7D5286840F00800286004
:103340002868216A20F0F000084328606868E16975
:1033500020F47F4040EA012068600FE0FFE720F0A2
:1033600001002860FFF748F9064604E0FFF744F93A
:10337000801B0228DCD828688007F7D42078C00793
:103380004AD0A868C0F3810002281FD0A86800E0D6
:1033900098E0C0F38100032803D1E868C0438007A8
:1033A00014D06068B0F5803F17D0B0F5A02F286822
:1033B00017D020F480302860286820F4802028600E
:1033C0006068E0B1FFF718F9064614E0286880034A
:1033D00022D56068002875D01EE0286840F480304F
:1033E000EDE740F480202860F7E700BFFFF704F91D
:1033F000801B64289CD828688003F7D50CE0FFF771
:10340000FBF8064605E000BFFFF7F6F8801B6428CE
:103410008ED828688003F7D42078800742D5A86822
:10342000C0F38100012816D0A868C0F3810000E035
:10343000A9E0032804D1E86800F0030002280AD0BC
:10344000E068002828681DD040F480702860FFF7ED
:10345000D3F806460BE0286840050BD5E068002845
:10346000B9D007E0FFF7C8F8801B0228C2D8286847
:103470004005F7D56868217C20F0F85040EA0160EB
:1034800068600FE020F480702860FFF7B5F806460A
:1034900005E000BFFFF7B0F8801B022873D828684A
:1034A0004005F7D42078000729D560690028D5F8B1
:1034B000940013D040F00100C5F89400FFF79CF889
:1034C000064606E0FBE000BFFFF796F8801B0228E7
:1034D00059D8D5F894008007F6D510E020F0010007
:1034E000C5F89400FFF788F8064604E0FFF784F873
:1034F000801B022847D8D5F894008007F6D420789E
:10350000400763D5A86D0026C00008D4A86D40F020
:103510008050A865A86D012600F0805000905348A7
:103520000168C90511D40168804641F480710160C9
:10353000FFF762F8074604E0FFF75EF8C01B0228B9
:1035400021D8D8F80000C005F6D5A068012815D00C
:103550000528D5F8900017D020F00100C5F890009C
:10356000D5F8900020F00400C5F89000A06841F262
:103570008838C8B1FFF740F8074610E0D5F890004A
:1035800040F00100F0E777E040F00400C5F890005B
:10359000F4E700BFFFF730F8C11B41456CD8D5F800
:1035A00090008007F6D50CE0FFF726F8074604E008
:1035B000FFF722F8C11B414579D8D5F89000800764
:1035C000F6D41EB1A86D20F08050A865A06AE0B3C3
:1035D000A968C1F38101032972D00228286820F06C
:1035E0008070286011D02868000106D42868800007
:1035F00003D4E86820F00300E860E8681C4908404C
:10360000E860FEF7F9FF044654E0FEF7F5FF0646D2
:1036100005E000BFFEF7F0FF801B022847D82868AE
:103620008001F7D4206BE16A000110380843616B18
:10363000A26B0902120941EA42410843A18F0D4AD7
:10364000490802EB4151084300E036E094F840108D
:103650004908120102EB41610843E86028680CE068
:1036600000100240287F0008D801002000700040B0
:10367000FFFFEEFE0000E0FF19E040F080702860E0
:10368000E86840F08070E860FEF7B6FF044604E0AA
:10369000FEF7B2FF001B022809D828688001F7D581
:1036A0000BE000BFFEF7A8FF001B022802D9032091
:1036B000BDE8F88328688001F4D40020F8E7FFE72C
:1036C0000120F5E770B5040003D094F8210010B193
:1036D00007E0012070BD002084F82000204600F0A3
:1036E0004DF8022084F821002168CA204862216830
:1036F00053204862204601F073FBFF25042618BBC7
:10370000206881681C4A114081602168886862686D
:10371000A369104322691A43104388602168E06856
:10372000086120680169228941EA0241016120683B
:10373000C16821F08001C16020688068800608D4DB
:10374000204600F02BF820B12068456284F8216003
:10375000BFE72068C16C21F00301C1646169E069C1
:1037600008432168CA6C1043C86420684562012080
:1037700084F82100002070BDBFFF8FFF006805495D
:10378000884205D1044850F8901F41F4004101607F
:1037900070470000002800400010024070B5044649
:1037A0000068C16821F0A001C160FEF725FF054651
:1037B0004FF47A7607E000BFFEF71EFF401BB042D1
:1037C00001D9032070BD2068C0688006F4D50020B0
:1037D00070BD704738B504460068426881684B0682
:1037E00005D4CB0703D0530601D5E16C04E08B0769
:1037F00007D5130605D5216D01B02046BDE8304040
:10380000084711F4B07F4AD0930648D54B060AD535
:1038100094F85D30032B3FD0236E43F004032366FE
:10382000C368836800938B0609D5236E43F00103B8
:10383000236683680093036823F040030360C80590
:1038400006D5206E40F00800206620688068009051
:10385000206E002823D02068416821F0E0014160FB
:10386000012084F85D00900701D4D00718D02068AB
:10387000416821F0030141600B4DA06D18B18563D3
:10388000A06DFEF7E4FC606D002808D08563606DD4
:10389000BDE83840FEF7DBBCC1688068009038BDE9
:1038A0002046FFF796FF38BD554E00082DE9F04140
:1038B000040005D00025A56294F85D0018B107E06A
:1038C0000120BDE8F08184F85C50204600F044F807
:1038D000022384F85D302068016821F04001016016
:1038E000E0684FF4E066B04201D9002101E04FF4F6
:1038F0008051B0F5706F02D0B04200D0A562276B46
:10390000012227B9B04201D9236300E02263D4E940
:1039100001031843D4E9043633431843238B03F4DB
:1039200000731843E3691843236A1843A36A1843D2
:1039300023681860636B606AA66918430427E3680C
:1039400007EA164633431843084321684860256652
:1039500084F85D200020B4E72DE9F041234A016896
:1039600000252348022403260527DFF8888086B037
:10397000914215D1016E41F480510166006E694695
:1039800000F48050059038208DE8F1004046FEF7A5
:1039900045FD00220D212320FEF714FF23201FE008
:1039A000154A91421ED1816D41F480418165806D3F
:1039B000694600F48040059004208DE8F1000F482E
:1039C000FEF72CFD4FF420408DE8F100694640469B
:1039D000FEF724FD00220E212420FEF7F3FE242012
:1039E000FEF7E4FE06B0BDE8F081000000300140C3
:1039F0000010024000040048003800400008004861
:103A00002DE9F84F044640680026984617460D46B3
:103A10004FF0040AB0F5827F01D1A06890B194F80C
:103A20005C00012819D04FF0010B84F85CB0FEF760
:103A3000E3FD009094F85D004FF0000901280ED0DE
:103A400002268EE084F85DA013460A462046CDF893
:103A5000008000F04DF900F08AB80220FBE7002D4D
:103A60007ED0002F7CD084F85DA0C4F860902564DF
:103A7000A4F84470A4F84670C4F83890A4F83C90B8
:103A8000A4F83E90C4F84C90C4F85090E0684FF40D
:103A9000E06188422068426802D922F4805201E045
:103AA00042F480524260A068B0F5004F04D1206813
:103AB000026822F48042026020680268520603D441
:103AC000026842F040020260E068884219D939E099
:103AD00020688168C90708D0007B05F8010BB4F89D
:103AE0004600401EA4F846000BE0B8F1000F26D0B7
:103AF000B8F1FF3F05D0FEF77FFD0099411A41451F
:103B00001DD2B4F846000028E2D11FE02068816889
:103B1000C90708D0C06825F8020BB4F84600401E5B
:103B2000A4F846000EE0B8F1000F08D0B8F1FF3F4E
:103B300008D0FEF761FD0099411A414502D30326E2
:103B40000FE00DE0B4F846000028DFD141462046E2
:103B5000009A01F088F908B120202066206E00B19B
:103B6000012684F85DB084F85C90304673E718BC99
:103B7000BDE8E08F2DE9F84F044690F85C00002680
:103B8000984617460D4601280DD04FF0010A84F8DB
:103B90005CA0FEF731FD834694F85D00B146012834
:103BA00004D002269BE0022000F09FB8002D73D0C5
:103BB000002F71D0032084F85D00C4F86090A563E5
:103BC000A787E787C4F84090A4F84490A4F84690EB
:103BD000C4F85090C4F84C90A068B0F5004F04D1E0
:103BE0002068016841F4804101602068016849064D
:103BF00003D4016841F040010160E068B0F5E06F76
:103C0000606823D910B1E08F01281BD1216835F8F5
:103C1000020BC86006E020688168890706D535F880
:103C2000021BC160E08F401EE0870BE0B8F1000F7F
:103C30003FD0B8F1FF3F05D0FEF7DEFCA0EB0B0153
:103C4000414536D2E08F0028E5D137E010B1E08F52
:103C5000012830D1E08F012804D9216835F8020B02
:103C6000C86010E0216815F8010B087311E0E087C7
:103C700021E02068816889070FD5E18F012905D9E6
:103C800035F8021BC160E08F801EF0E715F8011BBC
:103C90000173E08F401EEAE720E0B8F1000F08D082
:103CA000B8F1FF3F07D0FEF7A7FCA0EB0B014145A1
:103CB00001D3032613E0E08F0028DAD15A464146AB
:103CC000204601F00AF908B120202066A06818B942
:103CD0002068C16880680090206E00B1012684F8D9
:103CE0005DA084F85C9030465EE718BCBDE8E08FCC
:103CF0002DE9F05F044690F85C0000260A9F994683
:103D000092460D464FF0010801280ED0012084F89C
:103D10005C00FEF771FC834694F85D006168012841
:103D20000CD0B1F5827F07D102E0022000F0FBB891
:103D3000A16809B9042801D00226ECE04DB3BAF11C
:103D4000000F26D0B9F1000F23D094F85D000428AD
:103D500002D0052084F85D0000202066C4F840A051
:103D6000A4F84690A4F84490A563A4F83E90A4F863
:103D70003C90E0642065E0684FF4E061884203D83D
:103D8000B4F84600012806D92068426822F480521F
:103D900005E00126BFE02068426842F4805242609C
:103DA00020680268520603D4026842F040020260B2
:103DB000E068884260683DD910B1E08F012831D1B8
:103DC000216835F8020BC860E08F401EE08729E0CB
:103DD000B8F1000F0DD0E08F58B1206881688907D5
:103DE00007D535F8021BC160E08F401EE0874FF019
:103DF0000008B4F8460068B120688168C90709D096
:103E0000C0682AF8020BB4F84600401EA4F8460029
:103E10004FF00108781C05D0FEF7EEFBA0EB0B007D
:103E2000B84266D2E08F0028D2D1B4F8460000280C
:103E3000CED167E010B1E08F01285CD1E08F01287E
:103E400006D9216835F8020BC860E08F801E05E0B6
:103E5000216815F8010B0873E08F401EE0874AE0E7
:103E6000B8F1000F16D0E08FA0B1206881688907F3
:103E700010D5E18F012905D935F8021BC160E08F0B
:103E8000801E04E015F8011B0173E08F401EE087DF
:103E90004FF00008B4F8460018B320688168C907DD
:103EA0001FD0B4F84610012911D9C0682AF8020BB6
:103EB000B4F84600801EA4F84600B4F84600012875
:103EC0000DD82068416841F48051416007E0017BD2
:103ED0000AF8011BB4F84600401EA4F846004FF053
:103EE0000108781C07D0FEF787FBA0EB0B00B84257
:103EF00001D303260FE0E08F0028B1D1B4F84600CB
:103F00000028ADD15A463946204600F0E6FF10B1F0
:103F1000012620202066012084F85D00002084F81E
:103F20005C00304602E730BCBDE8C09F4FF0E021A6
:103F30000428086903D020F004000861704740F0AD
:103F40000400FAE7704710B5401EB0F1807F01D33E
:103F5000012010BD4FF0E02460610F21601700F0D8
:103F6000B9FC0020A06107202061002010BD10B521
:103F7000FFF7E8FF10BD704710B5044690F87100D8
:103F800021280ED12068816809060AD5816821F0B0
:103F900080018160A06E08B1FEF73EF9204601F075
:103FA000A9F994F8720022280ED120688168490688
:103FB0000AD5816821F040018160E06E08B1FEF70A
:103FC0002BF9204601F086F9002010BDFEE7000025
:103FD0002DE9F04102680446D0691168936810F039
:103FE0000F0F4FF000055BD003F0010601F490774E
:103FF000374369D0C70707D0CF0505D5012717621A
:10400000626F42F001026267820708D5DA0706D0C4
:10401000276802223A62626F42F004026267420736
:1040200008D5DA0706D0236804221A62626F42F0CC
:104030000202626702070AD501F02002324306D06D
:10404000236808221A62626F42F008026267626F98
:10405000002A32D0800605D5880603D5216E09B125
:1040600020468847606F000703D4206880684006B8
:1040700025D5204601F02EF920688168490619D51A
:10408000816821F040018160E06E98B1224981632E
:10409000E06EFEF7DCF800280FD0E06E816B06E0E2
:1040A000860611D58E060FD5216E23E02046BDE889
:1040B000F04108472046FFF789FFBDE8F081204620
:1040C000FFF784FF6567F8E7C7024FF020060CD5BD
:1040D0005B020AD5F003106284F8716084F87260A4
:1040E0002046BDE8F041FFF746BF030605D50B06A5
:1040F00003D5616E0029D9D1DFE74006DDD548063A
:10410000DBD51168204621F04001116084F8716010
:10411000656600F075F9D0E7C152000810B50400DB
:1041200003D094F8710010B107E0012010BD002009
:1041300084F87000204600F027F8242084F87100ED
:104140002068016821F001010160204601F0DCF8DF
:104150000128EBD0606A10B1204601F01FF82068FA
:10416000416821F4904141602068816821F02A0172
:1041700081602068016841F0010101602046BDE8CE
:10418000104001F06FB800002DE9F0410746454BA3
:104190000168002444480325022686B04FF090426F
:1041A0004FF0800899422AD1816D41F40021816548
:1041B000806D029400F400200590CDE9005608209F
:1041C000CDE9035069461046FEF728F9384D3748C7
:1041D0002860C5E90164C5E903486C61AC61EC6124
:1041E00028462C62FEF7ACF820B140F2BD1131A098
:1041F00001F033FBFD66AF6206B0BDE8F081344BE1
:104200000727994219D1016E41F480410166006E81
:1042100002AA00F4804005905815CDE9000682E816
:10422000B00069462B48FEF7F9F802AA694682E811
:10423000B000CDE90086284831E0284B99421AD1D8
:10424000816D41F400318165806D02AB00F4003076
:1042500005900C20CDE9000683E8B00069461046C1
:10426000FEF7DCF8002207212620FEF7ABFA262015
:10427000FEF79CFAC0E71A4A9142BDD1816D41F424
:1042800080218165806D02AA00F4802005904FF4A2
:104290004060CDE9000682E8B00069461148FEF7AB
:1042A000BDF8A9E7004C004000100240580402404D
:1042B000080A00202E2E2F5372632F73746D333231
:1042C0006C3478785F68616C5F6D73702E6300008A
:1042D0000038014000180048000400480044004035
:1042E00000480040000800482DE9F843044690F8D3
:1042F00071001F4616460D4620284BD1C5B1BEB1F0
:1043000094F87000012845D0012084F870004FF027
:104310000008C4F87480212084F87100FEF76CF95D
:10432000A4F850608146A4F852604FF4805615E01E
:104330000120BDE8F8838021204601F074F9D8B946
:10434000A068B04201D12069C0B115F8010B216805
:104350000885B4F85200401EA4F85200B4F8520088
:104360004B464FF0000200970028E4D14FF0400187
:10437000204601F058F930B10320DAE735F8020B96
:10438000C0F30800E3E7202084F8710084F870800F
:104390000020CEE70220CCE790F87130202B29D105
:1043A000B9B1B2B190F87030012B23D0012380F85D
:1043B0007030C164A0F85020A0F85220002141665E
:1043C0004167212280F871208268B2F5805F02D0B7
:1043D00003E001207047026952B1074A426680F843
:1043E00070100068016841F0800101600020704792
:1043F000024AF3E702207047EB550008A955000870
:1044000001490120487070470C000020FEE70000C1
:1044100010B500216B2000F095F807211A2000F05C
:1044200091F83021372000F08DF84D21242000F044
:1044300089F820216A2000F085F80121672000F02A
:1044400081F88121272000F07DF80721192000F054
:1044500079F801211C2000F075F818211B2000F0CC
:1044600071F808211D2000F06DF801210B2002F0E9
:1044700093FF12210A2002F08FFF752000F048F808
:104480000146BDE8104001A001F0E8B957686F414E
:104490006D493A3078255820200D0A0000EB810044
:1044A000006E00F0F84070478068C0F380007047ED
:1044B0008068C0F38000704770B54FF0007401F061
:1044C000007394FAA4F4B4FA84F4E3404FF0F8745F
:1044D00094FAA4F501F0F871B5FA85F500EB8300C4
:1044E00021FA05F50726AE4094FAA4F44369B4FA1C
:1044F00084F4E140B3438A401343436170BD00EB51
:104500008100016E21F000411143016670470000F7
:1045100070B50B4D0446002240212846FEF767F88F
:1045200044F0800000F080FCFF2000F07DFC044699
:10453000012240212846FEF75AF8204670BD0000AF
:104540000004004870B50B4D0E4604460022402181
:104550002846FEF74CF8204600F066FC044630463C
:1045600000F062FC012240212846FEF740F8204678
:1045700070BD00000004004830B51A4889B01849E1
:104580000024C0E9001484600425C460C0E9044527
:104590000121C0E90641C0E90814C0E90A14C0E9D4
:1045A0000C418463C463FDF76BFC00B1FEE706A910
:1045B0000C480694FDF74EF800B1FEE70A4800905B
:1045C0000620CDE901047F200594CDE90305694665
:1045D0000448FDF7B7F8002800D0FEE709B030BD69
:1045E0000000045028020020000084CB2DE9F04F89
:1045F000514C87B0E06C40F00100E064E06C00F0EA
:1046000001000590E06C40F04000E064E06C00F0D8
:1046100040000590FEF73AF9E06C40F00200E064DB
:10462000E06C00F002000590E06C40F00400E064F3
:10463000E06C00F004000590E06C40F08000E06465
:10464000E06C012200F08000059040213B48FDF71E
:10465000CEFF4FF480684FF0904A0022414650460A
:10466000FDF7C5FFDFF8D8B000224FF4607158465F
:10467000FDF7BDFF0122160231465046FDF7B7FF98
:1046800044F20409002249462C48FDF7B0FF0122FC
:1046900008215846FDF7ABFFF001002401258DE805
:1046A000310069465046FDF7B9FE4027CDE9007557
:1046B000CDE9025469462148FDF7B0FECDF80080EF
:1046C000CDE90154694650460394FDF7A7FE4FF427
:1046D0002270CDE90005CDE9025469465846FDF740
:1046E0009DFECDE90065CDE9025469465046FDF7CF
:1046F00095FE0096CDE90154694658460394FDF7AE
:104700008DFECDE90074694658460294FDF786FE99
:10471000CDF80090CDE90154694608480394FDF7AF
:104720007DFE2803CDE90004694604480294FDF7A4
:1047300075FE07B000F006B8001002400004004803
:104740000008004830BCBDE8C08F0000114810B51B
:104750000F4901604FF48271416000214FF4E06223
:10476000C0E9021202220261012242615202826108
:104770000822C0E9072107224162C0E90A12016349
:104780004163FFF793F8002800D0FEE710BD00005A
:10479000003001401C030020114810B50F49016092
:1047A0004FF48271416000214FF4E062C0E90212CF
:1047B0000222026101224261520282610822C0E9A2
:1047C000072107224162C0E90A1201634163FFF732
:1047D0006DF8002800D0FEE710BD00000038004052
:1047E000800300200F4810B50D4901604FF4E131FE
:1047F0004160002181600C22C160C0E90412816126
:10480000C1610162302141624FF4805181634900EE
:10481000C163FFF783FC002800D0FEE710BD000055
:10482000004C0040E40300200C4810B50A49016028
:104830004FF4E1314160002181600C22C160C0E988
:1048400004128161C16101624162FFF767FC0028C7
:1048500000D0FEE710BD0000003801405C040020DD
:104860000C4810B50A4901604FF4E1314160002164
:1048700081600C22C160C0E904128161C1610162E2
:104880004162FFF74BFC002800D0FEE710BD00009E
:1048900000440040D40400200C4810B50A490160CF
:1048A0004FF4E1314160002181600C22C160C0E918
:1048B00004128161C16101624162FFF72FFC00288F
:1048C00000D0FEE710BD0000004800404C0500206D
:1048D000FEE770470907090E002806DA00F00F000E
:1048E00000F1E02080F8141D704700F1E02080F80E
:1048F00000147047704710B5806A0021016341625F
:1049000090F83910082905D0012180F83910FEF7F8
:1049100008F810BD02680221D16001680A6842F4FB
:1049200000320A600068016841F00201016010BDB8
:104930002DE9F041984616460F460446069D12E0C2
:10494000681C10D02DB1FDF757FEA0EB0800A8425F
:1049500009D9042084F83900E06B40F00100E063DD
:104960000120BDE8F08120688068384000D0012037
:10497000B042E5D10020F4E70148FDF7D5BF0000C3
:10498000B40200202DE9F041444C05468846E06819
:104990000026810728680DD0E16801F003018142FB
:1049A00016D1A8B1E0686968C0F30210401C8842C3
:1049B0000ED120E0012804D0022805D0032807D119
:1049C00008E02168890701E021684905002907DB23
:1049D00001265FE02168890302D421684903F5E7D5
:1049E000E1686A686FF00F0321F0730103EB0212B4
:1049F00011430143E160206820F080602060FDF7F2
:104A0000FBFD074605E000BFFDF7F6FDC01B0228D1
:104A100037D820680001F7D4B8F1000F18D0B8F1EA
:104A2000010F1ED0287D4FF07E41400801EB406011
:104A3000A96840EA01202169194A11400843206110
:104A4000206840F080602060FDF7D6FD07461AE040
:104A5000A868E9680002090940EA41402169114A51
:104A6000EBE7288A1049400801EB4050A96840EA6A
:104A7000012021690D4AE0E7FDF7BEFDC01B0228B9
:104A800001D9032606E020680001F5D52069A9694F
:104A9000084320613046BDE8F0810000001002406C
:104AA000FF80FFF9FF80FDFF0000E0FFFF809FFF18
:104AB0002DE9F0413D4C06468846E0680025810717
:104AC00030680DD0E16801F00301814216D1A8B130
:104AD000E0687168C0F30210401C88420ED120E0EB
:104AE000012804D0022805D0032807D108E0216856
:104AF000890701E021684905002907DB012551E00C
:104B00002168890302D421684903F5E7E1687268E6
:104B10006FF00F0321F0730103EB02121143014305
:104B2000E160206820F080502060FDF765FD0746B9
:104B300005E000BFFDF760FDC01B022829D82068F2
:104B40008000F7D4B8F1000F15D0307C4FF07E41D3
:104B5000400801EB4060B16840EA01206169144AF5
:104B6000114008436061206840F080502060FDF7EC
:104B700043FD07460FE0B068F1680002090940EA0A
:104B8000414061690B4AEBE7FDF736FDC01B022887
:104B900001D9032506E020688000F5D560697169B8
:104BA000084360612846BDE8F08100000010024023
:104BB000FF80FFF9FF80FDFFF8B51C4D064600247D
:104BC000A86DC00002D5FDF771FE0DE0A86D40F0A4
:104BD0008050A865A86D00F080500090FDF766FE3B
:104BE000A96D21F08051A965B0F5007F04D0802E19
:104BF00007D94FF003040AE0802E08D9A02E01D86F
:104C000004E001D1022402E0702E00D10124084802
:104C1000016821F0070121430160006800F00700EE
:104C2000A04201D00120F8BD0020F8BD00100240D4
:104C30000020024070B53C20FFF76AFC134C207046
:104C40003B20FFF765FC6070B4F90000A42690FBE0
:104C5000F6F00F4D28803E20FFF75AFCA0703D2053
:104C6000FFF756FCE070B4F9020090FBF6F06880A4
:104C70004020FFF74DFC20713F20FFF749FC607199
:104C8000B4F9040090FBF6F0A88070BD000000208D
:104C9000E401002070B544202DED028BFFF738FCB5
:104CA0001E4C20704320FFF733FC6070B4F9000005
:104CB0001B4DFBF7A8FC9FED1B8B53EC182BFBF750
:104CC00033FCFBF7B1FCE8804620FFF721FCA07025
:104CD0004520FFF71DFCE070B4F90200FBF793FCE0
:104CE00053EC182BFBF720FCFBF79EFC2881482097
:104CF000FFF70EFC20714720FFF70AFC6071B4F942
:104D00000400FBF780FC53EC182BFBF70DFCFBF7C2
:104D10008BFC6881BDEC028B70BD000000000020A0
:104D2000E401002066666666666630402DE9F04163
:104D3000102002F019FB0646112002F015FB054673
:104D4000122002F011FB8046022002F00DFB8007CA
:104D50003FD4032002F008FB1F4C2070092002F012
:104D600003FB042002F000FB6070092002F0FCFA53
:104D70000127803E07EB26212088184E4843B0814A
:104D8000052002F0F1FAA070092002F0EDFA0620E9
:104D900002F0EAFAE070092002F0E6FA6088803D4D
:104DA00007EB25214843F081072002F0DDFA20714E
:104DB000092002F0D9FA082002F0D6FA6071092021
:104DC00002F0D2FAA188A8F1800007EB202041432D
:104DD0003182BDE8F081000000000020E4010020E5
:104DE00070B504460068C168490614D44FF0FF311D
:104DF000C160FDF701FC05464FF47A7607E000BF7D
:104E0000FDF7FAFB401BB04201D9032070BD2068BA
:104E1000C0684006F4D5002070BD00000148FEF7D0
:104E2000D9BC00001C03002001B582B064200090B2
:104E3000012301AA02A90348FEF75AFF9DF80400C6
:104E40000EBD00001C0300200148FEF7C3BC00009B
:104E50008003002010B5806A0021A0F84610C187A9
:104E6000FEF7B7FC10BD2DE9F843044640684FF447
:104E70008276154689464FF400474FF48068B04269
:104E800009D1A068B84201D0404504D1206801682A
:104E900021F0400101604B46002280212046009510
:104EA00000F08EF880B96068B04214D1A068B842B2
:104EB00001D040450FD14B4600224FF4C06120463F
:104EC000009500F02EF830B1206E40F020002066F2
:104ED0000320BDE8F8830020FBE7F8B515460E4631
:104EE0000B460092044600224FF4C05100F019F81E
:104EF00088B93346002280212046009500F060F8F2
:104F000048B9334600224FF4C0612046009500F0B6
:104F100008F8002804D0206E40F02000206603200E
:104F2000F8BD2DE9F8431D4617460E4604464FF4DA
:104F3000C068DDF820903CE0464505D127B9007BEC
:104F40008DF800009DF80000681C32D02DB1FDF7EF
:104F500053FBA0EB0900A8422BD32068416821F045
:104F6000E00141606068B0F5827F0BD1A068B0F5C8
:104F7000004F02D0B0F5806F04D12068016821F0A5
:104F800040010160A06AB0F5005F09D120680168A6
:104F900021F4005101602068016841F40051016072
:104FA000012084F85D00002084F85C000320BDE847
:104FB000F883206881683140B942BDD10020F6E70E
:104FC0002DE9F0411D4617460E460446DDF81880CF
:104FD00034E0681C32D02DB1FDF70EFBA0EB0800C9
:104FE000A8422BD32068416821F0E001416060684D
:104FF000B0F5827F0BD1A068B0F5004F02D0B0F5BC
:10500000806F04D12068016821F040010160A06A2E
:10501000B0F5005F09D12068016821F400510160FA
:105020002068016841F400510160012084F85D00AE
:10503000002084F85C000320BDE8F08120688068CF
:1050400036EA000004D00020B842C2D10020F3E7C5
:105050000120F9E7704710B5FDF740FBBDE81040AF
:10506000FEF785BF10B5B8B0092022904FF480300C
:10507000012123902791022003242C90CDE92D417A
:105080000C212F910721CDE93010329022A8FEF794
:10509000E5F800B1FEE70F20CDE933040024359494
:1050A0003694022133A83794FDF794FF00B1FEE750
:1050B0000F9414480E941094119400904FF04050A7
:1050C0004FF400741E90A0041B9021946846FDF7D5
:1050D000A9FD00B1FEE72046FDF7A6FB00B1FEE703
:1050E000FEF734F84FF47A71B0FBF1F0FEF72BFFC6
:1050F0000420FEF71BFF00221146501EFDF762FB45
:1051000038B010BD0F6002000D48016841F4700115
:1051100001600C48016841F00101016000218160DB
:105120000268094B1A4002608214C260026822F4CD
:105130008022026081610249C003803908607047A3
:1051400088ED00E000100240FFFFF6EA10B50E48BF
:10515000FEF73EFF0C480D490068884212D1C16934
:10516000C943C9060ED4102101620748FEF704FFA7
:105170000748006840680749C0F1FF000870064909
:105180000120087010BD0000E4030020004C004026
:10519000080A00200E0000200C00002090F82410C7
:1051A000C90706D001684A68836A22F400321A43AC
:1051B0004A6090F82410890706D501684A68C36AD6
:1051C00022F480321A434A6090F82410490706D529
:1051D00001684A68036B22F480221A434A6090F8FF
:1051E0002410090706D501684A68436B22F400427F
:1051F0001A434A6090F82410C90606D501688A68E7
:10520000836B22F480521A438A6090F82410890636
:1052100006D501688A68C36B22F400521A438A607B
:1052200090F82410490611D501684A68036C22F4ED
:1052300080121A434A60016CB1F5801F06D10168E3
:105240004A68436C22F4C0021A434A6090F8241062
:10525000090606D501684A68806C22F400220243E0
:105260004A607047F8B5002604464667FDF7C4F962
:105270000546206800686FF07E47000708D52B467A
:1052800000224FF400112046009700F0CCF960B9DD
:105290002068006840070AD52B4600224FF48001A1
:1052A0002046009700F0BFF908B10320F8BD202088
:1052B00084F8710084F8720084F870600020F8BDF2
:1052C00010B5806A0021A0F85A10A0F85210FEF71D
:1052D0007DFE10BD01680A6822F490720A600168C0
:1052E0008A6822F001028A60202180F87210002171
:1052F0000166704701680A6822F0C0020A60202136
:1053000080F87110704700002DE9F04104460168F3
:1053100080682369E66918436369102500273343D1
:105320001843954A0B68954E334003430B60206841
:105330004168E36821F44051194341602168A06944
:10534000914201D0236A18438B6823F430630343EE
:105350008B608B4B21688B4899420DD1D0F8880027
:1053600010F0030006D001285AD0022856D0032896
:1053700059D157E0012556E0834B99420BD1D0F823
:10538000880010F00C0047D0042849D0082845D0E8
:105390000C2848D146E07D4B99420BD1D0F88800CB
:1053A00010F0300038D010283AD0202836D03028DD
:1053B00039D137E0764B99420BD1D0F8880010F004
:1053C000C00029D040282BD0802827D0C0282AD13F
:1053D00028E0704B99420ED1D0F8880010F440704C
:1053E0001AD0B0F5807F1BD0B0F5007F16D0B0F595
:1053F000407F18D116E0914215D1D0F8880010F402
:10540000406009D0B0F5806F0AD0B0F5006F05D0CC
:10541000B0F5406F07D105E0002504E0022502E069
:10542000042500E008255C4B00264FF40040914223
:105430003DD135B1022D07D0042D07D0082D10D154
:1054400007E0FDF789FE03E0184602E0FDF7A4FE41
:10545000A8B3626802EB4201814202D8B0EB023F7E
:1054600001D9012775E0DFF834815DB1022D0CD040
:10547000042D13D0082DF4D150082905401846F109
:10548000000105E0FDF768FE0AE050084449F5E731
:105490000023FAF795FEA0F5407156E0FDF77CFE7B
:1054A0006268010E0302500818187141F0E7E169C3
:1054B0004FF6EF7881422FD1092DD2D200E048E09B
:1054C000DFE805F006092005230505052600C8E7E5
:1054D000FDF742FE01E0FDF74FFE4100D4F8040065
:1054E00001EB5001B1FBF0F080B2A0F11001414599
:1054F000B7D84FF6F0710140C0F342000143206875
:10550000C16026E027496068EAE7FDF745FEE4E769
:105510004FF480316068E3E7092DA2D2DFE805F09F
:1055200006091E052205050525009AE7FDF714FE6C
:1055300001E0FDF721FE0146606801EB500100BF6C
:10554000B1FBF0F080B2A0F11001414589D821688B
:10555000C860266638466666BDE8F081606803EB81
:105560005001EDE7FDF718FEE5E7616800EB51003B
:10557000B0FBF1F0E6E7000000800040F369FFEFC8
:105580000038014000100240004400400048004044
:10559000004C0040005000400024F400FFFC0F00CD
:1055A000000024F40048E80190F87110212910D17E
:1055B000B0F8521071B1C16C02680988C1F30801DA
:1055C0001185C16C891CC164B0F85210491EA0F845
:1055D0005210704701680A6822F080020A60006871
:1055E000016841F040010160704790F87110212975
:1055F0000DD1B0F8521059B1C16C4A1CC264026896
:1056000009781185B0F85210491EA0F85210704761
:1056100001680A6822F080020A600068016841F0AF
:105620004001016070472DE9F041984617460E464B
:105630000446069D1DE0681C1BD02DB1FCF7DCFF65
:10564000A0EB0800A84214D92068016821F4D071A9
:1056500001602068816821F001018160202084F8C8
:10566000710084F87200002084F870000320BDE807
:10567000F0812068C06936EA000004D00020B842FA
:10568000D9D00020F3E70120F9E700000148FEF738
:105690009FBC0000D40400200148FEF799BC000024
:1056A0004C05002010B50446C06840F04000E060A2
:1056B000204600F005F84FF48030A063002010BDB4
:1056C0000146002200BF501C02460F4B984201D9F0
:1056D00003207047086900F000400028F3D0002242
:1056E000086940F00100086100BF501C0246064BEB
:1056F000984201D90320ECE7086900F00100002876
:10570000F3D100BFE5E70000400D0300816821F000
:10571000010181600020704708B5D0F8402422F0D4
:105720002E020092D20405D4012909D1009941F436
:10573000805103E021B9009921F48051C0F8401450
:10574000002008BD002110220261054A491C914237
:1057500001D9032070470369DB06F7D400207047A6
:10576000400D03000022202343EA81110161054915
:10577000521C8A4201D90320704703699B06F7D463
:1057800000207047400D03002DE9F04717460446FE
:1057900000252E46DDF82090C0F8005E032B07D1CF
:1057A000B4F1A04F04D0D4F8000440F0040003E0AA
:1057B000D4F8000420F00400C4F8000410212046AE
:1057C000FFF7D0FF2046FFF7BDFF4FF0FF3806E0A0
:1057D00004EB4510C0F80885C0F80C656D1CAF429D
:1057E000F6D801212046FFF797FFC820FCF708FEF6
:1057F000A661C4F81480802060620948A06209484C
:10580000C4F80001B9F1000F03D1A06940F0100005
:10581000A061A06904490843A0610020BDE8F087A9
:1058200080006000E0004000080020A310B5C268BE
:1058300022F0C042C260012901D021B107E0C16855
:1058400041F0005102E0C16841F08041C160322066
:10585000FCF7D6FD002010BDFEE7FEE70FB4054BB8
:1058600010B503A9044A029800F016FE10BC5DF8BA
:1058700014FB00004D730008DC01002003B4019804
:105880004100009850EAC12018BF04204A0D18BFFB
:1058900040F0010040F2FF72B2EB515F08BF40F0F0
:1058A0000200012808BF052002B070470000000078
:1058B00070B5C1482DED020B2DED0E8B82B0119D00
:1058C00025F000449FEDBEDB9FEDBFEB84423EDB45
:1058D000A4F140511098A1F17F6108430FD0BC485A
:1058E000844202DC28D1109830B39DED100B02B039
:1058F00000F08EB902B0BDE8704000F0BABC9DED7A
:10590000100B53EC1D2B51EC100BFAF798FD9DED8D
:10591000100B41EC180B53EC1E2B51EC100BFAF74B
:105920008EFD53EC182BFAF7DBFC41EC100B02B0A8
:1059300000F074B902B070BD012000F0E1FC02B0CB
:1059400000F072B902B0BDE8704000F0A9BCA148F7
:105950009FEDA18B844256DA9DED100BB4F1795F77
:105960000ADA51EC100BFFF789FF042808BF00F09A
:10597000A7FC9DED100BDAE753EC102B51EC100B4C
:10598000FAF75DFD41EC190B95480621B0EE490A86
:10599000F0EE690A784400F0F0FB53EC192B51EC5F
:1059A000100BFAF74CFD41EC1A0B8E48B0EE490A89
:1059B000F0EE690A0421784400F0DFFB53EC192B68
:1059C00051EC100BFAF73BFD53EC182BFAF788FC5F
:1059D00041EC100B51EC1A0B53EC102BFAF7A4FD11
:1059E000CDE900019DED000B53EC102B9DED100B4C
:1059F00051EC100BFAF723FD9DED101B53EC112B0E
:105A0000FAF76EFCD2E09DED100B51EC100B01F09B
:105A100091FC53EC182BFAF707FD9FED730BCDE9C2
:105A2000000153EC102B9DED000B51EC100BFAF71D
:105A300006FD41EC190B6E480621B0EE490AF0EE66
:105A4000690A784400F099FB53EC192B51EC100BC8
:105A5000FAF7F5FC41EC1B0B6648B0EE490AF0EE94
:105A6000690A0421784400F088FB53EC192B51ECAF
:105A7000100BFAF7E4FC53EC182BFAF731FC41EC6D
:105A80001C0B51EC190B02F017FA41EC180B5A4899
:105A90009FED5BABA04222DC53EC1C2B51EC1B0BAB
:105AA000FAF742FDCDE900019DED000B51EC180B1A
:105AB00053EC102BFAF7C3FC53EC182BFAF710FC3D
:105AC00053EC1A2BFAF7BBFC53EC1D2BFAF7A9FC8D
:105AD00053EC1E2BFAF7A8FC41EC100B5FE08DEDA8
