:020000040800F2
:10000000F80D00209D010008AB5C00084551000878
:10001000A95C0008F91000085D6F000800000000EE
:1000200000000000000000000000000093640008D1
:100030001912000800000000455D000897670008DD
:10004000B7010008B7010008B7010008B7010008B0
:10005000B7010008B7010008B7010008B7010008A0
:10006000B7010008B7010008B7010008B701000890
:10007000B7010008B7010008B7010008B701000880
:10008000B7010008B7010008B7010008B701000870
:10009000B7010008B7010008B7010008B701000860
:1000A000B7010008B7010008B7010008B701000850
:1000B000B7010008B7010008B7010008B701000840
:1000C000B7010008B7010008B7010008B701000830
:1000D000B7010008B7010008B7010008356F000834
:1000E000B7010008B7010008B7010008B701000810
:1000F000B7010008B7010008B7010008B701000800
:10010000B7010008B7010008B7010008B7010008EF
:1001100095690008B7010008B7010008B701000899
:10012000B7010008B7010008B7010008B7010008CF
:10013000B7010008B7010008B7010008B7010008BF
:10014000B7010008B7010008B7010008B7010008AF
:10015000B7010008B7010008B7010008B70100089F
:10016000B7010008B7010008B7010008B70100088F
:10017000B7010008B7010008B7010008000000003F
:10018000B7010008B7010008DFF80CD000F062FCEE
:1001900000480047FD860008F80D0020064880470B
:1001A00006480047FEE7FEE7FEE7FEE7FEE7FEE75C
:1001B000FEE7FEE7FEE7FEE7356900088901000873
:1001C0002DE9F05F0546002092469B46884606468C
:1001D000814640241BE0284641464746224600F01F
:1001E000ABFA53465A46C01A914110D311461846ED
:1001F000224600F092FA2D1A67EB01084F4622467C
:100200000120002100F089FA17EB00094E41201E61
:10021000A4F10104DFDC484631462A46434600F09B
:1002200000B830BCBDE8C09F2DE9F0410024061B9A
:10023000254671F1000605DA01240027D0EB0700FE
:1002400067EB0101161E73F1000605DA0027D2EBF9
:100250000702012567EB0303FFF7B2FF86460E4650
:1002600017469C46AC4204D00025D0EB050E65EB4A
:10027000010624B10020D2EB000760EB030C7046AE
:1002800031463A466346BDE8F081D2B201E000F85B
:10029000012B491EFBD270470022F6E710B513462A
:1002A0000A4604461946FFF7F0FF204610BD30B558
:1002B00005462A460B4612F8010B13F8014B08B10C
:1002C000A042F8D01CB1002802D06D1CF1E72846EE
:1002D00030BD421C10F8011B0029FBD1801A704769
:1002E0002DE9F04791460F4680460446002614F853
:1002F000015B2DB100F042FA0068405DC007F6D105
:100300002B2D02D02D2D18D0641E4A46394620468A
:1003100000F038FA27B13968A14201D1C7F800804E
:1003200071054FF002040BD54042002803DD06F0B2
:100330004FFE0460A007BDE8F08746F48066E4E75E
:100340000028F8DA06F044FE04606FF00040F2E79F
:100350002DE9FE4F804681EA0300C00F0C46009055
:1003600021F0004123F00045B8EB0200A94105D27D
:100370004046214690461C460B46024623F000406C
:10038000104347D0270DC7F30A00C3F30A51029068
:10039000401A019040286BDAC3F3130040F4801B2D
:1003A0000098924620B10023D2EB030A63EB0B0BBB
:1003B00001985946C0F14002504600F0AEF9064699
:1003C0000D4650465946019A00F0C6F910EB080058
:1003D0006141002487EA115284EAE7731A4340D04E
:1003E000009A62B3019A012A4FEA075215DC001BFA
:1003F00061EB02014FF0004202EA0752CDE90042F0
:10040000001C41F5801132462B4600F053FA03B030
:1004100000F045B840462146F9E7001B61EB0201B8
:10042000001C41F5801300185B412018A2F500174D
:1004300047EB030140EAD570B6196D4111E06D0834
:100440004FEA360645EAC0754FEA0752001B61EBDA
:100450000201001C41F5801149084FEA30000019E3
:10046000514132462B4603B000F01CB800F013BADD
:100470000098012240000023D0EB020263EBE073FE
:10048000009821464FEAE074B8EB000061EB0401EC
:10049000E9E783F000435BE781F0004158E730BCB7
:1004A000BDE8C08F30BCBDE8C04FFFF7DFBF2DE90E
:1004B000FE4F81EA030404F0004421F0004100945F
:1004C0004FF0000B23F0004350EA01045ED052EAE3
:1004D00003045BD0C3F30A54C1F30A552C44A4F2BD
:1004E000F3340194A0FB0254C1F3130141F48011D1
:1004F000C3F3130343F4801301FB024400FB034ED8
:10050000840A970A44EA815447EA8357A4FB0768A0
:1005100002958D0A05FB07854FEA932C04FB0C54CA
:100520002705029D4FEA065847EA1637B5EB08053E
:100530006EEB070C870E920E47EA811742EA831290
:10054000A7FB0201B6EB0B0164EB00042B0D43EAA1
:100550000C335E1844EB1C50DA465146E7FB0201AF
:10056000C5F313044FEA0B3343EA14534FEA043242
:10057000019C43EA0603A4F10C040294009CCDE91B
:1005800000B400F097F903B000F003B80020014672
:10059000F9E730BCBDE8C08F2DE9F04D81EA0304D6
:1005A00004F0004B21F0004514464FF0000A23F000
:1005B000004150EA050220D054EA01021DD0C5F3E3
:1005C0000A570246C5F31303C1F31300C1F30A56D9
:1005D00040F4801543F48013A7EB0608101BD646A1
:1005E00008F2FD3873EB050002D308F1010801E0C1
:1005F00092185B41B8F1000F03DA00200146BDE814
:10060000F08D00204FF48011064684460EE0171B43
:1006100073EB050705D3121B63EB050306434CEA96
:10062000010C49084FEA300092185B4150EA01077B
:10063000EDD152EA030012D082EA040083EA0501F8
:10064000084305D0101BAB4106D20122002306E06F
:1006500000224FF0004302E06FF0010253101AEB4A
:1006600006004CEB085110EB0A0041EB0B01BDE812
:10067000F04D00F010B90EB540F233410291002167
:10068000CDE900110A460B4600F014F903B000BD95
:1006900000F0004230F000400AD0C10D01F5607159
:1006A000C0F3160042EA0151C208400711437047E7
:1006B00000200146704701F0004330B421F00041B2
:1006C00050EA010206D00A0DA2F56072C1F31301CF
:1006D000002A02DC30BC00207047440F44EAC10409
:1006E000C100E01830BC00EBC25000F09DB830B53E
:1006F0000B46014600202022012409E021FA02F5E0
:100700009D4205D303FA02F5491B04FA02F5284479
:10071000151EA2F10102F1DC30BD202A04DB203AD3
:1007200000FA02F1002070479140C2F1200320FA44
:1007300003F3194390407047202A04DB203A21FA42
:1007400002F00021704721FA02F3D040C2F12002EA
:100750009140084319467047202A06DBCB17203A00
:1007600041FA02F043EAE07306E041FA02F3D040B6
:10077000C2F1200291400843194670470048704773
:10078000548E00082DE9F05F824600780027154658
:100790008B460AF10104B946302801D09DB113E01F
:1007A00014F8010B0127782803D0582801D045B14F
:1007B0000AE00DB1102D07D10027102514F8010B08
:1007C00002E0082500E00A250026B0460EE005FB01
:1007D000080005FB06F1012701EB10461FFA80F81F
:1007E000B6F5803F00D3B94614F8010B294600F056
:1007F00043F90028EBDABBF1000F05D00FB1641EFE
:1008000000E05446CBF80040B9F1000F06D006F0E6
:10081000DFFB02210160C81E00F003B848EA064071
:10082000FAE730BCBDE8C09F0029A8BF7047401C54
:10083000490008BF20F00100704710B4B0FA80FCF6
:1008400000FA0CF050EA010404BF10BC704749B133
:10085000CCF1200421FA04F411FA0CF118BF0121A3
:1008600021430843A3EB0C01CB1D4FEA00614FEA83
:10087000102042BF002010BC704700EBC350104452
:100880000029A4BF10BC7047401C490008BF20F0DD
:10089000010010BC704710B5141E73F1000408DA93
:1008A000401C41F1000192185B411A4301D120F034
:1008B000010010BD2DE9F04D92469B4611B1B1FAF1
:1008C00081F202E0B0FA80F220329046FFF725FF75
:1008D00004460F4640EA0A0041EA0B0153465A46D5
:1008E000084313D0114653EA010019D0C8F1400261
:1008F0005046FFF721FF05460E46504659464246F0
:10090000FFF70BFF084305D0012004E020463946DD
:10091000BDE8F08D0020054346EAE0762C433743DE
:100920000A986305E40AA0EB08000022FD0A44EAE5
:1009300047540A3002D500200146E9E701051019A5
:100940006941DDE9084500196941BDE8F04DA2E7BC
:100950002DE9F04D00231A461B1A8A4103DB0020C3
:100960000146BDE8F08DC1F30A52C1F3130141F411
:1009700080154FF0000BD10702D100186D41521EB7
:100980000027044640F2FF11384601EB620A3E465A
:100990008046024600204FF48011FFF7CDFEC219B9
:1009A0007141BB1846EB0100B4EB030C75EB000C76
:1009B00004D3E41A65EB000517460E46241908F126
:1009C00001006D4180463428E3DDF91946EB06004D
:1009D000091BA84103D24FF0FF32134601E0002269
:1009E00013461BEB070046EB0A51BDE8F04DFFF73D
:1009F00052BFC1F30A52C1F3130140F2FF3341F475
:100A000080119A4202DA00200146704740F23343D7
:100A10009A42A2F2334202DC5242FFF78DBEFFF748
:100A20007CBE000030B5041E71F1000404DB4FF001
:100A30000044404264EB0101141E73F1000405DB25
:100A40001C464FF00043524263EB0403994208BF37
:100A5000904230BD064C074D06E0E06840F00103CF
:100A600094E8070098471034AC42F6D3FFF790FBA8
:100A7000588E0008788E00083A2800D2303820F0CE
:100A80002002412A01D3A2F13700884201D34FF05E
:100A9000FF307047F8B50446002000902068816858
:100AA00001F00301012902D10168C90735D181682C
:100AB0001B4A114222D18168D5432940491C8160DB
:100AC000184819490068B0FBF1F000EB80004000C5
:100AD00000E0401E00900028FBD102F0D3FF064644
:100AE00016E0816811F0010F03D181682940491C8B
:100AF000816002F0C7FF801B022809D9A06D40F079
:100B00001000A065E06D40F00100E0650120F8BD37
:100B100020680168C943C907E3D10020F8BD00007F
:100B20003F000080D000002080841E0070B52D485A
:100B300002F072FD32212B4802F0DAFC294802F063
:100B4000B1FB294C800503D5264802F0ADFB20807F
:100B50002088FFF790FD9FED251B53EC112BFFF72D
:100B6000A6FCFFF7A8FD00EE100AB0EE081AF6EE9C
:100B7000000A204C40EE010A284D22221EA12846E0
:100B8000C4ED000A07F0EEFE222225A1284607F058
:100B9000E9FE2068FFF77CFD41EC100B29A153EC26
:100BA000102B294806F0ECF9172228A1284607F057
:100BB000D9FE2548FFF78DFB82B22349284607F06E
:100BC000D1FE022214A1284607F0CCFE22220AA15F
:100BD000284607F0C7FEBDE870404FF47A7004F075
:100BE00067BD00008C090020B800002018800118A3
:100BF0008001483FBC0000202D2D2D2D2D2D2D2DA9
:100C00002D2D2D2D2D2D2D2D2D2D2D2D2D2D2D2D14
:100C10002D2D2D2D2D2D2D2D0D0A000000480040CD
:100C20002A2A2A2A2A2A2A2A2A2A2A2A2A2A4144F3
:100C300043312A2A2A2A2A2A2A2A2A2A2A2A2A2AF4
:100C40000D0A000025660000580700205468652042
:100C50006261747465727920766F6C746167653A4D
:100C6000200D0A0070B5144C1248206213486062CF
:100C70001348A062204607F0F9FB05460246217F93
:100C800010A006F06DF915B14FF0FF3070BD0420D3
:100C900007F0C4FC0446042007F054FC044403207D
:100CA00007F076FC0444042007F092FC204440B294
:100CB00070BD000085100008F0030020251000081A
:100CC000B15600084368697049643A307820255865
:100CD00020202020636F6D5F72736C743A25640D61
:100CE0000A00000070B500F083F9644C84ED050A39
:100CF00000F066F9206100F037F96B4D84ED060ACB
:100D000024225FA1284607F02DFE242267A1284651
:100D100007F028FE6069FFF7BBFC41EC100B6DA1EA
:100D200053EC102B6C4806F02BF9D4ED060A9FED1E
:100D30006B1A80EE810A10EE100AFFF7A9FC41EC55
:100D4000100B64A153EC102B654806F019F904222E
:100D500064A1284607F006FE5F48FFF7BAFA82B2A0
:100D60005D49284607F0FEFD042260A1284607F0F1
:100D7000F9FD02225FA1284607F0F4FD04225EA1DE
:100D8000284607F0EFFD5648FFF7A3FA82B2544910
:100D9000284607F0E7FD052259A1284607F0E2FDA5
:100DA000D4ED060A9FED581A80EE810A10EE100A63
:100DB000FFF76EFC41EC100B46A153EC102B53488F
:100DC00006F0DEF85148FFF784FA82B24F49284610
:100DD00007F0C8FD06224EA1284607F0C3FD0222F7
:100DE00044A1284607F0BEFDD4ED060A9FED4A1A3D
:100DF00080EE810A10EE100AFFF74AFC9FED471BB8
:100E000053EC112BFFF748FB9FED461B53EC112BC6
:100E1000FFF74DFBFFF74FFC00EE100A4348D0ED03
:100E2000000A30EE600A10EE100AFFF731FC41ECC8
:100E3000100B28A153EC102B3D4806F0A1F8072217
:100E40003CA1284607F08EFD3948FFF742FA82B2EE
:100E50003749284607F086FD032238A1284607F0C7
:100E600081FD022223A1284607F07CFD2846BDE82B
:100E70007040272232A107F075BD00002007002036
:100E80002D2D2D2D2D2D2D2D2D2D2D2D2D2D2D2D92
:100E90002D2D2D2D2D2D2D2D2D2D2D2D2D2D2D2D82
:100EA0002D2D0D0A00000000004800402A2A2A2AA1
:100EB0002A2A2A2A2A2A2A2A2A2A424D5032383015
:100EC0002A2A2A2A2A2A2A2A2A2A2A2A2A2A0D0ABF
:100ED00000000000256600005009002000007A4450
:100EE0003C090020543A0D0A00000000A1E60D0A5A
:100EF000000000000D0A0000503A0D0A000000003A
:100F00004B50610D0A0000006E5205436409002039
:100F10006D6D48670D0A00000000C8420000000027
:100F200000AA8F4000000000000022405000002076
:100F300078090020486967683A0D0A006D0D0A00BB
:100F40002D2D2D2D2D2D2D2D2D2D2D2D2D2D2D2DD1
:100F50002D2D2D2D2D2D2D2D2D2D2D2D2D2D2D2DC1
:100F60002D2D2D0D0A0D0A001CB513A10623D1E964
:100F70000001CDE900016A46F721002000F052F897
:100F80009DF803009DF80410000340EA01109DF84D
:100F9000051040EA111007F09BF99DF800009DF83C
:100FA0000110000340EA01109DF8021040EA111000
:100FB00006F0D4FF1CBD0000555555555555000091
:100FC0007CB501A807F09EFA019807F0CDF9074C0F
:100FD0002060684607F076FA009807F0C3F80546E7
:100FE000009807F06DF8606028467CBD200700205F
:100FF00008B50BA00323006800906A46FA21002080
:1010000000F010F89DF800009DF80110000340EA80
:1010100001109DF8021040EA111007F059F908BDBF
:10102000555555002DE9FF41144E9DF8040090469A
:1010300040F0800000248DF804001F46224608215D
:10104000304602F01AFD0223012201A90C4803F0E8
:101050003FFD651E00B12C4602233A464146084832
:1010600003F07CFC00B12C4601220821304602F03E
:1010700004FD04B02046BDE8F081000000080048EF
:1010800050050020FEB500261D460A23771E304677
:10109000B3EB450F01D23846FEBD00246B460FE08E
:1010A00001F07F0C03F800C0401CC0B212F804C06D
:1010B00003F800C0491C401C641CC9B2C0B2E4B2B1
:1010C000AC42EDD30A4C00220821204602F0D5FCA8
:1010D0006A0064236946074803F0FAFC00B13E4603
:1010E00001220821204602F0C8FC3046FEBD000067
:1010F0000008004850050020FEE700003D4810B5FC
:10110000B0F90010404C00EE101A3C49F8EEC00A4D
:101110009FED390A20EE801A81ED001AB0F9022005
:1011200000EE902AF8EEE00A60EE800AC1ED010AB6
:10113000B0F9040001EE900A2E48F8EEE11A801D85
:1011400061EE801AC1ED021AB0F9001000EE101A1B
:101150002C49B8EEC02A9FED2A0A22EE002A81ED22
:10116000002AB0F9022002EE102AB8EEC22A22EEBE
:10117000002A81ED012AB0F9040002EE100A23488A
:10118000B8EEC22A22EE000A81ED020A84ED011AAD
:10119000B1EE600A84ED000AC4ED021AD0ED010A36
:1011A0009FED1B0A1B4980EE801A81ED011AD0EDDC
:1011B000000A80EE801A81ED001AD0ED020A204666
:1011C00080EE801A81ED021A07F0DCFB0948F7EE89
:1011D000000A163890ED030A30EE200A80ED030A6B
:1011E00094ED020AD0ED020A30EE200A80ED020AE8
:1011F00010BD0000260000202BCD9C3AC00300202B
:1012000098FA793DCC030020B4030020D8030020D5
:1012100033336542E40300207047000070B5194C79
:1012200078B14FF4FA7004F043FA032216A1204675
:1012300007F098FB4FF44874204604F039FA204632
:101240001BE005F099FB102210A1204607F08AFB55
:101250004FF49675284604F02BFA11A11248FFF7B7
:1012600026F8124C03E00EA10F48FFF720F820608B
:101270000028F8D005F080FB2846BDE8704004F057
:1012800017BA0000004C00402B2B2B0041542B516F
:10129000495357544D443D302C320D0A0000000094
:1012A000434F4E4E45435400740800200000002078
:1012B0007FB500200090019002900390FBA1FD48B3
:1012C000FEF7F5FFFC4CFD4DE06000B30822FCA1E9
:1012D000284607F047FBFD4A0021684653185B7D0E
:1012E0004354491C0F29F9DBFEF7F3FF82B269462C
:1012F000284607F037FB0622F5A1284607F032FB07
:101300000222F5A1284607F02DFB05F035FBF3A1DD
:10131000E848FEF7CCFFE06058B10C22F1A1284666
:1013200007F020FB0222ECA1284607F01BFB05F08A
:1013300023FBF0A1DF48FEF7BAFFE06048B10120CF
:10134000FFF76CFF01F044F80020FFF767FF05F09E
:1013500013FBEAA1D748FEF7AAFFEA4EE06030B1DE
:101360001122E9A1304607F0FDFA05F005FBEBA1DB
:10137000D048FEF79CFFE06030B11122E2A1304678
:1013800007F0F0FA05F0F8FAE6A1CA48FEF78FFF79
:10139000E06030B11122DCA1304607F0E3FA05F03D
:1013A000EBFAE2A1C348FEF782FFE06030B1112200
:1013B000D5A1304607F0D6FA05F0DEFADDA1BD482A
:1013C000FEF775FFE06030B11122CFA1304607F083
:1013D000C9FA05F0D1FAD9A1B648FEF768FFE06076
:1013E00030B11122C8A1304607F0BCFA05F0C4FAAA
:1013F000D4A1B048FEF75BFFE06030B11122C2A17A
:10140000304607F0AFFA05F0B7FAD0A1A948FEF7C9
:101410004EFFE06030B11122BBA1304607F0A2FAC6
:1014200005F0AAFACBA1A348FEF741FFE06030B176
:101430001122B5A1304607F095FA05F09DFAC7A133
:101440009C48FEF734FFE06030B11122AEA1304677
:1014500007F088FA05F090FAC2A19648FEF727FF38
:10146000E06030B11122A8A1304607F07BFA05F008
:1014700083FABEA18F48FEF71AFFE06030B1112257
:10148000A1A1304607F06EFA05F076FAB9A18948B5
:10149000FEF70DFFE06030B111229BA1304607F04E
:1014A00061FA05F069FAB5A18248FEF700FFE06035
:1014B00030B1112294A1304607F054FA05F05CFADD
:1014C000B0A17C48FEF7F3FEE06030B111228EA19E
:1014D000304607F047FA05F04FFAACA17548FEF721
:1014E000E6FEE06030B1112287A1304607F03AFAFB
:1014F00005F042FAA7A16F48FEF7D9FEE06030B1CF
:10150000112281A1304607F02DFA05F035FAA3A18A
:101510006848FEF7CCFEE06030B111227AA1304677
:1015200007F020FA05F028FA9EA16248FEF7BFFEF8
:10153000E06030B1112274A1304607F013FA05F0D3
:101540001BFA9AA15B48FEF7B2FEE06018B104F006
:10155000A1FF05F011FA97A15648FEF7A8FEE0603A
:1015600030B1112268A1304607F0FCF905F004FA09
:1015700092A15048FEF79BFEE06030B1112262A1BB
:10158000304607F0EFF905F0F7F98EA14948FEF76C
:101590008EFEE06030B111225BA1304607F0E2F927
:1015A00005F0EAF989A14348FEF781FEE06030B119
:1015B000112255A1304607F0D5F905F0DDF985A1D6
:1015C0003C48FEF774FEE06030B111224EA1304677
:1015D00007F0C8F905F0D0F980A13648FEF767FE9C
:1015E000E06030B1112248A1304607F0BBF905F0A8
:1015F000C3F97CA12F48FEF75AFEE06030B11122FA
:1016000041A1304607F0AEF905F0B6F977A12948B7
:10161000FEF74DFEE06030B111223BA1304607F0ED
:10162000A1F905F0A9F973A12248FEF740FEE06098
:1016300030B1112234A1304607F094F905F09CF93D
:101640006EA11C48FEF733FEE06030B111222EA1DE
:10165000304607F087F905F08FF96AA11548FEF7C3
:1016600026FEE06030B1112227A1304607F07AF95A
:1016700005F082F965A10F48FEF719FEE06058B148
:101680000C2264A1284607F06DF9022212A1284617
:1016900007F068F905F070F962A10648FEF707FE49
:1016A000E060002800D0C3E0C8E0000030783031AE
:1016B000000000007408002000000020004C0040E2
:1016C000373837383041303100000000F402002054
:1016D00030313044304100000D0A0000307830389D
:1016E000000000003738373830313038304430416E
:1016F00000000000307831300000000030783133D5
:10170000000000000048004042302072756E6E6993
:101710006E6721212121210D0A000000307831342B
:10172000000000003078313500000000307831369C
:101730000000000030783330000000003078343092
:10174000000000003078343100000000307834327E
:10175000000000003078343300000000307834346A
:101760000000000030783436000000003078343754
:101770000000000030783438000000003078343940
:101780000000000030783530000000003078353639
:101790000000000030783537000000003078353820
:1017A0000000000030783631000000003078363616
:1017B0000000000030783637000000003078383004
:1017C00000000000307838310000000030783832F6
:1017D00000000000307838330000000030783836E0
:1017E00000000000307839320000000030783933D2
:1017F00000000000307839340000000030783937BC
:1018000000000000307839380000000030783939A5
:101810000000000037383738303139393044304132
:10182000000000004E4F20434152524945520000F3
:10183000132203A1304607F095F834E77FBD00007E
:1018400053657276657220497320436C6F736564CB
:10185000210D0A002DE9F041434E05460D223EA11F
:10186000304607F07FF8414C0D223BA1204607F09F
:1018700079F8642003F01CFF2846FEF72AFD82B2A7
:101880002946204607F06EF8642003F011FF1A2065
:1018900020852546E869C0F380100028FAD064202E
:1018A00003F006FF32A13448FEF701FD334C2060FF
:1018B00008E02FA13048FEF7FAFC20600A2003F070
:1018C000F7FE20680028F4D0642003F0F1FE2A48D7
:1018D000FEF7FFFC82B22849304607F043F805F0D6
:1018E0004BF80F2226A1304607F03CF80F2224A126
:1018F000284607F037F8C82003F0DAFE24A11E4876
:10190000FEF7D5FC20600F221DA1304607F02AF813
:101910000F221BA1284607F025F8C82003F0C8FEB7
:101920001BA11548FEF7C3FC1CA12060FEF7BFFCFD
:1019300020601AA1401CFEF7BAFC206040783038C5
:10194000C7B205F019F8002FDDD13046BDE8F041EF
:10195000112213A107F006B841542B514953454EAB
:10196000443D300D0A00000000480040004C00409B
:1019700053454E44204F4B007408002000000020C7
:1019800041542B514953454E443D302C300D0A00F3
:101990002B514953454E443A000000002C000000F2
:1019A00053656E6420466C69736821212121210DE5
:1019B0000A0000002DE9F04FA9B000252E460127AE
:1019C000202119A8FEF768FC202121A8FEF764FC5D
:1019D00064216846FEF760FCDFF89C9128225BA139
:1019E000484606F0BFFF654C21A901E08855761CEA
:1019F000A019407D2228F9D10846FEF76AFC82B280
:101A000021A9484606F0AEFF02225DA1484606F035
:101A1000A9FF36225BA1484606F0A4FF05F07CFA38
:101A2000DFF898A14FF47A7B0DF1640864A1654852
:101A3000FEF73DFCCAF80000D8B1002561484146D8
:101A400001E04A556D1C42199278002AF9D14FF4F1
:101A5000FA7003F02DFE19A8FEF73BFC82B219A91B
:101A6000484606F07FFF05F057FA584603F020FE7F
:101A700004E0584603F01CFE002FD7D1AF1EB7423A
:101A80000DD1202250A1484606F06CFF00204146AF
:101A900003E00A5C2318401C5A75B842F9DBB742D0
:101AA00028DD202248A1484606F05CFF0020694658
:101AB000225C0A54401C1528FADB002003E043197D
:101AC0000B44401CDA7482192244527D002AF6D15C
:101AD0000020424605E0135C01EB000C401C8CF832
:101AE0001530B842F7DB002001E02254401C0A5CAC
:101AF000002AFAD1B74218DA202233A1484606F06C
:101B000031FF002003E042192244401CD1748119A6
:101B10002144497D0029F6D10020414603E00A5CBA
:101B20002318401C5A75B842F9DB1448FEF7D1FB64
:101B300082B212494C46484606F014FF36222BA1C9
:101B4000204606F00FFF29B000F06CB854686520FD
:101B50006F726967696E616C207365727665722059
:101B6000495020636F6E66696775726174696F6E44
:101B7000A3BA0D0A00000000004800402004002025
:101B80000D0A0000506C6561736520656E746572A6
:101B900020746865206D6F646966696564204950CA
:101BA0002865673A49505858582E5858582E585852
:101BB000582E58585829A3BA0D0A000000000020DA
:101BC00049500000AC0700204950206164647265F0
:101BD0007373206973206265696E67207570646134
:101BE0007465642E2E2E0D0A0000000054686520D6
:101BF0004950206164647265737320686173206268
:101C000065656E206368616E6765642E20506C6543
:101C100061736520726573746172742E2E2E0D0AC5
:101C20000D0A000030BCBDE8C08F00002DE9F04374
:101C3000A9B0814600242646202119A8FEF72CFBD6
:101C4000202121A8FEF728FB64216846FEF724FB2B
:101C50005F4F282253A1384606F084FE5D4D21A92E
:101C600001E08855761CA819407D2228F9D1084644
:101C7000FEF72FFB82B2B84621A9404606F072FE5D
:101C8000022255A1384606F06DFE54A14846FEF7E3
:101C90000EFB534919AF0860C8B1002401E0385564
:101CA000641C09EB040080780028F8D14FF4FA7026
:101CB00003F0FEFC23224BA1404606F053FE19A878
:101CC000FEF707FB82B219A9404606F04BFE02223E
:101CD00041A1404606F046FE4FF47A7003F0E8FC5E
:101CE000B4420CD1202248A1404606F03BFE002021
:101CF00003E0395C2A18401C5175A042F9DBB4425C
:101D000025DD202240A1404606F02CFE0020694639
:101D10002A5C0A54401C1528FADB002003E0031952
:101D20000B44401C5A7582192A44527D002AF6D170
:101D3000002003E03A5C0B18401C5A75A042F9DB06
:101D4000002001E02A54401C0A5C002AFAD1B44267
:101D500017DA20222CA1404606F004FE002003E002
:101D600002192A44401C517581192944497D0029D2
:101D7000F6D1002003E0395C2A18401C5175A042BE
:101D8000F9DB1448FEF7A5FA82B2124944464046F0
:101D900006F0E8FD362225A1204606F0E3FD29B035
:101DA000BDE8F083546865206F726967696E616C85
:101DB0002073657276657220495020636F6E666984
:101DC0006775726174696F6EA3BA0D0A0000000036
:101DD00000480040200400200D0A00004950000087
:101DE00000000020546865204950206164647265D9
:101DF000737320746F206265206368616E67656429
:101E0000206973A3BA0D0A004950206164647265A9
:101E10007373206973206265696E672075706461F1
:101E20007465642E2E2E0D0A000000005468652093
:101E30004950206164647265737320686173206225
:101E400065656E206368616E6765642E20506C6501
:101E500061736520726573746172742E2E2E0D0A83
:101E60000D0A00002DE9F04FAFB0002425460127F0
:101E7000202126A8FEF710FA20211DA8FEF70CFA53
:101E8000642104A8FEF708FADFF8E8B12A226EA15F
:101E9000584606F067FD784800E0641C0119497D4A
:101EA0002229FAD1002626AA01E09155761C311983
:101EB00001448146C97D2C29F7D11046FEF709FA65
:101EC00082B226A9584606F04DFD022268A1584666
:101ED00006F048FD2F2269A1584606F043FD05F0A3
:101EE0001BF8DFF8C8810DF1740A71A17248FEF782
:101EF000DEF9C8F80000E0B100256F48514601E066
:101F00004A556D1C42191279002AF9D14FF4FA7022
:101F100003F0CEFB1DA8FEF7DCF982B21DA95846DE
:101F200006F020FD04F0F8FF4FF47A7003F0C0FBD8
:101F300005E04FF47A7003F0BBFB002FD5D1AF1E44
:101F4000B74211D11A225DA1584606F00BFD0020C0
:101F500051464A4606E000EB040C0B5C9444401CDE
:101F60008CF81730B842F6DBB7423ADD20225AA18E
:101F7000584606F0F7FC002204A804F1170349466E
:101F800005E000BF11F802C000F802C0521C9A42DE
:101F9000F8DB002209E0334402EB050C0B44A444B7
:101FA0008444DB7D8CF81530521C131903EB010CB3
:101FB0009CF815C0BCF1000FEDD10022534607E09C
:101FC00002EB040813F802C08044521C88F817C0C2
:101FD000BA42F5DB002201E08B54521C835C002BDB
:101FE000FAD1B7421EDA20223BA1584606F0BAFCCD
:101FF0000021484607E032444B190244234403447D
:10200000D27D5A75491C0A1913185B7D002BF2D139
:102010000021524604E00D19535C0544491CEB7540
:10202000B942F8DB1448FEF754F982B212495C4613
:10203000584606F097FC372230A1204606F092FC65
:102040002FB000F077B80000546865206F726967A0
:10205000696E616C2073657276657220506F727460
:1020600020636F6E66696775726174696F6EA3BA7B
:102070000D0A00000048004020040020506C6561FB
:10208000736520656E74657220746865206D6F6479
:10209000696669656420506F72742865673A506F8D
:1020A00072745858585829A3BA0D0A00000000202D
:1020B000506F727400000000AC070020506F727403
:1020C000206973206265696E67207570646174654C
:1020D000642E2E2E0D0A0000495020616464726542
:1020E0007373206973206265696E6720757064611F
:1020F0007465642E2E2E0D0A0000000054686520C1
:1021000053657276657220506F7274206861732017
:102110006265656E206368616E6765642E20506C31
:102120006561736520726573746172742E2E2E0D55
:102130000A0D0A0030BCBDE8C08F00002DE9F04751
:10214000AEB0814600242546202125A8FEF7A4F83C
:1021500020211BA8FEF7A0F8642102A8FEF79CF836
:10216000DFF8B8A12A2262A1504606F0FBFB6C4EB4
:1021700000E0641C3019407D2228FAD1002725A9EF
:1021800001E0C8557F1C38193044C07D2C28F8D197
:102190000846FEF79EF882B225A9504606F0E2FBFB
:1021A00002225DA1504606F0DDFB24225DA15046CF
:1021B00006F0D8FB65A14846FEF779F865490DF1B0
:1021C0006C080860A8B10025404601E041556D1C2F
:1021D00009EB050109790029F8D14FF4FA7003F0F1
:1021E00067FA1BA8FEF775F882B21BA9504606F0E5
:1021F000B9FB4FF47A7003F05BFA022246A1504615
:1022000006F0B0FBBD420ED11A2253A1504606F093
:10221000A9FB0020414604E003190A5C3344401C3A
:10222000DA75A842F8DBBD4230DD202251A15046CC
:1022300006F098FB002102A804F1170202E0735C8B
:102240004354491C9142FADB002107E03A444B1900
:10225000324423440344D27DDA75491C0A19931988
:102260005B7D002BF2D10021424606E001EB040C1D
:10227000535C8444491C8CF81730A942F6DB0021DA
:1022800001E07254491C425C002AFAD1BD421DDAB9
:10229000202238A1504606F065FB002007E03944B3
:1022A0004219314422443244C97DD175401C011980
:1022B0008A19527D002AF2D10020414604E0031918
:1022C0000A5C3344401CDA75A842F8DB1448FEF778
:1022D00000F882B212495446504606F043FB3722BA
:1022E0002DA1204606F03EFB2EB0BDE8F087000091
:1022F000546865206F726967696E616C20736572DE
:1023000076657220506F727420636F6E66696775B0
:10231000726174696F6EA3BA0D0A00000048004034
:102320002004002054686520536572766572205041
:102330006F727420746F206265206368616E6765D8
:1023400064206973A3BA0D0A00000000506F727414
:102350000000000000000020506F7274206973209C
:102360006265696E6720757064617465642E2E2ED7
:102370000D0A00004950206164647265737320691E
:1023800073206265696E6720757064617465642E80
:102390002E2E0D0A000000005468652053657276E9
:1023A000657220506F727420686173206265656E7B
:1023B000206368616E6765642E20506C656173658B
:1023C00020726573746172742E2E2E0D0A0D0A0030
:1023D00070B504F0D1FA224D14221BA1284606F054
:1023E000C1FA204E142218A1304606F0BBFA4FF471
:1023F000FA7003F05DF91CA11E48FDF758FF1E4C52
:10240000A06012E0322003F053F917A11948FDF73C
:102410004EFFA06014220CA1284606F0A3FA142255
:1024200009A1304606F09EFAA0680028EAD01148BB
:10243000FDF74FFF82B20F49284606F093FABDE838
:1024400070400C48FFF706BA41542B514750534790
:102450004E4D45413D22474741220D0A00000000F4
:1024600000480040004C00402B51475053474E4D10
:1024700045413A00740800200000002070B53F4C30
:10248000222235A1204606F06DFA22223CA12046E8
:1024900006F068FA062243A1204606F063FA434894
:1024A0000546FDF716FF82B22946204606F05AFA85
:1024B00017223FA1204606F055FA3C481438FDF794
:1024C00008FF3A4982B21439204606F04BFA1B2223
:1024D0003DA1204606F046FA34481E300546FDF779
:1024E000F8FE82B22946204606F03CFA0D223DA1B4
:1024F000204606F037FA2D4882300546FDF7E9FE02
:1025000082B22946204606F02DFA242239A120461F
:1025100006F028FA0A2241A1434806F023FA4FF4B4
:10252000FA7003F0C5F841A14448FDF7C0FE10B1B0
:102530000C2243A101E00A2245A1204606F012FA2E
:1025400002220DA1204606F00DFA2046BDE870409B
:10255000232242A106F006BA2D2D2D2D2D2D2D2D35
:102560002D2D2D2D2D2D2D2D2D2D2D2D2D2D2D2D9B
:102570002D2D2D2D2D2D2D2D0D0A00000048004054
:102580002A2A2A2A2A2A2A2A2A2A2A2A2A2A454377
:1025900032302A2A2A2A2A2A2A2A2A2A2A2A2A2A8D
:1025A0000D0A0000494D4549A3BA00000803002068
:1025B0000D0A0D0A43757272656E745F4361726431
:1025C0005F4950A3BA0D0A000D0A0D0A4D6F6475DC
:1025D0006C655F76657273696F6E5F6E756D62654F
:1025E00072A3BA000D0A4F70657261746F7273A3A3
:1025F000BA0000000D0A0D0A5768657468657220FC
:1026000053494D206361726420697320696E2070A4
:102610006C616365A3BA0D0A0000000041542B43AE
:1026200050494E3F0D0A0000004C00402B435049DA
:102630004E3A2052454144590000000074080020E1
:1026400053494D205245414459210D0A00000000D4
:1026500053494D204572726F722100002D2D2D2D92
:102660002D2D2D2D2D2D2D2D2D2D2D2D2D2D2D2D9A
:102670002D2D2D2D2D2D2D2D2D2D2D0D0A0D0A003D
:1026800010B50E4C01228021204601F0F6F9C82039
:1026900003F00EF800228021204601F0EEF94FF4FD
:1026A000967003F005F8C82003F002F820460122D6
:1026B000BDE81040802101F0E0B9000000080048AA
:1026C0002DE9F0470120FEF7A9FDFF4D0422FCA1F2
:1026D000284606F047F9FD4F0422F9A1384606F0D6
:1026E00041F94FF4FA76304602F0E2FFF8A1F948DA
:1026F000FDF7DDFDF84C12E004F03EF90422F0A1F4
:10270000284606F02FF90422EDA1384606F02AF9F2
:10271000304602F0CDFFEEA1EE48FDF7C8FD206087
:102720000028E9D0EB48FDF7D4FD82B2E9492846FC
:1027300006F018F904F020F90A22E8A1284606F06C
:1027400011F90A22E5A1384606F00CF9304602F0EC
:10275000AFFFE5A1DF48FDF7AAFD2060DD48FDF7EA
:10276000B8FD82B2DB49284606F0FCF8206848B97B
:102770000B22E0A1284606F0F5F80B22DDA1384631
:1027800006F0F0F8304602F093FF0622DCA128465E
:1027900006F0E8F80622DAA1384606F0E3F83046FB
:1027A00002F086FFCB48FDF794FD82B2C949284666
:1027B00006F0D8F804F0E0F80822D3A1384606F075
:1027C000D1F80822D0A1284606F0CCF8304602F015
:1027D0006FFFB946BF4FB246B878303809280AD9DA
:1027E00004F0CAF80822C8A1484606F0BBF85046D3
:1027F00002F05EFFF0E7B748FDF76BFD82B2B54926
:10280000284606F0AFF8C34E002039183218497830
:10281000401C11751028F8DBBE4814308046FDF7C7
:1028200058FD82B24146A846284606F09BF804F0BF
:10283000A3F80822B8A1404606F094F80822B6A1F1
:10284000484606F08FF85546504602F031FFA14841
:10285000FDF73FFD82B29F49404606F083F805220E
:10286000B0A1404606F07EF80522AEA1484606F02B
:1028700079F8284602F01CFF00203218395C401C11
:1028800082F832106428F8DB9248FDF722FD82B20C
:102890009049404606F066F804F06EF80A22A3A1BB
:1028A000404606F05FF80A22A0A1484606F05AF812
:1028B000284602F0FDFEA0A18648FDF7F8FCAA46D6
:1028C000206013E004F058F80A2298A1404606F070
:1028D00049F80A2295A1484606F044F8504602F00D
:1028E000E7FE95A17B48FDF7E2FC20600028E9D0D7
:1028F0007848FDF7EEFC82B276494546404606F040
:1029000031F804F039F80B228FA1284606F02AF896
:102910000B228DA1484606F025F8D046504602F01D
:10292000C7FE8CA16B48FDF7C2FCE0608CA1694832
:10293000FDF7BDFCC246606019E000BF04F01CF862
:102940000B2281A1284606F00DF80B227EA14846F5
:1029500006F008F8504602F0ABFE7EA15D48FDF798
:10296000A6FCE0607EA15B48FDF7A1FC6060D4E9B5
:1029700000010843E2D05748FDF7ABFC82B255494D
:10298000284605F0EFFF03F0F7FF0A2277A128465B
:1029900005F0E8FF0A2275A1C846484605F0E2FFA7
:1029A000504602F085FE00203218395C401C82F847
:1029B00096101E28F8DB4748FDF78BFC82B245498C
:1029C000A946284605F0CEFF03F0D6FF0E226AA1E5
:1029D000484605F0C7FF0E2267A1404605F0C2FF3A
:1029E0005546504602F064FE3A48FDF772FC82B24A
:1029F0003849484605F0B6FF03F0BEFF1F2262A12A
:102A0000484605F0AFFF1F225FA1404605F0AAFF30
:102A1000284602F04DFE2EA12E48FDF748FCAA469E
:102A2000206007E0504602F043FE29A12948FDF747
:102A30003EFC20600028F5D02648FDF74AFC82B213
:102A400024494D46484605F08DFF03F095FF0E22C0
:102A500055A1284605F086FF0E2253A1C1464046E7
:102A600005F080FFD046504600E0404602F020FED0
:102A700017A11848FDF71BFC20600028F5D0154869
:102A8000FDF727FC82B21349284605F06BFF03F0DF
:102A900073FF0C2248A1284605F064FF0C2246A1D2
:102AA000484605F05FFF404602F002FE08A10948D3
:102AB000FDF7FDFB20600028F5D0064884E000000B
:102AC00041540D0A0000000000480040004C004046
:102AD0004F4B0000740800200000002041542B518F
:102AE0004750533F0D0A00002B514750533A2031B5
:102AF0000000000041542B514750533D310D0A0056
:102B0000415445300D0A000041542B47534E0D0AE5
:102B100000000000F402002041542B4353510D0AE1
:102B2000000000004154490D0A00000041542B43AD
:102B300050494E3F0D0A00002B4350494E3A205257
:102B4000454144590000000041542B43475245473A
:102B50003F0D0A002B43475245473A20302C3100A5
:102B60002B43475245473A20302C350041542B43E4
:102B70004F50533F0D0A000041542B5149434C4FD5
:102B800053453D300D0A000041542B5149435347F2
:102B9000503D312C312C22434D4E4554222C2222C3
:102BA0002C22222C300D0A0041542B51494445411E
:102BB00043543D310D0A000041542B5149414354C7
:102BC0003D310D0A00000000FDF783FB82B22D4964
:102BD000284605F0C7FE03F0CFFE0B222AA12846A7
:102BE00005F0C0FE0B2228A1484605F0BBFE40467A
:102BF00002F05EFD00203918497C222903D03154AF
:102C0000401C0F28F7DB1F48FDF763FB82B21D490C
:102C1000284605F0A7FE03F0AFFE1E48FDF759FB5E
:102C200082B21C49284605F09DFE1A48FDF751FB6B
:102C300082B21849484605F095FE4646404602F0E5
:102C400037FD15A10F48FDF732FB206008E012A107
:102C50000C48FDF72CFB2060642002F029FD206861
:102C60000028F4D00748FDF734FB82B20549284616
:102C700005F078FE304602F01BFDBDE8F04703F09A
:102C80007BBE00007408002041542B51494143543D
:102C90003F0D0A0020040020434F4E4E4543540090
:102CA0002DE9F0470025DFF858802E462F4688F89A
:102CB00000502C4608F11C0903F06CFAB9F9001019
:102CC000B9F904000D44B9F9021007440E44052077
:102CD00002F0EEFC641CE4B21E2CEDD31E2095FB2A
:102CE000F0F196FBF0F297FBF0F30548103001800D
:102CF00042808380012188F80010BDE8F087000041
:102D000010000020F0B5044690F8540000269BB057
:102D10000D4601280DD0012084F854003249206866
:102D20000027884208D13149009102F016FA58B1C3
:102D30000EE002201BB0F0BDA06D40F02000A065A9
:102D400084F854700120F5E7009802F006FA48B1C3
:102D5000A06D40F02000A0655FF0010684F854707B
:102D60003046E7E722482A6840F61F71002A826849
:102D700022F460421FD0636B42EA43326B681A430D
:102D800082602268936803F00303012B02D112686A
:102D9000D207E3D1009A926802F00302012A03D11C
:102DA000009A1268D207D9D1AB682A681A4383689F
:102DB0008B431A4315E082602268936803F0030393
:102DC000012B02D11268D207C8D1009A926802F092
:102DD0000302012A03D1009A1268D207BED1826889
:102DE0008A438260BAE700000000045000010450EA
:102DF000000304502DE9F84300250446009590F89F
:102E00005400DFF870840E46A946012807D0012738
:102E100084F85470206802F09CF918B1E5E10220B2
:102E2000BDE8F8837068052812D8022807D0032867
:102E300007D0042807D0052807D0062007E00C207B
:102E400005E0122003E0182001E04FF4807070606C
:102E5000B1884FF4407C01F440739CFAACFCBCFA9E
:102E60008CFC206823FA0CF300EB8300326801F03D
:102E70001F014FF01F0C0CFA01FC036BC2F38462BC
:102E800023EA0C038A40134303632068816811F02E
:102E90000C0F1CD1B268316802F063F920687169C7
:102EA000C268C2F3C102520091403269042A0FD0B5
:102EB00000EB82003368DFF8C0C3026E03F0F84312
:102EC00002EA0C020B431A4342F00041016672E031
:102ED000002102F038F9400320684FF0000173D060
:102EE00002F031F990FAA0F0B0FA80F130684203B4
:102EF0006FD090FAA0F0B0FA80F0814204D10022A5
:102F00001146206802F050F90121206802F01BF9F7
:102F1000400320684FF001015ED002F014F990FAEE
:102F2000A0F0B0FA80F1306842035AD090FAA0F0D5
:102F3000B0FA80F0814204D100220121206802F021
:102F400033F90221206802F0FEF8400320684FF0B8
:102F5000020149D002F0F7F890FAA0F0B0FA80F13F
:102F60003068420345D090FAA0F0B0FA80F0814278
:102F700004D100220221206802F016F90321206802
:102F800002F0E1F8400320684FF0030134D002F072
:102F9000DAF890FAA0F0B0FA80F13068420330D04D
:102FA00090FAA0F0B0FA80F0814204D1002203210F
:102FB000206802F0F9F82068816801F00301012916
:102FC00025D121E000E004E002F0BDF8C0F3846107
:102FD0008CE7C0F3846090E702F0B5F8C0F3846139
:102FE000A1E7C0F38460A5E702F0ADF8C0F3846107
:102FF000B6E7C0F38460BAE702F0A5F8C0F38461D5
:10300000CBE7C0F38460CFE70168C9077ED1327B8C
:10301000316850F8B03FC1F3120C23EA0C0302F000
:10302000200C4FF0FF3202FA0CF20A40C2F31201F8
:103030000B430360F16841456CD13068410318D0FF
:1030400090FAA0F1B1FA81F1491C09294FEA403107
:103050002ED8002910D000BF90FAA0F1B1FA81F16A
:1030600001F1010107FA01F709D100BFC0F3846142
:1030700009E0C0F38461E7E7C0F38461F0E790FA08
:10308000A0F1B1FA81F101F1010147EA816102D1B8
:10309000C0F3846003E090FAA0F0B0FA80F000EB97
:1030A00040004FF4401202EB005041EA00012AE0D8
:1030B00000290CD090FAA0F1B1FA81F101F10101DF
:1030C00007FA01F706D100BFC0F3846106E0C0F340
:1030D0008461F3E790FAA0F1B1FA81F101F1010105
:1030E00047EA816102D1C0F3846003E090FAA0F066
:1030F000B0FA80F0614A00EB400002EB005041EA78
:10310000000141F00071B268206801E072E001E066
:1031100002F027F833685A4E5A4FDFF86C815B494A
:10312000B34204D1886800F0E07000020DD5BB42C4
:1031300004D1886800F0E070C00106D5434559D13C
:10314000886800F0E070400254D42268906800F073
:103150000300012802D11068C00746D14C488242C2
:1031600015D1D0F808C10CF0030CBCF1010F04D14B
:10317000D0F800C15FEACC7C37D1D0F808C20CF09F
:10318000030CBCF1010F39D1D0F800C22AE0DFF8FE
:1031900004C16245D0F808C00CF0030C11D1BCF199
:1031A000010F04D1D0F800C05FEACC7C1DD1D0F86B
:1031B00008C20CF0030CBCF1010F0AD1D0F800C218
:1031C00004E0BCF1010F04D1D0F800C05FEACC7C70
:1031D0000BD1D0F808C10CF0030CBCF1010F0DD1DC
:1031E000D0F800C15FEACC7C08D0A06D40F0200090
:1031F000A065012584F85490284611E6DFF898C0B0
:10320000B3421BD1824201D06245F3D188688A68FB
:1032100000F0E07040F4000022F0E07202438A60A7
:103220001E481F490068B0FBF1F0C0EB0010C00061
:1032300000E0401E00900028FBD1DBE7BB4209D133
:10324000824201D06245D5D1886800F0E07040F03C
:10325000807008E04345CDD18242CBD1886800F030
:10326000E07040F480008A6822F0E07202438A60D5
:10327000C0E7000000007F4000F0FF03000050FEA8
:10328000000052C7000084CB0100008000030450FE
:10329000000004500001045000020450D00000203F
:1032A00080841E00806D70470068006C70470000CD
:1032B000F8B54FF0000504002E46009502D0A06D31
:1032C00010B107E00120F8BD204600F0FDF8E665EA
:1032D00084F8546020688168C1F3407119B1816835
:1032E000704A1140816020688168C1F3007191B912
:1032F00081686D4A114041F0805181606B486C4992
:103300000068B0FBF1F000EB8000400000E0401EE0
:1033100000900028FBD120688168C1F3007141B999
:10332000A16D41F01001A165E16D41F00101E16580
:103330000125A16DC90602D401F00BFF30B1A06DCB
:1033400040F01000A06501252846F8BDA06D20F4CE
:10335000807040F00200A0652168886800F00300DA
:10336000012802D10868C0073FD15248814212D1DA
:10337000D0F8081101F00301012903D1D0F80011A0
:10338000C90732D1D0F8081201F00301012925D173
:10339000D0F8000220E0484A9142816801F0030120
:1033A0000DD1012902D10168C9071ED1D0F8081238
:1033B00001F00301012907D1D0F8001202E0012930
:1033C00002D10168C90710D1D0F8081101F003013A
:1033D000012903D1D0F80001C00706D13749606840
:1033E0008A6822F47C1202438A60E168A06BE26979
:1033F0000843A16841EA42310843616A40EA01405A
:10340000012904D1218D2E4A02EB41410843E16A92
:1034100029B101F47071226B014342EA0100226874
:10342000D168284B19400143D1602068816811F0B0
:103430000C0F12D1A169626B890341EA4202C16893
:1034400044F2020399431143C160E06B01280CD0A0
:103450002068016921F001010161206901282068CB
:10346000016B21F00F0111D013E0D4E910010843E2
:10347000D4E912121143084321680A6940F2FC732F
:103480009A43104340F001000861E6E7226A521EA9
:1034900011430163A06D20F0020040F00100A0651F
:1034A00052E70000C0FFFF5FC0FFFF7FD000002099
:1034B00080841E00000004500001045000030450EA
:1034C0000000FEFF07C0F0FF08B50068064988420B
:1034D00008D10648C16C41F40051C164C06C00F4CD
:1034E0000050009008BD0000000004500010024091
:1034F0002DE9F04104464069444D0F46082822D08A
:103500002068A84202D0424988421ED1D5F808134B
:10351000C9061AD0D5F8081301F01F01052914D0E7
:10352000D5F8081301F01F0109290ED0D5F80803BA
:10353000C0F3813002280BD0D5F80803C0F38130E6
:10354000032805D00BE008260AE0C068C00706D0B3
:10355000A06D40F02000A0650120BDE8F0810426A8
:1035600000F090FA804611E0781C0FD02FB100F0E7
:1035700089FAA0EB0800B84208D9A06D40F0040019
:10358000A065002084F854000320E6E72068006866
:103590003042E9D0A06D40F40070A0652068C16899
:1035A00011F4406F0FD1E16969B9016809070AD5C3
:1035B000A16D21F48071A165A16DC90403D4A16D31
:1035C00041F00101A165A8421BD01249884218D0E0
:1035D000D5F80813C90614D0D5F8081301F01F0157
:1035E00005290ED0D5F8081301F01F01092908D0CC
:1035F000E968082E07D0490401D40C21016000209D
:10360000ABE7C168F5E70821F8E7000000000450C7
:10361000000104500002045070B50446006801F037
:1036200098FD10B10222104670BD94F85400012894
:103630000CD0012084F854002046FDF72BFA02003C
:103640004FF0000104D084F85410ECE7022070BD64
:10365000A06D40F60163984340F48070A065274850
:103660002368274D834205D0AB4203D0D0F80863CE
:10367000F60603D1A66D26F48016A665A66DF6049F
:1036800004D5E66D26F00606E66500E0E1651C2639
:103690001E6084F85410216881421FD0A9421DD0B9
:1036A000D0F80833DB0619D0D0F8083303F01F0335
:1036B000052B13D0D0F8083303F01F03092B0DD0CE
:1036C000A16D41F48011A165C0688001ABD5A06DEA
:1036D00020F4005040F48050A065A4E7C868800141
:1036E00005D5A06D20F4005040F48050A065886896
:1036F000044B1840001D886095E70000000004504E
:1037000000020450C0FFFF7F30B51F235FF00105AA
:1037100005FA03F40C4201D15B1EF9D27AB1082AF2
:1037200009D0102A04D0182A07D1072B05D206E0A9
:10373000082B02D203E0102B01D3012030BD036817
:1037400059610068816821F01801114381600020EF
:1037500030BD000010B5040010D0607F20B90020FB
:103760002077204600F030F802206077207938B1C9
:10377000D4E902122046FFF7C7FF48B1012010BD6F
:103780002168104848612068816821F01801816033
:103790006079A0B120692168086120688168626948
:1037A00021F060011143816020688168A26921F0E5
:1037B00080011143816001206077002010BD4FF02F
:1037C000FF30E8E7B71DC10408B500680649884224
:1037D00008D10648816C41F480518164806C00F40A
:1037E0008050009008BD00000030024000100240F0
:1037F00070B568B12B4C036814222B49A34209D23F
:103800002A4C1C44B4FBF2F29200C0E910120BE007
:10381000012070BD234C64421C44B4FBF2F29200C0
:103820004264204A083A0264022280F825201C687B
:1038300047F6F0729443D0E902252A43D0E90456B2
:1038400035432A4385692A43C5692A43056A2A43C1
:1038500022431A608268B2F5804F15D0036C0F22A4
:103860008B4202D151F8A83F02E00E49A0310B680B
:1038700090F84440A24093430B6090F84430426873
:103880009A400B681A430A600021C16201634163D8
:103890008163C163012280F8252080F82410084646
:1038A00070BD00000804024000000240F8FFFDBFA8
:1038B0002DE9F84FDFF898B100234FF0010C4FF0DD
:1038C000030A4FF00F090BF1040EB9E00CFA03F4F0
:1038D000224070D04D68022D01D0122D0ED1DD088E
:1038E00000EB8508D8F820505E07F70E09FA07F6B6
:1038F000B5430E69BE402E43C8F8206007685E00DD
:1039000091F804800AFA06F508F00308AF4308FAB4
:1039100006F848EA0708C0F800804F68012F05D074
:10392000022F03D0112F01D0122F13D1D0F808800D
:10393000CF6828EA0508B74047EA08078760D0F84B
:1039400004800F7928EA0408C7F300179F4047EA6C
:1039500008074760D1F804806FEA0807BF0706D15F
:10396000C76AA743C8F3C0049C403C43C462C46810
:10397000AC438D68B5402543C5604C68E4005ED516
:10398000344C256E45F001052566246E23F00305B1
:1039900004F001040094304C2E19B4689D072F0FD9
:1039A00009FA07F5AC43B0F1904F05D02B4DA84272
:1039B00004D101251CE042E0002519E0284DA84271
:1039C00001D1022514E0274DA84201D103250FE0C3
:1039D000254DA84201D104250AE0244DA84201D179
:1039E000052505E0224DA84201D1062500E0072566
:1039F000BD402543B560DBF800405D464E6894430A
:103A0000F60300D514432C60DEF8004075464E687E
:103A10009443B60300D514432C600D4D08352C6833
:103A20004E689443F60200D514432C60084D0C35C3
:103A30002C684E689443B60200D514432C605B1C7E
:103A40000A6832FA03F57FF441AF00F013B80000C2
:103A50000004014000100240000001400004004842
:103A600000080048000C00480010004800140048FE
:103A70000018004818BCBDE8E08F0AB181617047AA
:103A8000816270470148006870470000CC00002048
:103A900010B5032000F088F8002000F005F800F0D1
:103AA00017F8002010BD000010B5044607484FF479
:103AB0007A710068B0FBF1F001F0F2F900222146C2
:103AC000501E00F051F8002010BD0000D000002072
:103AD0001E4808B5016E41F001010166016E01F05A
:103AE00001010091816D41F080518165806D00F090
:103AF00080500090032000F057F8002211466FF02C
:103B00000B0000F031F8002211466FF00A0000F0BF
:103B10002BF8002211466FF0090000F025F8002272
:103B20001146501F00F020F800221146101F00F02F
:103B30001BF800221146901E00F016F80022BDE886
:103B400008401146501E00F00FB80000001002405F
:103B500000F01F02012191404009800000F1E020A7
:103B6000C0F8001170470000F0B40E4B1B680C4603
:103B7000C3F30223C3F10705042D00D90425191D41
:103B8000072901D2002300E0DB1E012606FA05F119
:103B9000491E214099409E40761E16403143F0BC9C
:103BA00002F0C0B80CED00E0064900F0070208681A
:103BB0004FF6FF03184040EA0220034A1043086012
:103BC000704700000CED00E00000FA051549B0F563
:103BD000007F0868C0F3412009D0022805D008689A
:103BE00020F4C06040F48060086000207047012825
:103BF000FBD0086820F4C06040F4007008600A48F8
:103C00000A4A0068B0FBF2F03222504300E0401E46
:103C100010B14A695205FAD448694005E5D5032038
:103C20007047000000700040D000002040420F00AC
:103C30000248416841F400714160704700700040E3
:103C40000248006800F4C060704700000070004047
:103C5000F8B50446FFF716FF06465CB194F8380045
:103C6000012809D0012784F8387094F8390000251C
:103C700020B10BE00120F8BD0220F8BD84F83850D7
:103C8000204600F03DF841F2883020642068016849
:103C9000A2686FF0FF0321F4706103EB022211436D
:103CA0000160206C0090334600222021204602F063
:103CB0004AF8E8B921680A680F4B1A40237942EAAA
:103CC0000362E3681A430A60D4E9051211432268CB
:103CD00053680A4E3340268A43EA0643194351602B
:103CE00021680A6842F001020A60E56384F83970CD
:103CF00084F83850F8BD0000EFFFFF00FEF8E0FF49
:103D0000F0B50068154987B0884224D11448016D88
:103D100041F480710165006D022400F4807005900B
:103D200040F60340002503260A278DE8F100694686
:103D30000C48FFF7BDFDC0208DE8F10069464FF04B
:103D40009040FFF7B5FD00220F214720FFF70CFF41
:103D50004720FFF7FDFE07B0F0BD0000001000A0F7
:103D600000100240000400482DE9F84F04460027E7
:103D70000088E54D3E46010504F1200B1DD5606E1F
:103D800078B1B0F5800F11D0B0F5000F04D0B0F5C8
:103D9000400F22D001270FE0E86840F48030E8604F
:103DA0001BE00021201D01F0F3FF03E00021584635
:103DB00002F084F8070010D03E462088C00426D5C3
:103DC000A06EC0B1B0F1807F1AD0B0F1007F0DD0ED
:103DD000B0F1407F19D0012718E0D5F88800616E56
:103DE00020F440000843C5F88800E6E7E86840F49E
:103DF0008030E86009E00021201D01F0C9FF03E0E8
:103E00000021584602F05AF80746F7B13E462068AE
:103E100080033AD5A86D4FF00008C00009D4A86D02
:103E200040F08050A865A86D4FF0010800F0805068
:103E30000090DFF8D8A2DAF8001041F48071CAF8D7
:103E40000010FFF71FFE814610E0D5F88800A16E34
:103E500020F040700843C5F88800D8E7FFF712FE4D
:103E6000A0EB0900022801D9032705E0DAF80000D9
:103E7000C005F3D5002F7CD04FEA0706B8F1000F3C
:103E800003D0A86D20F08050A8652078C00707D027
:103E9000D5F88800A16B20F003000843C5F888001E
:103EA0002078800707D5D5F88800E16B20F00C005A
:103EB0000843C5F888002078400707D5D5F8880062
:103EC000216C20F030000843C5F8880020780007F6
:103ED00007D5D5F88800616C20F0C0000843C5F80C
:103EE00088002078C00607D5D5F88800A16C20F49A
:103EF00040700843C5F888002078800607D5D5F8BB
:103F00008800E16C20F440600843C5F888002088F0
:103F1000800507D5D5F88800E16D20F440200843DE
:103F2000C5F888002088400507D5D5F88800216E9F
:103F300020F440100843C5F888002078400607D5D3
:103F4000D5F88800216D20F440500843C5F888005A
:103F50002078000607D5D5F88800616D20F4404030
:103F60000843C5F888002088C00509D5D5F8880021
:103F700000E01CE0A16D20F440300843C5F8880043
:103F800020884FF0006780044FF080684FD5D5F847
:103F90008800E16E20F040600843C5F88800E06EBC
:103FA000B8423CD1E86840F48010E8603FE0D5F8C2
:103FB000900010F4407015D0D4F88410814211D0D4
:103FC000D5F89000D5F8901020F4407041F480317D
:103FD000C5F89010D5F8901021F48031C5F89010F4
:103FE000C5F89000C00710D0FFF74CFD074641F21E
:103FF000883906E0FFF746FDC11B494501D9032674
:104000003CE7D5F890008007F4D5D5F89000D4F8B7
:10401000841020F440700843C5F890002EE7404516
:1040200005D10121201D01F0B3FE00B10646206834
:10403000000317D5D5F88800216F20F040600843B1
:10404000C5F88800206FB84204D1E86840F48010B9
:10405000E86007E0404505D10121201D01F098FEF0
:1040600000B106462068400317D5D5F88800616F77
:1040700020F040600843C5F88800606FB84204D162
:10408000E86840F48010E86007E0404505D1012170
:10409000201D01F07DFE00B10646208840041AD59F
:1040A000D5F88800A16F20F040500843C5F888007B
:1040B000A06FB0F1805F03D0B0F1005F05D00AE0DF
:1040C0000221201D01F064FE03E00221584601F0A8
:1040D000F5FE00B106462088000407D5D5F8880013
:1040E000E16F20F080400843C5F888002068C003D5
:1040F00007D555F8880FD4F8801020F00040084309
:104100002860304600F004B8001002400070004003
:1041100018BCBDE8E08F00002DE9F047DFF86081B2
:1041200005460E46D8F8000000F00700B0420CD259
:10413000D8F8001021F007013143C8F80010D8F872
:10414000000000F00700B04275D128784D4CC00740
:1041500057D06868032818D0022819D02168D0B138
:104160004905002967DAA16821F003010143A16034
:10417000FFF788FC6968074641F28830032913D0AD
:1041800002291FD0814651B336E021688901E8E752
:1041900021688903E5E78907E3E700BFFFF772FCC1
:1041A000C11B494501D924E08146A068C0F38100C4
:1041B0000328F3D125E000BFFFF764FCC11B49458C
:1041C00001D916E08146A068C0F381000228F3D12E
:1041D00017E000BFFFF756FCC11B494509D8A0688E
:1041E00010F00C0FF6D10CE0FFF74CFCC11B494559
:1041F00002D90320BDE8F087A068C0F38100012840
:10420000F2D12878800705D5A068A96820F0F000D1
:104210000843A060D8F80010404601F00701B14201
:104220000BD9016821F0070131430160006800F0FB
:104230000700B04201D00120DCE72878400705D50F
:10424000A068E96820F4E0600843A06028780007CF
:1042500006D5A068296920F4605040EAC100A0603A
:1042600000F03CF8A168084AC1F30311515CC84052
:10427000064908600020FFF717FC0020BAE700009D
:104280000020024000100240688D0008D00000208D
:104290000148006870470000D0000020044805492C
:1042A00000688968044AC1F30221515CC840704724
:1042B000D000002000100240A88D000804480549E5
:1042C00000688968044AC1F3C221515CC840704744
:1042D000D000002000100240A88D000830B52D4904
:1042E000002318468A682C4C12F00C0F4FEA640524
:1042F00014D08A68C2F38102032A04D1CA6802F08A
:104300000302012A0AD08A68C2F38102012A19D065
:104310008A68C2F38102022A16D016E00A681207E0
:1043200004D4D1F89420C2F3032202E00A68C2F355
:1043300003121A4B53F822308A6812F00C0F04D182
:10434000184602E0204600E028468A68C2F381024F
:10435000032A1DD1C868CA6800F00300C2F3021224
:10436000521C022804D0032805D0B3FBF2F004E06D
:10437000B4FBF2F001E0B5FBF2F0CA68C968C2F321
:1043800006225043C1F34161491C4900B0FBF1F0E2
:1043900030BD0000001002400024F400788D0008B9
:1043A0002DE9F84304460078FE4DC0065DD5A868A7
:1043B00010F00C0F0AD0A0690028286871D040F0D6
:1043C00001002860FFF75EFB064654E0286880077E
:1043D00002D5A06900287DD0216A2868000703D58E
:1043E000286800F0F00004E0D5F89400F02202EA1A
:1043F0001010814216D9084601F08EFE002869D1BE
:10440000286840F0080028602868216A20F0F00041
:10441000084328606868E16920F47F4040EA012091
:10442000686015E0286840F0080028602868216A64
:1044300020F0F000084328606868E16920F47F40BC
:1044400040EA01206860206A01F066FE0028D6D1AB
:10445000FFF744FFA968D44AC1F30311515CC84077
:10446000D24908600020FFF71FFB29E0FFF70AFB95
:10447000801B02287ED828688007F7D5286840F07E
:10448000080028602868216A20F0F00008432860AE
:104490006868E16920F47F4040EA012068600FE02D
:1044A000FFE720F001002860FFF7ECFA064604E081
:1044B000FFF7E8FA801B0228DCD828688007F7D4C9
:1044C0002078C0074AD0A868C0F3810002281FD016
:1044D000A86800E098E0C0F38100032803D1E868F1
:1044E000C043800714D06068B0F5803F17D0B0F5A6
:1044F000A02F286817D020F480302860286820F486
:10450000802028606068E0B1FFF7BCFA064614E03E
:104510002868800322D56068002875D01EE02868CE
:1045200040F48030EDE740F480202860F7E700BFDA
:10453000FFF7A8FA801B64289CD828688003F7D569
:104540000CE0FFF79FFA064605E000BFFFF79AFA76
:10455000801B64288ED828688003F7D420788007D1
:1045600042D5A868C0F38100012816D0A868C0F31E
:10457000810000E0A9E0032804D1E86800F003000E
:1045800002280AD0E068002828681DD040F4807016
:104590002860FFF777FA06460BE0286840050BD540
:1045A000E0680028B9D007E0FFF76CFA801B02280A
:1045B000C2D828684005F7D56868217C20F0F850FB
:1045C00040EA016068600FE020F480702860FFF727
:1045D00059FA064605E000BFFFF754FA801B02288F
:1045E00073D828684005F7D42078000729D560697A
:1045F0000028D5F8940013D040F00100C5F89400CD
:10460000FFF740FA064606E0FBE000BFFFF73AFA84
:10461000801B022859D8D5F894008007F6D510E001
:1046200020F00100C5F89400FFF72CFA064604E0DC
:10463000FFF728FA801B022847D8D5F89400800796
:10464000F6D42078400763D5A86D0026C00008D4B2
:10465000A86D40F08050A865A86D012600F080503C
:10466000009053480168C90511D40168804641F49F
:1046700080710160FFF706FA074604E0FFF702FACF
:10468000C01B022821D8D8F80000C005F6D5A068C4
:10469000012815D00528D5F8900017D020F001008A
:1046A000C5F89000D5F8900020F00400C5F89000FF
:1046B000A06841F28838C8B1FFF7E4F9074610E076
:1046C000D5F8900040F00100F0E777E040F00400FA
:1046D000C5F89000F4E700BFFFF7D4F9C11B4145CE
:1046E0006CD8D5F890008007F6D50CE0FFF7CAF932
:1046F000074604E0FFF7C6F9C11B414579D8D5F854
:1047000090008007F6D41EB1A86D20F08050A865F7
:10471000A06AE0B3A968C1F38101032972D002281D
:10472000286820F08070286011D02868000106D425
:104730002868800003D4E86820F00300E860E86897
:104740001C490840E860FFF79DF9044654E0FFF774
:1047500099F9064605E000BFFFF794F9801B02288F
:1047600047D828688001F7D4206BE16A000110382F
:104770000843616BA26B0902120941EA42410843F6
:10478000A18F0D4A490802EB4151084300E036E091
:1047900094F840104908120102EB41610843E860B7
:1047A00028680CE000100240688D0008D00000204E
:1047B00000700040FFFFEEFE0000E0FF19E040F057
:1047C00080702860E86840F08070E860FFF75AF970
:1047D000044604E0FFF756F9001B022809D82868B0
:1047E0008001F7D50BE000BFFFF74CF9001B022852
:1047F00002D90320BDE8F88328688001F4D40020A2
:10480000F8E7FFE70120F5E72DE9F041040005D0C6
:104810000025A56294F85D0018B107E00120BDE80D
:10482000F08184F85C50204600F044F8022384F8BC
:104830005D302068016821F040010160E0684FF4BC
:10484000E066B04201D9002101E04FF48051B0F59B
:10485000706F02D0B04200D0A562276B012227B949
:10486000B04201D9236300E02263D4E90103184375
:10487000D4E9043633431843238B03F400731843FD
:10488000E3691843236A1843A36A1843236818602E
:10489000636B606AA66918430427E36807EA164653
:1048A00033431843084321684860256684F85D2037
:1048B0000020B4E72DE9F041234A01680025234890
:1048C000022403260527DFF8888086B0914215D19F
:1048D000016E41F480510166006E694600F480501B
:1048E000059038208DE8F1004046FEF7E1FF0022F8
:1048F0000D212320FFF738F923201FE0154A9142AC
:104900001ED1816D41F480418165806D694600F45E
:104910008040059004208DE8F1000F48FEF7C8FFA5
:104920004FF420408DE8F10069464046FEF7C0FF95
:1049300000220E212420FFF717F92420FFF708F9A1
:1049400006B0BDE8F08100000030014000100240D8
:104950000004004800380040000800482DE9F84FE6
:10496000044640680026984617460D464FF0040A54
:10497000B0F5827F01D1A06890B194F85C00012865
:1049800019D04FF0010B84F85CB0FFF77BF8009072
:1049900094F85D004FF0000901280ED002268EE049
:1049A00084F85DA013460A462046CDF8008000F04A
:1049B0004DF900F08AB80220FBE7002D7ED0002FD1
:1049C0007CD084F85DA0C4F860902564A4F844709D
:1049D000A4F84670C4F83890A4F83C90A4F83E902F
:1049E000C4F84C90C4F85090E0684FF4E0618842FD
:1049F0002068426802D922F4805201E042F48052D9
:104A00004260A068B0F5004F04D12068026822F42B
:104A10008042026020680268520603D4026842F0B5
:104A200040020260E068884219D939E02068816854
:104A3000C90708D0007B05F8010BB4F84600401EFA
:104A4000A4F846000BE0B8F1000F26D0B8F1FF3F04
:104A500005D0FFF717F80099411A41451DD2B4F867
:104A600046000028E2D11FE020688168C90708D00D
:104A7000C06825F8020BB4F84600401EA4F84600B2
:104A80000EE0B8F1000F08D0B8F1FF3F08D0FEF7F4
:104A9000F9FF0099411A414502D303260FE00DE0CA
:104AA000B4F846000028DFD141462046009A01F0C4
:104AB000F9FB08B120202066206E00B1012684F8A1
:104AC0005DB084F85C90304673E718BCBDE8E08FB9
:104AD0002DE9F84F044690F85C00002698461746EA
:104AE0000D4601280DD04FF0010A84F85CA0FEF7B6
:104AF000C9FF834694F85D00B146012804D0022620
:104B00009BE0022000F09FB8002D73D0002F71D0E1
:104B1000032084F85D00C4F86090A563A787E78749
:104B2000C4F84090A4F84490A4F84690C4F850907B
:104B3000C4F84C90A068B0F5004F04D1206801681B
:104B400041F48041016020680168490603D401688E
:104B500041F040010160E068B0F5E06F606823D982
:104B600010B1E08F01281BD1216835F8020BC86015
:104B700006E020688168890706D535F8021BC16008
:104B8000E08F401EE0870BE0B8F1000F3FD0B8F196
:104B9000FF3F05D0FEF776FFA0EB0B01414536D273
:104BA000E08F0028E5D137E010B1E08F012830D147
:104BB000E08F012804D9216835F8020BC86010E0A5
:104BC000216815F8010B087311E0E08721E02068E7
:104BD000816889070FD5E18F012905D935F8021BB6
:104BE000C160E08F801EF0E715F8011B0173E08FB4
:104BF000401EEAE720E0B8F1000F08D0B8F1FF3F0F
:104C000007D0FEF73FFFA0EB0B01414501D3032680
:104C100013E0E08F0028DAD15A464146204601F0E1
:104C20007BFB08B120202066A06818B92068C16805
:104C300080680090206E00B1012684F85DA084F8A1
:104C40005C9030465EE718BCBDE8E08F2DE9F05F70
:104C5000044690F85C0000260A9F994692460D464D
:104C60004FF0010801280ED0012084F85C00FEF707
:104C700009FF834694F85D00616801280CD0B1F506
:104C8000827F07D102E0022000F0FBB8A16809B9D9
:104C9000042801D00226ECE04DB3BAF1000F26D073
:104CA000B9F1000F23D094F85D00042802D005204C
:104CB00084F85D0000202066C4F840A0A4F8469067
:104CC000A4F84490A563A4F83E90A4F83C90E06456
:104CD0002065E0684FF4E061884203D8B4F84600EC
:104CE000012806D92068426822F4805205E0012696
:104CF000BFE02068426842F4805242602068026847
:104D0000520603D4026842F040020260E068884222
:104D100060683DD910B1E08F012831D1216835F8A4
:104D2000020BC860E08F401EE08729E0B8F1000F59
:104D30000DD0E08F58B120688168890707D535F814
:104D4000021BC160E08F401EE0874FF00008B4F8FE
:104D5000460068B120688168C90709D0C0682AF890
:104D6000020BB4F84600401EA4F846004FF00108BC
:104D7000781C05D0FEF786FEA0EB0B00B84266D289
:104D8000E08F0028D2D1B4F846000028CED167E0E9
:104D900010B1E08F01285CD1E08F012806D921688D
:104DA00035F8020BC860E08F801E05E0216815F819
:104DB000010B0873E08F401EE0874AE0B8F1000F56
:104DC00016D0E08FA0B120688168890710D5E18FE7
:104DD000012905D935F8021BC160E08F801E04E06F
:104DE00015F8011B0173E08F401EE0874FF00008AB
:104DF000B4F8460018B320688168C9071FD0B4F81A
:104E00004610012911D9C0682AF8020BB4F84600EF
:104E1000801EA4F84600B4F8460001280DD820688A
:104E2000416841F48051416007E0017B0AF8011BB1
:104E3000B4F84600401EA4F846004FF00108781C64
:104E400007D0FEF71FFEA0EB0B00B84201D30326EC
:104E50000FE0E08F0028B1D1B4F846000028ADD1B2
:104E60005A463946204601F057FA10B10126202053
:104E70002066012084F85D00002084F85C00304644
:104E800002E730BCBDE8C09F4FF0E021042808696C
:104E900003D020F004000861704740F00400FAE7F6
:104EA00010B5401EB0F1807F01D3012010BD4FF03E
:104EB000E02460610F21601700F034FF0020A06142
:104EC00007202061002010BD10B5040003D094F825
:104ED000710010B107E0012010BD002084F87000BF
:104EE000204600F027F8242084F87100206801682B
:104EF00021F001010160204601F0F8FD0128EBD00E
:104F0000606A10B1204601F05FFD2068416821F41D
:104F1000904141602068816821F02A018160206809
:104F2000016841F0010101602046BDE8104001F038
:104F3000AFBD00002DE9F0410746454B0168002454
:104F400044480325022686B04FF090424FF0800877
:104F500099422AD1816D41F400218165806D0294CE
:104F600000F400200590CDE900560820CDE903505B
:104F700069461046FEF79CFC384D37482860C5E965
:104F80000164C5E903486C61AC61EC6128462C62A0
:104F9000FEF72EFC20B140F2BD1131A001F0DFFF81
:104FA000FD66AF6206B0BDE8F081344B0727994239
:104FB00019D1016E41F480410166006E02AA00F42D
:104FC000804005905815CDE9000682E8B00069469A
:104FD0002B48FEF76DFC02AA694682E8B000CDE9D5
:104FE0000086284831E0284B99421AD1816D41F45E
:104FF00000318165806D02AB00F4003005900C201B
:10500000CDE9000683E8B00069461046FEF750FC83
:10501000002207212620FEF7A7FD2620FEF798FD97
:10502000C0E71A4A9142BDD1816D41F4802181656A
:10503000806D02AA00F4802005904FF44060CDE915
:10504000000682E8B00069461148FEF731FCA9E786
:10505000004C004000100240580402406407002049
:105060002E2E2F5372632F73746D33326C34787815
:105070005F68616C5F6D73702E63000000380140E3
:105080000018004800040048004400400048004068
:10509000000800482DE9F843044690F871001F46C7
:1050A00016460D4620284BD1C5B1BEB194F870000C
:1050B000012845D0012084F870004FF00008C4F8A2
:1050C0007480212084F87100FEF7DCFCA4F85060A5
:1050D0008146A4F852604FF4805615E00120BDE8E7
:1050E000F8838021204601F051FED8B9A068B04273
:1050F00001D12069C0B115F8010B21680885B4F809
:105100005200401EA4F85200B4F852004B464FF033
:10511000000200970028E4D14FF04001204601F042
:1051200035FE30B10320DAE735F8020BC0F3080092
:10513000E3E7202084F8710084F870800020CEE737
:105140000220CCE7FEE700EB8100006E00F0F840A3
:1051500070478068C0F3800070478068C0F38000AB
:10516000704770B54FF0007401F0007394FAA4F426
:10517000B4FA84F4E3404FF0F87494FAA4F501F023
:10518000F871B5FA85F500EB830021FA05F50726DD
:10519000AE4094FAA4F44369B4FA84F4E140B34312
:1051A0008A401343436170BD00EB8100016E21F022
:1051B0000041114301667047044908B5CA6C0243B7
:1051C000CA64C96C0140009108BD00000010024093
:1051D000044908B58A6D02438A65896D01400091D2
:1051E00008BD000000100240F0B50A68032492FADE
:1051F000A2F2B2FA82F30F257EE0324601269E40EB
:10520000324078D0D1F804E0066892FAA2F7B7FAF3
:1052100087F74FEA470C04FA0CF7BE4392FAA2F75D
:10522000B7FA87F77F000EFA07FE46EA0E06066019
:105230004E68012E01D0022E15D1D1F808E0866803
:1052400092FAA2F7B7FA87F74FEA470C04FA0CF77D
:10525000BE4392FAA2F7B7FA87F77F000EFA07FE6D
:1052600046EA0E068660D1F810C0C66892FAA2F728
:10527000B7FA87F77F0004FA07FE92FAA2F7B7FAA7
:1052800087F77F0026EA0E060CFA07FC46EA0C06B2
:10529000C6604E68022E2ED192FAA2F6B6FA86F6B3
:1052A000082E4E6913D2076A92FAA2FCBCFA8CFC53
:1052B0004FEA8C0C05FA0CFC92FAA2F2B2FA82F2D6
:1052C000920027EA0C0796403743076213E0476ACB
:1052D000120A92FAA2FCBCFA8CFC4FEA8C0C05FA7A
:1052E0000CFC92FAA2F2B2FA82F2920027EA0C07C0
:1052F0009640374347625B1C0A681646DA407FF4E3
:105300007CAF4A68012A01D0022A07D1CB684168E4
:105310003246914306FB03F2114341600120F0BD88
:10532000354808B5016E41F001010166016E01F0DA
:1053300001010091816D41F080518165806D2F499F
:1053400000F08050009008684FF6FF0210402C4A91
:1053500040F440701043086000F0CCFC002211467D
:1053600000F0AFFC01466FF00B0000F0CBFC00F04A
:10537000C1FC0022114600F0A4FC01466FF00A00B7
:1053800000F0C0FC00F0B6FC0022114600F099FCD1
:1053900001466FF0090000F0B5FC00F0ABFC002204
:1053A000114600F08EFC01466FF0040000F0AAFCEC
:1053B00000F0A0FC0022114600F083FC01466FF0D3
:1053C000030000F09FFC00F095FC0022114600F065
:1053D00078FC01466FF0010000F094FC00F08AFCBC
:1053E0000022114600F06DFC0146BDE808404FF078
:1053F000FF3000F087BC0000001002400CED00E020
:105400000000FA054FF47A71B0FBF1F14FF0E020A3
:10541000491E416100218161052101617047000041
:1054200070B500241F49204D4FF40046C02803D01A
:10543000B0F5407F1CD019E0D1F8880000F0C00022
:1054400040F440004038B0F5400027D0402804D058
:1054500080281CD106E0044608E000F083F828B15B
:105460002C4603E000F086F800B13446204670BDBB
:10547000D1F888000D4900F4407040F040704018A9
:105480000CD0B0F5807FE8D0B0F5007FEAD000F016
:10549000C3FD00F097FD00F0A3FDDCE700F0BCFDCC
:1054A000D9E70000001002400024F40000FFFFFCD8
:1054B00070B5002429492A4D4FF40046032804D032
:1054C0000C281AD030282FD040E0D1F888006FF493
:1054D000403100F0030040F4403040180AD0012869
:1054E00036D002282ED000F097FD00F06BFD00F0C2
:1054F00085FD17E000F090FD14E0D1F8880000F081
:105500000C0040F44020001FB0F54020F2D00428E9
:105510001ED0082816D000BF00F07EFD00F052FD1E
:1055200000F05EFD044611E0D1F8880000F0300084
:1055300040F440101038B0F54010DBD0102807D0F0
:105540002028E9D100F016F800B13446204670BD9D
:1055500000F008F80028F9D02C46F7E700100240C8
:105560000024F40002480068C0F380207047000067
:10557000001002400248D0F89000C0F3400070478D
:10558000001002400248006800F0F0007047000080
:10559000001002400248D0F8940000F47060704798
:1055A0000010024002480068C0F3C00070470000CD
:1055B000001002400248C06800F070007047000010
:1055C000001002400248C06800F00300704700006D
:1055D000001002400149086070470000D000002020
:1055E00070B5044600680D46002610F0010F42D148
:1055F000E9686868AA690843296911430843216872
:10560000254A114008432060A868616821F4405190
:10561000014361606869A16821F440710143A160A0
:105620001E48844201D1032008E01D48844201D174
:105630000C2003E01B48844203D13020FFF738FFE1
:105640000BE01948844201D1C02004E0174884428D
:1056500011D14FF44070FFF7E3FE60B1296851B1FA
:10566000AA690126B2F5004F07D000EB5100B0FB4C
:10567000F1F080B2E060304670BD400000EB5100B8
:10568000B0FBF1F081B24FF6F07201EA0200C1F313
:1056900042010843EEE70000F369FFEF00380140E4
:1056A0000044004000480040004C004000500040D2
:1056B00008B54FF0E0210A690092421C00D0401C5E
:1056C0000A69D20300D5401E0028F9D108BD10B5E3
:1056D00080216B2000F0CEF86420FFF7E9FF07215E
:1056E000682000F0C7F80120FFF7E2FF03216B20DC
:1056F00000F0C0F80120FFF7DBFF0021192000F0C7
:10570000B9F80120FFF7D4FF01211A2000F0B2F808
:105710000120FFF7CDFF05211D2000F0ABF801208F
:10572000FFF7C6FF2021372000F0A4F80120FFF783
:10573000BFFF0121382000F09DF80120FFF7B8FFDE
:1057400018211B2000F096F80120FFF7B1FF082177
:105750001C2000F08FF8BDE810400120FFF7A8BF23
:10576000124C022210A1204603F0FCF802220EA1E6
:10577000204603F0F7F825220DA1204603F0F2F8A9
:10578000252215A1204603F0EDF800F003FDFBF7FC
:10579000B5FC02F0B7FB292219A1204603F0E2F87C
:1057A000C820FFF785FFE6E70D0A0000004800402B
:1057B0002D2D2D2D2D2D2D2D2D2D2D2D2D2D2D2D19
:1057C0002D2D2D2D2D2D2D2D2D2D2D2D2D2D2D2D09
:1057D0002D2D2D0D0A0000002A2A2A2A2A2A2A2ADB
:1057E0002A2A2A2A2A2A4D5055393235302A2A2A7D
:1057F0002A2A2A2A2A2A2A2A2A2A2A0D0A000000C4
:105800000D0A2D2D2D2D2D2D2D2D2D2D2D2D2D2D0B
:105810002D2D2D2D2D2D2D2D2D2D2D2D2D2D2D2DB8
:105820002D2D2D2D2D0D0A0D0A0000002DE9F0471C
:105830000024DFF83C9017460D4680462646224657
:1058400040214846FEF719F948F0800000F01AFDA3
:1058500004E0304600F016FD3855641CAC42F8D325
:105860004846BDE8F04701224021FEF706B9000096
:105870000004004870B50A4C0E460546002240213F
:105880002046FEF7FAF8284600F0FCFC304600F00F
:10589000F9FC2046BDE8704001224021FEF7EDB83A
:1058A0000004004830B5204889B01E4901604FF41B
:1058B00040210024C0E901140425C460C0E9044566
:1058C00001218461C0E907414462C4620463446306
:1058D0008463C463FDF7ECFC18B14E2113A001F002
:1058E0003EFB06A910480694FDF70CFA18B15621A4
:1058F0000EA001F034FB1148009006200190022018
:1059000002907F200594CDE9030569460648FDF71E
:1059100071FA002803D0632104A001F020FB09B034
:1059200030BD0000000004508C0900202E2E5C5376
:1059300072635C6164632E6300000000000084CB2E
:105940002DE9F04F5B4C8DB0E06C40F00100E0645D
:10595000E06C00F001000B90E06C40F04000E0646F
:10596000E06C00F040000B90FEF762F9E06C40F054
:105970000200E064E06C00F002000B90E06C40F08C
:105980000400E064E06C00F004000B90E06C40F078
:105990008000E064E06C012200F080000B90402168
:1059A0004548FEF76AF84FF480694FF0904B0022AB
:1059B00049465846FEF761F8404F00224FF46071A7
:1059C0003846FEF75AF80122160231465846FEF7CD
:1059D00054F844F2040A002251463748FEF74DF8C5
:1059E000012208213846FEF748F8F001002401257D
:1059F0008DE8310069465846FDF75AFF4FF04008E0
:105A0000CDE90085CDE9025469462B48FDF750FFEA
:105A1000CDF80090CDE90154694658460394FDF74E
:105A200047FF4FF42270CDE90005CDE902546946E5
:105A30003846FDF73DFFCDE90065CDE902546946E2
:105A40005846FDF735FF0096CDE9015469463846C2
:105A50000394FDF72DFFCDE9008469463846029492
:105A6000FDF726FFCDF800A0CDE9015469461248A4
:105A70000394FDF71DFF2803CDE9000469460E4895
:105A80000294FDF715FF0120FFF796FB0420FFF7B6
:105A900093FB8020FFF790FB8020B862CDE906548D
:105AA0000590089405A938460994FFF79DFB0DB0B1
:105AB00000F006B80010024000040048000800484A
:105AC00030BCBDE8C08F0000114810B50F4901601F
:105AD0004FF48271416000214FF4E062C0E902128C
