:020000040800F2
:10000000F8060020290A0008D50A0008D70A0008C7
:10001000DB0A0008DF0A0008E30A0008000000000D
:10002000000000000000000000000000E70A0008D7
:10003000E90A000800000000EB0A0008ED0A0008C9
:10004000430A0008430A0008430A0008430A00085C
:10005000430A0008430A0008430A0008430A00084C
:10006000430A0008430A0008430A0008430A00083C
:10007000430A0008430A0008430A0008430A00082C
:10008000430A0008430A0008430A0008430A00081C
:10009000430A0008430A0008430A0008430A00080C
:1000A000430A0008430A0008430A0008430A0008FC
:1000B000430A0008430A0008430A0008430A0008EC
:1000C000430A0008430A0008430A0008430A0008DC
:1000D000430A00081F0E0008430A0008430A0008EC
:1000E000430A0008430A0008430A0008430A0008BC
:1000F000430A0008430A0008430A0008430A0008AC
:10010000430A0008430A0008430A0008430A00089B
:10011000430A0008430A0008430A0008430A00088B
:10012000430A0008430A0008430A0008430A00087B
:1001300000F002F800F03FF80AA090E8000C8244BA
:100140008344AAF10107DA4501D100F034F8AFF297
:10015000090EBAE80F0013F0010F18BFFB1A43F0A5
:1001600001031847D82A0000F82A0000103A24BFDB
:1001700078C878C1FAD8520724BF30C830C144BF0C
:1001800004680C607047000000230024002500264E
:10019000103A28BF78C1FBD8520728BF30C148BFEA
:1001A0000B607047642901F0D984002070471FB5A7
:1001B0001FBD10B510BD01F099FD1146FFF7F7FF07
:1001C00000F052FC01F0B7FD03B4FFF7F2FF03BCEF
:1001D00000F0C6FD08B50121082001F012FAC02088
:1001E000ADF8000010208DF8030003208DF8020008
:1001F0006946FE4800F03CFF08BD08B58020ADF818
:10020000000010208DF8030003208DF802006946DD
:10021000F64800F02DFF0120F5490860F549C1F8C6
:1002200098010A2000F076FD0020F14908600A20BC
:1002300000F070FD0020EF49C1F8980108BD08B535
:100240008020ADF8000010208DF8030003208DF809
:1002500002006946E54800F00BFF0020E449091F51
:100260000860E449C1F89C010A2000F053FD012018
:10027000DF49091F08600A2000F04CFD0120DD491C
:10028000C1F89C010A2000F045FD08BD38B50024E6
:100290000120D74908608020ADF8000048208DF883
:1002A000030003208DF802006946D04800F0E0FE0C
:1002B0000A2000F02FFD0120CE49C1F898010A2044
:1002C00000F028FD0AE0601CC4B2322C03DDFFF709
:1002D000B6FF012038BD0A2000F01CFDC44880385C
:1002E00000680028EFD1C249091F086000BFF1E78C
:1002F00008B58020ADF8000010208DF80300032021
:100300008DF802006946B94800F0B2FE0020B849F5
:10031000091F0860B749C1F89C010A2000F0FAFCE7
:100320000120B349091F08600A2000F0F3FC0020F7
:10033000B049C1F8980108BD08B58020ADF80000AB
:1003400010208DF8030003208DF802006946A748AD
:1003500000F08EFE0020A649091F08600120A54973
:10036000C1F89C010A2000F0D5FC0120A049091F1A
:1003700008600A2000F0CEFC00209E49C1F89801D8
:1003800008BD38B504468020ADF8000010208DF877
:10039000030003208DF802006946944800F068FECF
:1003A00000209349091F08600A2000F0B3FC0025D3
:1003B0001FE004F08000802803D101208C490860F0
:1003C00002E000208A4908606006040E0A2000F05E
:1003D000A1FC01208649091F08600A2000F09AFC50
:1003E00000208449C1F898010A2000F093FC681CA1
:1003F000C5B2082DDDDB38BDF8B5054600248020E8
:10040000ADF8000048208DF8030003208DF80200AD
:100410006946764800F02CFE00261BE00120744956
:10042000091F08600A2000F075FC6006040E714880
:10043000D0F81C01012801D1601CC4B20A2000F0D0
:1004400069FC00206A49091F08600A2000F062FC6C
:10045000701CC6B2082EE1DB15B1FFF749FF01E0C1
:10046000FFF76AFF2046F8BD70B505460E4600242A
:10047000FFF7C3FE2846FFF784FF641CFFF706FF63
:100480003046FFF77EFF641CFFF700FFFFF7D7FE43
:10049000FFF7B3FE691CC8B2FFF773FF641CFFF7D8
:1004A000F5FE0020FFF7A8FF0446FFF7C8FE204630
:1004B00070BD2DE9F0410746884615461E460024CA
:1004C000FFF79BFE3846FFF75CFFFFF7DFFE404675
:1004D000FFF757FFFFF7DAFEFFF78FFE791CC8B270
:1004E000FFF74FFFFFF7D2FE00BF0DE0681EA042EE
:1004F00004D00120FFF780FF305503E00020FFF714
:100500007BFF3055601CC4B2AC42EFDBFFF797FEB7
:100510002046BDE8F0812DE9F04180460D461646A3
:100520001F460024FFF769FE4046FFF72AFFFFF74A
:10053000ADFE2846FFF725FFFFF7A8FE00BF06E047
:10054000385DFFF71EFFFFF7A1FE601CC4B2B44286
:10055000F6DBFFF774FE0120BDE8F08170B50546BB
:100560000E46144631462846FFF77EFF20700120D4
:1005700070BD37B504460D4602AB01222946204620
:10058000FFF7C9FF3EBD2DE9F843074688461446EC
:100590001D46089E6A4641463846FFF7DFFF58B3BE
:1005A000601CFF2101FA00F0C4F108012944491E32
:1005B000FF220A41104300F0FF09C5F1080006FAC6
:1005C00000F0C6B2C4F1070006419DF8000000EA41
:1005D000090000909DF80000304300909DF8002035
:1005E00041463846FFF7C5FFBDE8F883000C0140DF
:1005F0009C81214200802142FFE70020F4E7F8B50A
:1006000006460F4614461D466A4639463046FFF7F1
:10061000A5FF2DB10120A0409DF80010084305E082
:100620000120A0409DF8001021EA0000C0B2009017
:100630009DF8002039463046FFF79BFFF8BD0000CB
:1006400070B5002439E0FFF7D8FD0020FFF799FED0
:1006500000BFFFF71BFE0028FBD1A02101EB4401E6
:10066000C8B2FFF78EFE00BFFFF710FE0028FBD1D7
:10067000FFF7E5FDFFF7C1FD0120FFF782FE00BF98
:10068000FFF704FE0028FBD10120FFF7B5FE054669
:100690000020FFF7B1FE0646FFF7D1FD0A2000F06B
:1006A0001DFB32462946D3A001F018FA46EA052080
:1006B000D24941F82400601CC4B2062CC3DD70BDD1
:1006C00010B5FFF79AFD0020FFF75BFE00BFFFF7B4
:1006D000DDFD0028FBD1CAA001F000FA642000F083
:1006E00019FB1E20FFF74DFE00BFFFF7CFFD0028CE
:1006F000FBD1642000F00EFBFFF7A1FD10BD10B58B
:10070000FFF768FDFFF7DCFF642000F0E7FAFFF772
:1007100097FF642000F0E2FA10BD2DE9F041074692
:100720004FF00008FFF769FD0020FFF72AFE00BF29
:10073000FFF7ACFD0028FBD13846FFF722FE00BFD3
:10074000FFF7A4FD0028FBD1FFF779FD142000F08E
:10075000C5FAFFF752FD0020FFF713FE00BFFFF7B9
:1007600095FD0028FBD1FFF70CFE00BFFFF78EFDC3
:100770000028FBD1FFF763FDFFF73FFD0120FFF7E6
:1007800000FE00BFFFF782FD0028FBD10120FFF72C
:1007900033FE04460120FFF72FFE05460020FFF739
:1007A0002BFE0646FFF74BFD200400EB052000EB77
:1007B00006084046BDE8F0812DE9F04F8FB00546B0
:1007C0005820FFF7AAFF099002F0A4F80D908B497A
:1007D0004969080202F09EF809900D9902F0AEF9FD
:1007E00083468649886902F095F85946059002F0DB
:1007F000D9F84FF09641069001F096FF8249079094
:1008000001F024FF089002F051F800B2099002F0C4
:1008100069F80C904820FFF780FF099002F07AF801
:100820000D907649086902F075F85946059002F076
:10083000B9F84FF08641069001F076FF6F490890B5
:100840000989080402F066F80790089901F0FEFE95
:10085000099001F0CFFECDE90A016849C86802F0AD
:1008600059F85946059002F09DF84FF087410690DF
:1008700001F05AFF614908904968C80302F04AF83C
:100880000790089901F0E2FE099001F0B3FE0746D7
:1008900088465D490C9802F051F864D25946584692
:1008A00002F080F84FF09E41099001F03DFF0646AE
:1008B00055490C9802F04CF9534909900C9802F0F4
:1008C00047F90890099902F06DF88146484601F011
:1008D00091FE00224D4BCDE9060101F097FCCDE9D8
:1008E000080101F033FA0446484601F083FE002275
:1008F000474BCDE9060101F089FCCDE9080101F083
:1009000025FA824643490C9802F018F82ED2424943
:100910000C9801F09BFE404909900C9801F096FE5E
:100920000890099902F03EF8814649463B4802F09A
:1009300039F82146099001F089FE0446484601F045
:1009400059FE0022364BCDE9040101F05FFC3A4626
:100950004346CDE9060101F02BFACDE9080101F08B
:10096000F5F9824602E000260024A24631460C98A2
:1009700002F0EEF80C90204601F03CFECDE90801B3
:10098000DDE90A2301F040FDCDE90A01504601F0FE
:1009900031FE3A464346CDE9080101F035FD0746F0
:1009A00088460D9801F026FE3A464346CDE90001FF
:1009B00001F02CFC00221B4BCDE9020101F0A0FA52
:1009C000CDE90401DDE90A2301F02AFD0022134BE1
:1009D000CDE9060101F094FACDE9080101F0E8FB48
:1009E00068600C9801F062FF00B228800FB0BDE88B
:1009F000F08F000025642C25640A00003C000020D4
:100A00007364667364660A000000FA4400000440E0
:100A10000000F43F0080BBC40080BB440000E04005
:100A2000000016400000404109488047094800473F
:100A3000FEE7FEE7FEE7FEE7FEE7FEE7FEE7FEE78E
:100A4000FEE7FEE704480549054A064B70470000EB
:100A5000AB0B000831010008F8000020F806002068
:100A6000F8020020F802002000F09FF8482000F073
:100A70001BF900F06FF94FF4165000F080F90AA04E
:100A800001F02CF8FFF7A6FBFFF739FE0AA001F0F2
:100A900025F808E00D48FFF78FFE0C48B0F900106C
:100AA0000BA001F01BF8F5E753797374656D2049CD
:100AB0006E6974204F4B0A004861726477617265F9
:100AC00020496E6974204F4B0A000000000000208E
:100AD00025640A00704700BFFEE700BFFEE700BFC5
:100AE000FEE700BFFEE770477047704770470000A1
:100AF0000CB50020019000906348006840F48030FD
:100B00006149086000BF6048006800F40030009050
:100B10000198401C0190009818B90198B0F5A06F99
:100B2000F1D15948006800F4003010B10120009064
:100B300001E0002000900098012831D1524840681F
:100B40005149486008464068486008464068486027
:100B50000846406820F47C1048600846406840F42D
:100B6000981048600846006840F08070086000BF38
:100B70004548006800F000700028F9D042484068FD
:100B800020F00300404948600846406840F00200F9
:100B9000486000BF3C48406800F00C000828F9D1CC
:100BA0000CBD10B5FFF7A4FF10BD10B536480068A6
:100BB00040F0010034490860084640683349084065
:100BC0003149486008460068314908402E490860AC
:100BD0000846006820F4802008600846406820F439
:100BE000FE0048604FF41F0088600020C862FFF7D5
:100BF000D8FF4FF000602749086010BD30B50021D4
:100C0000002000220023204C646804F00C0121B174
:100C1000042906D0082925D107E01F4C1F4D2C6060
:100C200024E01D4C1D4D2C6020E0174C646804F43A
:100C30007010154C646804F48032022404EB904078
:100C400022B9174C4443154D2C600AE00E4CE46A5F
:100C500004F00F04631C104CB4FBF3F444430F4D39
:100C60002C6003E00C4C0D4D2C6000BF00BF064C07
:100C70006468C4F303140B4D295D084C2468CC4010
:100C8000064D2C6030BD0000001002400000FFF84F
:100C9000FFFFF6FE08ED00E000127A0008000020D9
:100CA00000093D000C00002010B504466FF0040060
:100CB00000F05FF9E11704EB5171C1F3C701234A5A
:100CC00011701046007800EB4001C1EBC0104FF6E8
:100CD000FF7101EAC0001E49088010BD01461C4A90
:100CE00012884A434FF0E0235A6100229A610122A0
:100CF0001A6100BF4FF0E022106900F001021AB142
:100D000000F48032002AF5D000224FF0E0231A616F
:100D10009A61704701460D4A12784A434FF0E0232A
:100D20005A6100229A6101221A6100BF4FF0E0224D
:100D3000106900F001021AB100F48032002AF5D0E7
:100D400000224FF0E0231A619A6170471C000020D6
:100D50001E00002010B54FF4A06000F0BBF810BDDD
:100D6000014600BF704700BF564A128802F0400299
:100D7000002AF9D0C2B2534B1B1D1A80704710B520
:100D800086B00446012144F2050000F03AFC4FF41D
:100D90000070ADF8140003208DF8160018208DF8AF
:100DA000170005A9484800F063F94FF48060ADF8DA
:100DB000140004208DF8170005A9434800F058F9E5
:100DC00025208DF8000000208DF801008DF802002C
:100DD00001208DF80300684600F081F8019400209E
:100DE000ADF80800ADF80A00ADF80C00ADF8100041
:100DF0000C20ADF80E0001A9324800F0ACFC012235
:100E000040F225512F4800F03EFD01212D4800F011
:100E10002EFD40212B4800F012FE06B010BD10B58B
:100E200040F22551274800F013FE10B3254800F08A
:100E30008FFDC4B22548007800F08000C8B923486F
:100E4000007800F0400060B10A2C03D000201F4958
:100E5000087020E01D48007840F080001B490870B1
:100E600019E00D2C06D11948007840F040001749D0
:100E7000087010E01548007800F03F0014490C5449
:100E800012480078401C11490870084600783F2835
:100E900001DD0020087010BD70B504460D46002627
:100EA0000CE02178074800F04FFD00BF8021054885
:100EB00000F0B8FD0028F9D0641C761CAE42F0D3D7
:100EC00070BD0000003801400008014024000020EF
:100ED0005800002031490143314A1160704770B514
:100EE000002100230F22C47804B32D4C246804F49D
:100EF000E064C4F5E064210AC1F10403CA40447807
:100F000004FA03F18478144021430901254C067842
:100F1000A155047804F01F050124AC4005786D113B
:100F2000AD0005F1E025C5F8004109E0047804F0C2
:100F30001F050124AC401C4D0678761145F826406B
:100F400070BD1A4A0A400243154B1B1F1A607047B6
:100F500039B1134A121D12680243114B1B1D1A604E
:100F600006E00F4A121D126882430D4B1B1D1A60CA
:100F70007047042808D14FF0E021096941F00401CD
:100F80004FF0E022116107E04FF0E021096921F004
:100F900004014FF0E0221161704700000000FA05E3
:100FA0000CED00E000E400E080E100E080FFFF1FC6
:100FB00010B50446CC48844208D10121042000F039
:100FC0003AFB0021042000F036FB46E0C74884428B
:100FD00008D10121082000F02EFB0021082000F09C
:100FE0002AFB3AE0C248844208D10121102000F0D7
:100FF00022FB0021102000F01EFB2EE0BD488442A1
:1010000008D10121202000F016FB0021202000F053
:1010100012FB22E0B848844208D10121402000F0B0
:101020000AFB0021402000F006FB16E0B348844292
:1010300008D10121802000F0FEFA0021802000F07C
:10104000FAFA0AE0AE48844207D10121801500F087
:10105000F2FA0021A01500F0EEFA10BD10B5012142
:10106000084600F0E8FA0021012000F0E4FA10BD83
:101070002DE9F0410246002500260020002300242F
:10108000002791F803C00CF00F0591F803C00CF095
:10109000100CBCF1000F03D091F802C04CEA05051A
:1010A00091F800C0BCF1000F31D0146800202BE093
:1010B0004FF0010C0CFA00F3B1F800C00CEA030683
:1010C0009E4220D183004FF00F0C0CFA03F7BC4373
:1010D00005FA03FC4CEA040491F803C0BCF1280FA4
:1010E00006D14FF0010C0CFA00FCC2F814C00AE063
:1010F00091F803C0BCF1480F05D14FF0010C0CFA78
:1011000000FCC2F810C0401C0828D1D31460B1F80C
:1011100000C0BCF1FF0F34DD546800202EE000F168
:10112000080C4FF0010808FA0CF3B1F800C00CEA03
:1011300003069E4221D183004FF00F0C0CFA03F7F7
:10114000BC4305FA03FC4CEA040491F803C0BCF16B
:10115000280F05D100F1080C08FA0CF8C2F8148029
:1011600091F803C0BCF1480F07D100F1080C4FF013
:10117000010808FA0CF8C2F81080401C0828CED3E9
:101180005460BDE8F0814FF6FF710180022181704B
:101190000421C17070470246002093680B400BB1D8
:1011A000012000E0002070470146886880B2704747
:1011B00002460020D3680B400BB1012000E0002064
:1011C00070470146C86880B270470161704741614D
:1011D00070470AB1016100E041617047C16070472A
:1011E0004FF480320A43826181618261826982693F
:1011F000704702460020434B18684FF68073184032
:1012000040EA021008433F4B186070473E49C861EE
:101210007047F0B50A46002300240021002500F0A5
:101220000046B6F1004F02D1364EF16901E0354E6D
:101230007168C0F3034583B200F44016B6F5401F51
:1012400008D121F070612F4E766826F070662D4F20
:101250007E6012E000F48016B6F5801F06D10326EA
:1012600006FA05F4A14341F0706106E0460D36012F
:1012700003FA06F6B14341F0706122B1460D360122
:1012800003FA06F6314300F00046B6F1004F02D1F2
:101290001C4EF16101E01B4E7160F0BD30B50022C3
:1012A0008B071C0F0F2303FA04F2164B08338C1024
:1012B00053F824309343134C08348D1044F82530F0
:1012C00023468C1053F824308C07240F00FA04F4C2
:1012D00023430C4C08348D1044F8253030BD0A49A6
:1012E000DC3108607047000000080140000C01403C
:1012F000001001400014014000180140001C014092
:10130000002001400000014000002042E648006843
:1013100040F00100E449086008464068E34908409D
:10132000E149486008460068E1490840DE49086034
:101330000846006820F4802008600846406820F4D1
:10134000FE0048604FF41F0088600020C8627047AC
:10135000D549096821F48031D34A116011460968E2
:1013600021F480211160B0F5803F03D0B0F5802FCB
:101370000ED106E0CC49096841F48031CA4A1160B7
:1013800007E0C949096841F4A021C74A116000E09B
:1013900000BF00BF704710B50146002200230020A7
:1013A0004A11012A02D1C04C236806E0022A02D168
:1013B000BD4C236A01E0BC4C636A01F01F020124AA
:1013C00094401C400CB1012000E0002010BD38B555
:1013D000002000900024002500BF3120FFF7DBFF34
:1013E00005460098401C00900098B0F5A06F01D011
:1013F000002DF2D03120FFF7CEFF08B1012400E02C
:101400000024204638BD01460020A74A106820F07D
:10141000F80040EAC10010607047A64908607047B4
:1014200002460020A04B586820F4741042EA0103E1
:1014300018439D4B586070479E49086670470246A6
:101440000020994BD86A9C4B184042EA010318438C
:10145000954BD862704701460020934A506820F0AF
:1014600003000843506070478F48406800F00C004C
:101470007047014600208C4A506820F0F000084375
:101480005060704701460020874A506820F4E060B1
:1014900008435060704701460020834A506820F49A
:1014A000605040EAC1005060704729B17E4A527ACC
:1014B00002437D4B5A7204E07B4A527A82437A4B54
:1014C0005A7270477B49D831086070470146002046
:1014D000754A506820F4404008435060704700212E
:1014E000714A20321170704A82F82010012802D00F
:1014F00004280AD104E001216B4A2032117005E072
:101500000521694A2032117000E000BF00BF70471A
:101510006A49086070476449096A0143624A116276
:101520007047664944390860704770B50021002350
:101530000024002200255C4E766806F00C0121B1E3
:10154000042905D0082921D105E05D4E066020E080
:101550005B4E06601DE0544E766806F47013524EE2
:10156000766806F48034022606EB93431CB9554E88
:101570005E43066009E04C4EF66A06F00F06751CE5
:101580004F4EB6FBF5F65E43066002E04C4E066039
:1015900000BF00BF444E766806F0F00109094A4ECC
:1015A000725C0668D64046603F4E766806F4E0619D
:1015B000090A454E725C4668D64086603A4E7668A7
:1015C00006F46051C90A404E725C4668D640C66057
:1015D000354E766806F44041890B3C4E725CC66815
:1015E000B6FBF2F6066170BD29B12F4A526902437B
:1015F0002D4B5A6104E02C4A526982432A4B5A61AE
:10160000704729B1284A92690243274B9A6104E046
:10161000254A92698243244B9A61704729B1224A34
:10162000D2690243204BDA6104E01F4AD269824347
:101630001D4BDA61704729B11B4AD26802431A4B2D
:10164000DA6004E0184AD2688243174BDA607047C8
:1016500029B1154A12690243134B1A6104E0124A78
:1016600012698243104B1A6170471449403908606F
:1016700070471049C86470470B49C87170470A48E1
:10168000406A40F080700849486270470146002077
:10169000054A92680A400AB1012000E00020704724
:1016A0000149887270470000001002400000FFF8F6
:1016B000FFFFF6FE00004242F0FFFEFF80044242C0
:1016C00000127A0000093D002500002035000020AE
:1016D00010B50446FB48844209D101218803FFF775
:1016E000AAFF00214FF48040FFF7A5FF32E0F64843
:1016F000844209D101214804FFF7AAFF00214FF4D9
:101700000030FFF7A5FF25E0F048844209D1012110
:101710008804FFF79DFF00214FF48020FFF798FF1A
:1017200018E0EB48844209D10121C804FFF790FF7B
:1017300000214FF40020FFF78BFF0BE0E5488442C7
:1017400008D101210805FFF783FF00214FF4801025
:10175000FFF77EFF10BD2DE9F04786B005460E4627
:101760000024A24600BFA1460027B08900B100BFF7
:101770002F462C8A4CF6FF700440F08804432C82DC
:10178000AC894EF6F3100440B08831890843718962
:1017900008430443AC81AC8A4FF6FF400440B08953
:1017A0000443AC8201A8FFF7C0FEC648874202D1BD
:1017B000DDF810A001E0DDF80CA0A88900F40040DD
:1017C00040B10AEBCA0000EB0A1031684900B0FBD7
:1017D000F1F807E00AEBCA0000EB0A103168890053
:1017E000B0FBF1F86420B8FBF0F00401200964219B
:1017F00001FB1089A88900F4004040B1322000EBC1
:10180000C900B0FBF1F000F00700044308E032200B
:1018100000EB09106421B0FBF1F000F00F0004436D
:101820002C8106B0BDE8F0874FF41651016000210D
:101830008180C18001810C2141810021818170471B
:1018400010B502460020108A4FF2FF0318400B88A3
:101850004C8823438C882343CC882343184310822D
:1018600010BD0021018041808180C180704721B17D
:10187000828942F40052828104E082894DF6FF732E
:101880001A4082817047F0B50346002400260025E7
:10189000002040F66A17B94200D100BF1846C1F3D4
:1018A000421401F01F06012707FA06F5012C01D1A9
:1018B0000C3004E0022C01D1103000E014301AB1D9
:1018C00007682F43076002E00768AF430760F0BD79
:1018D0001AB1838A0B43838202E0838A8B4383821B
:1018E0007047028A4FF6F0731A400282028A0A4356
:1018F0000282704782894FF2FF731A408281828987
:101900000A438281704721B1828942F002028281BA
:1019100004E082894FF6FD731A4082817047028A83
:101920004FF6DF731A400282028A0A43028270472E
:1019300021B1028A42F48042028204E0028A4BF61C
:10194000FF731A4002827047C1F308028280704719
:1019500001468888C0F308007047818941F0010181
:1019600081817047028BD2B20283028B42EA01224C
:1019700002837047028B02F47F420283028B0A4388
:101980000283704721B1828A42F02002828204E001
:10199000828A4FF6DF731A408282704721B1828AB1
:1019A00042F01002828204E0828A4FF6EF731A40FE
:1019B0008282704721B1828A42F00802828204E06A
:1019C000828A4FF6F7731A408282704721B182896A
:1019D00042F40042828103E08289C2F30E028281D6
:1019E000704721B1828A42F40062828204E0828AD6
:1019F0004FF2FF731A4082827047828A4FF6FB7360
:101A00001A408282828A0A438282704721B1828A86
:101A100042F00202828204E0828A4FF6FD731A408D
:101A20008282704702460020B1F5007F00D100BFDE
:101A300013880B400BB1012000E00020704701F437
:101A40000072B2F5007F00D100BFCA430280704728
:101A500070B50246002400230025002040F66A16D7
:101A6000B14200D100BFC1F3421501F01F030126AE
:101A700006FA03F3012D02D19689334006E0022DC8
:101A800002D1168A334001E0968A33400C120126B7
:101A900006FA04F41688344013B10CB1012000E0BA
:101AA000002070BD10B50022002340F66A14A14248
:101AB00000D100BF0A1201249440A3B2DC43048089
:101AC00010BD0000003801400044004000480040C4
:101AD000004C004000500040704700000FB4044923
:101AE00010B503AA029800F0D3F810BC5DF814FBFF
:101AF000200000202DE9F0410E460446002020621F
:101B00002046E168884730B3252805D0D4E9012173
:101B10009047206A401CF2E7E1682046002788478A
:101B2000050018D0A5F14100192802D820354FF43E
:101B300000673246294620462760FEF733FB40B156
:101B4000012804D0F61D26F007060836D8E7361D12
:101B5000D6E72846DAE7206ABDE8F0812DE9F041B2
:101B60000646002410687529314616A510D0AFF33B
:101B70000080002802DA404213A507E031688A0796
:101B800001D512A502E0490704D511A5012401E001
:101B9000AFF3008000210A2206F1240709E0B0FB20
:101BA000F2FCB0FBF2F302FB1C0030307854184614
:101BB000491C0028F3D123462A463046BDE8F041AF
:101BC00000F00CB8000000002D0000002B00000009
:101BD0002000000070477047704770472DE9F047BC
:101BE0000D4699469246044600F12408016888068D
:101BF00004D5E06921F01001216000E00120A84235
:101C000001DD471B00E00027A1697A1902EB0900FA
:101C1000081AA0612078C00602D42046AFF30080E5
:101C2000002608E0D4E901211AF806009047206A4E
:101C3000401C761C20624E45F4DB2078C0060AD595
:101C40002046AFF3008006E0D4E901213020904720
:101C5000206A401C2062381EA7F10107F4DC07E06F
:101C6000D4E9012118F805009047206A401C206241
:101C7000281EA5F10105F3DC2046AFF30080207893
:101C8000000602D50220BDE8F0870120FBE7000036
:101C9000074B70B50D467B4400F011F8044628460A
:101CA00000F020F810B14FF0FF3070BD204670BD3D
:101CB000CDF0FFFF01694A1C02610878704700B54A
:101CC0008FB0CDE901310021059105497944CDE975
:101CD000031011466846FFF70DFF0FB000BD00006E
:101CE000E5FFFFFF007B00F080007047754600F0C5
:101CF00029F8AE4605006946534620F007008546A0
:101D000018B020B5FEF79EFEBDE820404FF000065B
:101D10004FF000074FF000084FF0000B21F00701D3
:101D2000AC46ACE8C009ACE8C009ACE8C009ACE816
:101D3000C0098D4670470446AFF300802046FEF789
:101D400043FA0000004870479800002021F000424C
:101D5000A2F16052B2F5801F01F0004328BFD2F11A
:101D60007F6C0BD95FEA001C43EAC20242EB507061
:101D700018BF704728BF20F001007047B2F5801FE0
:101D8000BCBF184670474FEA410C1CF5001F02D239
:101D9000084600F0CEBE70B500F0E2FA00000089FF
:101DA000FFF7F6BF4FF00040A0F58000704700003D
:101DB00010B591EA030F48BF83F0004300F1388368
:101DC000841A71EB030C05D2121943EB0C03001BB0
:101DD00061EB0C01DFF824E14FEA1154A4EB135C32
:101DE0001EEA430F18BF9EEA445F73D023EA0E0336
:101DF000DCF1200E21EA045143F4801332D322FA9D
:101E00000CFE10EB0E0023FA0CFE41EB0E01CCF1A0
:101E1000200E03FA0EFE10EB0E0051F10001B1F599
:101E2000801FCCF1200E32D201EB045112FA0EF2D7
:101E3000BDE8104058BF7047401C38BF5FEA4202FF
:101E400018BF7047002814BF20F0010041F10001C5
:101E50004FEA410313F5001F38BF7047A1F1C0419D
:101E600000F0CCBA012A43EB0302ACF1200CDCF108
:101E70001F0E32BF4FF0000E23FA0CF310EB0300DD
:101E800041EB0451B4EB115FD0D0A1EB045101F54B
:101E9000801149085FEA300001EB04510ED350F184
:101EA000000038BF12FA0EFE08D1BDE81040C9E7A5
:101EB000401C38BF5FEA4202CAD1C3E7BDE8104008
:101EC0004FEA410313F5001F38BF7047A1F1C0412D
:101ED00000F094BA9EEA445F08D011EA5E0FBDE8B4
:101EE000104004BF01F0004100207047BDE81040E1
:101EF00070B500F035FA00BF64FBBE3E0000E0FFA5
:101F00002DE9C04130B4DFF8A0C23CEA111418BF7B
:101F10003CEA131400F0EC8081EA03051CEA11147A
:101F200044EAD57418BF1CEA131500F0C780A4EB6F
:101F300005044FF0004545EAC12145EAC32341EAC3
:101F4000505143EA525304F17F74994204F500342E
:101F50004FEAC0204FEAC22208BF904200F09C80A6
:101F60004FEA13650FF24016765D4FEA134506FB04
:101F700005F7C7F1807706FB07F74FEAD737A7FBCE
:101F800003687642C8F58038A7FB06CE38BFA8F1B3
:101F9000010807FB08E64FF0000EA6FB028CE6FBEB
:101FA00003CEDCF1000CCEF1004E38BFAEF1010ED5
:101FB000A6FB0C584FF000074FF00005E6FB0E871C
:101FC000A1FB08C6A0FB07CE16EB0E0645F10005E7
:101FD000E1FB076515F1E04E7EBFA4F580345FEAB2
:101FE00046066D4116F1800745F100054FEA1727B7
:101FF0004FEA066647EA0567A6F1DE46B6F1805F5E
:102000004FEA15251FD9384624F0010C05EBC471A1
:10201000BCF1FE6F01EB0C1102D8F0BCBDE80081F1
:1020200024425CBF01F5801E9EEAC47F02D4F0BC4E
:10203000BDE80081244238D4F0BCA1F1C041BDE824
:10204000004100F0DBB94FEAD22242EA43524FEAA4
:10205000D323A7FB02864FEAD02040EA415007FB7A
:1020600003661EEA0E0F4FEAD12105FB026658BF38
:10207000A6EB0056B6EB00564FEA520E4EEAC37E70
:1020800018EB0E0E56EB530EBDD518EB02085E4151
:102090007F1C55F10005B6E74FF480154FF000079F
:1020A0004FF000064FF00008ADE7F0BC4FF0000025
:1020B00001F1C04101F00041BDE8008111EA0C1FAF
:1020C0000CEA131500D00CE013EA0C1F00F0258079
:1020D0004FF00000F0BC81EA030101F00041BDE8CF
:1020E0000081F0BCBDE8004181EA030100F086B93F
:1020F000F0BCBDE8004170B500F032F9097EFC3E4D
:1021000000F007B881EA03014FF0000001F0004140
:10211000704781EA030100F071B9F0BCBDE80041ED
:102120004FF0000021497047FFFDFBF9F7F5F4F28D
:10213000F0EEEDEBE9E8E6E4E3E1E0DEDDDBDAD862
:10214000D7D5D4D3D1D0CFCDCCCBCAC8C7C6C5C4C0
:10215000C2C1C0BFBEBDBCBBBAB9B8B7B6B5B4B3D7
:10216000B2B1B0AFAEADACABAAA9A8A8A7A6A5A4C2
:10217000A3A3A2A1A09F9F9E9D9C9C9B9A99999886
:102180009797969595949393929191908F8F8E8E29
:102190008D8C8C8B8B8A89898888878786858584B6
:1021A00084838382828181800000FF070000F87FA2
:1021B0004FEA1153A3F58063D3F11E03A8BFD3F1F7
:1021C000200C08DB4FF0004242EAC12252EA505292
:1021D00032FA03F0704709420BD4102BC4BF002021
:1021E000704703F5787CBCF1FF3F05D04FF0FF301E
:1021F00070474FF00000704770B500F0B1F800BFB5
:102200004992248000207047F0E70000DFF848C1C1
:1022100070B51CEA111E1EBF1CEA13159EEA0C0FB6
:1022200095EA0C0F00F06F8081EA030423EA4C1357
:102230004EEAD47E21EA4C1141F4801143F480131C
:10224000AE44A1FB024CA0FB0365AEF17F7E3619C4
:1022500055EB0C05A1FB034C4CF10003A0FB021C49
:1022600016EB0C06654153F10003094218BF46F016
:10227000010613F4007F0BD14FEA03314FEA05301A
:10228000340341EA155140EA16506FF003020AE0A8
:102290004FEAC3214FEAC520F40241EA555140EA12
:1022A00056506FF0020202EB2E4201EB025585EA16
:1022B000CE710AD05FEA440C18BF24F0004450F1FC
:1022C000000041F1000120EAD47040F2FE7C62453A
:1022D00000D270BDA84214BF4FF080444FF040447C
:1022E000002E08BF0024BEF1806FA8BFA1F1C0413D
:1022F000BDE8704080F282804FF0000001F1C041E3
:1023000001F0004170479EEA0C0F0CEA131518BF4C
:1023100095EA0C0F06D04FF0000081EA030E0EF094
:10232000004170BD00F01CF88900013E00F007B8C4
:1023300000F009B84FEA430C5FEA5C5C08D081EA20
:10234000030100F05BB84FEA410C5FEA5C5CF6D138
:102350004FF00000014970470000FF070000F87FC0
:102360000EF1020E2EF0030E5EF8046B364205D419
:10237000012A43EB030515F5001F12D8012841EB94
:10238000010C1CF5001F0CD80ED14FEAD17C15F5BD
:10239000001F0CEB4C0C0CF1020C08BF4CEBD37C77
:1023A00004E04FF0080C01E04FEAD37C0CEB4C0545
:1023B00026FA05F606F00706B6F1040C06D20EEB77
:1023C000860CBDE870404CF0010C6047DFE80CF073
:1023D000090B02024FF000414FF00000A1F500216F
:1023E00070BD19461046012851EB010418BFD4F501
:1023F000001484BF002001F0004170BD0808A0F562
:1024000000114FEA3101704791EA030F10B581F0D6
:1024100000413FF5D5AC83F0004300F009B800005F
:1024200010B591EA030F48BF83F000433FF5C8ACF5
:10243000841A71EB030C07D212198CF0004C43EB99
:102440000C03001B61EB0C01DFF8A4E14FEA11540F
:10245000A4EB135C1EEA430F18BF9EEA445F00F032
:10246000B08023EA6E03524221EA0451C3EB6E03AB
:1024700038BF5B1EDCF1200E25D322FA0CFE10EBD8
:102480000E0043FA0CFE41EB0E01CCF1200E03FAD4
:102490000EFE10EB0E0051F10001CCF1200E29D4FC
:1024A00012FA0EF201EB0451BDE8104058BF70471C
:1024B000401C1CBFB2F1004F704700280CBF491CE4
:1024C00020F00100704712EB020E43EB030218BF2D
:1024D0004FF0010E4EEA4202ACF1200CDCF11E0E70
:1024E00054D943FA0CFE10EB0E0051F1FF31CCF140
:1024F0001E0ED5D50EF1010E12FA0EFE404141EB33
:10250000010101EB445C5FEA5C5C10D910EBDE700A
:1025100001EB045138BFBEF1004FBDE8104018BFB9
:10252000704700280CBF491C20F00100704730D2D2
:102530004FEAD42C11F5001124F400641BD0B1FA39
:1025400081F20B3AA41AA41ED2F12003914030FA72
:1025500003F31943904001EBCC71002C01EB0451C3
:10256000BDE81040A8BF704701F1C0414FF0000026
:1025700001F000417047B0FA80F310FA03F100D186
:1025800010BDE41A173C4805C90AE4E701EB045101
:1025900010BD491001EB0451BDE810404FEA300076
:1025A00002E04FF0000170474A0008BF0042F8D037
:1025B000B2F5001F28BF704701F000414FF0000046
:1025C00070479EEA445F07D011EA5E0FBDE81040F5
:1025D00004BF002100207047BDE8104070B5FFF730
:1025E000BFFE00BF40DFF63E83F00041104670475B
:1025F0000000E0FF43004FEAD30C4FEA3C0C43409D
:102600001FBF40070CF1605113F0FE4F70471CF0E4
:10261000006F03D100200CF0004170470CF0004324
:1026200043EA507010B540EACC0000F03CFA00BF1D
:10263000000000924FEA0001FFF7E0BE4FF00041BA
:102640004FF00000A1F500217047000090EA010F53
:1026500048BF81F0004100F18282421A3CBF801ADB
:1026600089184FEAD0524FF07F4C1CEA410FA2EB81
:10267000D15318BF9CEA026F00F03B804FF0004C32
:102680004CEA00204CEA012121FA03FC10EB0C0C6F
:102690001ED202F1FF325FEA1C2040EBC25038BF6D
:1026A00070471CF07F0F4FEA400C18BFBCF17F4F02
:1026B00038BF7047C3F12003994008BF20F00100E4
:1026C000BCF17F4F38BF7047A0F1C04000F031BA75
:1026D0004FEA3C00000A40EBC25028BF1CF0FF0F3D
:1026E0004FEA400CE6D018BFBCF17F4F38BF7047AF
:1026F000EAE79CEA026F05D010EA5C0F08BF00F021
:102700000040704710B500F0CEF900BF64FBBE3E3C
:10271000401058BFC0F14040491058BFC1F140417E
:102720008142EFF3008070474FF47F0C1CEAD01217
:102730001EBF1CEAD11392EA0C0F93EA0C0F00F0B3
:10274000858090EA010F48BF42F4807240F4000C8B
:1027500041F400002CF07F4120F07F4000B5814221
:10276000A2EB03020FF2081CACEB504EC0F10000CC
:102770009EF800E04FEA4E0E00FB0EFC38BF490009
:102780004FEA2C1C02F5FA020CFB0EF34FEACE1EA8
:102790004FEA112C4FEAC1210EEB635E42EB22425D
:1027A0000EFB0CFC4FEA1C5300FB03114FEA112CEB
:1027B0004FEA01310EFB0CFC4FEADC4C00FB0C1124
:1027C000C14228BF09184CEB03335DF804EB10EB52
:1027D000410143EBC250B2F57C0F38BF704729D599
:1027E00012F0F00F1CBF00F1C04000F00040704735
:1027F000008182838485868788898B8C8D8E8F91DA
:102800009293959697999A9C9D9FA0A2A3A5A7A8FD
:10281000AAACAEB0B2B3B5B7B9BCBEC0C2C5C7C929
:10282000CCCED1D4D7D9DCDFE2E6E9ECF0F3F7FA8D
:10283000FE0000004FEA400C0CF1807CBCF17E4FA2
:1028400028BF7047B0F1C04000F073B990EA010FA3
:102850000CEAD11348BF42F48072624538BF634529
:1028600007D213F47F0F16D080EA010000F0004079
:10287000704710B500F017F9097EFC3E00F005B86E
:1028800080EA010000F00040704780EA010000F09B
:10289000004000F04EB912F47F0F04BF02487047A9
:1028A00080EA010000F045B90000C07F41000B0E36
:1028B000D3F19E0208D950F400034FEA032323FA10
:1028C00002F048BF4042704710B500F0ECF800BF7E
:1028D00049922480002070476FF0004282EA200075
:1028E0007047000010F0004148BF4042B0FA80F34A
:1028F00010FA03F2C3F19D030BD051EAC35101EB6F
:102900001220530638BF704700F1010008BF20F0C5
:1029100001007047B0FA80F310FA03F2C3F19D038F
:102920000AD0D90501EB1220530638BF704700F1D9
:10293000010008BF20F001007047000050EA010CC0
:1029400000F113801CF5000F58BFBCF5000F01D437
:102950008842704707D710F5000F58BF11F5000FD8
:1029600015D488427047894270471CF5000F04D582
:10297000BCF5000FF7D5814270474FF0807C1CEB0F
:10298000400F38BF1CEB410F01D28142704710B598
:1029900000F089F8922449004FF000504FF0805128
:1029A000FFF7B6BE4FF47F0C1CEAD0121EBF1CEA24
:1029B000D11392EA0C0F93EA0C0F00F0478090EAD3
:1029C000010F48BF42F480724FF0004C4CEA0020E7
:1029D0004CEA012102EB0302A0FB0113A2F5000265
:1029E000002918BF43F001035B0028BF4FEA3303FF
:1029F00042EB22425FEA132C4CEBC2502EBFBCEBE1
:102A0000436FB2F57C0F70474FEA036CBCF1004F87
:102A100008BF20F00100B2F57C0F38BF70470BD51E
:102A200082F0FF0212F5803FC8BF704700F1C0403E
:102A3000D8BF00F00040704700F5000C5FEA4C0C76
:102A400048BF7047B0F1C04000F073B890EA010F82
:102A50000CEAD11348BF42F48072624538BF634527
:102A600004D280EA010000F00040704710B500F089
:102A70001AF800BF8900013E00F007B800F009B85D
:102A80005FEA410C5FEA1C6C08D080EA010000F0AC
:102A900050B85FEA400C5FEA1C6CF6D14FF0004082
:102AA000A0F5800070470EF1020E2EF0030E5EF8C6
:102AB000044B244204D44FEA4102B2F17F4F11D8B3
:102AC0004FEA4003B3F17F4F0CD80ED14FEAD07CD0
:102AD000B2F17F4F0CEB4C0C0CF1020C08BF4CEB2D
:102AE000D17C04E04FF0080C01E04FEAD17C0CEB04
:102AF0004C0324FA03F404F00704B4F1040C06D2E6
:102B00000EEB840CBDE810404CF0010C6047DFE890
:102B10000CF0070802024FF00040A0F5800010BD45
:102B20000846420018BFD2F1807288BF00F0004012
:102B300010BDFF2141EAD050C005704780F0004031
:102B400090EA010F7FF589AD81F0004100F007B8F0
:102B500090EA010F48BF81F000413FF57EAD421A77
:102B600004D882F00042A0EB020011444FEAD05298
:102B70004FF07F4C1CEA410FA2EBD15318BF9CEAE7
:102B8000026F4AD04FF0004C4CEA00204CEA012181
:102B900021FA03FCB0EB0C0C0FD412F0FE0F36D070
:102BA0005FEA4C001DD5001240EBC25038BF7047A1
:102BB0001CF03F0F18BF70470BE0A2F101025FEA63
:102BC0001C2040EBC25038BF70471CF07F0F18BF6D
:102BD0007047C3F12003994014BF401E20F001004C
:102BE000704780084FEA122308BF7047B0FA80FC94
:102BF000A2EB0C02CCF1280C60FA0CF093EA122F35
:102C000004BF00EBC25070474FEAC3707047130A0D
:102C10005FEADC1008BF7047F6E79CEA026F04D059
:102C200010EA5C0F08BF0020704710B5FFF73BFFAC
:102C300040DFF63E81F00040704700005C2C000849
:102C4000000000203C0000006C010008982C0008E7
:102C50003C000020BC0600008801000800000000C5
:102C60000000000000366E010000000000000000BF
:102C7000010203040607080900000000000000002C
:102C8000000000000001020304010203040607081B
:082C900009020406080000001F
:0400000508000131BD
:00000001FF
