:020000040800F2
:10000000F80400209D010008F3250008572400088B
:10001000F1250008990800082D2E000800000000B6
:10002000000000000000000000000000C9280008D7
:100030009B0800080000000015260008CB280008D7
:10004000B7010008B7010008B7010008B7010008B0
:10005000B7010008B7010008B7010008B7010008A0
:10006000B7010008B7010008B7010008B701000890
:10007000B7010008B7010008B7010008B701000880
:10008000B7010008B7010008B7010008B701000870
:10009000B7010008B7010008B7010008B701000860
:1000A000B7010008B7010008B7010008B701000850
:1000B000B7010008B7010008B7010008B701000840
:1000C000B7010008B7010008B7010008B701000830
:1000D000B7010008B7010008B7010008212E000889
:1000E000B7010008B7010008B7010008B701000810
:1000F000B7010008B7010008B7010008B701000800
:10010000B7010008B7010008B7010008B7010008EF
:10011000B7010008B7010008B7010008B7010008DF
:10012000B7010008B7010008B7010008B7010008CF
:10013000B7010008B7010008B7010008B7010008BF
:10014000B7010008B7010008B7010008B7010008AF
:10015000B7010008B7010008B7010008B70100089F
:10016000B7010008B7010008B7010008B70100088F
:10017000B7010008B7010008B7010008000000003F
:10018000B7010008B7010008DFF80CD000F014FB3D
:100190000048004749370008F80400200648804717
:1001A00006480047FEE7FEE7FEE7FEE7FEE7FEE75C
:1001B000FEE7FEE7FEE7FEE7812900088901000867
:1001C0002DE9F05F0546002092469B46884606468C
:1001D000814640241BE0284641464746224600F01F
:1001E000F9F853465A46C01A914110D311461846A1
:1001F000224600F0E0F82D1A67EB01084F46224630
:100200000120002100F0D7F817EB00094E41201E15
:10021000A4F10104DFDC484631462A46434600F09B
:1002200000B830BCBDE8C09F2DE9FE4F81EA030451
:1002300004F0004421F0004100944FF0000B23F043
:10024000004350EA01045ED052EA03045BD0C3F3DA
:100250000A54C1F30A552C44A4F2F3340194A0FBD0
:100260000254C1F3130141F48011C3F3130343F4A7
:10027000801301FB024400FB034E840A970A44EA00
:10028000815447EA8357A4FB076802958D0A05FB52
:1002900007854FEA932C04FB0C542705029D4FEA77
:1002A000065847EA1637B5EB08056EEB070C870EC4
:1002B000920E47EA811742EA8312A7FB0201B6EBCE
:1002C0000B0164EB00042B0D43EA0C335E1844EB86
:1002D0001C50DA465146E7FB0201C5F313044FEA0E
:1002E0000B3343EA14534FEA0432019C43EA0603FA
:1002F000A4F10C040294009CCDE900B400F0C0F815
:1003000003B000F003B800200146F9E730BCBDE8B7
:10031000C08F0EB540F2334102910021CDE90011AA
:100320000A460B4600F0ACF803B000BD00F00042F6
:1003300030F000400AD0C10D01F56071C0F3160025
:1003400042EA0151C20840071143704700200146AC
:10035000704701F0004330B421F0004150EA01023F
:1003600006D00A0DA2F56072C1F31301002A02DC67
:1003700030BC00207047440F44EAC104C100E018BB
:1003800030BC00EBC25000F035B830B50B4601462A
:1003900000202022012409E021FA02F59D4205D324
:1003A00003FA02F5491B04FA02F52844151EA2F1CE
:1003B0000102F1DC30BD202A04DB203A00FA02F110
:1003C000002070479140C2F1200320FA03F3194343
:1003D00090407047202A04DB203A21FA02F00021E5
:1003E000704721FA02F3D040C2F120029140084345
:1003F000194670470029A8BF7047401C490008BF34
:1004000020F00100704710B4B0FA80FC00FA0CF044
:1004100050EA010404BF10BC704749B1CCF120047C
:1004200021FA04F411FA0CF118BF01212143084309
:10043000A3EB0C01CB1D4FEA00614FEA102042BF35
:10044000002010BC704700EBC35010440029A4BF2B
:1004500010BC7047401C490008BF20F0010010BCD0
:10046000704710B5141E73F1000408DA401C41F106
:10047000000192185B411A4301D120F0010010BD28
:100480002DE9F04D92469B4611B1B1FA81F202E09E
:10049000B0FA80F220329046FFF78DFF04460F46F7
:1004A00040EA0A0041EA0B0153465A46084313D07A
:1004B000114653EA010019D0C8F140025046FFF737
:1004C00089FF05460E46504659464246FFF773FFE0
:1004D000084305D0012004E020463946BDE8F08DF0
:1004E0000020054346EAE0762C4337430A9863052B
:1004F000E40AA0EB08000022FD0A44EA47540A304F
:1005000002D500200146E9E7010510196941DDE93E
:10051000084500196941BDE8F04DA2E72DE9FE4FFD
:10052000804681EA0300C00F0C46009021F0004194
:1005300023F00045B8EB0200A94105D24046214610
:1005400090461C460B46024623F00040104347D01D
:10055000270DC7F30A00C3F30A510290401A019015
:1005600040286BDAC3F3130040F4801B00989246D6
:1005700020B10023D2EB030A63EB0B0B0198594621
:10058000C0F140025046FFF716FF06460D465046A2
:100590005946019A00F022F910EB0800614100244D
:1005A00087EA115284EAE7731A4340D0009A62B393
:1005B000019A012A4FEA075215DC001B61EB020188
:1005C0004FF0004202EA0752CDE90042001C41F51B
:1005D000801132462B46FFF753FF03B000F045B8B9
:1005E00040462146F9E7001B61EB0201001C41F582
:1005F000801300185B412018A2F5001747EB030198
:1006000040EAD570B6196D4111E06D084FEA360623
:1006100045EAC0754FEA0752001B61EB0201001C5E
:1006200041F5801149084FEA300000195141324626
:100630002B4603B000F01CB8FFF713BF009801224F
:1006400040000023D0EB020263EBE07300982146E8
:100650004FEAE074B8EB000061EB0401E9E783F0D6
:1006600000435BE781F0004158E730BCBDE8C08F34
:1006700030BCBDE8C04FFFF7DFBF2DE9F04D81EA88
:10068000030404F0004B21F0004514464FF0000A2B
:1006900023F0004150EA050220D054EA01021DD0A7
:1006A000C5F30A570246C5F31303C1F31300C1F3A0
:1006B0000A5640F4801543F48013A7EB0608101B7C
:1006C000D64608F2FD3873EB050002D308F10108A5
:1006D00001E092185B41B8F1000F03DA00200146F7
:1006E000BDE8F08D00204FF48011064684460EE0F0
:1006F000171B73EB050705D3121B63EB05030643BA
:100700004CEA010C49084FEA300092185B4150EA6C
:100710000107EDD152EA030012D082EA040083EA15
:100720000501084305D0101BAB4106D2012200236E
:1007300006E000224FF0004302E06FF00102531088
:100740001AEB06004CEB085110EB0A0041EB0B01D1
:10075000BDE8F04DFFF785BEC1F30A52C1F31301A6
:1007600040F2FF3341F480119A4202DA0020014640
:10077000704740F233439A42A2F2334202DC5242C3
:10078000FFF728BEFFF717BE30B5041E71F1000455
:1007900004DB4FF00044404264EB0101141E73F18E
:1007A000000405DB1C464FF00043524263EB040398
:1007B000994208BF904230BD064C074D06E0E06804
:1007C00040F0010394E8070098471034AC42F6D398
:1007D000FFF7DEFC5438000874380008202A06DBD6
:1007E000CB17203A41FA02F043EAE07306E041FAFF
:1007F00002F3D040C2F120029140084319467047ED
:10080000F8B50446002000902068816801F00301DB
:10081000012902D10168C90735D181681B4A1142FB
:1008200022D18168D5432940491C81601848194963
:100830000068B0FBF1F000EB8000400000E0401EDB
:1008400000900028FBD100F045FE064616E08168C6
:1008500011F0010F03D181682940491C816000F02B
:1008600039FE801B022809D9A06D40F01000A06558
:10087000E06D40F00100E0650120F8BD20680168EE
:10088000C943C907E3D10020F8BD00003F00008044
:100890000C00002080841E00FEE77047F0B504467F
:1008A00090F8540000269BB00D4601280DD0012081
:1008B00084F85400324920680027884208D1314921
:1008C000009101F0D3FD58B10EE002201BB0F0BD45
:1008D000A06D40F02000A06584F854700120F5E779
:1008E000009801F0C3FD48B1A06D40F02000A06564
:1008F0005FF0010684F854703046E7E722482A6822
:1009000040F61F71002A826822F460421FD0636B98
:1009100042EA43326B681A4382602268936803F0AC
:100920000303012B02D11268D207E3D1009A926827
:1009300002F00302012A03D1009A1268D207D9D12A
:10094000AB682A681A4383688B431A4315E08260B8
:100950002268936803F00303012B02D11268D207C7
:10096000C8D1009A926802F00302012A03D1009ACA
:100970001268D207BED182688A438260BAE700005B
:100980000000045000010450000304502DE9F84316
:1009900000250446009590F85400DFF870840E4658
:1009A000A946012807D0012784F85470206801F077
:1009B00059FD18B1E5E10220BDE8F883706805280B
:1009C00012D8022807D0032807D0042807D005280A
:1009D00007D0062007E00C2005E0122003E01820D5
:1009E00001E04FF480707060B1884FF4407C01F4F6
:1009F00040739CFAACFCBCFA8CFC206823FA0CF324
:100A000000EB8300326801F01F014FF01F0C0CFA5D
:100A100001FC036BC2F3846223EA0C038A40134394
:100A200003632068816811F00C0F1CD1B268316833
:100A300001F020FD20687169C268C2F3C102520052
:100A400091403269042A0FD000EB82003368DFF84E
:100A5000C0C3026E03F0F84302EA0C020B431A43D0
:100A600042F00041016672E0002101F0F5FC400314
:100A700020684FF0000173D001F0EEFC90FAA0F076
:100A8000B0FA80F1306842036FD090FAA0F0B0FA6B
:100A900080F0814204D100221146206801F00DFD52
:100AA0000121206801F0D8FC400320684FF00101CB
:100AB0005ED001F0D1FC90FAA0F0B0FA80F130687D
:100AC00042035AD090FAA0F0B0FA80F0814204D1EB
:100AD00000220121206801F0F0FC0221206801F0D1
:100AE000BBFC400320684FF0020149D001F0B4FC88
:100AF00090FAA0F0B0FA80F13068420345D090FA45
:100B0000A0F0B0FA80F0814204D1002202212068D6
:100B100001F0D3FC0321206801F09EFC4003206813
:100B20004FF0030134D001F097FC90FAA0F0B0FA36
:100B300080F13068420330D090FAA0F0B0FA80F033
:100B4000814204D100220321206801F0B6FC206814
:100B5000816801F00301012925D121E000E004E0D2
:100B600001F07AFCC0F384618CE7C0F3846090E705
:100B700001F072FCC0F38461A1E7C0F38460A5E7D3
:100B800001F06AFCC0F38461B6E7C0F38460BAE7A1
:100B900001F062FCC0F38461CBE7C0F38460CFE76F
:100BA0000168C9077ED1327B316850F8B03FC1F38C
:100BB000120C23EA0C0302F0200C4FF0FF3202FA71
:100BC0000CF20A40C2F312010B430360F168414585
:100BD0006CD13068410318D090FAA0F1B1FA81F1DC
:100BE000491C09294FEA40312ED8002910D000BFF6
:100BF00090FAA0F1B1FA81F101F1010107FA01F7D0
:100C000009D100BFC0F3846109E0C0F38461E7E764
:100C1000C0F38461F0E790FAA0F1B1FA81F101F13B
:100C2000010147EA816102D1C0F3846003E090FAD8
:100C3000A0F0B0FA80F000EB40004FF4401202EB5D
:100C4000005041EA00012AE000290CD090FAA0F1FE
:100C5000B1FA81F101F1010107FA01F706D100BFF4
:100C6000C0F3846106E0C0F38461F3E790FAA0F179
:100C7000B1FA81F101F1010147EA816102D1C0F3CA
:100C8000846003E090FAA0F0B0FA80F0614A00EBD3
:100C9000400002EB005041EA000141F00071B268EF
:100CA000206801E072E001E001F0E4FB33685A4E95
:100CB0005A4FDFF86C815B49B34204D1886800F079
:100CC000E07000020DD5BB4204D1886800F0E070EE
:100CD000C00106D5434559D1886800F0E070400254
:100CE00054D42268906800F00300012802D11068F3
:100CF000C00746D14C48824215D1D0F808C10CF04B
:100D0000030CBCF1010F04D1D0F800C15FEACC7C28
:100D100037D1D0F808C20CF0030CBCF1010F39D167
:100D2000D0F800C22AE0DFF804C16245D0F808C05C
:100D30000CF0030C11D1BCF1010F04D1D0F800C0AC
:100D40005FEACC7C1DD1D0F808C20CF0030CBCF1DA
:100D5000010F0AD1D0F800C204E0BCF1010F04D1A8
:100D6000D0F800C05FEACC7C0BD1D0F808C10CF001
:100D7000030CBCF1010F0DD1D0F800C15FEACC7CAF
:100D800008D0A06D40F02000A065012584F85490A3
:100D9000284611E6DFF898C0B3421BD1824201D049
:100DA0006245F3D188688A6800F0E07040F4000082
:100DB00022F0E07202438A601E481F490068B0FBBF
:100DC000F1F0C0EB0010C00000E0401E00900028D1
:100DD000FBD1DBE7BB4209D1824201D06245D5D1CC
:100DE000886800F0E07040F0807008E04345CDD1A5
:100DF0008242CBD1886800F0E07040F480008A68BD
:100E000022F0E07202438A60C0E7000000007F40E9
:100E100000F0FF03000050FE000052C7000084CB2A
:100E20000100008000030450000004500001045041
:100E3000000204500C00002080841E00806D70476A
:100E40000068006C70470000F8B54FF00005040022
:100E50002E46009502D0A06D10B107E00120F8BD2C
:100E6000204600F0FDF8E66584F85460206881684B
:100E7000C1F3407119B18168704A114081602068E6
:100E80008168C1F3007191B981686D4A114041F0E8
:100E9000805181606B486C490068B0FBF1F000EB59
:100EA0008000400000E0401E00900028FBD1206838
:100EB0008168C1F3007141B9A16D41F01001A165D4
:100EC000E16D41F00101E1650125A16DC90602D482
:100ED00001F0C8FA30B1A06D40F01000A065012506
:100EE0002846F8BDA06D20F4807040F00200A06597
:100EF0002168886800F00300012802D10868C00753
:100F00003FD15248814212D1D0F8081101F00301BB
:100F1000012903D1D0F80011C90732D1D0F8081245
:100F200001F00301012925D1D0F8000220E0484A50
:100F30009142816801F003010DD1012902D10168BC
:100F4000C9071ED1D0F8081201F00301012907D109
:100F5000D0F8001202E0012902D10168C90710D1BE
:100F6000D0F8081101F00301012903D1D0F80001E4
:100F7000C00706D1374960688A6822F47C120243B0
:100F80008A60E168A06BE2690843A16841EA4231E6
:100F90000843616A40EA0140012904D1218D2E4AAB
:100FA00002EB41410843E16A29B101F47071226BFF
:100FB000014342EA01002268D168284B19400143ED
:100FC000D1602068816811F00C0F12D1A169626BA9
:100FD000890341EA4202C16844F202039943114382
:100FE000C160E06B01280CD02068016921F001018B
:100FF0000161206901282068016B21F00F0111D0E7
:1010000013E0D4E910010843D4E912121143084354
:1010100021680A6940F2FC739A43104340F00100D2
:101020000861E6E7226A521E11430163A06D20F0B9
:10103000020040F00100A06552E70000C0FFFF5F22
:10104000C0FFFF7F0C00002080841E0000000450C1
:1010500000010450000304500000FEFF07C0F0FF31
:1010600008B500680649884208D10648C16C41F4B9
:101070000051C164C06C00F40050009008BD000035
:1010800000000450001002402DE9F0410446406980
:10109000444D0F46082822D02068A84202D0424979
:1010A00088421ED1D5F80813C9061AD0D5F80813FE
:1010B00001F01F01052914D0D5F8081301F01F0114
:1010C00009290ED0D5F80803C0F3813002280BD0CF
:1010D000D5F80803C0F38130032805D00BE00826BB
:1010E0000AE0C068C00706D0A06D40F02000A065EF
:1010F0000120BDE8F081042600F0ECF9804611E003
:10110000781C0FD02FB100F0E5F9A0EB0800B84231
:1011100008D9A06D40F00400A065002084F85400B8
:101120000320E6E7206800683042E9D0A06D40F473
:101130000070A0652068C16811F4406F0FD1E169AB
:1011400069B9016809070AD5A16D21F48071A1650B
:10115000A16DC90403D4A16D41F00101A165A842AC
:101160001BD01249884218D0D5F80813C90614D0EC
:10117000D5F8081301F01F0105290ED0D5F8081382
:1011800001F01F01092908D0E968082E07D0490499
:1011900001D40C2101600020ABE7C168F5E708210C
:1011A000F8E7000000000450000104500002045061
:1011B00070B50446006801F055F910B102221046DE
:1011C00070BD94F8540001280CD0012084F854001C
:1011D0002046FFF715FB02004FF0000104D084F811
:1011E0005410ECE7022070BDA06D40F601639843F7
:1011F00040F48070A06527482368274D834205D0BE
:10120000AB4203D0D0F80863F60603D1A66D26F4EE
:101210008016A665A66DF60404D5E66D26F00606D2
:10122000E66500E0E1651C261E6084F85410216824
:1012300081421FD0A9421DD0D0F80833DB0619D057
:10124000D0F8083303F01F03052B13D0D0F8083370
:1012500003F01F03092B0DD0A16D41F48011A1658E
:10126000C0688001ABD5A06D20F4005040F48050E0
:10127000A065A4E7C868800105D5A06D20F40050E2
:1012800040F48050A0658868044B1840001D8860B9
:1012900095E700000000045000020450C0FFFF7FEB
:1012A00010B590F825100024022903D00421C16351
:1012B000012418E001680A6822F00E020A60016841
:1012C0000A6822F001020A6090F84420036C0121B0
:1012D00001FA02F25A6080F82510002180F82410EB
:1012E000816B01B18847204610BD70B5044600F0FF
:1012F000F1F80546601C00D0641C00F0EBF8401BC0
:10130000A042FAD370BD00002DE9F84FDFF898B184
:1013100000234FF0010C4FF0030A4FF00F090BF1BF
:10132000040EB9E00CFA03F4224070D04D68022D8F
:1013300001D0122D0ED1DD0800EB8508D8F8205021
:101340005E07F70E09FA07F6B5430E69BE402E4355
:10135000C8F8206007685E0091F804800AFA06F574
:1013600008F00308AF4308FA06F848EA0708C0F88F
:1013700000804F68012F05D0022F03D0112F01D01C
:10138000122F13D1D0F80880CF6828EA0508B7409B
:1013900047EA08078760D0F804800F7928EA040834
:1013A000C7F300179F4047EA08074760D1F8048059
:1013B0006FEA0807BF0706D1C76AA743C8F3C0048E
:1013C0009C403C43C462C468AC438D68B54025432F
:1013D000C5604C68E4005ED5344C256E45F00105CF
:1013E0002566246E23F0030504F001040094304CBC
:1013F0002E19B4689D072F0F09FA07F5AC43B0F119
:10140000904F05D02B4DA84204D101251CE042E0AD
:10141000002519E0284DA84201D1022514E0274DEE
:10142000A84201D103250FE0254DA84201D1042592
:101430000AE0244DA84201D1052505E0224DA8422D
:1014400001D1062500E00725BD402543B560DBF846
:1014500000405D464E689443F60300D514432C606B
:10146000DEF8004075464E689443B60300D5144339
:101470002C600D4D08352C684E689443F60200D55B
:1014800014432C60084D0C352C684E689443B6020A
:1014900000D514432C605B1C0A6832FA03F57FF414
:1014A00041AF00F013B800000004014000100240FA
:1014B000000001400004004800080048000C0048FB
:1014C00000100048001400480018004818BCBDE88F
:1014D000E08F00000148006870470000080000200D
:1014E00002480168491C01607047000008000020A4
:1014F00010B5032000F088F8002000F005F800F097
:1015000017F8002010BD000010B5044607484FF43E
:101510007A710068B0FBF1F000F01FFE0022214656
:10152000501E00F051F8002010BD00000C000020FB
:101530001E4808B5016E41F001010166016E01F01F
:1015400001010091816D41F080518165806D00F055
:1015500080500090032000F057F8002211466FF0F1
:101560000B0000F031F8002211466FF00A0000F085
:101570002BF8002211466FF0090000F025F8002238
:101580001146501F00F020F800221146101F00F0F5
:101590001BF800221146901E00F016F80022BDE84C
:1015A00008401146501E00F00FB800000010024025
:1015B00000F01F02012191404009800000F1E0206D
:1015C000C0F8001170470000F0B40E4B1B680C46C9
:1015D000C3F30223C3F10705042D00D90425191D07
:1015E000072901D2002300E0DB1E012606FA05F1DF
:1015F000491E214099409E40761E16403143F0BC62
:1016000000F0F8BF0CED00E0064900F007020868A2
:101610004FF6FF03184040EA0220034A10430860D7
:10162000704700000CED00E00000FA051549B0F528
:10163000007F0868C0F3412009D0022805D008685F
:1016400020F4C06040F480600860002070470128EA
:10165000FBD0086820F4C06040F4007008600A48BD
:101660000A4A0068B0FBF2F03222504300E0401E0C
:1016700010B14A695205FAD448694005E5D50320FE
:1016800070470000007000400C00002040420F0036
:101690000248006800F4C06070470000007000401D
:1016A0002DE9F84F044600270088E54D3E46010528
:1016B00004F1200B1DD5606E78B1B0F5800F11D00C
:1016C000B0F5000F04D0B0F5400F22D001270FE095
:1016D000E86840F48030E8601BE00021201D00F045
:1016E0009BFF03E00021584601F02CF8070010D0C2
:1016F0003E462088C00426D5A06EC0B1B0F1807FE0
:101700001AD0B0F1007F0DD0B0F1407F19D0012781
:1017100018E0D5F88800616E20F440000843C5F851
:101720008800E6E7E86840F48030E86009E00021DE
:10173000201D00F071FF03E00021584601F002F87F
:101740000746F7B13E46206880033AD5A86D4FF0B2
:101750000008C00009D4A86D40F08050A865A86DAD
:101760004FF0010800F080500090DFF8D8A2DAF8BE
:10177000001041F48071CAF80010FFF7ABFE8146FB
:1017800010E0D5F88800A16E20F040700843C5F83D
:101790008800D8E7FFF79EFEA0EB0900022801D9D8
:1017A000032705E0DAF80000C005F3D5002F7CD050
:1017B0004FEA0706B8F1000F03D0A86D20F0805063
:1017C000A8652078C00707D0D5F88800A16B20F065
:1017D00003000843C5F888002078800707D5D5F8AE
:1017E0008800E16B20F00C000843C5F888002078E1
:1017F000400707D5D5F88800216C20F03000084359
:10180000C5F888002078000707D5D5F88800616CF6
:1018100020F0C0000843C5F888002078C00607D52E
:10182000D5F88800A16C20F440700843C5F8880002
:101830002078800607D5D5F88800E16C20F4406058
:101840000843C5F888002088800507D5D5F88800AA
:10185000E16D20F440200843C5F888002088400549
:1018600007D5D5F88800216E20F440100843C5F84C
:1018700088002078400607D5D5F88800216D20F42F
:1018800040500843C5F888002078000607D5D5F8F1
:101890008800616D20F440400843C5F88800208826
:1018A000C00509D5D5F8880000E01CE0A16D20F442
:1018B00040300843C5F8880020884FF00067800456
:1018C0004FF080684FD5D5F88800E16E20F0406079
:1018D0000843C5F88800E06EB8423CD1E86840F49F
:1018E0008010E8603FE0D5F8900010F4407015D00B
:1018F000D4F88410814211D0D5F89000D5F890101A
:1019000020F4407041F48031C5F89010D5F8901063
:1019100021F48031C5F89010C5F89000C00710D0B0
:10192000FFF7D8FD074641F2883906E0FFF7D2FD00
:10193000C11B494501D903263CE7D5F89000800733
:10194000F4D5D5F89000D4F8841020F44070084302
:10195000C5F890002EE7404505D10121201D00F07B
:101960005BFE00B106462068000317D5D5F8880055
:10197000216F20F040600843C5F88800206FB8420E
:1019800004D1E86840F48010E86007E0404505D1E4
:101990000121201D00F040FE00B1064620684003F2
:1019A00017D5D5F88800616F20F040600843C5F86E
:1019B0008800606FB84204D1E86840F48010E860A5
:1019C00007E0404505D10121201D00F025FE00B1B2
:1019D0000646208840041AD5D5F88800A16F20F06B
:1019E00040500843C5F88800A06FB0F1805F03D075
:1019F000B0F1005F05D00AE00221201D00F00CFECE
:101A000003E00221584600F09DFE00B10646208802
:101A1000000407D5D5F88800E16F20F08040084326
:101A2000C5F888002068C00307D555F8880FD4F89A
:101A3000801020F0004008432860304600F004B8D1
:101A4000001002400070004018BCBDE8E08F0000AC
:101A50002DE9F047DFF8608105460E46D8F8000012
:101A600000F00700B0420CD2D8F8001021F00701B6
:101A70003143C8F80010D8F8000000F00700B04269
:101A800075D128784D4CC00757D06868032818D006
:101A9000022819D02168D0B14905002967DAA16868
:101AA00021F003010143A160FFF714FD69680746B7
:101AB00041F28830032913D002291FD0814651B347
:101AC00036E021688901E8E721688903E5E78907AD
:101AD000E3E700BFFFF7FEFCC11B494501D924E045
:101AE0008146A068C0F381000328F3D125E000BF40
:101AF000FFF7F0FCC11B494501D916E08146A068FB
:101B0000C0F381000228F3D117E000BFFFF7E2FC29
:101B1000C11B494509D8A06810F00C0FF6D10CE0A4
:101B2000FFF7D8FCC11B494502D90320BDE8F08767
:101B3000A068C0F381000128F2D12878800705D57C
:101B4000A068A96820F0F0000843A060D8F8001051
:101B5000404601F00701B1420BD9016821F00701AD
:101B600031430160006800F00700B04201D001205D
:101B7000DCE72878400705D5A068E96820F4E06034
:101B80000843A0602878000706D5A068296920F4DA
:101B9000605040EAC100A06000F03CF8A168084A2B
:101BA000C1F30311515CC840064908600020FFF7EB
:101BB000ABFC0020BAE70000002002400010024009
:101BC0000C3800080C000020014800687047000035
:101BD0000C0000200448054900688968044AC1F3E4
:101BE0000221515CC84070470C00002000100240E8
:101BF0004C3800080448054900688968044AC1F364
:101C0000C221515CC84070470C0000200010024007
:101C10004C38000830B52D49002318468A682C4CF2
:101C200012F00C0F4FEA640514D08A68C2F38102E7
:101C3000032A04D1CA6802F00302012A0AD08A6882
:101C4000C2F38102012A19D08A68C2F38102022AF2
:101C500016D016E00A68120704D4D1F89420C2F313
:101C6000032202E00A68C2F303121A4B53F822302F
:101C70008A6812F00C0F04D1184602E0204600E0FA
:101C800028468A68C2F38102032A1DD1C868CA683F
:101C900000F00300C2F30212521C022804D00328F1
:101CA00005D0B3FBF2F004E0B4FBF2F001E0B5FBC9
:101CB000F2F0CA68C968C2F306225043C1F3416119
:101CC000491C4900B0FBF1F030BD0000001002409B
:101CD0000024F4001C3800082DE9F843044600787D
:101CE000FE4DC0065DD5A86810F00C0F0AD0A069A3
:101CF0000028286871D040F001002860FFF7EAFB57
:101D0000064654E02868800702D5A06900287DD0E7
:101D1000216A2868000703D5286800F0F00004E075
:101D2000D5F89400F02202EA1010814216D9084634
:101D300000F08CFD002869D1286840F00800286078
:101D40002868216A20F0F000084328606868E1698B
:101D500020F47F4040EA0120686015E0286840F0E8
:101D6000080028602868216A20F0F00008432860F5
:101D70006868E16920F47F4040EA01206860206AD9
:101D800000F064FD0028D6D1FFF744FFA968D44ACB
:101D9000C1F30311515CC840D24908600020FFF72D
:101DA000B3FB29E0FFF796FB801B02287ED828684A
:101DB0008007F7D5286840F0080028602868216A65
:101DC00020F0F000084328606868E16920F47F4053
:101DD00040EA012068600FE0FFE720F00100286082
:101DE000FFF778FB064604E0FFF774FB801B022830
:101DF000DCD828688007F7D42078C0074AD0A868C4
:101E0000C0F3810002281FD0A86800E098E0C0F36A
:101E10008100032803D1E868C043800714D06068BC
:101E2000B0F5803F17D0B0F5A02F286817D020F468
:101E300080302860286820F4802028606068E0B145
:101E4000FFF748FB064614E02868800322D5606847
:101E5000002875D01EE0286840F48030EDE740F49B
:101E600080202860F7E700BFFFF734FB801B642861
:101E70009CD828688003F7D50CE0FFF72BFB0646BB
:101E800005E000BFFFF726FB801B64288ED828687A
:101E90008003F7D42078800742D5A868C0F381007A
:101EA000012816D0A868C0F3810000E0A9E003284B
:101EB00004D1E86800F0030002280AD0E068002896
:101EC00028681DD040F480702860FFF703FB0646A9
:101ED0000BE0286840050BD5E0680028B9D007E082
:101EE000FFF7F8FA801B0228C2D828684005F7D50A
:101EF0006868217C20F0F85040EA016068600FE0DB
:101F000020F480702860FFF7E5FA064605E000BF80
:101F1000FFF7E0FA801B022873D828684005F7D441
:101F20002078000729D560690028D5F8940013D0DF
:101F300040F00100C5F89400FFF7CCFA064606E031
:101F4000FBE000BFFFF7C6FA801B022859D8D5F87E
:101F500094008007F6D510E020F00100C5F8940049
:101F6000FFF7B8FA064604E0FFF7B4FA801B022830
:101F700047D8D5F894008007F6D42078400763D579
:101F8000A86D0026C00008D4A86D40F08050A86558
:101F9000A86D012600F08050009053480168C905E3
:101FA00011D40168804641F480710160FFF792FA14
:101FB000074604E0FFF78EFAC01B022821D8D8F8A4
:101FC0000000C005F6D5A068012815D00528D5F871
:101FD000900017D020F00100C5F89000D5F89000CF
:101FE00020F00400C5F89000A06841F28838C8B11C
:101FF000FFF770FA074610E0D5F8900040F00100B6
:10200000F0E777E040F00400C5F89000F4E700BF87
:10201000FFF760FAC11B41456CD8D5F890008007E6
:10202000F6D50CE0FFF756FA074604E0FFF752FA40
:10203000C11B414579D8D5F890008007F6D41EB170
:10204000A86D20F08050A865A06AE0B3A968C1F32C
:102050008101032972D00228286820F0807028604E
:1020600011D02868000106D42868800003D4E868ED
:1020700020F00300E860E8681C490840E860FFF7CA
:1020800029FA044654E0FFF725FA064605E000BFAA
:10209000FFF720FA801B022847D828688001F7D470
:1020A000206BE16A000110380843616BA26B0902E2
:1020B000120941EA42410843A18F0D4A490802EB47
:1020C0004151084300E036E094F8401049081201FD
:1020D00002EB41610843E86028680CE00010024010
:1020E0000C3800080C00002000700040FFFFEEFEDE
:1020F0000000E0FF19E040F080702860E86840F0E0
:102100008070E860FFF7E6F9044604E0FFF7E2F9C3
:10211000001B022809D828688001F7D50BE000BF12
:10212000FFF7D8F9001B022802D90320BDE8F88385
:1021300028688001F4D40020F8E7FFE70120F5E7E4
:102140004FF0E0210428086903D020F00400086162
:10215000704740F00400FAE7704710B5401EB0F138
:10216000807F01D3012010BD4FF0E02460610F217A
:10217000601700F03FFA0020A061072020610020D6
:1021800010BD10B5FFF7E8FF10BD704770470000A5
:102190002DE9F04102680446D0691168936810F097
:1021A0000F0F4FF000055BD003F0010601F49077AC
:1021B000374369D0C70707D0CF0505D50127176278
:1021C000626F42F001026267820708D5DA0706D023
:1021D000276802223A62626F42F004026267420795
:1021E00008D5DA0706D0236804221A62626F42F02B
:1021F0000202626702070AD501F02002324306D0CC
:10220000236808221A62626F42F008026267626FF6
:10221000002A32D0800605D5880603D5216E09B183
:1022200020468847606F000703D420688068400616
:1022300025D5204600F062FC20688168490619D542
:10224000816821F040018160E06E98B1224981638C
:10225000E06EFFF725F800280FD0E06E816B06E0F6
:10226000860611D58E060FD5216E23E02046BDE8E7
:10227000F04108472046FFF789FFBDE8F08120467E
:10228000FFF784FF6567F8E7C7024FF020060CD51B
:102290005B020AD5F003106284F8716084F8726002
:1022A0002046BDE8F041FFF770BF030605D50B06D9
:1022B00003D5616E0029D9D1DFE74006DDD5480698
:1022C000DBD51168204621F04001116084F871606F
:1022D000656600F0BFF8D0E7E92A000810B50400F1
:1022E00003D094F8710010B107E0012010BD002068
:1022F00084F87000204600F027F8242084F871004C
:102300002068016821F001010160204600F006FC10
:102310000128EBD0606A10B1204600F053FB206822
:10232000416821F4904141602068816821F02A01D0
:1023300081602068016841F0010101602046BDE82C
:10234000104000F0A3BB000000B50068124987B040
:1023500088421FD11148816D41F480218165806DD3
:10236000694600F4802005904FF440600090022000
:102370000190002002900320039007200490084859
:10238000FEF7C2FF002211462720FFF71DF9272084
:10239000FFF70EF907B000BD0048004000100240F2
:1023A000000800482DE9F843044690F871001F46E4
:1023B00016460D4620284BD1C5B1BEB194F8700029
:1023C000012845D0012084F870004FF00008C4F8BF
:1023D0007480212084F87100FFF77CF8A4F8506025
:1023E0008146A4F852604FF4805615E00120BDE804
:1023F000F8838021204600F0E1FCD8B9A068B04203
:1024000001D12069C0B115F8010B21680885B4F825
:102410005200401EA4F85200B4F852004B464FF050
:10242000000200970028E4D14FF04001204600F060
:10243000C5FC30B10320DAE735F8020BC0F3080021
:10244000E3E7202084F8710084F870800020CEE754
:102450000220CCE77047FEE700EB8100006E00F041
:10246000F84070478068C0F3800070478068C0F310
:102470008000704770B54FF0007401F0007394FA5B
:10248000A4F4B4FA84F4E3404FF0F87494FAA4F599
:1024900001F0F871B5FA85F500EB830021FA05F536
:1024A0000726AE4094FAA4F44369B4FA84F4E140F8
:1024B000B3438A401343436170BD00EB8100016E5A
:1024C00021F00041114301667047000070B51F48BC
:1024D0008AB01D4901604FF480110024C0E9011445
:1024E0000425C460C0E9044501268461C0E90746AB
:1024F0004462C462046344638463C463FEF7A4FC5F
:1025000018B14A2112A000F092FC06A90F480694C7
:10251000FEF7C4F918B152210DA000F088FC104854
:1025200000900620CDE901067F200594CDE9030542
:1025300069460648FEF72AFA002803D05F2104A066
:1025400000F075FC0AB070BD0000045014000020BB
:102550002E2E2F5372632F6164632E6300000000E0
:10256000000084CB0D4808B5C16C41F00101C16485
:10257000C16C01F001010091C16C41F00401C16422
:10258000C16C01F004010091C16C41F08001C16493
:10259000C06C00F08000009008BD000000100240F8
:1025A0000E4810B50C4901604FF4E1314160002143
:1025B00081600C22C160C0E904128161C1610162C5
:1025C0004162FFF78BFE002805D0BDE81040442192
:1025D00003A000F02CBC10BD004800407C0000208F
:1025E0002E2E2F5372632F75736172742E63000049
:1025F000FEE770470907090E002806DA00F00F0011
:1026000000F1E02080F8141D704700F1E02080F810
:1026100000147047704700002DE9F041444C054616
:102620008846E0680026810728680DD0E16801F03F
:102630000301814216D1A8B1E0686968C0F30210B5
:10264000401C88420ED120E0012804D0022805D089
:10265000032807D108E02168890701E021684905BE
:10266000002907DB01265FE02168890302D4216885
:102670004903F5E7E1686A686FF00F0321F0730121
:1026800003EB021211430143E160206820F08060F7
:102690002060FEF71FFF074605E000BFFEF71AFFA8
:1026A000C01B022837D820680001F7D4B8F1000F0A
:1026B00018D0B8F1010F1ED0287D4FF07E414008A0
:1026C00001EB4060A96840EA01202169194A1140E4
:1026D00008432061206840F080602060FEF7FAFE29
:1026E00007461AE0A868E9680002090940EA414083
:1026F0002169114AEBE7288A1049400801EB405054
:10270000A96840EA012021690D4AE0E7FEF7E2FEF0
:10271000C01B022801D9032606E020680001F5D578
:102720002069A969084320613046BDE8F0810000B6
:1027300000100240FF80FFF9FF80FDFF0000E0FF76
:10274000FF809FFF2DE9F0413D4C06468846E0683A
:102750000025810730680DD0E16801F00301814256
:1027600016D1A8B1E0687168C0F30210401C88421D
:102770000ED120E0012804D0022805D0032807D17B
:1027800008E02168890701E021684905002907DB85
:10279000012551E02168890302D421684903F5E746
:1027A000E16872686FF00F0321F0730103EB02120E
:1027B00011430143E160206820F080502060FEF763
:1027C00089FE074605E000BFFEF784FEC01B022815
:1027D00029D820688000F7D4B8F1000F15D0307CDC
:1027E0004FF07E41400801EB4060B16840EA0120B3
:1027F0006169144A114008436061206840F08050CC
:102800002060FEF767FE07460FE0B068F16800023F
:10281000090940EA414061690B4AEBE7FEF75AFEBD
:10282000C01B022801D9032506E020688000F5D5E9
:1028300060697169084360612846BDE8F081000065
:1028400000100240FF80FFF9FF80FDFFF8B51C4D2E
:1028500006460024A86DC00002D5FEF719FF0DE062
:10286000A86D40F08050A865A86D00F080500090E1
:10287000FEF70EFFA96D21F08051A965B0F5007F2C
:1028800004D0802E07D94FF003040AE0802E08D927
:10289000A02E01D804E001D1022402E0702E00D164
:1028A00001240848016821F0070121430160006804
:1028B00000F00700A04201D00120F8BD0020F8BDC3
:1028C0000010024000200240704710B5FEF708FEDD
:1028D000BDE81040FFF755BC2DE9F041B8B010201D
:1028E00001242290002528946020CDE929504FF042
:1028F0000208CDE92C8428260727CDE93078CDE9D8
:102900002E4622A8CDF8C880FFF7E6F900B1FEE711
:102910000F2033900320CDE934053695042133A8E8
:102920003795FFF795F800B1FEE744F204000090F8
:10293000C0061E9008944011CDE90C8009A910959D
:1029400081E8D0006846FEF7ABFE00B1FEE74FF429
:102950000070FEF76BFE00B1FEE7FFF735F94FF4AC
:102960007A71B0FBF1F0FFF7F8FB0420FFF7E8FB0A
:1029700000221146501EFEF727FE38B0BDE8F08158
:102980000D48016841F4700101600C48016841F094
:1029900001010160002181600268094B1A40026058
:1029A0008214C260026822F48022026081610249BE
:1029B000C00380390860704788ED00E000100240D5
:1029C000FFFFF6EA90F82410C90706D001684A68AC
:1029D000836A22F400321A434A6090F8241089076F
:1029E00006D501684A68C36A22F480321A434A60F5
:1029F00090F82410490706D501684A68036B22F451
:102A000080221A434A6090F82410090706D501680D
:102A10004A68436B22F400421A434A6090F824103B
:102A2000C90606D501688A68836B22F480521A436E
:102A30008A6090F82410890606D501688A68C36BFD
:102A400022F400521A438A6090F82410490611D5E6
:102A500001684A68036C22F480121A434A60016CD0
:102A6000B1F5801F06D101684A68436C22F4C002A8
:102A70001A434A6090F82410090606D501684A688E
:102A8000806C22F4002202434A607047F8B50026A9
:102A900004464667FEF71EFD0546206800686FF095
:102AA0007E47000708D52B4600224FF40011204630
:102AB000009700F083F960B92068006840070AD5E4
:102AC0002B4600224FF480012046009700F076F953
:102AD00008B10320F8BD202084F8710084F872004A
:102AE00084F870600020F8BD10B5806A0021A0F85D
:102AF0005A10A0F85210FFF749FB10BD01680A6890
:102B000022F490720A6001688A6822F001028A60E9
:102B1000202180F872100021016670472DE9F041F4
:102B20000446016880682369E669184363691025D3
:102B3000002733431843954A0B68954E33400343AF
:102B40000B6020684168E36821F4405119434160FB
:102B50002168A069914201D0236A18438B6823F44D
:102B6000306303438B608B4B21688B4899420DD1B6
:102B7000D0F8880010F0030006D001285AD00228AF
:102B800056D0032859D157E0012556E0834B99428E
:102B90000BD1D0F8880010F00C0047D0042849D0A1
:102BA000082845D00C2848D146E07D4B99420BD1EE
:102BB000D0F8880010F0300038D010283AD0202803
:102BC00036D0302839D137E0764B99420BD1D0F846
:102BD000880010F0C00029D040282BD0802827D0B2
:102BE000C0282AD128E0704B99420ED1D0F8880035
:102BF00010F440701AD0B0F5807F1BD0B0F5007F84
:102C000016D0B0F5407F18D116E0914215D1D0F81A
:102C1000880010F4406009D0B0F5806F0AD0B0F59C
:102C2000006F05D0B0F5406F07D105E0002504E046
:102C3000022502E0042500E008255C4B00264FF445
:102C4000004091423DD135B1022D07D0042D07D06F
:102C5000082D10D107E0FEF7BDFF03E0184602E0A3
:102C6000FEF7D8FFA8B3626802EB4201814202D8A6
:102C7000B0EB023F01D9012775E0DFF834815DB187
:102C8000022D0CD0042D13D0082DF4D150082905A5
:102C9000401846F1000105E0FEF79CFF0AE05008ED
:102CA0004449F5E70023FDF78BFAA0F5407156E0A3
:102CB000FEF7B0FF6268010E030250081818714158
:102CC000F0E7E1694FF6EF7881422FD1092DD2D29A
:102CD00000E048E0DFE805F00609200523050505CA
:102CE0002600C8E7FEF776FF01E0FEF783FF41000C
:102CF000D4F8040001EB5001B1FBF0F080B2A0F178
:102D000010014145B7D84FF6F0710140C0F34200C1
:102D100001432068C16026E027496068EAE7FEF7C2
:102D200079FFE4E74FF480316068E3E7092DA2D230
:102D3000DFE805F006091E052205050525009AE7CE
:102D4000FEF748FF01E0FEF755FF0146606801EB22
:102D5000500100BFB1FBF0F080B2A0F1100141457D
:102D600089D82168C860266638466666BDE8F08165
:102D7000606803EB5001EDE7FEF74CFFE5E76168A3
:102D800000EB5100B0FBF1F0E6E7000000800040EE
:102D9000F369FFEF0038014000100240004400409A
:102DA00000480040004C0040005000400024F40067
:102DB000FFFC0F00000024F40048E8012DE9F04179
:102DC000984617460E460446069D1DE0681C1BD01B
:102DD0002DB1FEF77FFBA0EB0800A84214D92068B4
:102DE000016821F4D07101602068816821F001013F
:102DF0008160202084F8710084F87200002084F83B
:102E000070000320BDE8F0812068C06936EA000048
:102E100004D00020B842D9D00020F3E70120F9E720
:102E20000148FFF7B5B900007C000020FEE7FEE78F
:102E30000FB4054B10B503A9044A029800F0DEF860
:102E400010BC5DF814FB00003137000810000020B2
:102E500002E008C8121F08C1002AFAD17047704763
:102E6000002001E001C1121F002AFBD170470000C1
:102E70002DE9FF5F82B00021DDE90430020DDDF8AD
:102E800040B0034318D044F61050A2F2FF32424340
:102E90001514119801281FD0A5EB0B00401C5FEA08
:102EA000000A4FF000064E4FDFF83891B04650460A
:102EB00015D5CAF1000413E0119801244AA3012892
:102EC00001D16FEA0B010298119AC0E90031C0E903
:102ED000024206B000F08EB8CBF10000DFE70446F6
:102EE0000021404A491842EB0450CDE9001012E09D
:102EF000E00707D032463B4640464946FDF794F985
:102F00008046894632463B4610461946FDF78CF905
:102F100006460F466410002CEAD1DDE90401DDE924
:102F20000023BAF1000F06DAFDF77EF942464B4660
:102F3000FDF77AF905E0FDF7A0FB42464B46FDF7A9
:102F40009CFB04460E460022284BFDF71DFC03D8CF
:102F50004FF0FF30014607E00022254B2046314666
:102F6000FDF7DCFAFDF7F8FB102409E0002C0ADB82
:102F70000A220023FDF724F9039B30321A55641E00
:102F800050EA0102F2D1641C039AC4F11103144403
:102F9000119A012A03D0012208430DD10AE0084307
:102FA00004D000204FF0110B119072E7A3EB0B053A
:102FB0006D1E0DE05B4504DD4FF0000205F10105DB
:102FC00004E003DA4FF00002A5F10105002AECD07D
:102FD00002981199C0E90231C0E9004579E7000083
:102FE000000014400000F03F300000000000F043FB
:102FF0000000E03F30BCBDE8C09F00002DE9FF4F5E
:1030000095B09B468946064600250FE2252877D1D4
:1030100000242746F84A0121059400E0044316F8ED
:10302000013F203B01FA03F01042F7D130782A2803
:1030300011D06FF02F033078A0F13002092A16D892
:10304000059A44F0020402EB820203EB42021044B0
:10305000761C0590EFE759F8042B0592002A03DA55
:10306000504244F40054059044F00204761C307839
:103070002E2816D116F8010F44F004042A280DD08A
:103080006FF02F023078A0F13003092B09D807EB3D
:10309000870302EB4303C718761CF3E759F8047B58
:1030A000761C30786C280FD006DC4C2817D06828A6
:1030B0000DD06A2814D104E0742810D07A280FD1DA
:1030C0000DE044F400140AE044F4801401E044F4F8
:1030D00040147278824202D104F58014761C761C6A
:1030E000307866280BD013DC582877D009DC00280C
:1030F00075D04528F6D04628F4D047281AD19DE14E
:1031000018E0632835D0642879D0652812D195E17C
:10311000702873D008DC6728F1D069286FD06E283A
:103120000DD06F2806D1B5E073282CD0752875D046
:10313000782874D05A46179990476D1C75E1C4F3EE
:103140000250022809D003280DD0D9F80010042815
:103150000DD00D6009F1040967E1D9F80010EA17F4
:10316000C1E90052F6E7D9F800100D80F2E70D70C2
:10317000F0E719F8041B8DF8001000208DF801000D
:10318000EA46012003E059F804AB4FF0FF30610735
:103190004FF0000102D40DE008F101018846B94268
:1031A0000FDA8045F8DB1AF808100029F4D108E09E
:1031B00008F1010188468142FADB1AF8081000295B
:1031C000F6D105985B46A0EB080721463846179ACA
:1031D00000F097FA284400EB080507E04DE029E1EC
:1031E0000DE01AF8010B5A4617999047B8F10108FB
:1031F000F7D25B4621463846179A13E142E00A228D
:103200000092C4F302524FF0000A022A08D059F883
:1032100004CB032A4FEAEC710AD00DE029E02AE042
:1032200009F1070121F00702F2E802C1914609E025
:103230000FFA8CFC4FEAEC71042A03D14FFA8CFC94
:103240004FEAEC71002907DA0A460021DCF1000C94
:1032500061EB02012D2202E0220504D52B228DF81C
:103260000420012203E0E20701D02022F7E7904684
:1032700059E00A2102E010220DE010214FF0000A6F
:1032800000910BE010224FF0000A44F004040827DC
:10329000009203E008224FF0000A0092C4F30252A9
:1032A000022A05D059F804CB0021032A08D009E0EE
:1032B00009F1070121F00702F2E802C1914605E099
:1032C0001FFA8CFC042A01D10CF0FF0C4FF000080F
:1032D000220728D5702806D0009B83F0100353EAFC
:1032E0000A0305D00EE040228DF80420012208E0F8
:1032F0005CEA010206D030228DF804208DF805002A
:1033000002229046009B83F0080353EA0A030AD185
:103310005CEA010201D1620705D530228DF8042054
:103320004FF001087F1E582804D034A003900EA847
:1033300002900DE036A0F9E753466046009AFCF78C
:103340003FFF84460398825C0298401E0290027000
:103350005CEA0100F0D1029806A9081A00F1200ADF
:10336000600702D524F4803400E00127574502DDD0
:10337000A7EB0A0000E0002000EB0A01009005988E
:103380004144401A0590E00306D45B462146179A53
:10339000059800F0B6F90544002706E001A85A4652
:1033A000C05D179990476D1C7F1C4745F6DBE00315
:1033B0000CD55B462146179A059800F0A2F9054402
:1033C00004E030205A46179990476D1C0099481E1A
:1033D00000900029F5DC08E0029802995A4600782E
:1033E000491C0291179990476D1CBAF10001AAF18E
:1033F000010AF1DC65E100000928010030313233B7
:103400003435363738396162636465660000000020
:10341000303132333435363738394142434445460A
:103420000000000000F05BF90544761C30780028AD
:103430007FF4ECAD19B0284600F04EB9620700D415
:10344000062709F1070222F0070CFCE80223E146F7
:1034500003F000485FEA080C02D00FF2702C0DE078
:103460005FEA045C02D50FF2682C07E05FEAC47CD7
:1034700002D00FF2602C01E0AFF2700C4FF0FF3879
:1034800023F00043CDF850C065280CD006DC452859
:1034900009D046281DD047283DD13DE0662818D0E8
:1034A00067287ED138E00021112F01DB112000E0D8
:1034B000781CCDE9000106A90EA8FFF7D9FCDDE9CB
:1034C0000F010E9A03910021009207F1010A049165
:1034D0004DE04FF000400097CDE9011006A90EA87D
:1034E000FFF7C6FCDDE90F0203920E9B1199002243
:1034F000DDF80CA00093049211B9791C00EB010ACD
:10350000B7EB0A0004D4C0F1FF3007F1010A0490C0
:10351000AAEB0700019044E0012F00DA0127002107
:10352000112F01DD112000E03846CDE9000106A988
:103530000EA8FFF79DFCDDE90F010E9A0391002113
:1035400004910092BA4621070CD40399514500DA40
:103550008A46BAF1010F05DD009AAAF10101515C1A
:10356000302908D0B84202DA10F1040F06DA01213E
:10357000CDE9011015E0AAF10101E9E7002805DC19
:10358000049901440491AAEB000102E0411C514559
:1035900000DD8A460499401A401C01904FF000401B
:1035A0000290200704D40198504501DBCDF8048037
:1035B00000208DF84F0002980DF14F07B0F1004F39
:1035C00025D02B200E9002984FF0020800280CDA2C
:1035D000404202902D200E9007E00A210298FCF74D
:1035E000D4FE3031029007F8011DB8F10001A8F1B6
:1035F0000108F2DC02980028EFD1791E0E980870BD
:10360000307800F0200040F0450007F8020D12A8C5
:10361000C01B00F107081498007800B1012000EBEE
:103620000A01019801EBE07105984144401A401EDF
:103630000590E00306D45B462146179A059800F0F2
:1036400060F805441498007818B15A4617999047C5
:103650006D1CE00324D55B462146179A059800F0BF
:1036600050F805441CE00498002807DBDDE903015D
:10367000884203DD0098405C179901E017993020DB
:103680005A469047049805F10105401C04900198A2
:10369000401E019004D12E205A46179990476D1C68
:1036A000BAF10001AAF1010ADDDC05E017F8010B0F
:1036B0005A46179990476D1CB8F10001A8F101080E
:1036C000F4DC5B462146179A0598ABE62D00000016
:1036D0002B0000002000000030BCBDE8C08F2DE9A9
:1036E000F041044600251E461746880404D405E030
:1036F00039462020B0476D1C641EF9D52846BDE828
:10370000F0812DE9F041044600251E469046C8038D
:1037100001D5302700E02027880404D505E0414684
:103720003846B0476D1C641EF9D52846BDE8F081C7
:1037300013B54FF6FF73012269460248FEF732FEC9
:1037400000981CBD7C000020FDF7D2FEFFF7C4F8F6
:10375000FEF708FFFEF7BAFEFEF722FF4FF47A7578
:103760002846FDF7C2FD1C48FDF722FD32211A480C
:10377000FDF78AFC1848FDF761FB800528D516483F
:10378000FDF75EFB154C81B215A02180FFF750FBC1
:103790002088FCF7BEFD9FED171B53EC112BFCF7A7
:1037A00043FDFCF7D6FD00EE900AB0EE081AB6EE27
:1037B000000A00EE810A84ED010A10EE100AFCF7FF
:1037C000B5FD41EC100B0DA053EC102BFFF730FBB7
:1037D0002846FDF78AFDC3E7140000200000002002
:1037E0005662617420414443205661756C3A20252D
:1037F000640D0A00B4D934E70C684A3F566261741C
:103800003A20252E366620560D0A000000000000E2
:10381000000000000102030406070809A086010059
:10382000400D0300801A060000350C0040420F00D6
:1038300080841E0000093D0000127A000024F4007C
:1038400000366E010048E801006CDC020000000058
:103850000102030474380008000000201400000076
:10386000502E00088838000814000020E4040000EE
:10387000602E0008000000000000000000000000B2
:0838800000093D0000000000FA
:040000050800018965
:00000001FF
