:020000040800F2
:10000000E00D00209D0100084F460008BD320008A9
:100010004D460008E90900080954000800000000E6
:10002000000000000000000000000000834D0008F8
:10003000EB09000800000000E9460008854D0008B3
:10004000B7010008B7010008B7010008B7010008B0
:10005000B7010008B7010008B7010008B7010008A0
:10006000B7010008B7010008B7010008B701000890
:10007000B7010008B7010008B7010008B701000880
:10008000B7010008B7010008B7010008B701000870
:10009000B7010008B7010008B7010008B701000860
:1000A000B7010008B7010008B7010008B701000850
:1000B000B7010008B7010008B7010008B701000840
:1000C000B7010008B7010008B7010008B701000830
:1000D000B7010008B7010008B7010008E1530008A4
:1000E000B7010008B7010008B7010008B701000810
:1000F000B7010008B7010008B7010008B701000800
:10010000B7010008B7010008B7010008B7010008EF
:10011000854F0008B7010008B7010008B7010008C3
:10012000B7010008B7010008B7010008B7010008CF
:10013000B7010008B7010008B7010008B7010008BF
:10014000B7010008B7010008B7010008B7010008AF
:10015000B7010008B7010008B7010008B70100089F
:10016000B7010008B7010008B7010008B70100088F
:10017000B7010008B7010008B7010008000000003F
:10018000B7010008B7010008DFF80CD000F044FB0D
:1001900000480047ED610008E00D00200648804758
:1001A00006480047FEE7FEE7FEE7FEE7FEE7FEE75C
:1001B000FEE7FEE7FEE7FEE7254F0008890100089D
:1001C0002DE9F05F0546002092469B46884606468C
:1001D000814640241BE0284641464746224600F01F
:1001E00035FA53465A46C01A914110D31146184663
:1001F000224600F01CFA2D1A67EB01084F462246F2
:100200000120002100F013FA17EB00094E41201ED7
:10021000A4F10104DFDC484631462A46434600F09B
:1002200000B830BCBDE8C09FD2B201E000F8012B9D
:10023000491EFBD270470022F6E710B513460A4666
:1002400004461946FFF7F0FF204610BD30B50546BD
:100250002A460B4612F8010B13F8014B08B1A042D5
:10026000F8D01CB1002802D06D1CF1E7284630BD43
:10027000421C10F8011B0029FBD1801A70472DE9A0
:10028000FE4F804681EA0300C00F0C46009021F02B
:10029000004123F00045B8EB0200A94105D24046D9
:1002A000214690461C460B46024623F00040104370
:1002B00047D0270DC7F30A00C3F30A510290401A32
:1002C000019040286BDAC3F3130040F4801B0098C0
:1002D000924620B10023D2EB030A63EB0B0B01988B
:1002E0005946C0F14002504600F0A1F906460D46BD
:1002F00050465946019A00F0B9F910EB08006141E7
:10030000002487EA115284EAE7731A4340D0009A26
:1003100062B3019A012A4FEA075215DC001B61EB18
:1003200002014FF0004202EA0752CDE90042001CF0
:1003300041F5801132462B4600F0F0F903B000F091
:1003400045B840462146F9E7001B61EB0201001C5D
:1003500041F5801300185B412018A2F5001747EB08
:10036000030140EAD570B6196D4111E06D084FEAFE
:10037000360645EAC0754FEA0752001B61EB0201E1
:10038000001C41F5801149084FEA30000019514125
:1003900032462B4603B000F01CB800F0B0B900980C
:1003A000012240000023D0EB020263EBE0730098CF
:1003B00021464FEAE074B8EB000061EB0401E9E785
:1003C00083F000435BE781F0004158E730BCBDE8B3
:1003D000C08F30BCBDE8C04FFFF7DFBF2DE9FE4F37
:1003E00081EA030404F0004421F0004100944FF03E
:1003F000000B23F0004350EA01045ED052EA0304EC
:100400005BD0C3F30A54C1F30A552C44A4F2F3346D
:100410000194A0FB0254C1F3130141F48011C3F312
:10042000130343F4801301FB024400FB034E840AD0
:10043000970A44EA815447EA8357A4FB0768029568
:100440008D0A05FB07854FEA932C04FB0C54270506
:10045000029D4FEA065847EA1637B5EB08056EEBE2
:10046000070C870E920E47EA811742EA8312A7FB18
:100470000201B6EB0B0164EB00042B0D43EA0C33D5
:100480005E1844EB1C50DA465146E7FB0201C5F307
:1004900013044FEA0B3343EA14534FEA0432019C2E
:1004A00043EA0603A4F10C040294009CCDE900B4D5
:1004B00000F034F903B000F003B800200146F9E77A
:1004C00030BCBDE8C08F2DE9F04D81EA030404F093
:1004D000004B21F0004514464FF0000A23F0004184
:1004E00050EA050220D054EA01021DD0C5F30A5794
:1004F0000246C5F31303C1F31300C1F30A5640F4D7
:10050000801543F48013A7EB0608101BD64608F2AB
:10051000FD3873EB050002D308F1010801E09218E1
:100520005B41B8F1000F03DA00200146BDE8F08D11
:1005300000204FF48011064684460EE0171B73EB33
:10054000050705D3121B63EB050306434CEA010CB8
:1005500049084FEA300092185B4150EA0107EDD19B
:1005600052EA030012D082EA040083EA050108433C
:1005700005D0101BAB4106D20122002306E0002269
:100580004FF0004302E06FF0010253101AEB060037
:100590004CEB085110EB0A0041EB0B01BDE8F04DAC
:1005A00000F0ADB800F0004230F000400AD0C10DBC
:1005B00001F56071C0F3160042EA0151C20840071C
:1005C0001143704700200146704701F0004330B4EA
:1005D00021F0004150EA010206D00A0DA2F5607236
:1005E000C1F31301002A02DC30BC00207047440F25
:1005F00044EAC104C100E01830BC00EBC25000F076
:1006000047B830B50B46014600202022012409E0FE
:1006100021FA02F59D4205D303FA02F5491B04FABB
:1006200002F52844151EA2F10102F1DC30BD202A9A
:1006300004DB203A00FA02F1002070479140C2F139
:10064000200320FA03F3194390407047202A04DB6B
:10065000203A21FA02F00021704721FA02F3D0403B
:10066000C2F120029140084319467047202A06DB58
:10067000CB17203A41FA02F043EAE07306E041FA70
:1006800002F3D040C2F1200291400843194670475E
:100690000029A8BF7047401C490008BF20F0010096
:1006A000704710B4B0FA80FC00FA0CF050EA010474
:1006B00004BF10BC704749B1CCF1200421FA04F406
:1006C00011FA0CF118BF012121430843A3EB0C01DF
:1006D000CB1D4FEA00614FEA102042BF002010BC42
:1006E000704700EBC35010440029A4BF10BC7047F2
:1006F000401C490008BF20F0010010BC704710B535
:10070000141E73F1000408DA401C41F10001921834
:100710005B411A4301D120F0010010BD2DE9F04DDD
:1007200092469B4611B1B1FA81F202E0B0FA80F232
:1007300020329046FFF77BFF04460F4640EA0A004E
:1007400041EA0B0153465A46084313D0114653EA77
:10075000010019D0C8F140025046FFF777FF054667
:100760000E46504659464246FFF761FF084305D002
:10077000012004E020463946BDE8F08D0020054305
:1007800046EAE0762C4337430A986305E40AA0EB77
:1007900008000022FD0A44EA47540A3002D500202E
:1007A0000146E9E7010510196941DDE9084500192D
:1007B0006941BDE8F04DA2E7C1F30A52C1F313014C
:1007C00040F2FF3341F480119A4202DA00200146E0
:1007D000704740F233439A42A2F2334202DC524263
:1007E000FFF734BFFFF723BF30B5041E71F10004DB
:1007F00004DB4FF00044404264EB0101141E73F12E
:10080000000405DB1C464FF00043524263EB040337
:10081000994208BF904230BD064C074D06E0E068A3
:1008200040F0010394E8070098471034AC42F6D337
:10083000FFF7AEFCA4650008C465000870B5144C51
:1008400012482062134860621348A062204605F0F7
:10085000DBFB05460246217F10A004F0D7FD15B151
:100860004FF0FF3070BD042005F066FC0446042004
:1008700005F0F6FB0444032005F018FC04440420B2
:1008800005F034FC204440B270BD0000750900083A
:10089000D80300201509000829380008436869704A
:1008A00049643A307820255820202020636F6D5FFE
:1008B00072736C743A25640D0A0000001CB513A114
:1008C0000623D1E90001CDE900016A46F7210020A5
:1008D00000F020F89DF803009DF80410000340EAA2
:1008E00001109DF8051040EA111005F0DBFA9DF8A3
:1008F00000009DF80110000340EA01109DF802106D
:1009000040EA111005F01CFA1CBD00005555555564
:10091000555500002DE9FF41144E9DF80400904606
:1009200040F0800000248DF804001F462246082174
:10093000304601F05EF90223012201A90C4802F0C1
:1009400083F9651E00B12C4602233A464146084809
:1009500002F0C0F800B12C4601220821304601F017
:1009600048F904B02046BDE8F081000000080048C6
:1009700098050020FEB500261D460A23771E304646
:10098000B3EB450F01D23846FEBD00246B460FE0A5
:1009900001F07F0C03F800C0401CC0B212F804C084
:1009A00003F800C0491C401C641CC9B2C0B2E4B2C8
:1009B000AC42EDD30A4C00220821204601F019F97F
:1009C0006A0064236946074802F03EF900B13E46DA
:1009D00001220821204601F00CF93046FEBD00003E
:1009E0000008004898050020FEE7704770B5194CD4
:1009F00078B14FF4FA7002F017FF032216A12046D7
:100A000005F084FD4FF44874204602F00DFF2046A7
:100A10001BE004F0A9FA102210A1204605F076FD93
:100A20004FF49675284602F0FFFE11A11248FFF719
:100A30000DFC124C03E00EA10F48FFF707FC2060ED
:100A40000028F8D004F090FA2846BDE8704002F083
:100A5000EBBE0000004C00402B2B2B0041542B51CF
:100A6000495357544D443D302C320D0A00000000CC
:100A7000434F4E4E45435400B00800200000002074
:100A800010B50E4C01228021204601F0B2F8C8209A
:100A900002F0CAFE00228021204601F0AAF84FF49D
:100AA000967002F0C1FEC82002F0BEFE2046012270
:100AB000BDE81040802101F09CB80000000800480B
:100AC0002DE9F0470120FFF791FFFF4D0422FCA123
:100AD000284605F01BFDFD4F0422F9A1384605F01C
:100AE00015FD4FF4FA76304602F09EFEF8A1F94863
:100AF000FFF7ACFBF84C12E004F036FA0422F0A148
:100B0000284605F003FD0422EDA1384605F0FEFC61
:100B1000304602F089FEEEA1EE48FFF797FB206019
:100B20000028E9D0EB48FFF7A3FB82B2E949284649
:100B300005F0ECFC04F018FA0A22E8A1284605F0BA
:100B4000E5FC0A22E5A1384605F0E0FC304602F05B
:100B50006BFEE5A1DF48FFF779FB2060DD48FFF77A
:100B600087FB82B2DB49284605F0D0FC206848B9F3
:100B70000B22E0A1284605F0C9FC0B22DDA1384676
:100B800005F0C4FC304602F04FFE0622DCA12846E8
:100B900005F0BCFC0622DAA1384605F0B7FC304669
:100BA00002F042FECB48FFF763FB82B2C9492846F8
:100BB00005F0ACFC04F0D8F90822D3A1384605F0C2
:100BC000A5FC0822D0A1284605F0A0FC304602F082
:100BD0002BFEB946BF4FB246B878303809280AD93B
:100BE00004F0C2F90822C8A1484605F08FFC50461F
:100BF00002F01AFEF0E7B748FFF73AFB82B2B549B8
:100C0000284605F083FCC34E002039183218497875
:100C1000401C11751028F8DBBE4814308046FFF7E1
:100C200027FB82B24146A846284605F06FFC04F037
:100C30009BF90822B8A1404605F068FC0822B6A13D
:100C4000484605F063FC5546504602F0EDFDA148CC
:100C5000FFF70EFB82B29F49404605F057FC052284
:100C6000B0A1404605F052FC0522AEA1484605F071
:100C70004DFC284602F0D8FD00203218395C401C9B
:100C800082F832106428F8DB9248FFF7F1FA82B25A
:100C90009049404605F03AFC04F066F90A22A3A107
:100CA000404605F033FC0A22A0A1484605F02EFC80
:100CB000284602F0B9FDA0A18648FFF7C7FAAA4668
:100CC000206013E004F050F90A2298A1404605F094
:100CD0001DFC0A2295A1484605F018FC504602F07A
:100CE000A3FD95A17B48FFF7B1FA20600028E9D069
:100CF0007848FFF7BDFA82B276494546404605F08E
:100D000005FC04F031F90B228FA1284605F0FEFB0B
:100D10000B228DA1484605F0F9FBD046504602F063
:100D200083FD8CA16B48FFF791FAE0608CA16948C4
:100D3000FFF78CFAC246606019E000BF04F014F9B6
:100D40000B2281A1284605F0E1FB0B227EA148463B
:100D500005F0DCFB504602F067FD7EA15D48FFF721
:100D600075FAE0607EA15B48FFF770FA6060D4E935
:100D700000010843E2D05748FFF77AFA82B255499A
:100D8000284605F0C3FB04F0EFF80A2277A12846B5
:100D900005F0BCFB0A2275A1C846484605F0B6FB23
:100DA000504602F041FD00203218395C401C82F8A8
:100DB00096101E28F8DB4748FFF75AFA82B24549D9
:100DC000A946284605F0A2FB04F0CEF80E226AA13F
:100DD000484605F09BFB0E2267A1404605F096FBB6
:100DE0005546504602F020FD3A48FFF741FA82B2DC
:100DF0003849484605F08AFB04F0B6F81F2262A184
:100E0000484605F083FB1F225FA1404605F07EFBAC
:100E1000284602F009FD2EA12E48FFF717FAAA4630
:100E2000206007E0504602F0FFFC29A12948FFF7A7
:100E30000DFA20600028F5D02648FFF719FA82B293
:100E400024494D46484605F061FB04F08DF80E221A
:100E500055A1284605F05AFB0E2253A1C146404633
:100E600005F054FBD046504600E0404602F0DCFC62
:100E700017A11848FFF7EAF920600028F5D01548B7
:100E8000FFF7F6F982B21349284605F03FFB04F05C
:100E90006BF80C2248A1284605F038FB0C2246A12D
:100EA000484605F033FB404602F0BEFC08A1094865
:100EB000FFF7CCF920600028F5D0064884E0000058
:100EC00041540D0A0000000000480040004C004062
:100ED0004F4B0000B00800200000002041542B516F
:100EE0004750533F0D0A00002B514750533A2031D1
:100EF0000000000041542B514750533D310D0A0072
:100F0000415445300D0A000041542B47534E0D0A01
:100F1000000000000C03002041542B4353510D0AE4
:100F2000000000004154490D0A00000041542B43C9
:100F300050494E3F0D0A00002B4350494E3A205273
:100F4000454144590000000041542B434752454756
:100F50003F0D0A002B43475245473A20302C3100C1
:100F60002B43475245473A20302C350041542B4300
:100F70004F50533F0D0A000041542B5149434C4FF1
:100F800053453D300D0A000041542B51494353470E
:100F9000503D312C312C22434D4E4554222C2222DF
:100FA0002C22222C300D0A0041542B51494445413A
:100FB00043543D310D0A000041542B5149414354E3
:100FC0003D310D0A00000000FFF752F982B22D49B1
:100FD000284605F09BFA03F0C7FF0B222AA12846FA
:100FE00005F094FA0B2228A1484605F08FFA4046F6
:100FF00002F01AFC00203918497C222903D0315410
:10100000401C0F28F7DB1F48FFF732F982B21D4959
:10101000284605F07BFA03F0A7FF1E48FFF728F9E2
:1010200082B21C49284605F071FA1A48FFF720F9E8
:1010300082B21849484605F069FA4646404602F031
:10104000F3FB15A10F48FFF701F9206008E012A19A
:101050000C48FFF7FBF82060642002F0E5FB2068F5
:101060000028F4D00748FFF703F982B20549284663
:1010700005F04CFA304602F0D7FBBDE8F04703F02C
:1010800073BF0000B008002041542B514941435424
:101090003F0D0A0008040020434F4E4E45435400C4
:1010A000F0B5044690F8540000269BB00D46012888
:1010B0000DD0012084F8540032492068002788426E
:1010C00008D13149009102F004F958B10EE0022034
:1010D0001BB0F0BDA06D40F02000A06584F85470F6
:1010E0000120F5E7009802F0F4F848B1A06D40F057
:1010F0002000A0655FF0010684F854703046E7E7F1
:1011000022482A6840F61F71002A826822F4604251
:101110001FD0636B42EA43326B681A4382602268D5
:10112000936803F00303012B02D11268D207E3D1C5
:10113000009A926802F00302012A03D1009A126811
:10114000D207D9D1AB682A681A4383688B431A4304
:1011500015E082602268936803F00303012B02D13B
:101160001268D207C8D1009A926802F00302012ADD
:1011700003D1009A1268D207BED182688A43826086
:10118000BAE70000000004500001045000030450BE
:101190002DE9F84300250446009590F85400DFF847
:1011A00070840E46A946012807D0012784F85470A0
:1011B000206802F08AF818B1E5E10220BDE8F88362
:1011C0007068052812D8022807D0032807D0042801
:1011D00007D0052807D0062007E00C2005E01220E4
:1011E00003E0182001E04FF480707060B1884FF484
:1011F000407C01F440739CFAACFCBCFA8CFC206887
:1012000023FA0CF300EB8300326801F01F014FF06A
:101210001F0C0CFA01FC036BC2F3846223EA0C037B
:101220008A40134303632068816811F00C0F1CD1BE
:10123000B268316802F051F820687169C268C2F37F
:10124000C102520091403269042A0FD000EB8200A3
:101250003368DFF8C0C3026E03F0F84302EA0C0201
:101260000B431A4342F00041016672E0002102F094
:1012700026F8400320684FF0000173D002F01FF8F9
:1012800090FAA0F0B0FA80F1306842036FD090FA83
:10129000A0F0B0FA80F0814204D10022114620680B
:1012A00002F03EF80121206802F009F840032068AE
:1012B0004FF001015ED002F002F890FAA0F0B0FA0F
:1012C00080F1306842035AD090FAA0F0B0FA80F072
:1012D000814204D100220121206802F021F802217C
:1012E000206801F0ECFF400320684FF0020149D074
:1012F00001F0E5FF90FAA0F0B0FA80F13068420307
:1013000045D090FAA0F0B0FA80F0814204D10022DA
:101310000221206802F004F80321206801F0CFFFC9
:10132000400320684FF0030134D001F0C8FF90FA69
:10133000A0F0B0FA80F13068420330D090FAA0F00B
:10134000B0FA80F0814204D100220321206801F02C
:10135000E7FF2068816801F00301012925D121E020
:1013600000E004E001F0ABFFC0F384618CE7C0F360
:10137000846090E701F0A3FFC0F38461A1E7C0F3AC
:101380008460A5E701F09BFFC0F38461B6E7C0F37A
:101390008460BAE701F093FFC0F38461CBE7C0F348
:1013A0008460CFE70168C9077ED1327B316850F88D
:1013B000B03FC1F3120C23EA0C0302F0200C4FF0F3
:1013C000FF3202FA0CF20A40C2F312010B4303602F
:1013D000F16841456CD13068410318D090FAA0F112
:1013E000B1FA81F1491C09294FEA40312ED8002970
:1013F00010D000BF90FAA0F1B1FA81F101F1010122
:1014000007FA01F709D100BFC0F3846109E0C0F316
:101410008461E7E7C0F38461F0E790FAA0F1B1FAE4
:1014200081F101F1010147EA816102D1C0F38460D9
:1014300003E090FAA0F0B0FA80F000EB40004FF427
:10144000401202EB005041EA00012AE000290CD0D2
:1014500090FAA0F1B1FA81F101F1010107FA01F767
:1014600006D100BFC0F3846106E0C0F38461F3E7F6
:1014700090FAA0F1B1FA81F101F1010147EA81612D
:1014800002D1C0F3846003E090FAA0F0B0FA80F0DB
:10149000614A00EB400002EB005041EA000141F0DC
:1014A0000071B268206801E072E001E001F015FF10
:1014B00033685A4E5A4FDFF86C815B49B34204D10E
:1014C000886800F0E07000020DD5BB4204D1886846
:1014D00000F0E070C00106D5434559D1886800F09E
:1014E000E070400254D42268906800F003000128A4
:1014F00002D11068C00746D14C48824215D1D0F8BD
:1015000008C10CF0030CBCF1010F04D1D0F800C1EC
:101510005FEACC7C37D1D0F808C20CF0030CBCF1E8
:10152000010F39D1D0F800C22AE0DFF804C16245CA
:10153000D0F808C00CF0030C11D1BCF1010F04D19C
:10154000D0F800C05FEACC7C1DD1D0F808C20CF006
:10155000030CBCF1010F0AD1D0F800C204E0BCF1C9
:10156000010F04D1D0F800C05FEACC7C0BD1D0F8D9
:1015700008C10CF0030CBCF1010F0DD1D0F800C173
:101580005FEACC7C08D0A06D40F02000A06501256A
:1015900084F85490284611E6DFF898C0B3421BD176
:1015A000824201D06245F3D188688A6800F0E07019
:1015B00040F4000022F0E07202438A601E481F4996
:1015C0000068B0FBF1F0C0EB0010C00000E0401E6E
:1015D00000900028FBD1DBE7BB4209D1824201D059
:1015E0006245D5D1886800F0E07040F0807008E076
:1015F0004345CDD18242CBD1886800F0E07040F401
:1016000080008A6822F0E07202438A60C0E700002E
:1016100000007F4000F0FF03000050FE000052C7B2
:10162000000084CB0100008000030450000004503F
:101630000001045000020450EC00002080841E00D1
:10164000F8B54FF0000504002E46009502D0A06DBD
:1016500010B107E00120F8BD204600F0FDF8E66576
:1016600084F8546020688168C1F3407119B18168C1
:10167000704A1140816020688168C1F3007191B99E
:1016800081686D4A114041F0805181606B486C491E
:101690000068B0FBF1F000EB8000400000E0401E6D
:1016A00000900028FBD120688168C1F3007141B926
:1016B000A16D41F01001A165E16D41F00101E1650D
:1016C0000125A16DC90602D401F0FFFD30B1A06D66
:1016D00040F01000A06501252846F8BDA06D20F45B
:1016E000807040F00200A0652168886800F0030067
:1016F000012802D10868C0073FD15248814212D167
:10170000D0F8081101F00301012903D1D0F800112C
:10171000C90732D1D0F8081201F00301012925D1FF
:10172000D0F8000220E0484A9142816801F00301AC
:101730000DD1012902D10168C9071ED1D0F80812C4
:1017400001F00301012907D1D0F8001202E00129BC
:1017500002D10168C90710D1D0F8081101F00301C6
:10176000012903D1D0F80001C00706D137496068CC
:101770008A6822F47C1202438A60E168A06BE26905
:101780000843A16841EA42310843616A40EA0140E6
:10179000012904D1218D2E4A02EB41410843E16A1F
:1017A00029B101F47071226B014342EA0100226801
:1017B000D168284B19400143D1602068816811F03D
:1017C0000C0F12D1A169626B890341EA4202C16820
:1017D00044F2020399431143C160E06B01280CD02D
:1017E0002068016921F00101016120690128206858
:1017F000016B21F00F0111D013E0D4E9100108436F
:10180000D4E912121143084321680A6940F2FC73BB
:101810009A43104340F001000861E6E7226A521E35
:1018200011430163A06D20F0020040F00100A065AB
:1018300052E70000C0FFFF5FC0FFFF7FEC00002009
:1018400080841E0000000450000104500003045076
:101850000000FEFF07C0F0FF08B500680649884297
:1018600008D10648C16C41F40051C164C06C00F459
:101870000050009008BD000000000450001002401D
:1018800030B51F235FF0010505FA03F40C4201D1C6
:101890005B1EF9D27AB1082A09D0102A04D0182A7E
:1018A00007D1072B05D206E0082B02D203E0102B4C
:1018B00001D3012030BD036859610068816821F0BF
:1018C000180111438160002030BD000010B50400F4
:1018D00010D0607F20B900202077204600F030F83B
:1018E00002206077207938B1D4E902122046FFF750
:1018F000C7FF48B1012010BD216810484861206829
:10190000816821F0180181606079A0B120692168A7
:10191000086120688168626921F06001114381607B
:1019200020688168A26921F0800111438160012053
:101930006077002010BD4FF0FF30E8E7B71DC1040D
:1019400008B500680649884208D10648816C41F410
:1019500080518164806C00F48050009008BD0000CC
:10196000003002400010024070B568B12B4C036893
:1019700014222B49A34209D22A4C1C44B4FBF2F294
:101980009200C0E910120BE0012070BD234C6442AC
:101990001C44B4FBF2F292004264204A083A02640A
:1019A000022280F825201C6847F6F0729443D0E9A3
:1019B00002252A43D0E9045635432A4385692A4340
:1019C000C5692A43056A2A4322431A608268B2F530
:1019D000804F15D0036C0F228B4202D151F8A83FE3
:1019E00002E00E49A0310B6890F84440A2409343B6
:1019F0000B6090F8443042689A400B681A430A60C2
:101A00000021C162016341638163C163012280F8E7
:101A1000252080F82410084670BD0000080402400C
:101A200000000240F8FFFDBF2DE9F84FDFF898B144
:101A300000234FF0010C4FF0030A4FF00F090BF198
:101A4000040EB9E00CFA03F4224070D04D68022D68
:101A500001D0122D0ED1DD0800EB8508D8F82050FA
:101A60005E07F70E09FA07F6B5430E69BE402E432E
:101A7000C8F8206007685E0091F804800AFA06F54D
:101A800008F00308AF4308FA06F848EA0708C0F868
:101A900000804F68012F05D0022F03D0112F01D0F5
:101AA000122F13D1D0F80880CF6828EA0508B74074
:101AB00047EA08078760D0F804800F7928EA04080D
:101AC000C7F300179F4047EA08074760D1F8048032
:101AD0006FEA0807BF0706D1C76AA743C8F3C00467
:101AE0009C403C43C462C468AC438D68B540254308
:101AF000C5604C68E4005ED5344C256E45F00105A8
:101B00002566246E23F0030504F001040094304C94
:101B10002E19B4689D072F0F09FA07F5AC43B0F1F1
:101B2000904F05D02B4DA84204D101251CE042E086
:101B3000002519E0284DA84201D1022514E0274DC7
:101B4000A84201D103250FE0254DA84201D104256B
:101B50000AE0244DA84201D1052505E0224DA84206
:101B600001D1062500E00725BD402543B560DBF81F
:101B700000405D464E689443F60300D514432C6044
:101B8000DEF8004075464E689443B60300D5144312
:101B90002C600D4D08352C684E689443F60200D534
:101BA00014432C60084D0C352C684E689443B602E3
:101BB00000D514432C605B1C0A6832FA03F57FF4ED
:101BC00041AF00F013B800000004014000100240D3
:101BD000000001400004004800080048000C0048D4
:101BE00000100048001400480018004818BCBDE868
:101BF000E08F0AB1816170478162704701480068D7
:101C000070470000E800002010B5032000F088F8BD
:101C1000002000F005F800F017F8002010BD0000CB
:101C200010B5044607484FF47A710068B0FBF1F034
:101C300001F0F2F900222146501E00F051F8002078
:101C400010BD0000EC0000201E4808B5016E41F0F8
:101C500001010166016E01F001010091816D41F009
:101C600080518165806D00F080500090032000F06D
:101C700057F8002211466FF00B0000F031F80022F7
:101C800011466FF00A0000F02BF8002211466FF0A9
:101C9000090000F025F800221146501F00F020F83E
:101CA00000221146101F00F01BF800221146901E62
:101CB00000F016F80022BDE808401146501E00F062
:101CC0000FB800000010024000F01F0201219140F7
:101CD0004009800000F1E020C0F8001170470000CA
:101CE000F0B40E4B1B680C46C3F30223C3F1070587
:101CF000042D00D90425191D072901D2002300E075
:101D0000DB1E012606FA05F1491E214099409E403E
:101D1000761E16403143F0BC02F0D6BC0CED00E05C
:101D2000064900F0070208684FF6FF03184040EA32
:101D30000220034A10430860704700000CED00E0E9
:101D40000000FA051549B0F5007F0868C0F341208E
:101D500009D0022805D0086820F4C06040F48060F3
:101D60000860002070470128FBD0086820F4C0609C
:101D700040F4007008600A480A4A0068B0FBF2F0BC
:101D80003222504300E0401E10B14A695205FAD495
:101D900048694005E5D50320704700000070004009
:101DA000EC00002040420F000248416841F40071FD
:101DB00041607047007000400248006800F4C06055
:101DC0007047000000700040F8B50446FFF716FFAA
:101DD00006465CB194F83800012809D0012784F840
:101DE000387094F83900002520B10BE00120F8BDCF
:101DF0000220F8BD84F83850204600F03DF841F24A
:101E00008830206420680168A2686FF0FF0321F425
:101E1000706103EB022211430160206C0090334695
:101E200000222021204602F060FCE8B921680A68FF
:101E30000F4B1A40237942EA0362E3681A430A60AF
:101E4000D4E905121143226853680A4E3340268AAA
:101E500043EA06431943516021680A6842F00102CF
:101E60000A60E56384F8397084F83850F8BD0000E2
:101E7000EFFFFF00FEF8E0FFF0B50068154987B0FE
:101E8000884224D11448016D41F480710165006DD0
:101E9000022400F48070059040F6034000250326DC
:101EA0000A278DE8F10069460C48FFF7BDFDC02008
:101EB0008DE8F10069464FF09040FFF7B5FD002234
:101EC0000F214720FFF70CFF4720FFF7FDFE07B06B
:101ED000F0BD0000001000A0001002400004004807
:101EE0002DE9F84F044600270088E54D3E460105E0
:101EF00004F1200B1DD5606E78B1B0F5800F11D0C4
:101F0000B0F5000F04D0B0F5400F22D001270FE04C
:101F1000E86840F48030E8601BE00021201D02F0FA
:101F200009FC03E00021584602F09AFC070010D09B
:101F30003E462088C00426D5A06EC0B1B0F1807F97
:101F40001AD0B0F1007F0DD0B0F1407F19D0012739
:101F500018E0D5F88800616E20F440000843C5F809
:101F60008800E6E7E86840F48030E86009E0002196
:101F7000201D02F0DFFB03E00021584602F070FC58
:101F80000746F7B13E46206880033AD5A86D4FF06A
:101F90000008C00009D4A86D40F08050A865A86D65
:101FA0004FF0010800F080500090DFF8D8A2DAF876
:101FB000001041F48071CAF80010FFF71FFE81463F
:101FC00010E0D5F88800A16E20F040700843C5F8F5
:101FD0008800D8E7FFF712FEA0EB0900022801D91C
:101FE000032705E0DAF80000C005F3D5002F7CD008
:101FF0004FEA0706B8F1000F03D0A86D20F080501B
:10200000A8652078C00707D0D5F88800A16B20F01C
:1020100003000843C5F888002078800707D5D5F865
:102020008800E16B20F00C000843C5F88800207898
:10203000400707D5D5F88800216C20F03000084310
:10204000C5F888002078000707D5D5F88800616CAE
:1020500020F0C0000843C5F888002078C00607D5E6
:10206000D5F88800A16C20F440700843C5F88800BA
:102070002078800607D5D5F88800E16C20F4406010
:102080000843C5F888002088800507D5D5F8880062
:10209000E16D20F440200843C5F888002088400501
:1020A00007D5D5F88800216E20F440100843C5F804
:1020B00088002078400607D5D5F88800216D20F4E7
:1020C00040500843C5F888002078000607D5D5F8A9
:1020D0008800616D20F440400843C5F888002088DE
:1020E000C00509D5D5F8880000E01CE0A16D20F4FA
:1020F00040300843C5F8880020884FF0006780040E
:102100004FF080684FD5D5F88800E16E20F0406030
:102110000843C5F88800E06EB8423CD1E86840F456
:102120008010E8603FE0D5F8900010F4407015D0C2
:10213000D4F88410814211D0D5F89000D5F89010D1
:1021400020F4407041F48031C5F89010D5F890101B
:1021500021F48031C5F89010C5F89000C00710D068
:10216000FFF74CFD074641F2883906E0FFF746FDD0
:10217000C11B494501D903263CE7D5F890008007EB
:10218000F4D5D5F89000D4F8841020F440700843BA
:10219000C5F890002EE7404505D10121201D02F031
:1021A000C9FA00B106462068000317D5D5F88800A3
:1021B000216F20F040600843C5F88800206FB842C6
:1021C00004D1E86840F48010E86007E0404505D19C
:1021D0000121201D02F0AEFA00B10646206840033E
:1021E00017D5D5F88800616F20F040600843C5F826
:1021F0008800606FB84204D1E86840F48010E8605D
:1022000007E0404505D10121201D02F093FA00B1FD
:102210000646208840041AD5D5F88800A16F20F022
:1022200040500843C5F88800A06FB0F1805F03D02C
:10223000B0F1005F05D00AE00221201D02F07AFA19
:1022400003E00221584602F00BFB00B1064620884D
:10225000000407D5D5F88800E16F20F080400843DE
:10226000C5F888002068C00307D555F8880FD4F852
:10227000801020F0004008432860304600F004B889
:10228000001002400070004018BCBDE8E08F000064
:102290002DE9F047DFF8608105460E46D8F80000CA
:1022A00000F00700B0420CD2D8F8001021F007016E
:1022B0003143C8F80010D8F8000000F00700B04221
:1022C00075D128784D4CC00757D06868032818D0BE
:1022D000022819D02168D0B14905002967DAA16820
:1022E00021F003010143A160FFF788FC69680746FC
:1022F00041F28830032913D002291FD0814651B3FF
:1023000036E021688901E8E721688903E5E7890764
:10231000E3E700BFFFF772FCC11B494501D924E088
:102320008146A068C0F381000328F3D125E000BFF7
:10233000FFF764FCC11B494501D916E08146A0683E
:10234000C0F381000228F3D117E000BFFFF756FC6D
:10235000C11B494509D8A06810F00C0FF6D10CE05C
:10236000FFF74CFCC11B494502D90320BDE8F087AB
:10237000A068C0F381000128F2D12878800705D534
:10238000A068A96820F0F0000843A060D8F8001009
:10239000404601F00701B1420BD9016821F0070165
:1023A00031430160006800F00700B04201D0012015
:1023B000DCE72878400705D5A068E96820F4E060EC
:1023C0000843A0602878000706D5A068296920F492
:1023D000605040EAC100A06000F03CF8A168084AE3
:1023E000C1F30311515CC840064908600020FFF7A3
:1023F00017FC0020BAE70000002002400010024055
:102400005C650008EC00002001480068704700008F
:10241000EC0000200448054900688968044AC1F3BB
:102420000221515CC8407047EC00002000100240BF
:102430009C6500080448054900688968044AC1F39E
:10244000C221515CC8407047EC00002000100240DF
:102450009C65000830B52D49002318468A682C4C2D
:1024600012F00C0F4FEA640514D08A68C2F381029F
:10247000032A04D1CA6802F00302012A0AD08A683A
:10248000C2F38102012A19D08A68C2F38102022AAA
:1024900016D016E00A68120704D4D1F89420C2F3CB
:1024A000032202E00A68C2F303121A4B53F82230E7
:1024B0008A6812F00C0F04D1184602E0204600E0B2
:1024C00028468A68C2F38102032A1DD1C868CA68F7
:1024D00000F00300C2F30212521C022804D00328A9
:1024E00005D0B3FBF2F004E0B4FBF2F001E0B5FB81
:1024F000F2F0CA68C968C2F306225043C1F34161D1
:10250000491C4900B0FBF1F030BD00000010024052
:102510000024F4006C6500082DE9F84304460078B7
:10252000FE4DC0065DD5A86810F00C0F0AD0A0695A
:102530000028286871D040F001002860FFF75EFB9A
:10254000064654E02868800702D5A06900287DD09F
:10255000216A2868000703D5286800F0F00004E02D
:10256000D5F89400F02202EA1010814216D90846EC
:1025700002F0A4FA002869D1286840F00800286019
:102580002868216A20F0F000084328606868E16943
:1025900020F47F4040EA0120686015E0286840F0A0
:1025A000080028602868216A20F0F00008432860AD
:1025B0006868E16920F47F4040EA01206860206A91
:1025C00002F07CFA0028D6D1FFF744FFA968D44A6C
:1025D000C1F30311515CC840D24908600020FFF7E5
:1025E0001FFB29E0FFF70AFB801B02287ED8286822
:1025F0008007F7D5286840F0080028602868216A1D
:1026000020F0F000084328606868E16920F47F400A
:1026100040EA012068600FE0FFE720F00100286039
:10262000FFF7ECFA064604E0FFF7E8FA801B022801
:10263000DCD828688007F7D42078C0074AD0A8687B
:10264000C0F3810002281FD0A86800E098E0C0F322
:102650008100032803D1E868C043800714D0606874
:10266000B0F5803F17D0B0F5A02F286817D020F420
:1026700080302860286820F4802028606068E0B1FD
:10268000FFF7BCFA064614E02868800322D560688C
:10269000002875D01EE0286840F48030EDE740F453
:1026A00080202860F7E700BFFFF7A8FA801B6428A6
:1026B0009CD828688003F7D50CE0FFF79FFA064600
:1026C00005E000BFFFF79AFA801B64288ED82868BF
:1026D0008003F7D42078800742D5A868C0F3810032
:1026E000012816D0A868C0F3810000E0A9E0032803
:1026F00004D1E86800F0030002280AD0E06800284E
:1027000028681DD040F480702860FFF777FA0646ED
:102710000BE0286840050BD5E0680028B9D007E039
:10272000FFF76CFA801B0228C2D828684005F7D54D
:102730006868217C20F0F85040EA016068600FE092
:1027400020F480702860FFF759FA064605E000BFC4
:10275000FFF754FA801B022873D828684005F7D485
:102760002078000729D560690028D5F8940013D097
:1027700040F00100C5F89400FFF740FA064606E075
:10278000FBE000BFFFF73AFA801B022859D8D5F8C2
:1027900094008007F6D510E020F00100C5F8940001
:1027A000FFF72CFA064604E0FFF728FA801B022800
:1027B00047D8D5F894008007F6D42078400763D531
:1027C000A86D0026C00008D4A86D40F08050A86510
:1027D000A86D012600F08050009053480168C9059B
:1027E00011D40168804641F480710160FFF706FA58
:1027F000074604E0FFF702FAC01B022821D8D8F8E8
:102800000000C005F6D5A068012815D00528D5F828
:10281000900017D020F00100C5F89000D5F8900086
:1028200020F00400C5F89000A06841F28838C8B1D3
:10283000FFF7E4F9074610E0D5F8900040F00100FA
:10284000F0E777E040F00400C5F89000F4E700BF3F
:10285000FFF7D4F9C11B41456CD8D5F8900080072B
:10286000F6D50CE0FFF7CAF9074604E0FFF7C6F912
:10287000C11B414579D8D5F890008007F6D41EB128
:10288000A86D20F08050A865A06AE0B3A968C1F3E4
:102890008101032972D00228286820F08070286006
:1028A00011D02868000106D42868800003D4E868A5
:1028B00020F00300E860E8681C490840E860FFF782
:1028C0009DF9044654E0FFF799F9064605E000BF7C
:1028D000FFF794F9801B022847D828688001F7D4B5
:1028E000206BE16A000110380843616BA26B09029A
:1028F000120941EA42410843A18F0D4A490802EBFF
:102900004151084300E036E094F8401049081201B4
:1029100002EB41610843E86028680CE000100240C7
:102920005C650008EC00002000700040FFFFEEFE38
:102930000000E0FF19E040F080702860E86840F097
:102940008070E860FFF75AF9044604E0FFF756F993
:10295000001B022809D828688001F7D50BE000BFCA
:10296000FFF74CF9001B022802D90320BDE8F883C9
:1029700028688001F4D40020F8E7FFE70120F5E79C
:102980002DE9F041040005D00025A56294F85D0012
:1029900018B107E00120BDE8F08184F85C502046C2
:1029A00000F044F8022384F85D302068016821F0CB
:1029B00040010160E0684FF4E066B04201D90021B7
:1029C00001E04FF48051B0F5706F02D0B04200D0FA
:1029D000A562276B012227B9B04201D9236300E029
:1029E0002263D4E901031843D4E90436334318437E
:1029F000238B03F400731843E3691843236A1843D5
:102A0000A36A184323681860636B606AA669184359
:102A10000427E36807EA164633431843084321684E
:102A20004860256684F85D200020B4E72DE9F04178
:102A3000234A016800252348022403260527DFF8DE
:102A4000888086B0914215D1016E41F480510166B3
:102A5000006E694600F48050059038208DE8F10042
:102A60004046FEF7E1FF00220D212320FFF738F951
:102A700023201FE0154A91421ED1816D41F480410F
:102A80008165806D694600F48040059004208DE8E2
:102A9000F1000F48FEF7C8FF4FF420408DE8F10029
:102AA00069464046FEF7C0FF00220E212420FFF7B2
:102AB00017F92420FFF708F906B0BDE8F0810000FF
:102AC000003001400010024000040048003800407F
:102AD000000800482DE9F84F044640680026984653
:102AE00017460D464FF0040AB0F5827F01D1A06869
:102AF00090B194F85C00012819D04FF0010B84F8D4
:102B00005CB0FFF77BF8009094F85D004FF000098F
:102B100001280ED002268EE084F85DA013460A46F6
:102B20002046CDF8008000F04DF900F08AB8022070
:102B3000FBE7002D7ED0002F7CD084F85DA0C4F888
:102B400060902564A4F84470A4F84670C4F83890E6
:102B5000A4F83C90A4F83E90C4F84C90C4F850906F
:102B6000E0684FF4E06188422068426802D922F4AC
:102B7000805201E042F480524260A068B0F5004FFC
:102B800004D12068026822F4804202602068026852
:102B9000520603D4026842F040020260E0688842B4
:102BA00019D939E020688168C90708D0007B05F889
:102BB000010BB4F84600401EA4F846000BE0B8F143
:102BC000000F26D0B8F1FF3F05D0FFF717F80099A6
:102BD000411A41451DD2B4F846000028E2D11FE059
:102BE00020688168C90708D0C06825F8020BB4F8CE
:102BF0004600401EA4F846000EE0B8F1000F08D0D1
:102C0000B8F1FF3F08D0FEF7F9FF0099411A41459E
:102C100002D303260FE00DE0B4F846000028DFD110
:102C200041462046009A01F097FF08B12020206617
:102C3000206E00B1012684F85DB084F85C903046C7
:102C400073E718BCBDE8E08F2DE9F84F044690F813
:102C50005C000026984617460D4601280DD04FF01F
:102C6000010A84F85CA0FEF7C9FF834694F85D0072
:102C7000B146012804D002269BE0022000F09FB854
:102C8000002D73D0002F71D0032084F85D00C4F8AC
:102C90006090A563A787E787C4F84090A4F84490A4
:102CA000A4F84690C4F85090C4F84C90A068B0F5D1
:102CB000004F04D12068016841F480410160206820
:102CC0000168490603D4016841F040010160E068F1
:102CD000B0F5E06F606823D910B1E08F01281BD1F7
:102CE000216835F8020BC86006E020688168890712
:102CF00006D535F8021BC160E08F401EE0870BE06F
:102D0000B8F1000F3FD0B8F1FF3F05D0FEF776FFD6
:102D1000A0EB0B01414536D2E08F0028E5D137E02A
:102D200010B1E08F012830D1E08F012804D921684B
:102D300035F8020BC86010E0216815F8010B087324
:102D400011E0E08721E02068816889070FD5E18FD5
:102D5000012905D935F8021BC160E08F801EF0E71C
:102D600015F8011B0173E08F401EEAE720E0B8F17F
:102D7000000F08D0B8F1FF3F07D0FEF73FFFA0EBF0
:102D80000B01414501D3032613E0E08F0028DAD17F
:102D90005A464146204601F019FF08B1202020661E
:102DA000A06818B92068C16880680090206E00B1E2
:102DB000012684F85DA084F85C9030465EE718BC7C
:102DC000BDE8E08F2DE9F05F044690F85C00002636
:102DD0000A9F994692460D464FF0010801280ED0F1
:102DE000012084F85C00FEF709FF834694F85D003B
:102DF000616801280CD0B1F5827F07D102E0022082
:102E000000F0FBB8A16809B9042801D00226ECE063
:102E10004DB3BAF1000F26D0B9F1000F23D094F8CA
:102E20005D00042802D0052084F85D0000202066A3
:102E3000C4F840A0A4F84690A4F84490A563A4F870
:102E40003E90A4F83C90E0642065E0684FF4E061B7
:102E5000884203D8B4F84600012806D920684268A1
:102E600022F4805205E00126BFE02068426842F467
:102E70008052426020680268520603D4026842F021
:102E800040020260E068884260683DD910B1E08F7E
:102E9000012831D1216835F8020BC860E08F401E4F
:102EA000E08729E0B8F1000F0DD0E08F58B120681D
:102EB0008168890707D535F8021BC160E08F401E85
:102EC000E0874FF00008B4F8460068B120688168D8
:102ED000C90709D0C0682AF8020BB4F84600401EA2
:102EE000A4F846004FF00108781C05D0FEF786FED6
:102EF000A0EB0B00B84266D2E08F0028D2D1B4F824
:102F000046000028CED167E010B1E08F01285CD1E7
:102F1000E08F012806D9216835F8020BC860E08FE0
:102F2000801E05E0216815F8010B0873E08F401E34
:102F3000E0874AE0B8F1000F16D0E08FA0B120681A
:102F40008168890710D5E18F012905D935F8021B61
:102F5000C160E08F801E04E015F8011B0173E08F53
:102F6000401EE0874FF00008B4F8460018B3206810
:102F70008168C9071FD0B4F84610012911D9C0686B
:102F80002AF8020BB4F84600801EA4F84600B4F8F4
:102F9000460001280DD82068416841F48051416005
:102FA00007E0017B0AF8011BB4F84600401EA4F8B4
:102FB00046004FF00108781C07D0FEF71FFEA0EB7B
:102FC0000B00B84201D303260FE0E08F0028B1D1F7
:102FD000B4F846000028ADD15A463946204601F0E3
:102FE000F5FD10B1012620202066012084F85D0047
:102FF000002084F85C00304602E730BCBDE8C09F8A
:103000004FF0E0210428086903D020F00400086193
:10301000704740F00400FAE710B5401EB0F1807F21
:1030200001D3012010BD4FF0E02460610F21601733
:1030300001F04AFB0020A06107202061002010BDA4
:1030400010B5040003D094F8710010B107E001201E
:1030500010BD002084F87000204600F027F82420DE
:1030600084F871002068016821F0010101602046A8
:1030700002F034F80128EBD0606A10B1204601F06C
:103080009BFF2068416821F490414160206881687D
:1030900021F02A0181602068016841F0010101608E
:1030A0002046BDE8104001F0EBBF00002DE9F041E3
:1030B0000746454B0168002444480325022686B094
:1030C0004FF090424FF0800899422AD1816D41F42F
:1030D00000218165806D029400F400200590CDE907
:1030E00000560820CDE9035069461046FEF79CFCC7
:1030F000384D37482860C5E90164C5E903486C616B
:10310000AC61EC6128462C62FEF72EFC20B140F247
:10311000BD1131A002F079F9FD66AF6206B0BDE8DD
:10312000F081344B0727994219D1016E41F4804157
:103130000166006E02AA00F4804005905815CDE9A2
:10314000000682E8B00069462B48FEF76DFC02AA33
:10315000694682E8B000CDE90086284831E0284B76
:1031600099421AD1816D41F400318165806D02ABC5
:1031700000F4003005900C20CDE9000683E8B00093
:1031800069461046FEF750FC002207212620FEF774
:10319000A7FD2620FEF798FDC0E71A4A9142BDD14F
:1031A000816D41F480218165806D02AA00F4802048
:1031B00005904FF44060CDE9000682E8B000694612
:1031C0001148FEF731FCA9E7004C00400010024016
:1031D00058040240A00700202E2E2F5372632F7335
:1031E000746D33326C3478785F68616C5F6D7370C6
:1031F0002E63000000380140001800480004004819
:103200000044004000480040000800482DE9F84311
:10321000044690F871001F4616460D4620284BD1F3
:10322000C5B1BEB194F87000012845D0012084F8E2
:1032300070004FF00008C4F87480212084F87100F9
:10324000FEF7DCFCA4F850608146A4F852604FF40D
:10325000805615E00120BDE8F8838021204602F069
:103260008DF8D8B9A068B04201D12069C0B115F875
:10327000010B21680885B4F85200401EA4F85200E2
:10328000B4F852004B464FF0000200970028E4D1FA
:103290004FF04001204602F071F830B10320DAE728
:1032A00035F8020BC0F30800E3E7202084F8710032
:1032B00084F870800020CEE70220CCE7FEE700EB28
:1032C0008100006E00F0F84070478068C0F3800015
:1032D00070478068C0F38000704770B54FF000748D
:1032E00001F0007394FAA4F4B4FA84F4E3404FF0CC
:1032F000F87494FAA4F501F0F871B5FA85F500EBCD
:10330000830021FA05F50726AE4094FAA4F4436938
:10331000B4FA84F4E140B3438A401343436170BD7F
:1033200000EB8100016E21F00041114301667047FE
:10333000044908B5CA6C0243CA64C96C01400091D3
:1033400008BD000000100240044908B58A6D024320
:103350008A65896D0140009108BD0000001002409F
:10336000F0B50A68032492FAA2F2B2FA82F30F25AA
:103370007EE0324601269E40324078D0D1F804E00B
:10338000066892FAA2F7B7FA87F74FEA470C04FAF1
:103390000CF7BE4392FAA2F7B7FA87F77F000EFA4E
:1033A00007FE46EA0E0606604E68012E01D0022E88
:1033B00015D1D1F808E0866892FAA2F7B7FA87F734
:1033C0004FEA470C04FA0CF7BE4392FAA2F7B7FA99
:1033D00087F77F000EFA07FE46EA0E068660D1F8F0
:1033E00010C0C66892FAA2F7B7FA87F77F0004FA0E
:1033F00007FE92FAA2F7B7FA87F77F0026EA0E06D1
:103400000CFA07FC46EA0C06C6604E68022E2ED166
:1034100092FAA2F6B6FA86F6082E4E6913D2076A19
:1034200092FAA2FCBCFA8CFC4FEA8C0C05FA0CFC5C
:1034300092FAA2F2B2FA82F2920027EA0C079640C0
:103440003743076213E0476A120A92FAA2FCBCFAF9
:103450008CFC4FEA8C0C05FA0CFC92FAA2F2B2FA40
:1034600082F2920027EA0C079640374347625B1CC2
:103470000A681646DA407FF47CAF4A68012A01D018
:10348000022A07D1CB6841683246914306FB03F21A
:10349000114341600120F0BD354808B5016E41F08F
:1034A00001010166016E01F001010091816D41F0A1
:1034B00080518165806D2F4900F080500090086830
:1034C0004FF6FF0210402C4A40F440701043086051
:1034D00001F0E2F80022114601F0C5F801466FF054
:1034E0000B0001F0E1F801F0D7F80022114601F0DD
:1034F000BAF801466FF00A0001F0D6F801F0CCF8F6
:103500000022114601F0AFF801466FF0090001F00A
:10351000CBF801F0C1F80022114601F0A4F80146F1
:103520006FF0040001F0C0F801F0B6F80022114677
:1035300001F099F801466FF0030001F0B5F801F0D1
:10354000ABF80022114601F08EF801466FF0010041
:1035500001F0AAF801F0A0F80022114601F083F86A
:103560000146BDE808404FF0FF3001F09DB8000073
:10357000001002400CED00E00000FA054FF47A71F3
:10358000B0FBF1F14FF0E020491E41610021816163
:10359000052101617047000070B500241F49204DCE
:1035A0004FF40046C02803D0B0F5407F1CD019E08E
:1035B000D1F8880000F0C00040F440004038B0F579
:1035C000400027D0402804D080281CD106E00446C3
:1035D00008E000F083F828B12C4603E000F086F8FC
:1035E00000B13446204670BDD1F888000D4900F482
:1035F000407040F0407040180CD0B0F5807FE8D0AB
:10360000B0F5007FEAD001F0D9F901F0ADF901F091
:10361000B9F9DCE701F0D2F9D9E700000010024067
:103620000024F40000FFFFFC70B5002429492A4D56
:103630004FF40046032804D00C281AD030282FD08D
:1036400040E0D1F888006FF4403100F0030040F40E
:10365000403040180AD0012836D002282ED001F080
:10366000ADF901F081F901F09BF917E001F0A6F93D
:1036700014E0D1F8880000F00C0040F44020001F56
:10368000B0F54020F2D004281ED0082816D000BF84
:1036900001F094F901F068F901F074F9044611E0C1
:1036A000D1F8880000F0300040F440101038B0F538
:1036B0004010DBD0102807D02028E9D100F016F800
:1036C00000B13446204670BD00F008F80028F9D05B
:1036D0002C46F7E7001002400024F400024800687E
:1036E000C0F3802070470000001002400248D0F86C
:1036F0009000C0F34000704700100240024800688C
:1037000000F0F00070470000001002400248D0F8BE
:10371000940000F470607047001002400248006896
:10372000C0F3C00070470000001002400248C068AB
:1037300000F0700070470000001002400248C068AE
:1037400000F00300704700000010024001490860CB
:1037500070470000EC00002070B5044600680D467C
:10376000002610F0010F42D1E9686868AA69084391
:103770002969114308432168254A11400843206004
:10378000A868616821F44051014361606869A168DB
:1037900021F440710143A1601E48844201D10320FD
:1037A00008E01D48844201D10C2003E01B488442FC
:1037B00003D13020FFF738FF0BE01948844201D1D4
:1037C000C02004E01748844211D14FF44070FFF745
:1037D000E3FE60B1296851B1AA690126B2F5004F34
:1037E00007D000EB5100B0FBF1F080B2E060304652
:1037F00070BD400000EB5100B0FBF1F081B24FF61C
:10380000F07201EA0200C1F342010843EEE7000052
:10381000F369FFEF003801400044004000480040D9
:10382000004C00400050004008B54FF0E0210A690C
:103830000092421C00D0401C0A69D20300D5401EF1
:103840000028F9D108BD000030B591B001208DF8F5
:103850003C0014216846FCF7EEFC142105A8FCF797
:10386000EAFC14210AA8FCF7E6FC80216B2000F09A
:1038700095FC6420FFF7D8FF03216B2000F08EFC3D
:103880000120FFF7D1FF1021372000F087FC012035
:10389000FFF7CAFF0021382000F080FC0120FFF76D
:1038A000C3FFC0216C2000F079FC0120FFF7BCFFB2
:1038B0000721192000F072FC0120FFF7B5FF10214D
:1038C0001B2000F06BFC0120FFF7AEFF00211C2045
:1038D00000F064FC0120FFF7A7FF1D2000F020FC92
:1038E00040F003040120FFF79FFF21461D2000F058
:1038F00055FC0120FFF798FF03211A2000F04EFC31
:103900000120FFF791FF6A2000F00AFC0446012025
:10391000FFF78AFF44F010016A2000F03FFC01200D
:10392000FFF782FF6A2000F0FBFB04460120FFF74F
:103930007BFF44F020016A2000F030FC0120FFF7FB
:1039400073FF372000F0ECFB04460120FFF76CFF0B
:1039500004F0FD01372000F021FC0120FFF764FF97
:1039600001220B210C2000F02EFA0220FFF75CFF51
:1039700010220A210C2000F026FA0120FFF754FF44
:103980001F220A210C2000F01EFA0120FFF74CFF35
:103990000FAA0A210C2000F085F90120FFF744FF4F
:1039A000924D1C2289A1284602F0B0FD1FE00122A1
:1039B0000B210C2000F007FA0220FFF735FF102240
:1039C0000A210C2000F0FFF90120FFF72DFF1F2234
:1039D0000A210C2000F0F7F90120FFF725FF0FAABC
:1039E0000A210C2000F05EF90120FFF71DFF9DF871
:1039F0003C001F28DBD11C227DA1284602F086FD59
:103A0000834B032210210C2000F08EF90A20FFF7CF
:103A10000BFF7F4C211D227802F180000880607826
:103A200080304880A078803088807AA1684601F094
:103A3000FDFC627877A105A801F0F8FCA27875A1D9
:103A40000AA801F0F3FC0B2273A1284602F05EFDE8
:103A50006846FCF70DFC82B26946284602F056FD26
:103A6000012270A1284602F051FD05A8FCF700FCD8
:103A700082B205A9284602F049FD012269A1284623
:103A800002F044FD0AA8FCF7F3FB82B20AA928461B
:103A900002F03CFD012263A1284602F037FD02221C
:103AA00061A1284602F032FD0120FFF7BDFE012290
:103AB0000B210C2000F087F90120FFF7B5FE0FAABB
:103AC0000A210C2000F0EEF80220FFF7ADFE1022D4
:103AD00056A1284602F01AFD0FE001220B210C200E
:103AE00000F071F90220FFF79FFE0FAA0A210C20B7
:103AF00000F0D8F80120FFF797FE9DF83C00002861
:103B0000EBD110224EA1284602F000FD10220A211E
:103B10000C2000F058F90120FFF786FE0FAA0A21B9
:103B20000C2000F0BFF80120FFF77EFE162249A10D
:103B3000284602F0EBFC07E010220A210C2000F0DE
:103B400042F90120FFF770FE9DF83C001028F3D1E8
:103B50001E2246A1284602F0D9FC5D21242000F057
:103B60001DFB0120FFF760FE8C21252000F016FBD5
:103B70000120FFF759FE0221262000F00FFB012053
:103B8000FFF752FE8821272000F008FB0120FFF7F5
:103B90004BFE0921342000F001FB0120FFF744FE19
:103BA0008121672000F0FAFA6420FFF73DFE00F063
:103BB00055F9752000F0B4FA712804D1152233A10B
:103BC000284602F0A3FC11B030BD0000B5C8B4FD1A
:103BD000C9E8D6C3B4C5C1A6BCC646555345205294
:103BE0004F4DC4A3CABD0D0A0000000000480040AC
:103BF000C9E8D6C3B4C5C1A6BCC646555345205274
:103C00004F4DC4A3CABDB3C9B9A60D0A0000000038
:103C10005000002025750000726573706F6E73652B
:103C20003A0D0A00090000000D0A0000B5C8B4FDF5
:103C3000B4C5C1A6BCC6B8B4CEBB0D0A0000000016
:103C4000B4C5C1A6BCC6B8B4CEBBB3C9B9A60D0A2B
:103C500000000000B5C8B4FDB4C5C1A6BCC6504F35
:103C600057455220444F574E0D0A0000C9E8D6C3AD
:103C7000B4C5C1A6BCC6504F57455220444F574EFD
:103C8000C4A3CABDB3C9B9A60D0A0000B6C1C8A174
:103C90004D50553635303020494420B3C9B9A60DB2
:103CA0000A00000077B5054681B0002016468DF861
:103CB0000000044602AA0121322000F087FA012008
:103CC000FFF7B2FD45F080008DF8080002AA01213F
:103CD000312000F07BFA0120FFF7A6FD80208DF84F
:103CE000080002AA0121342000F070FA0120FFF739
:103CF0009BFD2046641C322803D96FF0010004B0FC
:103D000070BD6A460121362000F024FA0120FFF739
:103D10008BFD9DF800004006EBD532460121352091
:103D200000F018FA0020EAE72DE9FC41002440F0F9
:103D3000800016460F468DF8000098468DF8044026
:103D400025466A460121312000F040FA0120FFF7A4
:103D50006BFD34E038198DF800006A4601213220ED
:103D600000F034FA0120FFF75FFD80208DF800009D
:103D70006A460121342000F029FA0120FFF754FDA2
:103D800028466D1C322803D96FF00100BDE8FC8184
:103D900001AA0121362000F0DDF90220FFF744FDE1
:103DA0009DF804004006EBD508EB04020121352004
:103DB00000F0D0F90120FFF737FD641CE4B2B442F3
:103DC000C8D30020E2E77CB515460E4600248DF8E6
:103DD00000008DF804406A460121312000F0F6F918
:103DE0000120FFF721FD8DF800606A460121322095
:103DF00000F0ECF90120FFF717FD8DF800506A463E
:103E00000121332000F0E2F90120FFF70DFD8020B1
:103E10008DF800006A460121342000F0D7F9012016
:103E2000FFF702FD2046641C322802D96FF0010022
:103E30007CBD01AA0121362000F08CF90120FFF79A
:103E4000F3FC9DF804004006ECD59DF80400C00684
:103E500002D56FF002007CBD00207CBD2DE9F04151
:103E6000154F164D00264FF04308002408EB440080
:103E700007EB4402C0B20023022100F0CBFE55F84C
:103E8000240037F91410084445F82400641CE4B2F7
:103E9000032CEBD3761CF6B20A2EE6D300200A21BF
:103EA00055F8202092FBF1F245F82020401CC0B2CA
:103EB0000328F5D3BDE8F0811A000020CC030020D0
:103EC000F0B5B5B01546142117A8FCF7B4F91421C4
:103ED0001CA8FCF7B0F9142121A8FCF7ACF91421B7
:103EE00026A8FCF7A8F914212BA8FCF7A4F91421A3
:103EF00030A8FCF7A0F9142108A8FCF79CF91421BC
:103F00000DA8FCF798F9142112A8FCF794F90921DF
:103F1000342000F043F90120FFF786FC812167205F
:103F200000F03CF96420FFF77FFC01220B210C20FC
:103F3000FFF749FF0120FFF777FC6A460A210C20B2
:103F4000FFF7B0FE0120FFF76FFC664E14E0012280
:103F50000B210C20FFF737FF0120FFF765FC6A46B5
:103F60000A210C20FFF79EFE0120FFF75DFC1022C6
:103F70005DA1304602F0CAFA9DF800000028E6D1A3
:103F80000120FFF751FC10220A210C20FFF71BFF34
:103F90000120FFF749FC6A460A210C20FFF782FE48
:103FA0000120FFF741FC0CE010220A210C20FFF752
:103FB0000AFF0120FFF738FC162250A1304602F01C
:103FC000A5FA9DF800001028EED111220A210C203C
:103FD000FFF7F9FE0120FFF727FC6A4602210C20BB
:103FE000FFF760FE0120FFF71FFC9DF8000000288E
:103FF000F3D0002401AFE01C3A19C1B20C200F32FB
:10400000FFF750FE0120FFF70FFC641C062CF2DBCB
:10401000BDF913202A80BDF815006880BDF817008F
:10402000A8803CA108A801F001FAB5F9022039A145
:104030000DA801F0FBF9B5F9042036A112A801F092
:10404000F5F908A8FCF714F982B208A9304602F085
:104050005DFA012230A1304602F058FA0DA8FCF7B3
:1040600007F982B20DA9304602F050FA01222AA1C6
:10407000304602F04BFA12A8FCF7FAF882B212A905
:10408000304602F043FA022221A1304602F03EFA05
:1040900008A8FCF7EDF8214C82B208A9204602F0EE
:1040A00035FA01221CA1204602F030FA0DA8FCF7D7
:1040B000DFF882B20DA9204602F028FA012216A1EB
:1040C000204602F023FA12A8FCF7D2F882B212A915
:1040D000204602F01BFA02220DA1204602F016FA39
:1040E00035B0F0BD00480040B4C5C1A6BCC6B8B4E8
:1040F000CEBBCAA7B0DC0D0A00000000B4C5C1A643
:10410000BCC6504F57455220444F574ECAA7B0DC4B
:104110000D0A00002564000020000000004C004053
:1041200070B50B4E05460024224640213046FDF76F
:1041300060FD45F0800000F0FFFC204600F0FCFC34
:104140000446012240213046FDF753FD204670BD54
:10415000000400482DE9F0470024DFF83C901746A2
:104160000D4680462646224640214846FDF741FD41
:1041700048F0800000F0E0FC04E0304600F0DCFC99
:104180003855641CAC42F8D34846BDE8F0470122DC
:104190004021FDF72EBD00000004004870B50A4C18
:1041A0000E460546002240212046FDF722FD284606
:1041B00000F0C2FC304600F0BFFC2046BDE8704075
:1041C00001224021FDF715BD000400482DE9F04112
:1041D000DFF8308016460D4607460024224640216F
:1041E0004046FDF706FD384601E0305D641C00F0F6
:1041F000A3FCAC42F9D34046BDE8F0410122402186
:10420000FDF7F7BC0004004830B5204889B01E49CE
:1042100001604FF440210024C0E901140425C4606A
:10422000C0E9044501218461C0E907414462C462D8
:10423000046344638463C463FDF702FA18B14E213A
:1042400013A001F0E2F806A910480694FCF728FF35
:1042500018B156210EA001F0D8F8114800900620A0
:104260000190022002907F200594CDE90305694664
:104270000648FCF78DFF002803D0632104A001F05D
:10428000C4F809B030BD00000000045078090020D7
:104290002E2E5C5372635C6164632E630000000029
:1042A000000084CB2DE9F04F5B4C8DB0E06C40F00A
:1042B0000100E064E06C00F001000B90E06C40F065
:1042C0004000E064E06C00F040000B90FDF76CFDF6
:1042D000E06C40F00200E064E06C00F002000B9043
:1042E000E06C40F00400E064E06C00F004000B902F
:1042F000E06C40F08000E064E06C012200F080009F
:104300000B9040214548FDF774FC4FF480694FF055
:10431000904B002249465846FDF76BFC404F002267
:104320004FF460713846FDF764FC012216023146F5
:104330005846FDF75EFC44F2040A00225146374815
:10434000FDF757FC012208213846FDF752FCF00129
:10435000002401258DE8310069465846FDF764FBCD
:104360004FF04008CDE90085CDE9025469462B485D
:10437000FDF75AFBCDF80090CDE901546946584647
:104380000394FDF751FB4FF42270CDE90005CDE910
:10439000025469463846FDF747FBCDE90065CDE993
:1043A000025469465846FDF73FFB0096CDE901549B
:1043B000694638460394FDF737FBCDE9008469462A
:1043C00038460294FDF730FBCDF800A0CDE901544A
:1043D000694612480394FDF727FB2803CDE9000442
:1043E00069460E480294FDF71FFB0120FEF7A0FF6F
:1043F0000420FEF79DFF8020FEF79AFF8020B86220
:10440000CDE906540590089405A938460994FEF7AD
:10441000A7FF0DB000F006B80010024000040048ED
:104420000008004830BCBDE8C08F0000114810B53E
:104430000F4901604FF48271416000214FF4E06246
:10444000C0E902120222026101224261520282612B
:104450000822C0E9072107224162C0E90A1201636C
:104460004163FEF78DFA002800D0FEE710BD000082
:104470000030014034050020114810B50F4901609B
:104480004FF48271416000214FF4E062C0E90212F2
:104490000222026101224261520282610822C0E9C5
:1044A000072107224162C0E90A1201634163FEF756
:1044B00067FA002800D0FEE710BD00000038004079
:1044C0009805002010B58EB04FF40020FEF73CFF99
:1044D00003200221CDE907010024CDE909040820C9
:1044E000CDE90B4007A94FF09040FEF739FF4FF49C
:1044F000E130CDE900040C200294CDE9034005949D
:104500000694094C69462046FFF726F9606820F4B6
:1045100090406060A06820F02A00A060206840F011
:10452000010020600EB010BD004C00400C4810B5DA
:104530000A4901604FF4E1314160002181600C22A1
:10454000C160C0E904128161C16101624162FEF78C
:1045500077FD002800D0FEE710BD000000380140C4
:10456000FC0500200C4810B50A4901604FF4E13108
:104570004160002181600C22C160C0E904128161A8
:10458000C16101624162FEF75BFD002800D0FEE7D9
:1045900010BD0000004400407406002010B58EB02D
:1045A0004FF48020FEF7D0FE4FF4406007900220C9
:1045B000089003200024CDE909040720CDE90B4031
:1045C00007A91048FEF7CCFE4FF4E130CDE9000416
:1045D0000C200294CDE90340059406940A4C6946E8
:1045E0002046FFF7B9F8606820F490406060A0684A
:1045F00020F02A00A060206840F0010020600EB08A
:1046000010BD000000080048004800400D48B7EE0B
:10461000001ADFED0D0A80ED011A80ED021AC0EDDF
:10462000030AC0ED040AC0ED050AC0ED060AC0ED9C
:10463000070AC0ED080AC1EE000A00210170C0EDB2
:10464000090A70472800002000000000FEE77047BC
:1046500000F01F02012191404009800000F1E0209C
:10466000C0F80011704730B500F00703C3F107042C
:10467000042C00D90424181D072801D2002300E0CF
:10468000DB1E012505FA04F0401E084098409D40BD
:104690006D1E1540284330BD02480068C0F302205B
:1046A000704700000CED00E00907090E002806DA4B
:1046B00000F00F0000F1E02080F8141D704700F1B9
:1046C000E02080F8001470470907090E002806DA78
:1046D00000F00F0000F1E02080F8141D704700F199
:1046E000E02080F80014704770472DE9F0419846AB
:1046F00016460F460446069D12E0681C10D02DB1E8
:10470000FDF77CFAA0EB0800A84209D9042084F840
:104710003900E06B40F00100E0630120BDE8F0816A
:1047200020688068384000D00120B042E5D10020E8
:10473000F4E700002DE9F041444C05468846E06866
:104740000026810728680DD0E16801F0030181424D
:1047500016D1A8B1E0686968C0F30210401C884215
:104760000ED120E0012804D0022805D0032807D16B
:1047700008E02168890701E021684905002907DB75
:1047800001265FE02168890302D421684903F5E727
:10479000E1686A686FF00F0321F0730103EB021206
:1047A00011430143E160206820F080602060FDF744
:1047B00025FA074605E000BFFDF720FAC01B0228D6
:1047C00037D820680001F7D4B8F1000F18D0B8F13D
:1047D000010F1ED0287D4FF07E41400801EB406064
:1047E000A96840EA01202169194A11400843206163
:1047F000206840F080602060FDF700FA07461AE06C
:10480000A868E9680002090940EA41402169114AA3
:10481000EBE7288A1049400801EB4050A96840EABC
:10482000012021690D4AE0E7FDF7E8F9C01B0228E5
:1048300001D9032606E020680001F5D52069A969A1
:10484000084320613046BDE8F081000000100240BE
:10485000FF80FFF9FF80FDFF0000E0FFFF809FFF6A
:104860002DE9F0413D4C06468846E0680025810769
:1048700030680DD0E16801F00301814216D1A8B182
:10488000E0687168C0F30210401C88420ED120E03D
:10489000012804D0022805D0032807D108E02168A8
:1048A000890701E021684905002907DB012551E05E
:1048B0002168890302D421684903F5E7E168726839
:1048C0006FF00F0321F0730103EB02121143014358
:1048D000E160206820F080502060FDF78FF90746E6
:1048E00005E000BFFDF78AF9C01B022829D820681F
:1048F0008000F7D4B8F1000F15D0307C4FF07E4126
:10490000400801EB4060B16840EA01206169144A47
:10491000114008436061206840F080502060FDF73E
:104920006DF907460FE0B068F1680002090940EA36
:10493000414061690B4AEBE7FDF760F9C01B0228B3
:1049400001D9032506E020688000F5D5606971690A
:10495000084360612846BDE8F08100000010024075
:10496000FF80FFF9FF80FDFF04498968044A01F0D8
:10497000F0010909515CC840704700000010024076
:104980005C65000804498968044A01F4E06102EBAF
:1049900011210978C8407047001002409C6500084A
:1049A00004498968044A01F4605102EBD121097875
:1049B000C8407047001002409C650008184810B5B8
:1049C0008068184C10F00C0005D004281AD0082874
:1049D0001AD00C281AD0FEF7A1FED8B1FEF79EFE21
:1049E00050B1FEF78BFE09E0FEF788FE02E000BF43
:1049F000FEF78CFE000A02E0FEF788FE000954F87C
:104A0000200010BD084810BD084810BDBDE810408A
:104A100000F00EB8FEF782FE0028E9D0E4E70000BF
:104A2000001002406C6500080024F40000127A00B7
:104A300010B5FEF783FE1D4C012803D002282AD0B2
:104A400003282AD0FEF76AFE28B1FEF767FE48B3B6
:104A5000FEF754FE06E0FEF761FE00B3FEF74EFEE1
:104A6000000A00E0000954F8204000BFFEF75EFE97
:104A7000012101EB1010B4FBF0F20D48C368C068CF
:104A8000C3F306235A4300F0C06001EB50604000BE
:104A9000B2FBF0F010BD074CE8E7074CE6E7FEF785
:104AA00035FEDDE7FEF732FEDCE700006C6500084E
:104AB000001002400024F40000127A00F8B51C4DEA
:104AC00006460024A86DC00002D5FDF775F90DE07B
:104AD000A86D40F08050A865A86D00F0805000904F
:104AE000FDF76AF9A96D21F08051A965B0F5007F45
:104AF00004D0802E07D94FF003040AE0802E08D995
:104B0000A02E01D804E001D1022402E0702E00D1D1
:104B100001240848016821F0070121430160006871
:104B200000F00700A04201D00120F8BD0020F8BD30
:104B3000001002400020024001B582B064200090C5
:104B4000012301AA02A90348FEF73CF99DF80400DD
:104B50000EBD0000340500202DE9F84304464068EE
:104B60004FF48276154689464FF400474FF480682B
:104B7000B04209D1A068B84201D0404504D12068B4
:104B8000016821F0400101604B460022802120464F
:104B9000009500F0ACF880B96068B04214D1A0680C
:104BA000B84201D040450FD14B4600224FF4C061BE
:104BB0002046009500F04CF830B1206E40F0200007
:104BC00020660320BDE8F8830020FBE7F8B5154612
:104BD0000E460B460092044600224FF4C05100F0EE
:104BE00037F888B93346002280212046009500F02E
:104BF0007EF848B9334600224FF4C0612046009544
:104C000000F026F8002804D0206E40F02000206636
:104C10000320F8BD2DE9F041984616460D4607469B
:104C200000240AE007EB0400B8F1000FC0B208D07E
:104C3000FFF776FA3055641CE4B2AC42F2D3BDE81B
:104C4000F081FFF76DFA291B314401F8010CF2E7FE
:104C50002DE9F8431D4617460E4604464FF4C0683A
:104C6000DDF820903CE0464505D127B9007B8DF862
:104C700000009DF80000681C32D02DB1FCF7BEFF8B
:104C8000A0EB0900A8422BD32068416821F0E00185
:104C900041606068B0F5827F0BD1A068B0F5004F2D
:104CA00002D0B0F5806F04D12068016821F0400186
:104CB0000160A06AB0F5005F09D12068016821F4A5
:104CC000005101602068016841F400510160012039
:104CD00084F85D00002084F85C000320BDE8F883C0
:104CE000206881683140B942BDD10020F6E72DE946
:104CF000F0411D4617460E460446DDF8188034E0A4
:104D0000681C32D02DB1FCF779FFA0EB0800A84257
:104D10002BD32068416821F0E00141606068B0F564
:104D2000827F0BD1A068B0F5004F02D0B0F5806F44
:104D300004D12068016821F040010160A06AB0F54B
:104D4000005F09D12068016821F4005101602068EA
:104D5000016841F400510160012084F85D000020E9
:104D600084F85C000320BDE8F0812068806836EAA2
:104D7000000004D00020B842C2D10020F3E7012097
:104D8000F9E77047704700002DE9F043B9B01920EA
:104D900022904FF480304FF0010923900024CDE998
:104DA000289402250326CDF89C90CDE92C56B021FD
:104DB0002A910C274FF00708CDE93085CDE92E97D1
:104DC000329522A8FDF7A8FB00B1FEE70F20CDE940
:104DD000346433903694022133A83794FDF758FA9F
:104DE00000B1FEE74A480F9400904FF080501E90AB
:104DF0000E94109411940011CDE90650C413CDE91E
:104E00000485C00003971B902194CDE90169684691
:104E1000FDF766F800B1FEE72046FCF793FF00B10E
:104E2000FEE7FDF7F1FA4FF47A71B0FBF1F0FEF70F
:104E3000F3F80420FEF7E4F80022551E1146284638
:104E4000FCF74EFF3348016821F0070141F00201F1
:104E50000160006800F00700022800D0FEE72E483D
:104E6000016821F4C06141F4007101602B4C20689D
:104E700040F0010020602068C0F340000028FAD014
:104E8000206840F008002060206820F0F00040F02A
:104E9000B0002060606820F47F406060A06820F06F
:104EA0000300A060A06810F00C0FFBD1A06820F0F8
:104EB000F000A060A06820F4E060A060A06820F48A
:104EC0006050A060164E3046FEF758FB4FF0E020D1
:104ED000016941F0040101613046FEF737FCD4F866
:104EE000880020F03000C4F88800D4F8880020F052
:104EF000C000C4F88800FFF7CFFB00221146FFF77F
:104F0000B2FB01462846FFF7CFFB39B0BDE8F0837E
:104F10000F600200002002400070004000100240BC
:104F2000006CDC020D48016841F4700101600C481E
:104F3000016841F001010160002181600268094BB4
:104F40001A4002608214C260026822F48022026069
:104F500081610249C00380390860704788ED00E034
:104F600000100240FFFFF6EA10B5C8210348FBF726
:104F700062F903490020086010BD0000B00800205D
:104F8000E40000200948C169C1F3C00109B108214A
:104F90000162C169C1F34011002906D0808C054A25
:104FA000034B11685854491C11607047004C004075
:104FB000B0080020E400002090F82410C90706D0B3
:104FC00001684A68836A22F400321A434A6090F802
:104FD0002410890706D501684A68C36A22F4803222
:104FE0001A434A6090F82410490706D501684A68B8
:104FF000036B22F480221A434A6090F824100907B8
:1050000006D501684A68436B22F400421A434A609D
:1050100090F82410C90606D501688A68836B22F4CB
:1050200080521A438A6090F82410890606D50168D8
:105030008A68C36B22F400521A438A6090F82410E5
:10504000490611D501684A68036C22F480121A439C
:105050004A60016CB1F5801F06D101684A68436C53
:1050600022F4C0021A434A6090F82410090606D5BB
:1050700001684A68806C22F4002202434A6070474B
:10508000F8B5002604464667FCF7B8FD05462068DB
:1050900000686FF07E47000708D52B4600224FF4CA
:1050A00000112046009700F069F960B92068006897
:1050B00040070AD52B4600224FF480012046009776
:1050C00000F05CF908B10320F8BD202084F87100DD
:1050D00084F8720084F870600020F8BD2DE9F0417A
:1050E0000446016880682369E669184363691025EE
:1050F000002733431843954A0B68954E33400343CA
:105100000B6020684168E36821F440511943416015
:105110002168A069914201D0236A18438B6823F467
:10512000306303438B608B4B21688B4899420DD1D0
:10513000D0F8880010F0030006D001285AD00228C9
:1051400056D0032859D157E0012556E0834B9942A8
:105150000BD1D0F8880010F00C0047D0042849D0BB
:10516000082845D00C2848D146E07D4B99420BD108
:10517000D0F8880010F0300038D010283AD020281D
:1051800036D0302839D137E0764B99420BD1D0F860
:10519000880010F0C00029D040282BD0802827D0CC
:1051A000C0282AD128E0704B99420ED1D0F888004F
:1051B00010F440701AD0B0F5807F1BD0B0F5007F9E
:1051C00016D0B0F5407F18D116E0914215D1D0F835
:1051D000880010F4406009D0B0F5806F0AD0B0F5B7
:1051E000006F05D0B0F5406F07D105E0002504E061
:1051F000022502E0042500E008255C4B00264FF460
:10520000004091423DD135B1022D07D0042D07D089
:10521000082D10D107E0FDF7FDF803E0184602E085
:10522000FDF718F9A8B3626802EB4201814202D887
:10523000B0EB023F01D9012775E0DFF834815DB1A1
:10524000022D0CD0042D13D0082DF4D150082905BF
:10525000401846F1000105E0FDF7DCF80AE05008CF
:105260004449F5E70023FAF7ABFFA0F5407156E09B
:10527000FDF7F0F86268010E03025008181871413A
:10528000F0E7E1694FF6EF7881422FD1092DD2D2B4
:1052900000E048E0DFE805F00609200523050505E4
:1052A0002600C8E7FDF7B6F801E0FDF7C3F84100B6
:1052B000D4F8040001EB5001B1FBF0F080B2A0F192
:1052C00010014145B7D84FF6F0710140C0F34200DC
:1052D00001432068C16026E027496068EAE7FDF7DE
:1052E000B9F8E4E74FF480316068E3E7092DA2D212
:1052F000DFE805F006091E052205050525009AE7E9
:10530000FDF788F801E0FDF795F80146606801EBCC
:10531000500100BFB1FBF0F080B2A0F11001414597
:1053200089D82168C860266638466666BDE8F0817F
:10533000606803EB5001EDE7FDF78CF8E5E7616885
:1053400000EB5100B0FBF1F0E6E700000080004008
:10535000F369FFEF003801400010024000440040B4
:1053600000480040004C0040005000400024F40081
:10537000FFFC0F00000024F40048E8012DE9F04193
:10538000984617460E460446069D1DE0681C1BD035
:105390002DB1FCF733FCA0EB0800A84214D920681B
:1053A000016821F4D07101602068816821F0010159
:1053B0008160202084F8710084F87200002084F855
:1053C00070000320BDE8F0812068C06936EA000063
:1053D00004D00020B842D9D00020F3E70120F9E73B
:1053E0000648C169C1F34011002906D0808C054AE6
:1053F000034B11685854491C116070470048004025
:10540000E8070020E0000020FEE7FEE70FB4054BB0
:1054100010B503A9044A029800F0F2F810BC5DF838
:1054200014FB0000D1610008F00000200FB4084B0D
:1054300010B504A902AA039800F0E2F8044602A9F4
:10544000002000F077FC204610BC5DF814FB000043
:10545000355D000802E008C8121F08C1002AFAD111
:1054600070477047002001E001C1121F002AFBD1E4
:10547000704700002DE9FF5F82B00021DDE90430B4
:10548000020DDDF840B0034318D044F61050A2F2EC
:10549000FF3242431514119801281FD0A5EB0B00D1
:1054A000401C5FEA000A4FF000064E4FDFF83891CB
:1054B000B046504615D5CAF1000413E011980124F6
:1054C0004AA3012801D16FEA0B010298119AC0E9A1
:1054D0000031C0E9024206B000F08EB8CBF1000006
:1054E000DFE704460021404A491842EB0450CDE969
:1054F000001012E0E00707D032463B4640464946DE
:10550000FAF76CFF8046894632463B4610461946FC
:10551000FAF764FF06460F466410002CEAD1DDE975
:105520000401DDE90023BAF1000F06DAFAF756FFAD
:1055300042464B46FAF752FF05E0FAF7C4FF4246EF
:105540004B46FAF7C0FF04460E460022284BFBF7F5
:105550004BF903D84FF0FF30014607E00022254BFE
:1055600020463146FAF78BFEFBF726F9102409E0B6
:10557000002C0ADB0A220023FAF722FE039B3032BA
:105580001A55641E50EA0102F2D1641C039AC4F158
:1055900011031444119A012A03D0012208430DD1AA
:1055A0000AE0084304D000204FF0110B119072E77D
:1055B000A3EB0B056D1E0DE05B4504DD4FF0000213
:1055C00005F1010504E003DA4FF00002A5F1010541
:1055D000002AECD002981199C0E90231C0E90045D7
:1055E00079E70000000014400000F03F30000000A8
:1055F0000000F0430000E03F30BCBDE8C09F000069
:105600002DE9FF4F95B09B468946064600250FE2DF
:10561000252877D100242746F84A0121059400E087
:10562000044316F8013F203B01FA03F01042F7D182
:1056300030782A2811D06FF02F033078A0F1300293
:10564000092A16D8059A44F0020402EB820203EB01
:1056500042021044761C0590EFE759F8042B05929E
:10566000002A03DA504244F40054059044F0020446
:10567000761C30782E2816D116F8010F44F0040459
:105680002A280DD06FF02F023078A0F13003092BBB
:1056900009D807EB870302EB4303C718761CF3E72F
:1056A00059F8047B761C30786C280FD006DC4C2827
:1056B00017D068280DD06A2814D104E0742810D0BF
:1056C0007A280FD10DE044F400140AE044F4801469
:1056D00001E044F440147278824202D104F580144F
:1056E000761C761C307866280BD013DC582877D0CF
:1056F00009DC002875D04528F6D04628F4D0472884
:105700001AD19DE118E0632835D0642879D0652846
:1057100012D195E1702873D008DC6728F1D0692890
:105720006FD06E280DD06F2806D1B5E073282CD02D
:10573000752875D0782874D05A46179990476D1CF3
:1057400075E1C4F30250022809D003280DD0D9F81E
:10575000001004280DD00D6009F1040967E1D9F8A3
:105760000010EA17C1E90052F6E7D9F800100D80E1
:10577000F2E70D70F0E719F8041B8DF80010002017
:105780008DF80100EA46012003E059F804AB4FF020
:10579000FF3061074FF0000102D40DE008F1010174
:1057A0008846B9420FDA8045F8DB1AF8081000295C
:1057B000F4D108E008F1010188468142FADB1AF8C9
:1057C00008100029F6D105985B46A0EB0807214692
:1057D0003846179A00F097FA284400EB080507E0CE
:1057E0004DE029E10DE01AF8010B5A461799904750
:1057F000B8F10108F7D25B4621463846179A13E103
:1058000042E00A220092C4F302524FF0000A022A38
:1058100008D059F804CB032A4FEAEC710AD00DE006
:1058200029E02AE009F1070121F00702F2E802C1AC
:10583000914609E00FFA8CFC4FEAEC71042A03D17F
:105840004FFA8CFC4FEAEC71002907DA0A46002176
:10585000DCF1000C61EB02012D2202E0220504D5EF
:105860002B228DF80420012203E0E20701D0202240
:10587000F7E7904659E00A2102E010220DE01021DE
:105880004FF0000A00910BE010224FF0000A44F0A4
:1058900004040827009203E008224FF0000A009257
:1058A000C4F30252022A05D059F804CB0021032A7E
:1058B00008D009E009F1070121F00702F2E802C16E
:1058C000914605E01FFA8CFC042A01D10CF0FF0C74
:1058D0004FF00008220728D5702806D0009B83F0DF
:1058E000100353EA0A0305D00EE040228DF804208D
:1058F000012208E05CEA010206D030228DF8042083
:105900008DF8050002229046009B83F0080353EABD
:105910000A030AD15CEA010201D1620705D53022EF
:105920008DF804204FF001087F1E582804D034A0C1
:1059300003900EA802900DE036A0F9E753466046AA
:10594000009AFAF73DFC84460398825C0298401E58
:10595000029002705CEA0100F0D1029806A9081AD0
:1059600000F1200A600702D524F4803400E001270A
:10597000574502DDA7EB0A0000E0002000EB0A011A
:10598000009005984144401A0590E00306D45B4618
:105990002146179A059800F0B6F90544002706E05D
:1059A00001A85A46C05D179990476D1C7F1C47455A
:1059B000F6DBE0030CD55B462146179A059800F00C
:1059C000A2F9054404E030205A46179990476D1C0F
:1059D0000099481E00900029F5DC08E00298029921
:1059E0005A460078491C0291179990476D1CBAF1EC
:1059F0000001AAF1010AF1DC65E1000009280100BB
:105A00003031323334353637383961626364656634
:105A100000000000303132333435363738394142F6
:105A2000434445460000000000F05BF90544761C45
:105A3000307800287FF4ECAD19B0284600F04EB95C
:105A4000620700D4062709F1070222F0070CFCE8E0
:105A50000223E14603F000485FEA080C02D00FF28F
:105A6000702C0DE05FEA045C02D50FF2682C07E0B1
:105A70005FEAC47C02D00FF2602C01E0AFF2700C40
:105A80004FF0FF3823F00043CDF850C065280CD00C
:105A900006DC452809D046281DD047283DD13DE0E9
:105AA000662818D067287ED138E00021112F01DB4D
:105AB000112000E0781CCDE9000106A90EA8FFF72F
:105AC000D9FCDDE90F010E9A03910021009207F144
:105AD000010A04914DE04FF000400097CDE901101C
